{
  "contractName": "ConvertLib",
  "abi": [
    {
      "constant": false,
      "inputs": [
        {
          "name": "x",
          "type": "bytes32"
        }
      ],
      "name": "b32toHexString",
      "outputs": [
        {
          "name": "",
          "type": "string"
        }
      ],
      "payable": false,
      "stateMutability": "nonpayable",
      "type": "function"
    },
    {
      "constant": true,
      "inputs": [
        {
          "name": "_dayMonthYear",
          "type": "bytes32"
        }
      ],
      "name": "toUnixtime",
      "outputs": [
        {
          "name": "unixtime",
          "type": "uint256"
        }
      ],
      "payable": false,
      "stateMutability": "view",
      "type": "function"
    }
  ],
  "bytecode": "0x60606040526101806040519081016040908152600b8252602a6020830152604690820152606560608201526083608082015260a260a082015260c08082015260df60e082015260fe61010082015261011c61012082015261013b61014082015261015961016082015261007690600090600c610087565b50341561008257600080fd5b61013f565b60018301918390821561010d5791602002820160005b838211156100dd57835183826101000a81548161ffff021916908361ffff160217905550926020019260020160208160010104928301926001030261009d565b801561010b5782816101000a81549061ffff02191690556002016020816001010492830192600103026100dd565b505b5061011992915061011d565b5090565b61013c91905b8082111561011957805461ffff19168155600101610123565b90565b61081f8061014e6000396000f30060606040526004361061004b5763ffffffff7c01000000000000000000000000000000000000000000000000000000006000350416638ad46ba08114610050578063bcf599f1146100dd575b600080fd5b341561005b57600080fd5b610066600435610105565b60405160208082528190810183818151815260200191508051906020019080838360005b838110156100a257808201518382015260200161008a565b50505050905090810190601f1680156100cf5780820380516001836020036101000a031916815260200191505b509250505060405180910390f35b34156100e857600080fd5b6100f3600435610214565b60405190815260200160405180910390f35b61010d6107e1565b6101156107e1565b600080600080604080518059106101295750595b818152601f19601f830116810160200160405290509450600093505b6020841015610209576008601f8590030260020a8781151561016357fe5b049250601060ff841604915050601081028203600960ff83161115610189576027820191505b60098160ff161115610199576027015b8160300160f860020a028585600202815181106101b257fe5b906020010190600160f860020a031916908160001a9053508060300160f860020a028585600202600101815181106101e657fe5b906020010190600160f860020a031916908160001a905350600190930192610145565b509295945050505050565b600061021e6107e1565b6102266107e1565b61022e6107e1565b600080600061023c88610518565b9550600260405180591061024d5750595b818152601f19601f83011681016020016040529050945060046040518059106102735750595b818152601f19601f8301168101602001604052905093508560058151811061029757fe5b016020015160f860020a900460f860020a02846000815181106102b657fe5b906020010190600160f860020a031916908160001a905350856006815181106102db57fe5b016020015160f860020a900460f860020a02846001815181106102fa57fe5b906020010190600160f860020a031916908160001a9053508560078151811061031f57fe5b016020015160f860020a900460f860020a028460028151811061033e57fe5b906020010190600160f860020a031916908160001a9053508560088151811061036357fe5b016020015160f860020a900460f860020a028460038151811061038257fe5b906020010190600160f860020a031916908160001a9053506103a384610660565b925085600a815181106103b257fe5b016020015160f860020a900460f860020a02856000815181106103d157fe5b906020010190600160f860020a031916908160001a90535085600b815181106103f657fe5b016020015160f860020a900460f860020a028560018151811061041557fe5b906020010190600160f860020a031916908160001a90535061043685610660565b915085600d8151811061044557fe5b016020015160f860020a900460f860020a028560008151811061046457fe5b906020010190600160f860020a031916908160001a90535085600e8151811061048957fe5b016020015160f860020a900460f860020a02856001815181106104a857fe5b906020010190600160f860020a031916908160001a9053506104c985610660565b90508060006000198401600c81106104dd57fe5b601091828204019190066002029054906101000a900461ffff1661ffff166107b2850361016d02010162015180029650505050505050919050565b6105206107e1565b6105286107e1565b60008060006105356107e1565b60206040518059106105445750595b818152601f19601f83011681016020016040529050945060009350600092505b60208310156105d7576008830260020a870291507fff000000000000000000000000000000000000000000000000000000000000008216156105cc57818585815181106105ad57fe5b906020010190600160f860020a031916908160001a9053506001909301925b600190920191610564565b836040518059106105e55750595b818152601f19601f830116810160200160405290509050600092505b838310156106565784838151811061061557fe5b016020015160f860020a900460f860020a0281848151811061063357fe5b906020010190600160f860020a031916908160001a905350600190920191610601565b9695505050505050565b600061066d826000610673565b92915050565b600061067d6107e1565b5082600080805b83518110156107c4577f30000000000000000000000000000000000000000000000000000000000000008482815181106106ba57fe5b016020015160f860020a900460f860020a02600160f860020a0319161015801561072b57507f390000000000000000000000000000000000000000000000000000000000000084828151811061070c57fe5b016020015160f860020a900460f860020a02600160f860020a03191611155b1561078157811561074a57851515610742576107c4565b600019909501945b600a83029250603084828151811061075e57fe5b016020015160f860020a900460f860020a0260f860020a900403830192506107bc565b83818151811061078d57fe5b016020015160f860020a900460f860020a02600160f860020a031916602e60f860020a0214156107bc57600191505b600101610684565b60008611156107d65785600a0a830292505b509095945050505050565b602060405190810160405260008152905600a165627a7a7230582096495c1d691434286ffd12a2d43ce1b54a74120e2de3bf43bec59dcd8bdbdb890029",
  "source": "/**\n * FlightDelay with Oraclized Underwriting and Payout\n *\n * @description\tConversions\n * @copyright (c) 2017 etherisc GmbH\n * @author Christoph Mussenbrock\n */\n\npragma solidity ^0.4.11;\n\n\ncontract ConvertLib {\n\n    // .. since beginning of the year\n    uint16[12] days_since = [\n        11,\n        42,\n        70,\n        101,\n        131,\n        162,\n        192,\n        223,\n        254,\n        284,\n        315,\n        345\n    ];\n\n    function b32toString(bytes32 x) internal returns (string) {\n        // gas usage: about 1K gas per char.\n        bytes memory bytesString = new bytes(32);\n        uint charCount = 0;\n\n        for (uint j = 0; j < 32; j++) {\n            byte char = byte(bytes32(uint(x) * 2 ** (8 * j)));\n            if (char != 0) {\n                bytesString[charCount] = char;\n                charCount++;\n            }\n        }\n\n        bytes memory bytesStringTrimmed = new bytes(charCount);\n\n        for (j = 0; j < charCount; j++) {\n            bytesStringTrimmed[j] = bytesString[j];\n        }\n\n        return string(bytesStringTrimmed);\n    }\n\n    function b32toHexString(bytes32 x) returns (string) {\n        bytes memory b = new bytes(64);\n        for (uint i = 0; i < 32; i++) {\n            uint8 by = uint8(uint(x) / (2**(8*(31 - i))));\n            uint8 high = by/16;\n            uint8 low = by - 16*high;\n            if (high > 9) {\n                high += 39;\n            }\n            if (low > 9) {\n                low += 39;\n            }\n            b[2*i] = byte(high+48);\n            b[2*i+1] = byte(low+48);\n        }\n\n        return string(b);\n    }\n\n    function parseInt(string _a) internal returns (uint) {\n        return parseInt(_a, 0);\n    }\n\n    // parseInt(parseFloat*10^_b)\n    function parseInt(string _a, uint _b) internal returns (uint) {\n        bytes memory bresult = bytes(_a);\n        uint mint = 0;\n        bool decimals = false;\n        for (uint i = 0; i<bresult.length; i++) {\n            if ((bresult[i] >= 48)&&(bresult[i] <= 57)) {\n                if (decimals) {\n                    if (_b == 0) {\n                        break;\n                    } else {\n                        _b--;\n                    }\n                }\n                mint *= 10;\n                mint += uint(bresult[i]) - 48;\n            } else if (bresult[i] == 46) {\n                decimals = true;\n            }\n        }\n        if (_b > 0) {\n            mint *= 10**_b;\n        }\n        return mint;\n    }\n\n    // the following function yields correct results in the time between 1.3.2016 and 28.02.2020,\n    // so within the validity of the contract its correct.\n    function toUnixtime(bytes32 _dayMonthYear) constant returns (uint unixtime) {\n        // _day_month_year = /dep/2016/09/10\n        bytes memory bDmy = bytes(b32toString(_dayMonthYear));\n        bytes memory temp2 = bytes(new string(2));\n        bytes memory temp4 = bytes(new string(4));\n\n        temp4[0] = bDmy[5];\n        temp4[1] = bDmy[6];\n        temp4[2] = bDmy[7];\n        temp4[3] = bDmy[8];\n        uint year = parseInt(string(temp4));\n\n        temp2[0] = bDmy[10];\n        temp2[1] = bDmy[11];\n        uint month = parseInt(string(temp2));\n\n        temp2[0] = bDmy[13];\n        temp2[1] = bDmy[14];\n        uint day = parseInt(string(temp2));\n\n        unixtime = ((year - 1970) * 365 + days_since[month-1] + day) * 86400;\n    }\n}\n",
  "sourcePath": "/Users/melnikaite/projects/flightDelay/contracts/convertLib.sol",
  "compiler": {
    "name": "solc",
    "version": "0.4.19+commit.c4cbbb05.Emscripten.clang"
  },
  "schemaVersion": "2.0.0",
  "updatedAt": "2018-03-13T09:40:40.004Z"
}