{
  "contractName": "FlightDelayPayout",
  "abi": [
    {
      "constant": false,
      "inputs": [
        {
          "name": "myid",
          "type": "bytes32"
        },
        {
          "name": "result",
          "type": "string"
        }
      ],
      "name": "__callback",
      "outputs": [],
      "payable": false,
      "stateMutability": "nonpayable",
      "type": "function"
    },
    {
      "constant": false,
      "inputs": [],
      "name": "destruct",
      "outputs": [],
      "payable": false,
      "stateMutability": "nonpayable",
      "type": "function"
    },
    {
      "constant": false,
      "inputs": [
        {
          "name": "_queryId",
          "type": "bytes32"
        },
        {
          "name": "_result",
          "type": "string"
        },
        {
          "name": "_proof",
          "type": "bytes"
        }
      ],
      "name": "__callback",
      "outputs": [],
      "payable": false,
      "stateMutability": "nonpayable",
      "type": "function"
    },
    {
      "constant": true,
      "inputs": [],
      "name": "PATCH_VERSION",
      "outputs": [
        {
          "name": "",
          "type": "uint256"
        }
      ],
      "payable": false,
      "stateMutability": "view",
      "type": "function"
    },
    {
      "constant": false,
      "inputs": [
        {
          "name": "_gasPrice",
          "type": "uint256"
        }
      ],
      "name": "setOraclizeGasPrice",
      "outputs": [
        {
          "name": "_success",
          "type": "bool"
        }
      ],
      "payable": false,
      "stateMutability": "nonpayable",
      "type": "function"
    },
    {
      "constant": false,
      "inputs": [
        {
          "name": "_policyId",
          "type": "uint256"
        },
        {
          "name": "_riskId",
          "type": "bytes32"
        },
        {
          "name": "_oraclizeTime",
          "type": "uint256"
        }
      ],
      "name": "schedulePayoutOraclizeCall",
      "outputs": [],
      "payable": false,
      "stateMutability": "nonpayable",
      "type": "function"
    },
    {
      "constant": false,
      "inputs": [
        {
          "name": "x",
          "type": "bytes32"
        }
      ],
      "name": "b32toHexString",
      "outputs": [
        {
          "name": "",
          "type": "string"
        }
      ],
      "payable": false,
      "stateMutability": "nonpayable",
      "type": "function"
    },
    {
      "constant": true,
      "inputs": [
        {
          "name": "_dayMonthYear",
          "type": "bytes32"
        }
      ],
      "name": "toUnixtime",
      "outputs": [
        {
          "name": "unixtime",
          "type": "uint256"
        }
      ],
      "payable": false,
      "stateMutability": "view",
      "type": "function"
    },
    {
      "constant": true,
      "inputs": [],
      "name": "MINOR_VERSION",
      "outputs": [
        {
          "name": "",
          "type": "uint256"
        }
      ],
      "payable": false,
      "stateMutability": "view",
      "type": "function"
    },
    {
      "constant": false,
      "inputs": [],
      "name": "setContracts",
      "outputs": [],
      "payable": false,
      "stateMutability": "nonpayable",
      "type": "function"
    },
    {
      "constant": true,
      "inputs": [],
      "name": "controller",
      "outputs": [
        {
          "name": "",
          "type": "address"
        }
      ],
      "payable": false,
      "stateMutability": "view",
      "type": "function"
    },
    {
      "constant": true,
      "inputs": [],
      "name": "MAJOR_VERSION",
      "outputs": [
        {
          "name": "",
          "type": "uint256"
        }
      ],
      "payable": false,
      "stateMutability": "view",
      "type": "function"
    },
    {
      "inputs": [
        {
          "name": "_controller",
          "type": "address"
        }
      ],
      "payable": false,
      "stateMutability": "nonpayable",
      "type": "constructor"
    },
    {
      "payable": true,
      "stateMutability": "payable",
      "type": "fallback"
    },
    {
      "anonymous": false,
      "inputs": [
        {
          "indexed": false,
          "name": "_policyId",
          "type": "uint256"
        },
        {
          "indexed": false,
          "name": "_customer",
          "type": "address"
        },
        {
          "indexed": false,
          "name": "strCarrierFlightNumber",
          "type": "bytes32"
        },
        {
          "indexed": false,
          "name": "ethPremium",
          "type": "uint256"
        }
      ],
      "name": "LogPolicyApplied",
      "type": "event"
    },
    {
      "anonymous": false,
      "inputs": [
        {
          "indexed": false,
          "name": "_policyId",
          "type": "uint256"
        },
        {
          "indexed": false,
          "name": "_statistics0",
          "type": "uint256"
        },
        {
          "indexed": false,
          "name": "_statistics1",
          "type": "uint256"
        },
        {
          "indexed": false,
          "name": "_statistics2",
          "type": "uint256"
        },
        {
          "indexed": false,
          "name": "_statistics3",
          "type": "uint256"
        },
        {
          "indexed": false,
          "name": "_statistics4",
          "type": "uint256"
        },
        {
          "indexed": false,
          "name": "_statistics5",
          "type": "uint256"
        }
      ],
      "name": "LogPolicyAccepted",
      "type": "event"
    },
    {
      "anonymous": false,
      "inputs": [
        {
          "indexed": false,
          "name": "_policyId",
          "type": "uint256"
        },
        {
          "indexed": false,
          "name": "ethAmount",
          "type": "uint256"
        }
      ],
      "name": "LogPolicyPaidOut",
      "type": "event"
    },
    {
      "anonymous": false,
      "inputs": [
        {
          "indexed": false,
          "name": "_policyId",
          "type": "uint256"
        }
      ],
      "name": "LogPolicyExpired",
      "type": "event"
    },
    {
      "anonymous": false,
      "inputs": [
        {
          "indexed": false,
          "name": "_policyId",
          "type": "uint256"
        },
        {
          "indexed": false,
          "name": "strReason",
          "type": "bytes32"
        }
      ],
      "name": "LogPolicyDeclined",
      "type": "event"
    },
    {
      "anonymous": false,
      "inputs": [
        {
          "indexed": false,
          "name": "_policyId",
          "type": "uint256"
        },
        {
          "indexed": false,
          "name": "strReason",
          "type": "bytes32"
        }
      ],
      "name": "LogPolicyManualPayout",
      "type": "event"
    },
    {
      "anonymous": false,
      "inputs": [
        {
          "indexed": false,
          "name": "_recipient",
          "type": "address"
        },
        {
          "indexed": false,
          "name": "_from",
          "type": "uint8"
        },
        {
          "indexed": false,
          "name": "ethAmount",
          "type": "uint256"
        }
      ],
      "name": "LogSendFunds",
      "type": "event"
    },
    {
      "anonymous": false,
      "inputs": [
        {
          "indexed": false,
          "name": "_sender",
          "type": "address"
        },
        {
          "indexed": false,
          "name": "_to",
          "type": "uint8"
        },
        {
          "indexed": false,
          "name": "ethAmount",
          "type": "uint256"
        }
      ],
      "name": "LogReceiveFunds",
      "type": "event"
    },
    {
      "anonymous": false,
      "inputs": [
        {
          "indexed": false,
          "name": "_policyId",
          "type": "uint256"
        },
        {
          "indexed": false,
          "name": "strReason",
          "type": "bytes32"
        }
      ],
      "name": "LogSendFail",
      "type": "event"
    },
    {
      "anonymous": false,
      "inputs": [
        {
          "indexed": false,
          "name": "_policyId",
          "type": "uint256"
        },
        {
          "indexed": false,
          "name": "hexQueryId",
          "type": "bytes32"
        },
        {
          "indexed": false,
          "name": "_oraclizeUrl",
          "type": "string"
        },
        {
          "indexed": false,
          "name": "_oraclizeTime",
          "type": "uint256"
        }
      ],
      "name": "LogOraclizeCall",
      "type": "event"
    },
    {
      "anonymous": false,
      "inputs": [
        {
          "indexed": false,
          "name": "_policyId",
          "type": "uint256"
        },
        {
          "indexed": false,
          "name": "hexQueryId",
          "type": "bytes32"
        },
        {
          "indexed": false,
          "name": "_result",
          "type": "string"
        },
        {
          "indexed": false,
          "name": "hexProof",
          "type": "bytes"
        }
      ],
      "name": "LogOraclizeCallback",
      "type": "event"
    },
    {
      "anonymous": false,
      "inputs": [
        {
          "indexed": false,
          "name": "_policyId",
          "type": "uint256"
        },
        {
          "indexed": false,
          "name": "_policyState",
          "type": "uint8"
        },
        {
          "indexed": false,
          "name": "_stateTime",
          "type": "uint256"
        },
        {
          "indexed": false,
          "name": "_stateMessage",
          "type": "bytes32"
        }
      ],
      "name": "LogSetState",
      "type": "event"
    },
    {
      "anonymous": false,
      "inputs": [
        {
          "indexed": false,
          "name": "_policyId",
          "type": "uint256"
        },
        {
          "indexed": false,
          "name": "_address",
          "type": "address"
        },
        {
          "indexed": false,
          "name": "_externalId",
          "type": "bytes32"
        }
      ],
      "name": "LogExternal",
      "type": "event"
    }
  ],
  "bytecode": "0x606060405260c0604051908101604090815260008083526020830181905290820152601e606082015260326080820181905260a082015262000046906002906006620006b2565b506101806040519081016040908152600b8252602a6020830152604690820152606560608201526083608082015260a260a082015260c08082015260df60e082015260fe61010082015261011c61012082015261013b610140820152610159610160820152620000bb90600890600c6200074c565b503415620000c857600080fd5b60405160208062003a9b833981016040528080519150620000f9905081640100000000620030656200011e82021704565b506200011763ee6b2800640100000000620021936200014b82021704565b50620008c9565b60008054600160a060020a03909216600160a060020a031992831681179091556001805490921617815590565b600354600160a060020a031615806200018657506003546200018490600160a060020a031664010000000062002701620002b382021704565b155b15620001a857620001a6600064010000000062002705620002b782021704565b505b600354600160a060020a03166338cc48316000604051602001526040518163ffffffff167c0100000000000000000000000000000000000000000000000000000000028152600401602060405180830381600087803b15156200020a57600080fd5b6102c65a03f115156200021c57600080fd5b505050604051805160048054600160a060020a031916600160a060020a03928316179081905516905063ca6ad1e4826040517c010000000000000000000000000000000000000000000000000000000063ffffffff84160281526004810191909152602401600060405180830381600087803b15156200029b57600080fd5b6102c65a03f11515620002ad57600080fd5b50505050565b3b90565b600080620002e7731d3b2638a7cc9f2cb3d298a3da7a90b67e5506ed64010000000062002701620002b382021704565b1115620003695760038054600160a060020a031916731d3b2638a7cc9f2cb3d298a3da7a90b67e5506ed1790556200036060408051908101604052600b81527f6574685f6d61696e6e6574000000000000000000000000000000000000000000602082015264010000000062002f916200069982021704565b50600162000694565b60006200039873c03a2615d5efaf5f49f60b7bb6583eaec212fdf164010000000062002701620002b382021704565b1115620004115760038054600160a060020a03191673c03a2615d5efaf5f49f60b7bb6583eaec212fdf11790556200036060408051908101604052600c81527f6574685f726f707374656e330000000000000000000000000000000000000000602082015264010000000062002f916200069982021704565b60006200044073b7a07bcf2ba2f2703b24c0691b5278999c59ac7e64010000000062002701620002b382021704565b1115620004b95760038054600160a060020a03191673b7a07bcf2ba2f2703b24c0691b5278999c59ac7e1790556200036060408051908101604052600981527f6574685f6b6f76616e0000000000000000000000000000000000000000000000602082015264010000000062002f916200069982021704565b6000620004e873146500cfd35b22e4a392fe0adc06de1a1368ed4864010000000062002701620002b382021704565b1115620005615760038054600160a060020a03191673146500cfd35b22e4a392fe0adc06de1a1368ed481790556200036060408051908101604052600b81527f6574685f72696e6b656279000000000000000000000000000000000000000000602082015264010000000062002f916200069982021704565b600062000590736f485c8bf6fc43ea212e93bbf8ce046c7f1cb47564010000000062002701620002b382021704565b1115620005c6575060038054600160a060020a031916736f485c8bf6fc43ea212e93bbf8ce046c7f1cb475179055600162000694565b6000620005f57320e12a1f859b3feae5fb2a0a32c18f5a65555bbf64010000000062002701620002b382021704565b11156200062b575060038054600160a060020a0319167320e12a1f859b3feae5fb2a0a32c18f5a65555bbf179055600162000694565b60006200065a7351efaf4c8b3c9afbd5ab9f4bbc82784ab6ef8faa64010000000062002701620002b382021704565b111562000690575060038054600160a060020a0319167351efaf4c8b3c9afbd5ab9f4bbc82784ab6ef8faa179055600162000694565b5060005b919050565b6005818051620006ae929160200190620007e5565b5050565b6001830191839082156200073a5791602002820160005b838211156200070957835183826101000a81548160ff021916908360ff1602179055509260200192600101602081600001049283019260010302620006c9565b8015620007385782816101000a81549060ff021916905560010160208160000104928301926001030262000709565b505b506200074892915062000866565b5090565b600183019183908215620007d75791602002820160005b83821115620007a557835183826101000a81548161ffff021916908361ffff160217905550926020019260020160208160010104928301926001030262000763565b8015620007d55782816101000a81549061ffff0219169055600201602081600101049283019260010302620007a5565b505b50620007489291506200088a565b828054600181600116156101000203166002900490600052602060002090601f016020900481019282601f106200082857805160ff191683800117855562000858565b8280016001018555821562000858579182015b82811115620008585782518255916020019190600101906200083b565b5062000748929150620008ac565b6200088791905b808211156200074857805460ff191681556001016200086d565b90565b6200088791905b808211156200074857805461ffff1916815560010162000891565b6200088791905b80821115620007485760008155600101620008b3565b6131c280620008d96000396000f3006060604052600436106100a05763ffffffff60e060020a60003504166327dc297e811461012b5780632b68b9c61461018157806338bbfa50146101945780636bf2606a1461022c57806371c82c1414610251578063746899901461027b5780638ad46ba014610297578063bcf599f114610324578063c8b915311461033a578063e0d6d5301461034d578063f77c479114610360578063f786becd1461038f575b600b54600160a060020a0316633ebd609260663360006040516020015260405160e060020a63ffffffff851602815260ff9092166004830152600160a060020a03166024820152604401602060405180830381600087803b151561010357600080fd5b6102c65a03f1151561011457600080fd5b50505060405180519050151561012957600080fd5b005b341561013657600080fd5b610129600480359060446024803590810190830135806020601f820181900481020160405190810160405281815292919060208401838380828437509496506103a295505050505050565b341561018c57600080fd5b6101296103d4565b341561019f57600080fd5b610129600480359060446024803590810190830135806020601f8201819004810201604051908101604052818152929190602084018383808284378201915050505050509190803590602001908201803590602001908080601f0160208091040260200160405190810160405281815292919060208401838380828437509496506103fd95505050505050565b341561023757600080fd5b61023f610e04565b60405190815260200160405180910390f35b341561025c57600080fd5b610267600435610e09565b604051901515815260200160405180910390f35b341561028657600080fd5b610129600435602435604435610ea5565b34156102a257600080fd5b6102ad6004356111f8565b60405160208082528190810183818151815260200191508051906020019080838360005b838110156102e95780820151838201526020016102d1565b50505050905090810190601f1680156103165780820380516001836020036101000a031916815260200191505b509250505060405180910390f35b341561032f57600080fd5b61023f600435611307565b341561034557600080fd5b61023f61160b565b341561035857600080fd5b610129611610565b341561036b57600080fd5b610373611903565b604051600160a060020a03909116815260200160405180910390f35b341561039a57600080fd5b61023f611912565b6103d0828260006040518059106103b65750595b818152601f19601f830116810160200160405290506103fd565b5050565b60005433600160a060020a039081169116146103ef57600080fd5b600054600160a060020a0316ff5b60008060008061040b612fa4565b600080610416612fa4565b60006104417f46442e456d657267656e63790000000000000000000000000000000000000000611917565b61044961198a565b600160a060020a031633600160a060020a03161480610479575080600160a060020a031633600160a060020a0316145b151561048457600080fd5b600954600160a060020a0316637f205c8c8e60006040516040015260405160e060020a63ffffffff841602815260048101919091526024016040805180830381600087803b15156104d457600080fd5b6102c65a03f115156104e557600080fd5b50505060405180519060200180519050995099507f4e010942cd8d70ef60f3bd7e17c62008722f9551f8f28dc7040004160de7e2cc8a8e8e8e60405184815260208101849052608060408201818152906060830190830185818151815260200191508051906020019080838360005b8381101561056c578082015183820152602001610554565b50505050905090810190601f1680156105995780820380516001836020036101000a031916815260200191505b50838103825284818151815260200191508051906020019080838360005b838110156105cf5780820151838201526020016105b7565b50505050905090810190601f1680156105fc5780820380516001836020036101000a031916815260200191505b50965050505050505060405180910390a1600954600160a060020a03166343f46a5c8b60006040516020015260405160e060020a63ffffffff84160281526004810191909152602401602060405180830381600087803b151561065e57600080fd5b6102c65a03f1151561066f57600080fd5b50505060405180519050975087600681111561068757fe5b60ff1660051415151561069957600080fd5b600954600160a060020a031663eb8073398b60006040516020015260405160e060020a63ffffffff84160281526004810191909152602401602060405180830381600087803b15156106ea57600080fd5b6102c65a03f115156106fb57600080fd5b5050506040518051905096506107108c611aa6565b95508b51151561080f57600954600160a060020a0316639c66452e8e89612a3060006040516020015260405160e060020a63ffffffff8616028152600481019390935260248301919091526044820152606401602060405180830381600087803b151561077c57600080fd5b6102c65a03f1151561078d57600080fd5b50505060405180519050156107fb577fa868cd6faa17ac2172ea3d4f9f7910ca932112bfeb017f45ed09bd881c0540308a6040519081527f4e6f2043616c6c6261636b206174202b313230206d696e00000000000000000060208201526040908101905180910390a1610df5565b61080a8a888b610a8c01610ea5565b610df5565b610874610835604080519081016040526001815260f960020a6011026020820152611aa6565b61086861085b604080519081016040526001815260f960020a6011026020820152611aa6565b899063ffffffff611ace16565b9063ffffffff611b1116565b506108c06108b361089e604080519081016040526001815260f960020a6011026020820152611aa6565b6108a789611b7b565b9063ffffffff611ace16565b879063ffffffff611ba416565b506108ca86611c0b565b6000815181106108d657fe5b016020015160f860020a900460f860020a02945084600160f860020a0319167f430000000000000000000000000000000000000000000000000000000000000014156109295761080a8a60046000611c59565b7f4400000000000000000000000000000000000000000000000000000000000000600160f860020a0319861614156109685761080a8a60056000611c59565b60fa60020a601302600160f860020a03198616148015906109b357507f4100000000000000000000000000000000000000000000000000000000000000600160f860020a0319861614155b80156109e957507f4300000000000000000000000000000000000000000000000000000000000000600160f860020a0319861614155b8015610a1f57507f4400000000000000000000000000000000000000000000000000000000000000600160f860020a0319861614155b15610a83577fa868cd6faa17ac2172ea3d4f9f7910ca932112bfeb017f45ed09bd881c0540308a6040519081527f556e70726f6365737361626c652073746174757300000000000000000000000060208201526040908101905180910390a1610df5565b610a8c8c611aa6565b9550610ada610acd60408051908101604052601181527f61637475616c476174654172726976616c0000000000000000000000000000006020820152611aa6565b879063ffffffff61215a16565b93507f4100000000000000000000000000000000000000000000000000000000000000600160f860020a031986161480610b2d575060fa60020a601302600160f860020a03198616148015610b2d575083155b15610c1357600954600160a060020a0316639c66452e8e89612a3060006040516020015260405160e060020a63ffffffff8616028152600481019390935260248301919091526044820152606401602060405180830381600087803b1515610b9457600080fd5b6102c65a03f11515610ba557600080fd5b50505060405180519050156107fb577fa868cd6faa17ac2172ea3d4f9f7910ca932112bfeb017f45ed09bd881c0540308a6040519081527f4e6f206172726976616c206174202b313830206d696e0000000000000000000060208201526040908101905180910390a161080a565b60fa60020a601302600160f860020a03198616148015610c305750835b15610de957610c7160408051908101604052601b81527f226172726976616c4761746544656c61794d696e75746573223a2000000000006020820152611aa6565b9250610c83868463ffffffff61215a16565b15610d9457610c9c83610868888263ffffffff611ace16565b50610cf56108b3610cc6604080519081016040526001815260f960020a6011026020820152611aa6565b610868610cec604080519081016040526001815260f960020a6011026020820152611aa6565b6108a78b611b7b565b50610d386108b361089e60408051908101604052600181527f7d000000000000000000000000000000000000000000000000000000000000006020820152611aa6565b50610d7b6108b361089e60408051908101604052600181527f2c000000000000000000000000000000000000000000000000000000000000006020820152611aa6565b50610d8d610d8887611c0b565b612180565b9150610d99565b600091505b600f821015610db357610dae8a600080611c59565b61080a565b601e821015610dc857610dae8a600184611c59565b602d821015610ddd57610dae8a600284611c59565b61080a8a600384611c59565b610df58a600080611c59565b50505050505050505050505050565b600281565b600b54600090600160a060020a0316633ebd6092606733846040516020015260405160e060020a63ffffffff851602815260ff9092166004830152600160a060020a03166024820152604401602060405180830381600087803b1515610e6e57600080fd5b6102c65a03f11515610e7f57600080fd5b505050604051805190501515610e9457600080fd5b610e9d82612193565b506001919050565b600080610eb0612fbb565b600b54600090600160a060020a0316633ebd6092606533846040516020015260405160e060020a63ffffffff851602815260ff9092166004830152600160a060020a03166024820152604401602060405180830381600087803b1515610f1557600080fd5b6102c65a03f11515610f2657600080fd5b505050604051805190501515610f3b57600080fd5b600954600160a060020a031663cdcdb4638760006040516060015260405160e060020a63ffffffff84160281526004810191909152602401606060405180830381600087803b1515610f8c57600080fd5b6102c65a03f11515610f9d57600080fd5b50505060405180519060200180519060200180519050509350935061106f608060405190810160405280605481526020017f5b55524c5d206a736f6e2868747470733a2f2f6170692e666c6967687473746181526020017f74732e636f6d2f666c65782f666c696768747374617475732f726573742f763281526020017f2f6a736f6e2f666c696768742f7374617475732f000000000000000000000000815250611047866122a3565b611050866122a3565b61014060405190810160405261010480825261309360208301396123d3565b91506110b38560408051908101604052600681527f6e65737465640000000000000000000000000000000000000000000000000000602082015284620aae606123ff565b600954909150600160a060020a0316632ba1e439828960018960405160e060020a63ffffffff87160281526004810185815260248201859052906044018360018111156110fc57fe5b60ff168152602001828152602001945050505050600060405180830381600087803b151561112957600080fd5b6102c65a03f1151561113a57600080fd5b5050507f57d5927fefa8de5620b57ca7ac0948a9ea457d8f3af2bd8867728325a6ca5d9287828488604051848152602081018490526060810182905260806040820181815290820184818151815260200191508051906020019080838360005b838110156111b257808201518382015260200161119a565b50505050905090810190601f1680156111df5780820380516001836020036101000a031916815260200191505b509550505050505060405180910390a150505050505050565b611200612fbb565b611208612fbb565b6000806000806040805180591061121c5750595b818152601f19601f830116810160200160405290509450600093505b60208410156112fc576008601f8590030260020a8781151561125657fe5b049250601060ff841604915050601081028203600960ff8316111561127c576027820191505b60098160ff16111561128c576027015b8160300160f860020a028585600202815181106112a557fe5b906020010190600160f860020a031916908160001a9053508060300160f860020a028585600202600101815181106112d957fe5b906020010190600160f860020a031916908160001a905350600190930192611238565b509295945050505050565b6000611311612fbb565b611319612fbb565b611321612fbb565b600080600061132f886122a3565b955060026040518059106113405750595b818152601f19601f83011681016020016040529050945060046040518059106113665750595b818152601f19601f8301168101602001604052905093508560058151811061138a57fe5b016020015160f860020a900460f860020a02846000815181106113a957fe5b906020010190600160f860020a031916908160001a905350856006815181106113ce57fe5b016020015160f860020a900460f860020a02846001815181106113ed57fe5b906020010190600160f860020a031916908160001a9053508560078151811061141257fe5b016020015160f860020a900460f860020a028460028151811061143157fe5b906020010190600160f860020a031916908160001a9053508560088151811061145657fe5b016020015160f860020a900460f860020a028460038151811061147557fe5b906020010190600160f860020a031916908160001a90535061149684612180565b925085600a815181106114a557fe5b016020015160f860020a900460f860020a02856000815181106114c457fe5b906020010190600160f860020a031916908160001a90535085600b815181106114e957fe5b016020015160f860020a900460f860020a028560018151811061150857fe5b906020010190600160f860020a031916908160001a90535061152985612180565b915085600d8151811061153857fe5b016020015160f860020a900460f860020a028560008151811061155757fe5b906020010190600160f860020a031916908160001a90535085600e8151811061157c57fe5b016020015160f860020a900460f860020a028560018151811061159b57fe5b906020010190600160f860020a031916908160001a9053506115bc85612180565b90508060086000198401600c81106115d057fe5b601091828204019190066002029054906101000a900461ffff1661ffff166107b2850361016d02010162015180029650505050505050919050565b600081565b60005433600160a060020a0390811691161461162b57600080fd5b6116547f46442e416363657373436f6e74726f6c6c657200000000000000000000000000611917565b600b8054600160a060020a031916600160a060020a039290921691909117905561169d7f46442e4461746162617365000000000000000000000000000000000000000000611917565b60098054600160a060020a031916600160a060020a03929092169190911790556116e67f46442e4c65646765720000000000000000000000000000000000000000000000611917565b600a8054600160a060020a031916600160a060020a03928316179055600b541663c28b4577606560405160e060020a63ffffffff841602815260ff90911660048201527f46442e556e6465727772697465000000000000000000000000000000000000006024820152604401600060405180830381600087803b151561176b57600080fd5b6102c65a03f1151561177c57600080fd5b5050600b54600160a060020a0316905063c3d08f06606561179b61198a565b60405160e060020a63ffffffff851602815260ff9092166004830152600160a060020a03166024820152604401600060405180830381600087803b15156117e157600080fd5b6102c65a03f115156117f257600080fd5b5050600b54600160a060020a0316905063c28b4577606660405160e060020a63ffffffff841602815260ff90911660048201527f46442e46756e64657200000000000000000000000000000000000000000000006024820152604401600060405180830381600087803b151561186757600080fd5b6102c65a03f1151561187857600080fd5b5050600b54600160a060020a0316905063c28b4577606760405160e060020a63ffffffff841602815260ff90911660048201527f46442e4f776e65720000000000000000000000000000000000000000000000006024820152604401600060405180830381600087803b15156118ed57600080fd5b6102c65a03f115156118fe57600080fd5b505050565b600054600160a060020a031681565b600181565b600154600090600160a060020a031663e16c7d9883836040516020015260405160e060020a63ffffffff84160281526004810191909152602401602060405180830381600087803b151561196a57600080fd5b6102c65a03f1151561197b57600080fd5b50505060405180519392505050565b600354600090600160a060020a031615806119b757506003546119b590600160a060020a0316612701565b155b156119c8576119c66000612705565b505b600354600160a060020a03166338cc48316000604051602001526040518163ffffffff1660e060020a028152600401602060405180830381600087803b1515611a1057600080fd5b6102c65a03f11515611a2157600080fd5b505050604051805160048054600160a060020a031916600160a060020a03928316179081905516905063c281d19e6000604051602001526040518163ffffffff1660e060020a028152600401602060405180830381600087803b1515611a8657600080fd5b6102c65a03f11515611a9757600080fd5b50505060405180519150505b90565b611aae612fa4565b602082016040805190810160405280845181526020019190915292915050565b611ad6612fa4565b6000611aee8451856020015185518660200151612a2b565b9050836020015181038481815103905250602084018190528391505b5092915050565b611b19612fa4565b6000825184511015611b2d57839150611b0a565b5060016020830151846020015114611b55578251602085015160208501518290209190201490505b8015611b735782518481815103905250825184602001818151019052505b509192915050565b611b83612fa4565b6040805190810160405280835181526020018360200151905290505b919050565b611bac612fa4565b600080835185511015611bc157849250611c03565b835185518660200151010391506001905083602001518214611bee57835160208501518190209083201490505b8015611bff57835185818151039052505b8492505b505092915050565b611c13612fbb565b611c1b612fbb565b60008351604051805910611c2c5750595b818152601f19601f830116810160200160405290509150602082019050611b0a8185602001518651612ace565b6009546000908190819081908190600160a060020a03166319a0805889898960405160e060020a63ffffffff8616028152600481019390935260ff90911660248301526044820152606401600060405180830381600087803b1515611cbd57600080fd5b6102c65a03f11515611cce57600080fd5b50505060ff87161580611d045750600260ff881660068110611cec57fe5b60208082049092015460ff929091066101000a900416155b15611db357600954600160a060020a031663418cf5b1896004426040518463ffffffff1660e060020a02815260040180848152602001836006811115611d4657fe5b60ff168152602001828152602001807f45787069726564202d206e6f2064656c617921000000000000000000000000008152506020019350505050600060405180830381600087803b1515611d9a57600080fd5b6102c65a03f11515611dab57600080fd5b505050612150565b600954600160a060020a0316637a5402e98960006040516060015260405160e060020a63ffffffff84160281526004810191909152602401606060405180830381600087803b1515611e0457600080fd5b6102c65a03f11515611e1557600080fd5b505050604051805190602001805190602001805190509450945094508360001415611e4057614e2093505b83600260ff891660068110611e5157fe5b602091828204019190069054906101000a900460ff1660ff16840261271002811515611e7957fe5b049150819050670f43fc2c04ee0000821115611e9b57670f43fc2c04ee000091505b600954600160a060020a0316630d4c8f6289838560405160e060020a63ffffffff8616028152600481019390935260248301919091526044820152606401600060405180830381600087803b1515611ef257600080fd5b6102c65a03f11515611f0357600080fd5b5050600a54600160a060020a031690506350bed043866002856000604051602001526040518463ffffffff1660e060020a0281526004018084600160a060020a0316600160a060020a03168152602001836005811115611f5f57fe5b60ff1681526020018281526020019350505050602060405180830381600087803b1515611f8b57600080fd5b6102c65a03f11515611f9c57600080fd5b5050506040518051905015156120aa57600954600160a060020a031663418cf5b1896006426040518463ffffffff1660e060020a02815260040180848152602001836006811115611fe957fe5b60ff168152602001828152602001807f5061796f75742c2073656e64206661696c6564210000000000000000000000008152506020019350505050600060405180830381600087803b151561203d57600080fd5b6102c65a03f1151561204e57600080fd5b5050600954600160a060020a03169050630d4c8f628983600060405160e060020a63ffffffff8616028152600481019390935260248301919091526044820152606401600060405180830381600087803b1515611d9a57600080fd5b600954600160a060020a031663418cf5b1896003426040518463ffffffff1660e060020a028152600401808481526020018360068111156120e757fe5b60ff168152602001828152602001807f5061796f7574207375636365737366756c2100000000000000000000000000008152506020019350505050600060405180830381600087803b151561213b57600080fd5b6102c65a03f1151561214c57600080fd5b5050505b5050505050505050565b600082602001516121778451856020015185518660200151612b13565b14159392505050565b600061218d826000612bb3565b92915050565b600354600160a060020a031615806121bd57506003546121bb90600160a060020a0316612701565b155b156121ce576121cc6000612705565b505b600354600160a060020a03166338cc48316000604051602001526040518163ffffffff1660e060020a028152600401602060405180830381600087803b151561221657600080fd5b6102c65a03f1151561222757600080fd5b505050604051805160048054600160a060020a031916600160a060020a03928316179081905516905063ca6ad1e48260405160e060020a63ffffffff84160281526004810191909152602401600060405180830381600087803b151561228c57600080fd5b6102c65a03f1151561229d57600080fd5b50505050565b6122ab612fbb565b6122b3612fbb565b60008060006122c0612fbb565b60206040518059106122cf5750595b818152601f19601f83011681016020016040529050945060009350600092505b602083101561234a576008830260020a87029150600160f860020a031982161561233f578185858151811061232057fe5b906020010190600160f860020a031916908160001a9053506001909301925b6001909201916122ef565b836040518059106123585750595b818152601f19601f830116810160200160405290509050600092505b838310156123c95784838151811061238857fe5b016020015160f860020a900460f860020a028184815181106123a657fe5b906020010190600160f860020a031916908160001a905350600190920191612374565b9695505050505050565b6123db612fbb565b6123f685858585602060405190810160405260008152612d21565b95945050505050565b6003546000908190600160a060020a0316158061242e575060035461242c90600160a060020a0316612701565b155b1561243f5761243d6000612705565b505b600354600160a060020a03166338cc48316000604051602001526040518163ffffffff1660e060020a028152600401602060405180830381600087803b151561248757600080fd5b6102c65a03f1151561249857600080fd5b505050604051805160048054600160a060020a031916600160a060020a039283161790819055169050632ef3accc86856000604051602001526040518363ffffffff1660e060020a0281526004018080602001838152602001828103825284818151815260200191508051906020019080838360005b8381101561252657808201518382015260200161250e565b50505050905090810190601f1680156125535780820380516001836020036101000a031916815260200191505b509350505050602060405180830381600087803b151561257257600080fd5b6102c65a03f1151561258357600080fd5b5050506040518051915050670de0b6b3a76400003a8402018111156125ab57600091506126f8565b600454600160a060020a031663c51be90f82888888886000604051602001526040518663ffffffff1660e060020a028152600401808581526020018060200180602001848152602001838103835286818151815260200191508051906020019080838360005b83811015612629578082015183820152602001612611565b50505050905090810190601f1680156126565780820380516001836020036101000a031916815260200191505b50838103825285818151815260200191508051906020019080838360005b8381101561268c578082015183820152602001612674565b50505050905090810190601f1680156126b95780820380516001836020036101000a031916815260200191505b5096505050505050506020604051808303818588803b15156126da57600080fd5b6125ee5a03f115156126eb57600080fd5b5050505060405180519250505b50949350505050565b3b90565b600080612725731d3b2638a7cc9f2cb3d298a3da7a90b67e5506ed612701565b11156127955760038054600160a060020a031916731d3b2638a7cc9f2cb3d298a3da7a90b67e5506ed17905561278d60408051908101604052600b81527f6574685f6d61696e6e65740000000000000000000000000000000000000000006020820152612f91565b506001611b9f565b60006127b473c03a2615d5efaf5f49f60b7bb6583eaec212fdf1612701565b111561281c5760038054600160a060020a03191673c03a2615d5efaf5f49f60b7bb6583eaec212fdf117905561278d60408051908101604052600c81527f6574685f726f707374656e3300000000000000000000000000000000000000006020820152612f91565b600061283b73b7a07bcf2ba2f2703b24c0691b5278999c59ac7e612701565b11156128a35760038054600160a060020a03191673b7a07bcf2ba2f2703b24c0691b5278999c59ac7e17905561278d60408051908101604052600981527f6574685f6b6f76616e00000000000000000000000000000000000000000000006020820152612f91565b60006128c273146500cfd35b22e4a392fe0adc06de1a1368ed48612701565b111561292a5760038054600160a060020a03191673146500cfd35b22e4a392fe0adc06de1a1368ed4817905561278d60408051908101604052600b81527f6574685f72696e6b6562790000000000000000000000000000000000000000006020820152612f91565b6000612949736f485c8bf6fc43ea212e93bbf8ce046c7f1cb475612701565b111561297d575060038054600160a060020a031916736f485c8bf6fc43ea212e93bbf8ce046c7f1cb4751790556001611b9f565b600061299c7320e12a1f859b3feae5fb2a0a32c18f5a65555bbf612701565b11156129d0575060038054600160a060020a0319167320e12a1f859b3feae5fb2a0a32c18f5a65555bbf1790556001611b9f565b60006129ef7351efaf4c8b3c9afbd5ab9f4bbc82784ab6ef8faa612701565b1115612a23575060038054600160a060020a0319167351efaf4c8b3c9afbd5ab9f4bbc82784ab6ef8faa1790556001611b9f565b506000919050565b600080808080888711612abc5760208711612a825760018760200360080260020a031980875116888b038a018a96505b818388511614612a77576001870196819010612a5b578b8b0196505b505050839450612ac2565b8686209150879350600092505b8689038311612abc575085832081811415612aac57839450612ac2565b6001938401939290920191612a8f565b88880194505b50505050949350505050565b60005b60208210612af45782518452602084019350602083019250602082039150612ad1565b6001826020036101000a03905080198351168185511617909352505050565b6000808080878611612ba45760208611612b6f5760018660200360080260020a031980865116878a03890194505b808286511614612b6057600019850194899011612b4157889450612b65565b938701935b5050829350612ba8565b8585209150858803870192505b868310612ba4575084822081811415612b99578583019350612ba8565b600183039250612b7c565b8693505b505050949350505050565b6000612bbd612fbb565b5082600080805b8351811015612d04577f3000000000000000000000000000000000000000000000000000000000000000848281518110612bfa57fe5b016020015160f860020a900460f860020a02600160f860020a03191610158015612c6b57507f3900000000000000000000000000000000000000000000000000000000000000848281518110612c4c57fe5b016020015160f860020a900460f860020a02600160f860020a03191611155b15612cc1578115612c8a57851515612c8257612d04565b600019909501945b600a830292506030848281518110612c9e57fe5b016020015160f860020a900460f860020a0260f860020a90040383019250612cfc565b838181518110612ccd57fe5b016020015160f860020a900460f860020a02600160f860020a031916602e60f860020a021415612cfc57600191505b600101612bc4565b6000861115612d165785600a0a830292505b509095945050505050565b612d29612fbb565b612d31612fbb565b612d39612fbb565b612d41612fbb565b612d49612fbb565b612d51612fbb565b612d59612fbb565b612d61612fbb565b6000808e98508d97508c96508b95508a94508451865188518a518c5101010101604051805910612d8e5750595b818152601f19601f83011681016020016040529050935083925060009150600090505b8851811015612e0a57888181518110612dc657fe5b016020015160f860020a900460f860020a02838380600101945081518110612dea57fe5b906020010190600160f860020a031916908160001a905350600101612db1565b5060005b8751811015612e6757878181518110612e2357fe5b016020015160f860020a900460f860020a02838380600101945081518110612e4757fe5b906020010190600160f860020a031916908160001a905350600101612e0e565b5060005b8651811015612ec457868181518110612e8057fe5b016020015160f860020a900460f860020a02838380600101945081518110612ea457fe5b906020010190600160f860020a031916908160001a905350600101612e6b565b5060005b8551811015612f2157858181518110612edd57fe5b016020015160f860020a900460f860020a02838380600101945081518110612f0157fe5b906020010190600160f860020a031916908160001a905350600101612ec8565b5060005b8451811015612f7e57848181518110612f3a57fe5b016020015160f860020a900460f860020a02838380600101945081518110612f5e57fe5b906020010190600160f860020a031916908160001a905350600101612f25565b50909d9c50505050505050505050505050565b60058180516103d0929160200190612fcd565b604080519081016040526000808252602082015290565b60206040519081016040526000815290565b828054600181600116156101000203166002900490600052602060002090601f016020900481019282601f1061300e57805160ff191683800117855561303b565b8280016001018555821561303b579182015b8281111561303b578251825591602001919060010190613020565b5061304792915061304b565b5090565b611aa391905b808211156130475760008155600101613051565b60008054600160a060020a03909216600160a060020a03199283168117909155600180549092161781559056003f247b5b646563727970745d20424b63392b734d537670752f703371556a6475305172486c6951704e796c686f516d48714c2f386d512f6a4b66736637776449697777644d697a703575364c6f50387249764768526645636a4b3153676f74514447467177732f352b39533944354f58644550586e6b45736a515a4a737975387568525257672f3051535350364c5950324f4e5551633932516e63474a62504344784f6366336c47694e5272687a6e48666a4657376e2b6c777a346d56784e37367d267574633d74727565292e666c6967687453746174757365735b305d5b27737461747573272c2764656c617973272c276f7065726174696f6e616c54696d6573275da165627a7a723058201cf853c242b85aa7ffbad00c5d5cfd3abaee84f1203f4056be14ea566c30af010029",
  "source": "/**\n * FlightDelay with Oraclized Underwriting and Payout\n *\n * @description\tPayout contract\n * @copyright (c) 2017 etherisc GmbH\n * @author Christoph Mussenbrock\n */\n\npragma solidity ^0.4.11;\n\nimport \"./FlightDelayControlledContract.sol\";\nimport \"./FlightDelayConstants.sol\";\nimport \"./FlightDelayDatabaseInterface.sol\";\nimport \"./FlightDelayAccessControllerInterface.sol\";\nimport \"./FlightDelayLedgerInterface.sol\";\nimport \"./FlightDelayPayoutInterface.sol\";\nimport \"./FlightDelayOraclizeInterface.sol\";\nimport \"./convertLib.sol\";\nimport \"./../vendors/strings.sol\";\n\n\ncontract FlightDelayPayout is FlightDelayControlledContract, FlightDelayConstants, FlightDelayOraclizeInterface, ConvertLib {\n\n    using strings for *;\n\n    FlightDelayDatabaseInterface FD_DB;\n    FlightDelayLedgerInterface FD_LG;\n    FlightDelayAccessControllerInterface FD_AC;\n\n    /*\n     * @dev Contract constructor sets its controller\n     * @param _controller FD.Controller\n     */\n    function FlightDelayPayout(address _controller) public {\n        setController(_controller);\n        oraclize_setCustomGasPrice(ORACLIZE_GASPRICE);\n    }\n\n    /*\n     * Public methods\n     */\n\n    /*\n     * @dev Set access permissions for methods\n     */\n    function setContracts() public onlyController {\n        FD_AC = FlightDelayAccessControllerInterface(getContract(\"FD.AccessController\"));\n        FD_DB = FlightDelayDatabaseInterface(getContract(\"FD.Database\"));\n        FD_LG = FlightDelayLedgerInterface(getContract(\"FD.Ledger\"));\n\n        FD_AC.setPermissionById(101, \"FD.Underwrite\");\n        FD_AC.setPermissionByAddress(101, oraclize_cbAddress());\n        FD_AC.setPermissionById(102, \"FD.Funder\");\n        FD_AC.setPermissionById(103, \"FD.Owner\");\n    }\n\n    /*\n     * @dev Fund contract\n     */\n    function () public payable {\n        require(FD_AC.checkPermission(102, msg.sender));\n\n        // todo: bookkeeping\n        // todo: fire funding event\n    }\n\n    /*\n     * @dev Schedule oraclize call for payout\n     * @param _policyId\n     * @param _riskId\n     * @param _oraclizeTime\n     */\n    function schedulePayoutOraclizeCall(uint _policyId, bytes32 _riskId, uint _oraclizeTime) public {\n        require(FD_AC.checkPermission(101, msg.sender));\n\n        var (carrierFlightNumber, departureYearMonthDay,) = FD_DB.getRiskParameters(_riskId);\n\n        string memory oraclizeUrl = strConcat(\n            ORACLIZE_STATUS_BASE_URL,\n            b32toString(carrierFlightNumber),\n            b32toString(departureYearMonthDay),\n            ORACLIZE_STATUS_QUERY\n        );\n\n        bytes32 queryId = oraclize_query(\n            _oraclizeTime,\n            \"nested\",\n            oraclizeUrl,\n            ORACLIZE_GAS\n        );\n\n        FD_DB.createOraclizeCallback(\n            queryId,\n            _policyId,\n            oraclizeState.ForPayout,\n            _oraclizeTime\n        );\n\n        LogOraclizeCall(_policyId, queryId, oraclizeUrl, _oraclizeTime);\n    }\n\n    /*\n     * @dev Oraclize callback. In an emergency case, we can call this directly from FD.Emergency Account.\n     * @param _queryId\n     * @param _result\n     * @param _proof\n     */\n    function __callback(bytes32 _queryId, string _result, bytes _proof) public onlyOraclizeOr(getContract('FD.Emergency')) {\n\n        var (policyId, oraclizeTime) = FD_DB.getOraclizeCallback(_queryId);\n        LogOraclizeCallback(policyId, _queryId, _result, _proof);\n\n        // check if policy was declined after this callback was scheduled\n        var state = FD_DB.getPolicyState(policyId);\n        require(uint8(state) != 5);\n\n        bytes32 riskId = FD_DB.getRiskId(policyId);\n\n// --> debug-mode\n//            LogBytes32(\"riskId\", riskId);\n// <-- debug-mode\n\n        var slResult = _result.toSlice();\n\n        if (bytes(_result).length == 0) { // empty Result\n            if (FD_DB.checkTime(_queryId, riskId, 180 minutes)) {\n                LogPolicyManualPayout(policyId, \"No Callback at +120 min\");\n                return;\n            } else {\n                schedulePayoutOraclizeCall(policyId, riskId, oraclizeTime + 45 minutes);\n            }\n        } else {\n            // first check status\n            // extract the status field:\n            slResult.find(\"\\\"\".toSlice()).beyond(\"\\\"\".toSlice());\n            slResult.until(slResult.copy().find(\"\\\"\".toSlice()));\n            bytes1 status = bytes(slResult.toString())[0];\t// s = L\n            if (status == \"C\") {\n                // flight cancelled --> payout\n                payOut(policyId, 4, 0);\n                return;\n            } else if (status == \"D\") {\n                // flight diverted --> payout\n                payOut(policyId, 5, 0);\n                return;\n            } else if (status != \"L\" && status != \"A\" && status != \"C\" && status != \"D\") {\n                LogPolicyManualPayout(policyId, \"Unprocessable status\");\n                return;\n            }\n\n            // process the rest of the response:\n            slResult = _result.toSlice();\n            bool arrived = slResult.contains(\"actualGateArrival\".toSlice());\n\n            if (status == \"A\" || (status == \"L\" && !arrived)) {\n                // flight still active or not at gate --> reschedule\n                if (FD_DB.checkTime(_queryId, riskId, 180 minutes)) {\n                    LogPolicyManualPayout(policyId, \"No arrival at +180 min\");\n                } else {\n                    schedulePayoutOraclizeCall(policyId, riskId, oraclizeTime + 45 minutes);\n                }\n            } else if (status == \"L\" && arrived) {\n                var aG = \"\\\"arrivalGateDelayMinutes\\\": \".toSlice();\n                if (slResult.contains(aG)) {\n                    slResult.find(aG).beyond(aG);\n                    slResult.until(slResult.copy().find(\"\\\"\".toSlice()).beyond(\"\\\"\".toSlice()));\n                    // truffle bug, replace by \"}\" as soon as it is fixed.\n                    slResult.until(slResult.copy().find(\"\\x7D\".toSlice()));\n                    slResult.until(slResult.copy().find(\",\".toSlice()));\n                    uint delayInMinutes = parseInt(slResult.toString());\n                } else {\n                    delayInMinutes = 0;\n                }\n\n                if (delayInMinutes < 15) {\n                    payOut(policyId, 0, 0);\n                } else if (delayInMinutes < 30) {\n                    payOut(policyId, 1, delayInMinutes);\n                } else if (delayInMinutes < 45) {\n                    payOut(policyId, 2, delayInMinutes);\n                } else {\n                    payOut(policyId, 3, delayInMinutes);\n                }\n            } else { // no delay info\n                payOut(policyId, 0, 0);\n            }\n        }\n    }\n\n    /*\n     * Internal methods\n     */\n\n    /*\n     * @dev Payout\n     * @param _policyId\n     * @param _delay\n     * @param _delayInMinutes\n     */\n    function payOut(uint _policyId, uint8 _delay, uint _delayInMinutes)\tinternal {\n// --> debug-mode\n//            LogString(\"im payOut\", \"\");\n//            LogUint(\"policyId\", _policyId);\n//            LogUint(\"delay\", _delay);\n//            LogUint(\"in minutes\", _delayInMinutes);\n// <-- debug-mode\n\n        FD_DB.setDelay(_policyId, _delay, _delayInMinutes);\n\n        if (_delay == 0 || WEIGHT_PATTERN[_delay] == 0) {\n            FD_DB.setState(\n                _policyId,\n                policyState.Expired,\n                now,\n                \"Expired - no delay!\"\n            );\n        } else {\n            var (customer, weight, premium) = FD_DB.getPolicyData(_policyId);\n\n// --> debug-mode\n//                LogUint(\"weight\", weight);\n// <-- debug-mode\n\n            if (weight == 0) {\n                weight = 20000;\n            }\n\n            uint payout = premium * WEIGHT_PATTERN[_delay] * 10000 / weight;\n            uint calculatedPayout = payout;\n\n            if (payout > MAX_PAYOUT) {\n                payout = MAX_PAYOUT;\n            }\n\n            FD_DB.setPayouts(_policyId, calculatedPayout, payout);\n\n            if (!FD_LG.sendFunds(customer, Acc.Payout, payout)) {\n                FD_DB.setState(\n                    _policyId,\n                    policyState.SendFailed,\n                    now,\n                    \"Payout, send failed!\"\n                );\n\n                FD_DB.setPayouts(_policyId, calculatedPayout, 0);\n            } else {\n                FD_DB.setState(\n                    _policyId,\n                    policyState.PaidOut,\n                    now,\n                    \"Payout successful!\"\n                );\n            }\n        }\n    }\n\n    function setOraclizeGasPrice(uint _gasPrice) external returns (bool _success) {\n        require(FD_AC.checkPermission(103, msg.sender));\n\n        oraclize_setCustomGasPrice(_gasPrice);\n        _success = true;\n    }\n}\n",
  "sourcePath": "/Users/A/Data/Altoros/1244-Etherisc/repos/flightdelay/contracts/FlightDelayPayout.sol",
  "compiler": {
    "name": "solc",
    "version": "0.4.18+commit.9cf6e910.Emscripten.clang"
  },
  "schemaVersion": "1.0.1",
  "updatedAt": "2018-05-16T16:59:40.044Z"
}