{
  "contractName": "FlightDelayControlledContract",
  "abi": [
    {
      "constant": true,
      "inputs": [],
      "name": "controller",
      "outputs": [
        {
          "name": "",
          "type": "address"
        }
      ],
      "payable": false,
      "stateMutability": "view",
      "type": "function"
    },
    {
      "constant": false,
      "inputs": [],
      "name": "destruct",
      "outputs": [],
      "payable": false,
      "stateMutability": "nonpayable",
      "type": "function"
    },
    {
      "constant": false,
      "inputs": [],
      "name": "setContracts",
      "outputs": [],
      "payable": false,
      "stateMutability": "nonpayable",
      "type": "function"
    }
  ],
  "bytecode": "0x6060604052341561000f57600080fd5b6101748061001e6000396000f3006060604052600436106100565763ffffffff7c01000000000000000000000000000000000000000000000000000000006000350416632b68b9c6811461005b578063e0d6d53014610070578063f77c479114610083575b600080fd5b341561006657600080fd5b61006e6100bf565b005b341561007b57600080fd5b61006e610102565b341561008e57600080fd5b61009661012c565b60405173ffffffffffffffffffffffffffffffffffffffff909116815260200160405180910390f35b6000543373ffffffffffffffffffffffffffffffffffffffff9081169116146100e757600080fd5b60005473ffffffffffffffffffffffffffffffffffffffff16ff5b6000543373ffffffffffffffffffffffffffffffffffffffff90811691161461012a57600080fd5b565b60005473ffffffffffffffffffffffffffffffffffffffff16815600a165627a7a723058209422fc87d42fa2b3990322c1d25d514aba6b753e855f692b39f934f382acb9100029",
  "source": "/**\n * FlightDelay with Oraclized Underwriting and Payout\n *\n * @description Controlled contract Interface\n * @copyright (c) 2017 etherisc GmbH\n * @author Christoph Mussenbrock\n */\n\npragma solidity ^0.4.11;\n\nimport \"./FlightDelayControllerInterface.sol\";\nimport \"./FlightDelayDatabaseModel.sol\";\n\n\ncontract FlightDelayControlledContract is FlightDelayDatabaseModel {\n\n    address public controller;\n    FlightDelayControllerInterface FD_CI;\n\n    modifier onlyController() {\n        require(msg.sender == controller);\n        _;\n    }\n\n    function setController(address _controller) internal returns (bool _result) {\n        controller = _controller;\n        FD_CI = FlightDelayControllerInterface(_controller);\n        _result = true;\n    }\n\n    function destruct() public onlyController {\n        selfdestruct(controller);\n    }\n\n    function setContracts() public onlyController {}\n\n    function getContract(bytes32 _id) internal returns (address _addr) {\n        _addr = FD_CI.getContract(_id);\n    }\n}\n",
  "sourcePath": "/Users/melnikaite/projects/flightDelay/contracts/FlightDelayControlledContract.sol",
  "compiler": {
    "name": "solc",
    "version": "0.4.19+commit.c4cbbb05.Emscripten.clang"
  },
  "schemaVersion": "2.0.0",
  "updatedAt": "2018-03-13T09:40:39.961Z"
}