{
  "contractName": "FlightDelayOraclizeInterface",
  "abi": [
    {
      "constant": false,
      "inputs": [
        {
          "name": "myid",
          "type": "bytes32"
        },
        {
          "name": "result",
          "type": "string"
        }
      ],
      "name": "__callback",
      "outputs": [],
      "payable": false,
      "stateMutability": "nonpayable",
      "type": "function"
    },
    {
      "constant": false,
      "inputs": [
        {
          "name": "myid",
          "type": "bytes32"
        },
        {
          "name": "result",
          "type": "string"
        },
        {
          "name": "proof",
          "type": "bytes"
        }
      ],
      "name": "__callback",
      "outputs": [],
      "payable": false,
      "stateMutability": "nonpayable",
      "type": "function"
    }
  ],
  "bytecode": "0x6060604052341561000f57600080fd5b6101a38061001e6000396000f30060606040526004361061004b5763ffffffff7c010000000000000000000000000000000000000000000000000000000060003504166327dc297e811461005057806338bbfa50146100a8575b600080fd5b341561005b57600080fd5b6100a6600480359060446024803590810190830135806020601f8201819004810201604051908101604052818152929190602084018383808284375094965061014095505050505050565b005b34156100b357600080fd5b6100a6600480359060446024803590810190830135806020601f8201819004810201604051908101604052818152929190602084018383808284378201915050505050509190803590602001908201803590602001908080601f01602080910402602001604051908101604052818152929190602084018383808284375094965061017295505050505050565b61016e828260006040518059106101545750595b818152601f19601f83011681016020016040529050610172565b5050565b5050505600a165627a7a72305820db4ad0ab170788130c54423a1f8dfc826a9a50ef0c740bed864cc133e4915a7a0029",
  "source": "/**\n * FlightDelay with Oraclized Underwriting and Payout\n *\n * @description\tOcaclize API interface\n * @copyright (c) 2017 etherisc GmbH\n * @author Christoph Mussenbrock, Stephan Karpischek\n */\n\npragma solidity ^0.4.11;\n\nimport \"./../vendors/usingOraclize.sol\";\n\n\ncontract FlightDelayOraclizeInterface is usingOraclize {\n\n    modifier onlyOraclizeOr (address _emergency) {\n// --> prod-mode\n        require(msg.sender == oraclize_cbAddress() || msg.sender == _emergency);\n// <-- prod-mode\n        _;\n    }\n}\n",
  "sourcePath": "/home/christoph/Documents/fdi/flightDelay/contracts/FlightDelayOraclizeInterface.sol",
  "compiler": {
    "name": "solc",
    "version": "0.4.18+commit.9cf6e910.Emscripten.clang"
  },
  "schemaVersion": "1.0.1",
  "updatedAt": "2017-11-16T22:39:14.285Z"
}