{
  "contractName": "FlightDelayNewPolicy",
  "abi": [
    {
      "constant": false,
      "inputs": [],
      "name": "destruct",
      "outputs": [],
      "payable": false,
      "stateMutability": "nonpayable",
      "type": "function"
    },
    {
      "constant": true,
      "inputs": [],
      "name": "PATCH_VERSION",
      "outputs": [
        {
          "name": "",
          "type": "uint256"
        }
      ],
      "payable": false,
      "stateMutability": "view",
      "type": "function"
    },
    {
      "constant": false,
      "inputs": [
        {
          "name": "x",
          "type": "bytes32"
        }
      ],
      "name": "b32toHexString",
      "outputs": [
        {
          "name": "",
          "type": "string"
        }
      ],
      "payable": false,
      "stateMutability": "nonpayable",
      "type": "function"
    },
    {
      "constant": true,
      "inputs": [
        {
          "name": "_dayMonthYear",
          "type": "bytes32"
        }
      ],
      "name": "toUnixtime",
      "outputs": [
        {
          "name": "unixtime",
          "type": "uint256"
        }
      ],
      "payable": false,
      "stateMutability": "view",
      "type": "function"
    },
    {
      "constant": true,
      "inputs": [],
      "name": "MINOR_VERSION",
      "outputs": [
        {
          "name": "",
          "type": "uint256"
        }
      ],
      "payable": false,
      "stateMutability": "view",
      "type": "function"
    },
    {
      "constant": true,
      "inputs": [],
      "name": "controller",
      "outputs": [
        {
          "name": "",
          "type": "address"
        }
      ],
      "payable": false,
      "stateMutability": "view",
      "type": "function"
    },
    {
      "constant": true,
      "inputs": [],
      "name": "MAJOR_VERSION",
      "outputs": [
        {
          "name": "",
          "type": "uint256"
        }
      ],
      "payable": false,
      "stateMutability": "view",
      "type": "function"
    },
    {
      "inputs": [
        {
          "name": "_controller",
          "type": "address"
        }
      ],
      "payable": false,
      "stateMutability": "nonpayable",
      "type": "constructor"
    },
    {
      "anonymous": false,
      "inputs": [
        {
          "indexed": false,
          "name": "_policyId",
          "type": "uint256"
        },
        {
          "indexed": false,
          "name": "_customer",
          "type": "address"
        },
        {
          "indexed": false,
          "name": "strCarrierFlightNumber",
          "type": "bytes32"
        },
        {
          "indexed": false,
          "name": "ethPremium",
          "type": "uint256"
        }
      ],
      "name": "LogPolicyApplied",
      "type": "event"
    },
    {
      "anonymous": false,
      "inputs": [
        {
          "indexed": false,
          "name": "_policyId",
          "type": "uint256"
        },
        {
          "indexed": false,
          "name": "_statistics0",
          "type": "uint256"
        },
        {
          "indexed": false,
          "name": "_statistics1",
          "type": "uint256"
        },
        {
          "indexed": false,
          "name": "_statistics2",
          "type": "uint256"
        },
        {
          "indexed": false,
          "name": "_statistics3",
          "type": "uint256"
        },
        {
          "indexed": false,
          "name": "_statistics4",
          "type": "uint256"
        },
        {
          "indexed": false,
          "name": "_statistics5",
          "type": "uint256"
        }
      ],
      "name": "LogPolicyAccepted",
      "type": "event"
    },
    {
      "anonymous": false,
      "inputs": [
        {
          "indexed": false,
          "name": "_policyId",
          "type": "uint256"
        },
        {
          "indexed": false,
          "name": "ethAmount",
          "type": "uint256"
        }
      ],
      "name": "LogPolicyPaidOut",
      "type": "event"
    },
    {
      "anonymous": false,
      "inputs": [
        {
          "indexed": false,
          "name": "_policyId",
          "type": "uint256"
        }
      ],
      "name": "LogPolicyExpired",
      "type": "event"
    },
    {
      "anonymous": false,
      "inputs": [
        {
          "indexed": false,
          "name": "_policyId",
          "type": "uint256"
        },
        {
          "indexed": false,
          "name": "strReason",
          "type": "bytes32"
        }
      ],
      "name": "LogPolicyDeclined",
      "type": "event"
    },
    {
      "anonymous": false,
      "inputs": [
        {
          "indexed": false,
          "name": "_policyId",
          "type": "uint256"
        },
        {
          "indexed": false,
          "name": "strReason",
          "type": "bytes32"
        }
      ],
      "name": "LogPolicyManualPayout",
      "type": "event"
    },
    {
      "anonymous": false,
      "inputs": [
        {
          "indexed": false,
          "name": "_recipient",
          "type": "address"
        },
        {
          "indexed": false,
          "name": "_from",
          "type": "uint8"
        },
        {
          "indexed": false,
          "name": "ethAmount",
          "type": "uint256"
        }
      ],
      "name": "LogSendFunds",
      "type": "event"
    },
    {
      "anonymous": false,
      "inputs": [
        {
          "indexed": false,
          "name": "_sender",
          "type": "address"
        },
        {
          "indexed": false,
          "name": "_to",
          "type": "uint8"
        },
        {
          "indexed": false,
          "name": "ethAmount",
          "type": "uint256"
        }
      ],
      "name": "LogReceiveFunds",
      "type": "event"
    },
    {
      "anonymous": false,
      "inputs": [
        {
          "indexed": false,
          "name": "_policyId",
          "type": "uint256"
        },
        {
          "indexed": false,
          "name": "strReason",
          "type": "bytes32"
        }
      ],
      "name": "LogSendFail",
      "type": "event"
    },
    {
      "anonymous": false,
      "inputs": [
        {
          "indexed": false,
          "name": "_policyId",
          "type": "uint256"
        },
        {
          "indexed": false,
          "name": "hexQueryId",
          "type": "bytes32"
        },
        {
          "indexed": false,
          "name": "_oraclizeUrl",
          "type": "string"
        },
        {
          "indexed": false,
          "name": "_oraclizeTime",
          "type": "uint256"
        }
      ],
      "name": "LogOraclizeCall",
      "type": "event"
    },
    {
      "anonymous": false,
      "inputs": [
        {
          "indexed": false,
          "name": "_policyId",
          "type": "uint256"
        },
        {
          "indexed": false,
          "name": "hexQueryId",
          "type": "bytes32"
        },
        {
          "indexed": false,
          "name": "_result",
          "type": "string"
        },
        {
          "indexed": false,
          "name": "hexProof",
          "type": "bytes"
        }
      ],
      "name": "LogOraclizeCallback",
      "type": "event"
    },
    {
      "anonymous": false,
      "inputs": [
        {
          "indexed": false,
          "name": "_policyId",
          "type": "uint256"
        },
        {
          "indexed": false,
          "name": "_policyState",
          "type": "uint8"
        },
        {
          "indexed": false,
          "name": "_stateTime",
          "type": "uint256"
        },
        {
          "indexed": false,
          "name": "_stateMessage",
          "type": "bytes32"
        }
      ],
      "name": "LogSetState",
      "type": "event"
    },
    {
      "anonymous": false,
      "inputs": [
        {
          "indexed": false,
          "name": "_policyId",
          "type": "uint256"
        },
        {
          "indexed": false,
          "name": "_address",
          "type": "address"
        },
        {
          "indexed": false,
          "name": "_externalId",
          "type": "bytes32"
        }
      ],
      "name": "LogExternal",
      "type": "event"
    },
    {
      "constant": false,
      "inputs": [],
      "name": "setContracts",
      "outputs": [],
      "payable": false,
      "stateMutability": "nonpayable",
      "type": "function"
    },
    {
      "constant": false,
      "inputs": [
        {
          "name": "_on",
          "type": "bool"
        }
      ],
      "name": "maintenanceMode",
      "outputs": [],
      "payable": false,
      "stateMutability": "nonpayable",
      "type": "function"
    },
    {
      "constant": false,
      "inputs": [
        {
          "name": "_carrierFlightNumber",
          "type": "bytes32"
        },
        {
          "name": "_departureYearMonthDay",
          "type": "bytes32"
        },
        {
          "name": "_departureTime",
          "type": "uint256"
        },
        {
          "name": "_arrivalTime",
          "type": "uint256"
        },
        {
          "name": "_currency",
          "type": "uint8"
        },
        {
          "name": "_customerExternalId",
          "type": "bytes32"
        }
      ],
      "name": "newPolicy",
      "outputs": [],
      "payable": true,
      "stateMutability": "payable",
      "type": "function"
    }
  ],
  "bytecode": "0x606060405260c0604051908101604090815260008252600a6020830152601490820152601e606082015260326080820181905260a0820152620000479060029060066200012f565b506101806040519081016040908152600b8252602a6020830152604690820152606560608201526083608082015260a260a082015260c08082015260df60e082015260fe61010082015261011c61012082015261013b610140820152610159610160820152620000bc90600390600c620001c9565b503415620000c957600080fd5b60405160208062001dc1833981016040528080519150620000fa90508164010000000062001a836200010282021704565b5050620002a8565b60008054600160a060020a03909216600160a060020a031992831681179091556001805490921617815590565b600183019183908215620001b75791602002820160005b838211156200018657835183826101000a81548160ff021916908360ff160217905550926020019260010160208160000104928301926001030262000146565b8015620001b55782816101000a81549060ff021916905560010160208160000104928301926001030262000186565b505b50620001c592915062000262565b5090565b600183019183908215620002545791602002820160005b838211156200022257835183826101000a81548161ffff021916908361ffff1602179055509260200192600201602081600101049283019260010302620001e0565b8015620002525782816101000a81549061ffff021916905560020160208160010104928301926001030262000222565b505b50620001c592915062000286565b6200028391905b80821115620001c557805460ff1916815560010162000269565b90565b6200028391905b80821115620001c557805461ffff191681556001016200028d565b611b0980620002b86000396000f30060606040526004361061008a5763ffffffff60e060020a6000350416632b68b9c6811461008f5780636bf2606a146100a45780637235d2b1146100c95780638ad46ba0146100e1578063bcf599f11461016e578063c8b9153114610184578063e0d6d53014610197578063f77c4791146101aa578063f786becd146101d9578063fba2fb66146101ec575b600080fd5b341561009a57600080fd5b6100a2610209565b005b34156100af57600080fd5b6100b7610232565b60405190815260200160405180910390f35b34156100d457600080fd5b6100a26004351515610237565b34156100ec57600080fd5b6100f7600435610338565b60405160208082528190810183818151815260200191508051906020019080838360005b8381101561013357808201518382015260200161011b565b50505050905090810190601f1680156101605780820380516001836020036101000a031916815260200191505b509250505060405180910390f35b341561017957600080fd5b6100b7600435610447565b341561018f57600080fd5b6100b761074b565b34156101a257600080fd5b6100a2610750565b34156101b557600080fd5b6101bd610a34565b604051600160a060020a03909116815260200160405180910390f35b34156101e457600080fd5b6100b7610a43565b6100a260043560243560443560643560ff6084351660a435610a48565b60005433600160a060020a0390811691161461022457600080fd5b600054600160a060020a0316ff5b600281565b600454600160a060020a0316633ebd609260673360006040516020015260405160e060020a63ffffffff851602815260ff9092166004830152600160a060020a03166024820152604401602060405180830381600087803b151561029a57600080fd5b6102c65a03f115156102ab57600080fd5b505050604051805190501561033557600454600160a060020a031663983c763060656000841560405160e060020a63ffffffff861602815260ff9093166004840152600160a060020a03909116602483015215156044820152606401600060405180830381600087803b151561032057600080fd5b6102c65a03f1151561033157600080fd5b5050505b50565b610340611a71565b610348611a71565b6000806000806040805180591061035c5750595b818152601f19601f830116810160200160405290509450600093505b602084101561043c576008601f8590030260020a8781151561039657fe5b049250601060ff841604915050601081028203600960ff831611156103bc576027820191505b60098160ff1611156103cc576027015b8160300160f860020a028585600202815181106103e557fe5b906020010190600160f860020a031916908160001a9053508060300160f860020a0285856002026001018151811061041957fe5b906020010190600160f860020a031916908160001a905350600190930192610378565b509295945050505050565b6000610451611a71565b610459611a71565b610461611a71565b600080600061046f886115ff565b955060026040518059106104805750595b818152601f19601f83011681016020016040529050945060046040518059106104a65750595b818152601f19601f830116810160200160405290509350856005815181106104ca57fe5b016020015160f860020a900460f860020a02846000815181106104e957fe5b906020010190600160f860020a031916908160001a9053508560068151811061050e57fe5b016020015160f860020a900460f860020a028460018151811061052d57fe5b906020010190600160f860020a031916908160001a9053508560078151811061055257fe5b016020015160f860020a900460f860020a028460028151811061057157fe5b906020010190600160f860020a031916908160001a9053508560088151811061059657fe5b016020015160f860020a900460f860020a02846003815181106105b557fe5b906020010190600160f860020a031916908160001a9053506105d684611747565b925085600a815181106105e557fe5b016020015160f860020a900460f860020a028560008151811061060457fe5b906020010190600160f860020a031916908160001a90535085600b8151811061062957fe5b016020015160f860020a900460f860020a028560018151811061064857fe5b906020010190600160f860020a031916908160001a90535061066985611747565b915085600d8151811061067857fe5b016020015160f860020a900460f860020a028560008151811061069757fe5b906020010190600160f860020a031916908160001a90535085600e815181106106bc57fe5b016020015160f860020a900460f860020a02856001815181106106db57fe5b906020010190600160f860020a031916908160001a9053506106fc85611747565b90508060036000198401600c811061071057fe5b601091828204019190066002029054906101000a900461ffff1661ffff166107b2850361016d02010162015180029650505050505050919050565b600081565b60005433600160a060020a0390811691161461076b57600080fd5b6107947f46442e416363657373436f6e74726f6c6c65720000000000000000000000000061175a565b6004805473ffffffffffffffffffffffffffffffffffffffff1916600160a060020a03929092169190911790556107ea7f46442e446174616261736500000000000000000000000000000000000000000061175a565b6005805473ffffffffffffffffffffffffffffffffffffffff1916600160a060020a03929092169190911790556108407f46442e4c6564676572000000000000000000000000000000000000000000000061175a565b6006805473ffffffffffffffffffffffffffffffffffffffff1916600160a060020a03929092169190911790556108967f46442e556e64657277726974650000000000000000000000000000000000000061175a565b6007805473ffffffffffffffffffffffffffffffffffffffff1916600160a060020a039283161790556004541663c3d08f066065600060405160e060020a63ffffffff851602815260ff9092166004830152600160a060020a03166024820152604401600060405180830381600087803b151561091257600080fd5b6102c65a03f1151561092357600080fd5b5050600454600160a060020a0316905063c28b4577606660405160e060020a63ffffffff841602815260ff90911660048201527f46442e436f6e74726f6c6c6572000000000000000000000000000000000000006024820152604401600060405180830381600087803b151561099857600080fd5b6102c65a03f115156109a957600080fd5b5050600454600160a060020a0316905063c28b4577606760405160e060020a63ffffffff841602815260ff90911660048201527f46442e4f776e65720000000000000000000000000000000000000000000000006024820152604401600060405180830381600087803b1515610a1e57600080fd5b6102c65a03f11515610a2f57600080fd5b505050565b600054600160a060020a031681565b600181565b60045460009081908190819081908190600160a060020a0316633ebd6092606583806040516020015260405160e060020a63ffffffff851602815260ff9092166004830152600160a060020a03166024820152604401602060405180830381600087803b1515610ab757600080fd5b6102c65a03f11515610ac857600080fd5b505050604051805190501515610add57600080fd5b6000886003811115610aeb57fe5b1415610c045766b1a2bc2ec50000341080610b0d5750670de0b6b3a764000034115b15610bff57600080516020611abe83398151915260006040519081527f496e76616c6964207072656d69756d2076616c7565204554480000000000000060208201526040908101905180910390a1600654600160a060020a03166350bed0433360003481604051602001526040518463ffffffff1660e060020a0281526004018084600160a060020a0316600160a060020a03168152602001836005811115610bb257fe5b60ff1681526020018281526020019350505050602060405180830381600087803b1515610bde57600080fd5b6102c65a03f11515610bef57600080fd5b50505060405180519050506115f1565b610eaa565b610c2d7f46442e437573746f6d65727341646d696e00000000000000000000000000000061175a565b600160a060020a031633600160a060020a0316141515610c4c57600080fd5b6001886003811115610c5a57fe5b1415610d16576105dc341080610c71575061714834115b15610d1657600080516020611abe83398151915260006040519081527f496e76616c6964207072656d69756d2076616c7565204555520000000000000060208201526040908101905180910390a1600654600160a060020a03166350bed0433360003481604051602001526040518463ffffffff1660e060020a0281526004018084600160a060020a0316600160a060020a03168152602001836005811115610bb257fe5b6002886003811115610d2457fe5b1415610de0576106a4341080610d3b57506184d034115b15610de057600080516020611abe83398151915260006040519081527f496e76616c6964207072656d69756d2076616c7565205553440000000000000060208201526040908101905180910390a1600654600160a060020a03166350bed0433360003481604051602001526040518463ffffffff1660e060020a0281526004018084600160a060020a0316600160a060020a03168152602001836005811115610bb257fe5b6003886003811115610dee57fe5b1415610eaa57610514341080610e0557506161a834115b15610eaa57600080516020611abe83398151915260006040519081527f496e76616c6964207072656d69756d2076616c7565204742500000000000000060208201526040908101905180910390a1600654600160a060020a03166350bed0433360003481604051602001526040518463ffffffff1660e060020a0281526004018084600160a060020a0316600160a060020a03168152602001836005811115610bb257fe5b600654600160a060020a03166329377d613460006040518363ffffffff1660e060020a02815260040180826005811115610ee057fe5b60ff1681526020019150506000604051808303818588803b1515610f0357600080fd5b6125ee5a03f11515610f1457600080fd5b50505050610f218b610447565b955089891080610f3557506202a3008a0189115b80610f4457506201518042018a105b80610f52575063729570ef8a115b80610f5c5750858a105b80610f6b57508562015180018a115b80610fd75750600554600160a060020a0316634ccbd06b6000604051602001526040518163ffffffff1660e060020a028152600401602060405180830381600087803b1515610fb957600080fd5b6102c65a03f11515610fca57600080fd5b505050604051805190508a105b806110435750600554600160a060020a0316632dccba896000604051602001526040518163ffffffff1660e060020a028152600401602060405180830381600087803b151561102557600080fd5b6102c65a03f1151561103657600080fd5b505050604051805190508a115b156110e857600080516020611abe83398151915260006040519081527f496e76616c6964206172726976616c2f6465706172747572652074696d65000060208201526040908101905180910390a1600654600160a060020a03166350bed0433360003481604051602001526040518463ffffffff1660e060020a0281526004018084600160a060020a0316600160a060020a03168152602001836005811115610bb257fe5b600554600160a060020a031663128a1c748d8d8c60006040516020015260405160e060020a63ffffffff8616028152600481019390935260248301919091526044820152606401602060405180830381600087803b151561114857600080fd5b6102c65a03f1151561115957600080fd5b5050506040518051600554909650600160a060020a03169050639d5176fd8660006040516040015260405160e060020a63ffffffff841602815260048101919091526024016040805180830381600087803b15156111b657600080fd5b6102c65a03f115156111c757600080fd5b505050604051805190602001805191955090935050680340aad21b3b70000034840285011061129057600080516020611abe83398151915260006040519081527f436c7573746572207269736b000000000000000000000000000000000000000060208201526040908101905180910390a1600654600160a060020a03166350bed0433360003481604051602001526040518463ffffffff1660e060020a0281526004018084600160a060020a0316600160a060020a03168152602001836005811115610bb257fe5b83151561130c57600554600160a060020a031663802de8fc86680340aad21b3b7000008660405160e060020a63ffffffff8616028152600481019390935260248301919091526044820152606401600060405180830381600087803b15156112f757600080fd5b6102c65a03f1151561130857600080fd5b5050505b6113146117cd565b600554909250600160a060020a031663f92a69ec33848b8b8a6000604051602001526040518663ffffffff1660e060020a0281526004018086600160a060020a0316600160a060020a0316815260200185815260200184600381111561137657fe5b60ff16815260208082019490945260408082019390935260600195509193509150505180830381600087803b15156113ad57600080fd5b6102c65a03f115156113be57600080fd5b5050506040518051915050600083111561144257600554600160a060020a031663802de8fc8684860287018660405160e060020a63ffffffff8616028152600481019390935260248301919091526044820152606401600060405180830381600087803b151561142d57600080fd5b6102c65a03f1151561143e57600080fd5b5050505b600554600160a060020a031663418cf5b1826000426040518463ffffffff1660e060020a0281526004018084815260200183600681111561147f57fe5b60ff168152602001828152602001807f506f6c696379206170706c69656420627920637573746f6d65720000000000008152506020019350505050600060405180830381600087803b15156114d357600080fd5b6102c65a03f115156114e457600080fd5b5050507fa1a0ee9005fffba1f170ed11d5512d7983400e59419ceb31221f71832fa6cb2c81338e85604051938452600160a060020a03909216602084015260408084019190915260608301919091526080909101905180910390a17f61dc648f76dcf4df63a23b1cd65ae4a116413759706ff1c99fd5e839e4765e4d813389604051928352600160a060020a0390911660208301526040808301919091526060909101905180910390a1600754600160a060020a0316638b8c5ed9828e60405160e060020a63ffffffff851602815260048101929092526024820152604401600060405180830381600087803b15156115dc57600080fd5b6102c65a03f115156115ed57600080fd5b5050505b505050505050505050505050565b611607611a71565b61160f611a71565b600080600061161c611a71565b602060405180591061162b5750595b818152601f19601f83011681016020016040529050945060009350600092505b60208310156116be576008830260020a870291507fff000000000000000000000000000000000000000000000000000000000000008216156116b3578185858151811061169457fe5b906020010190600160f860020a031916908160001a9053506001909301925b60019092019161164b565b836040518059106116cc5750595b818152601f19601f830116810160200160405290509050600092505b8383101561173d578483815181106116fc57fe5b016020015160f860020a900460f860020a0281848151811061171a57fe5b906020010190600160f860020a031916908160001a9053506001909201916116e8565b9695505050505050565b6000611754826000611903565b92915050565b600154600090600160a060020a031663e16c7d9883836040516020015260405160e060020a63ffffffff84160281526004810191909152602401602060405180830381600087803b15156117ad57600080fd5b6102c65a03f115156117be57600080fd5b50505060405180519392505050565b600654600090349060648083049182840391600283020490600160a060020a031663b5675ee4866001866040518463ffffffff1660e060020a0281526004018084600581111561181957fe5b60ff16815260200183600581111561182d57fe5b60ff1681526020018281526020019350505050600060405180830381600087803b151561185957600080fd5b6102c65a03f1151561186a57600080fd5b5050600654600160a060020a0316905063b5675ee460006004846040518463ffffffff1660e060020a028152600401808460058111156118a657fe5b60ff1681526020018360058111156118ba57fe5b60ff1681526020018281526020019350505050600060405180830381600087803b15156118e657600080fd5b6102c65a03f115156118f757600080fd5b50505090039392505050565b600061190d611a71565b5082600080805b8351811015611a54577f300000000000000000000000000000000000000000000000000000000000000084828151811061194a57fe5b016020015160f860020a900460f860020a02600160f860020a031916101580156119bb57507f390000000000000000000000000000000000000000000000000000000000000084828151811061199c57fe5b016020015160f860020a900460f860020a02600160f860020a03191611155b15611a115781156119da578515156119d257611a54565b600019909501945b600a8302925060308482815181106119ee57fe5b016020015160f860020a900460f860020a0260f860020a90040383019250611a4c565b838181518110611a1d57fe5b016020015160f860020a900460f860020a02600160f860020a031916602e60f860020a021415611a4c57600191505b600101611914565b6000861115611a665785600a0a830292505b509095945050505050565b60206040519081016040526000815290565b60008054600160a060020a0390921673ffffffffffffffffffffffffffffffffffffffff199283168117909155600180549092161781559056009ee71fae4eaec97727495a88dce95da03083cceac90064c30bd03ef65b86a3aea165627a7a7230582010527c9980675d4f4c437828612c9b65f8bf3dda82a103fbd50efa38bfee7a300029",
  "source": "/**\n * FlightDelay with Oraclized Underwriting and Payout\n *\n * @description NewPolicy contract.\n * @copyright (c) 2017 etherisc GmbH\n * @author Christoph Mussenbrock\n */\n\npragma solidity ^0.4.11;\n\nimport \"./FlightDelayControlledContract.sol\";\nimport \"./FlightDelayConstants.sol\";\nimport \"./FlightDelayDatabaseInterface.sol\";\nimport \"./FlightDelayAccessControllerInterface.sol\";\nimport \"./FlightDelayLedgerInterface.sol\";\nimport \"./FlightDelayUnderwriteInterface.sol\";\nimport \"./convertLib.sol\";\n\n\ncontract FlightDelayNewPolicy is FlightDelayControlledContract, FlightDelayConstants, ConvertLib {\n\n    FlightDelayAccessControllerInterface FD_AC;\n    FlightDelayDatabaseInterface FD_DB;\n    FlightDelayLedgerInterface FD_LG;\n    FlightDelayUnderwriteInterface FD_UW;\n\n    function FlightDelayNewPolicy(address _controller) public {\n        setController(_controller);\n    }\n\n    function setContracts() public onlyController {\n        FD_AC = FlightDelayAccessControllerInterface(getContract(\"FD.AccessController\"));\n        FD_DB = FlightDelayDatabaseInterface(getContract(\"FD.Database\"));\n        FD_LG = FlightDelayLedgerInterface(getContract(\"FD.Ledger\"));\n        FD_UW = FlightDelayUnderwriteInterface(getContract(\"FD.Underwrite\"));\n\n        FD_AC.setPermissionByAddress(101, 0x0);\n        FD_AC.setPermissionById(102, \"FD.Controller\");\n        FD_AC.setPermissionById(103, \"FD.Owner\");\n    }\n\n    function bookAndCalcRemainingPremium() internal returns (uint) {\n        uint v = msg.value;\n        uint reserve = v * RESERVE_PERCENT / 100;\n        uint remain = v - reserve;\n        uint reward = remain * REWARD_PERCENT / 100;\n\n        // FD_LG.bookkeeping(Acc.Balance, Acc.Premium, v);\n        FD_LG.bookkeeping(Acc.Premium, Acc.RiskFund, reserve);\n        FD_LG.bookkeeping(Acc.Premium, Acc.Reward, reward);\n\n        return (uint(remain - reward));\n    }\n\n    function maintenanceMode(bool _on) public {\n        if (FD_AC.checkPermission(103, msg.sender)) {\n            FD_AC.setPermissionByAddress(101, 0x0, !_on);\n        }\n    }\n\n    // create new policy\n    function newPolicy(\n        bytes32 _carrierFlightNumber,\n        bytes32 _departureYearMonthDay,\n        uint256 _departureTime,\n        uint256 _arrivalTime,\n        Currency _currency,\n        bytes32 _customerExternalId) public payable\n    {\n        // here we can switch it off.\n        require(FD_AC.checkPermission(101, 0x0));\n\n        // solidity checks for valid _currency parameter\n        if (_currency == Currency.ETH) {\n            // ETH\n            if (msg.value < MIN_PREMIUM || msg.value > MAX_PREMIUM) {\n                LogPolicyDeclined(0, \"Invalid premium value ETH\");\n                FD_LG.sendFunds(msg.sender, Acc.Premium, msg.value);\n                return;\n            }\n        } else {\n            require(msg.sender == getContract(\"FD.CustomersAdmin\"));\n\n            if (_currency == Currency.EUR) {\n                // EUR\n                if (msg.value < MIN_PREMIUM_EUR || msg.value > MAX_PREMIUM_EUR) {\n                    LogPolicyDeclined(0, \"Invalid premium value EUR\");\n                    FD_LG.sendFunds(msg.sender, Acc.Premium, msg.value);\n                    return;\n                }\n            }\n\n            if (_currency == Currency.USD) {\n                // USD\n                if (msg.value < MIN_PREMIUM_USD || msg.value > MAX_PREMIUM_USD) {\n                    LogPolicyDeclined(0, \"Invalid premium value USD\");\n                    FD_LG.sendFunds(msg.sender, Acc.Premium, msg.value);\n                    return;\n                }\n            }\n\n            if (_currency == Currency.GBP) {\n                // GBP\n                if (msg.value < MIN_PREMIUM_GBP || msg.value > MAX_PREMIUM_GBP) {\n                    LogPolicyDeclined(0, \"Invalid premium value GBP\");\n                    FD_LG.sendFunds(msg.sender, Acc.Premium, msg.value);\n                    return;\n                }\n            }\n        }\n\n        // forward premium\n        FD_LG.receiveFunds.value(msg.value)(Acc.Premium);\n\n\n        // don't Accept flights with departure time earlier than in 24 hours,\n        // or arrivalTime before departureTime,\n        // or departureTime after Mon, 26 Sep 2016 12:00:00 GMT\n        uint dmy = toUnixtime(_departureYearMonthDay);\n\n// --> debug-mode\n//            LogUintTime(\"NewPolicy: dmy: \", dmy);\n//            LogUintTime(\"NewPolicy: _departureTime: \", _departureTime);\n// <-- debug-mode\n\n        if (\n            _arrivalTime < _departureTime ||\n            _arrivalTime > _departureTime + MAX_FLIGHT_DURATION ||\n            _departureTime < now + MIN_TIME_BEFORE_DEPARTURE ||\n            _departureTime > CONTRACT_DEAD_LINE ||\n            _departureTime < dmy ||\n            _departureTime > dmy + 24 hours ||\n            _departureTime < FD_DB.MIN_DEPARTURE_LIM() ||\n            _departureTime > FD_DB.MAX_DEPARTURE_LIM()\n        ) {\n            LogPolicyDeclined(0, \"Invalid arrival/departure time\");\n            FD_LG.sendFunds(msg.sender, Acc.Premium, msg.value);\n            return;\n        }\n\n        bytes32 riskId = FD_DB.createUpdateRisk(_carrierFlightNumber, _departureYearMonthDay, _arrivalTime);\n\n        var (cumulatedWeightedPremium, premiumMultiplier) = FD_DB.getPremiumFactors(riskId);\n\n        // roughly check, whether MAX_CUMULATED_WEIGHTED_PREMIUM will be exceeded\n        // (we Accept the inAccuracy that the real remaining premium is 3% lower),\n        // but we are conservative;\n        // if this is the first policy, the left side will be 0\n        if (msg.value * premiumMultiplier + cumulatedWeightedPremium >= MAX_CUMULATED_WEIGHTED_PREMIUM) {\n            LogPolicyDeclined(0, \"Cluster risk\");\n            FD_LG.sendFunds(msg.sender, Acc.Premium, msg.value);\n            return;\n        } else if (cumulatedWeightedPremium == 0) {\n            // at the first police, we set r.cumulatedWeightedPremium to the max.\n            // this prevents further polices to be Accepted, until the correct\n            // value is calculated after the first callback from the oracle.\n            FD_DB.setPremiumFactors(riskId, MAX_CUMULATED_WEIGHTED_PREMIUM, premiumMultiplier);\n        }\n\n        uint premium = bookAndCalcRemainingPremium();\n        uint policyId = FD_DB.createPolicy(msg.sender, premium, _currency, _customerExternalId, riskId);\n\n        if (premiumMultiplier > 0) {\n            FD_DB.setPremiumFactors(\n                riskId,\n                cumulatedWeightedPremium + premium * premiumMultiplier,\n                premiumMultiplier\n            );\n        }\n\n        // now we have successfully applied\n        FD_DB.setState(\n            policyId,\n            policyState.Applied,\n            now,\n            \"Policy applied by customer\"\n        );\n\n        LogPolicyApplied(\n            policyId,\n            msg.sender,\n            _carrierFlightNumber,\n            premium\n        );\n\n        LogExternal(\n            policyId,\n            msg.sender,\n            _customerExternalId\n        );\n\n        FD_UW.scheduleUnderwriteOraclizeCall(policyId, _carrierFlightNumber);\n    }\n}\n",
  "sourcePath": "/Users/A/Data/Altoros/1244-Etherisc/repos/flightdelay/contracts/FlightDelayNewPolicy.sol",
  "compiler": {
    "name": "solc",
    "version": "0.4.19+commit.c4cbbb05.Emscripten.clang"
  },
  "schemaVersion": "2.0.0",
  "updatedAt": "2018-04-05T12:35:45.916Z"
}