{
  "contractName": "FlightDelayUnderwrite",
  "abi": [
    {
      "constant": false,
      "inputs": [],
      "name": "destruct",
      "outputs": [],
      "payable": false,
      "stateMutability": "nonpayable",
      "type": "function"
    },
    {
      "constant": false,
      "inputs": [
        {
          "name": "x",
          "type": "bytes32"
        }
      ],
      "name": "b32toHexString",
      "outputs": [
        {
          "name": "",
          "type": "string"
        }
      ],
      "payable": false,
      "stateMutability": "nonpayable",
      "type": "function"
    },
    {
      "constant": true,
      "inputs": [
        {
          "name": "_dayMonthYear",
          "type": "bytes32"
        }
      ],
      "name": "toUnixtime",
      "outputs": [
        {
          "name": "unixtime",
          "type": "uint256"
        }
      ],
      "payable": false,
      "stateMutability": "view",
      "type": "function"
    },
    {
      "constant": true,
      "inputs": [],
      "name": "controller",
      "outputs": [
        {
          "name": "",
          "type": "address"
        }
      ],
      "payable": false,
      "stateMutability": "view",
      "type": "function"
    },
    {
      "inputs": [
        {
          "name": "_controller",
          "type": "address"
        }
      ],
      "payable": false,
      "stateMutability": "nonpayable",
      "type": "constructor"
    },
    {
      "payable": true,
      "stateMutability": "payable",
      "type": "fallback"
    },
    {
      "anonymous": false,
      "inputs": [
        {
          "indexed": false,
          "name": "_policyId",
          "type": "uint256"
        },
        {
          "indexed": false,
          "name": "_customer",
          "type": "address"
        },
        {
          "indexed": false,
          "name": "strCarrierFlightNumber",
          "type": "bytes32"
        },
        {
          "indexed": false,
          "name": "ethPremium",
          "type": "uint256"
        }
      ],
      "name": "LogPolicyApplied",
      "type": "event"
    },
    {
      "anonymous": false,
      "inputs": [
        {
          "indexed": false,
          "name": "_policyId",
          "type": "uint256"
        },
        {
          "indexed": false,
          "name": "_statistics0",
          "type": "uint256"
        },
        {
          "indexed": false,
          "name": "_statistics1",
          "type": "uint256"
        },
        {
          "indexed": false,
          "name": "_statistics2",
          "type": "uint256"
        },
        {
          "indexed": false,
          "name": "_statistics3",
          "type": "uint256"
        },
        {
          "indexed": false,
          "name": "_statistics4",
          "type": "uint256"
        },
        {
          "indexed": false,
          "name": "_statistics5",
          "type": "uint256"
        }
      ],
      "name": "LogPolicyAccepted",
      "type": "event"
    },
    {
      "anonymous": false,
      "inputs": [
        {
          "indexed": false,
          "name": "_policyId",
          "type": "uint256"
        },
        {
          "indexed": false,
          "name": "ethAmount",
          "type": "uint256"
        }
      ],
      "name": "LogPolicyPaidOut",
      "type": "event"
    },
    {
      "anonymous": false,
      "inputs": [
        {
          "indexed": false,
          "name": "_policyId",
          "type": "uint256"
        }
      ],
      "name": "LogPolicyExpired",
      "type": "event"
    },
    {
      "anonymous": false,
      "inputs": [
        {
          "indexed": false,
          "name": "_policyId",
          "type": "uint256"
        },
        {
          "indexed": false,
          "name": "strReason",
          "type": "bytes32"
        }
      ],
      "name": "LogPolicyDeclined",
      "type": "event"
    },
    {
      "anonymous": false,
      "inputs": [
        {
          "indexed": false,
          "name": "_policyId",
          "type": "uint256"
        },
        {
          "indexed": false,
          "name": "strReason",
          "type": "bytes32"
        }
      ],
      "name": "LogPolicyManualPayout",
      "type": "event"
    },
    {
      "anonymous": false,
      "inputs": [
        {
          "indexed": false,
          "name": "_recipient",
          "type": "address"
        },
        {
          "indexed": false,
          "name": "_from",
          "type": "uint8"
        },
        {
          "indexed": false,
          "name": "ethAmount",
          "type": "uint256"
        }
      ],
      "name": "LogSendFunds",
      "type": "event"
    },
    {
      "anonymous": false,
      "inputs": [
        {
          "indexed": false,
          "name": "_sender",
          "type": "address"
        },
        {
          "indexed": false,
          "name": "_to",
          "type": "uint8"
        },
        {
          "indexed": false,
          "name": "ethAmount",
          "type": "uint256"
        }
      ],
      "name": "LogReceiveFunds",
      "type": "event"
    },
    {
      "anonymous": false,
      "inputs": [
        {
          "indexed": false,
          "name": "_policyId",
          "type": "uint256"
        },
        {
          "indexed": false,
          "name": "strReason",
          "type": "bytes32"
        }
      ],
      "name": "LogSendFail",
      "type": "event"
    },
    {
      "anonymous": false,
      "inputs": [
        {
          "indexed": false,
          "name": "_policyId",
          "type": "uint256"
        },
        {
          "indexed": false,
          "name": "hexQueryId",
          "type": "bytes32"
        },
        {
          "indexed": false,
          "name": "_oraclizeUrl",
          "type": "string"
        },
        {
          "indexed": false,
          "name": "_oraclizeTime",
          "type": "uint256"
        }
      ],
      "name": "LogOraclizeCall",
      "type": "event"
    },
    {
      "anonymous": false,
      "inputs": [
        {
          "indexed": false,
          "name": "_policyId",
          "type": "uint256"
        },
        {
          "indexed": false,
          "name": "hexQueryId",
          "type": "bytes32"
        },
        {
          "indexed": false,
          "name": "_result",
          "type": "string"
        },
        {
          "indexed": false,
          "name": "hexProof",
          "type": "bytes"
        }
      ],
      "name": "LogOraclizeCallback",
      "type": "event"
    },
    {
      "anonymous": false,
      "inputs": [
        {
          "indexed": false,
          "name": "_policyId",
          "type": "uint256"
        },
        {
          "indexed": false,
          "name": "_policyState",
          "type": "uint8"
        },
        {
          "indexed": false,
          "name": "_stateTime",
          "type": "uint256"
        },
        {
          "indexed": false,
          "name": "_stateMessage",
          "type": "bytes32"
        }
      ],
      "name": "LogSetState",
      "type": "event"
    },
    {
      "anonymous": false,
      "inputs": [
        {
          "indexed": false,
          "name": "_policyId",
          "type": "uint256"
        },
        {
          "indexed": false,
          "name": "_address",
          "type": "address"
        },
        {
          "indexed": false,
          "name": "_externalId",
          "type": "bytes32"
        }
      ],
      "name": "LogExternal",
      "type": "event"
    },
    {
      "constant": false,
      "inputs": [],
      "name": "setContracts",
      "outputs": [],
      "payable": false,
      "stateMutability": "nonpayable",
      "type": "function"
    },
    {
      "constant": false,
      "inputs": [
        {
          "name": "_policyId",
          "type": "uint256"
        },
        {
          "name": "_carrierFlightNumber",
          "type": "bytes32"
        }
      ],
      "name": "scheduleUnderwriteOraclizeCall",
      "outputs": [],
      "payable": false,
      "stateMutability": "nonpayable",
      "type": "function"
    },
    {
      "constant": false,
      "inputs": [
        {
          "name": "myid",
          "type": "bytes32"
        },
        {
          "name": "result",
          "type": "string"
        }
      ],
      "name": "__callback",
      "outputs": [],
      "payable": false,
      "stateMutability": "nonpayable",
      "type": "function"
    },
    {
      "constant": false,
      "inputs": [
        {
          "name": "_queryId",
          "type": "bytes32"
        },
        {
          "name": "_result",
          "type": "string"
        },
        {
          "name": "_proof",
          "type": "bytes"
        }
      ],
      "name": "__callback",
      "outputs": [],
      "payable": false,
      "stateMutability": "nonpayable",
      "type": "function"
    },
    {
      "constant": false,
      "inputs": [
        {
          "name": "_policyId",
          "type": "uint256"
        },
        {
          "name": "_reason",
          "type": "bytes32"
        }
      ],
      "name": "externalDecline",
      "outputs": [],
      "payable": false,
      "stateMutability": "nonpayable",
      "type": "function"
    }
  ],
  "bytecode": "0x606060405260c0604051908101604090815260008252600a6020830152601490820152601e606082015260326080820181905260a082015262000047906002906006620006b3565b506101806040519081016040908152600b8252602a6020830152604690820152606560608201526083608082015260a260a082015260c08082015260df60e082015260fe61010082015261011c61012082015261013b610140820152610159610160820152620000bc90600890600c6200074d565b503415620000c957600080fd5b60405160208062003a18833981016040528080519150620000fa90508164010000000062002e9b6200011f82021704565b506200011863ee6b280064010000000062002ec86200014c82021704565b50620008ca565b60008054600160a060020a03909216600160a060020a031992831681179091556001805490921617815590565b600354600160a060020a031615806200018757506003546200018590600160a060020a031664010000000062002541620002b482021704565b155b15620001a957620001a7600064010000000062002545620002b882021704565b505b600354600160a060020a03166338cc48316000604051602001526040518163ffffffff167c0100000000000000000000000000000000000000000000000000000000028152600401602060405180830381600087803b15156200020b57600080fd5b6102c65a03f115156200021d57600080fd5b505050604051805160048054600160a060020a031916600160a060020a03928316179081905516905063ca6ad1e4826040517c010000000000000000000000000000000000000000000000000000000063ffffffff84160281526004810191909152602401600060405180830381600087803b15156200029c57600080fd5b6102c65a03f11515620002ae57600080fd5b50505050565b3b90565b600080620002e8731d3b2638a7cc9f2cb3d298a3da7a90b67e5506ed64010000000062002541620002b482021704565b11156200036a5760038054600160a060020a031916731d3b2638a7cc9f2cb3d298a3da7a90b67e5506ed1790556200036160408051908101604052600b81527f6574685f6d61696e6e6574000000000000000000000000000000000000000000602082015264010000000062002da06200069a82021704565b50600162000695565b60006200039973c03a2615d5efaf5f49f60b7bb6583eaec212fdf164010000000062002541620002b482021704565b1115620004125760038054600160a060020a03191673c03a2615d5efaf5f49f60b7bb6583eaec212fdf11790556200036160408051908101604052600c81527f6574685f726f707374656e330000000000000000000000000000000000000000602082015264010000000062002da06200069a82021704565b60006200044173b7a07bcf2ba2f2703b24c0691b5278999c59ac7e64010000000062002541620002b482021704565b1115620004ba5760038054600160a060020a03191673b7a07bcf2ba2f2703b24c0691b5278999c59ac7e1790556200036160408051908101604052600981527f6574685f6b6f76616e0000000000000000000000000000000000000000000000602082015264010000000062002da06200069a82021704565b6000620004e973146500cfd35b22e4a392fe0adc06de1a1368ed4864010000000062002541620002b482021704565b1115620005625760038054600160a060020a03191673146500cfd35b22e4a392fe0adc06de1a1368ed481790556200036160408051908101604052600b81527f6574685f72696e6b656279000000000000000000000000000000000000000000602082015264010000000062002da06200069a82021704565b600062000591736f485c8bf6fc43ea212e93bbf8ce046c7f1cb47564010000000062002541620002b482021704565b1115620005c7575060038054600160a060020a031916736f485c8bf6fc43ea212e93bbf8ce046c7f1cb475179055600162000695565b6000620005f67320e12a1f859b3feae5fb2a0a32c18f5a65555bbf64010000000062002541620002b482021704565b11156200062c575060038054600160a060020a0319167320e12a1f859b3feae5fb2a0a32c18f5a65555bbf179055600162000695565b60006200065b7351efaf4c8b3c9afbd5ab9f4bbc82784ab6ef8faa64010000000062002541620002b482021704565b111562000691575060038054600160a060020a0319167351efaf4c8b3c9afbd5ab9f4bbc82784ab6ef8faa179055600162000695565b5060005b919050565b6005818051620006af929160200190620007e6565b5050565b6001830191839082156200073b5791602002820160005b838211156200070a57835183826101000a81548160ff021916908360ff1602179055509260200192600101602081600001049283019260010302620006ca565b8015620007395782816101000a81549060ff02191690556001016020816000010492830192600103026200070a565b505b506200074992915062000867565b5090565b600183019183908215620007d85791602002820160005b83821115620007a657835183826101000a81548161ffff021916908361ffff160217905550926020019260020160208160010104928301926001030262000764565b8015620007d65782816101000a81549061ffff0219169055600201602081600101049283019260010302620007a6565b505b50620007499291506200088b565b828054600181600116156101000203166002900490600052602060002090601f016020900481019282601f106200082957805160ff191683800117855562000859565b8280016001018555821562000859579182015b82811115620008595782518255916020019190600101906200083c565b5062000749929150620008ad565b6200088891905b808211156200074957805460ff191681556001016200086e565b90565b6200088891905b808211156200074957805461ffff1916815560010162000892565b6200088891905b80821115620007495760008155600101620008b4565b61313e80620008da6000396000f30060606040526004361061007f5763ffffffff60e060020a6000350416630da76f1c811461010a57806327dc297e146101235780632b68b9c61461017957806338bbfa501461018c5780638ad46ba0146102245780638b8c5ed9146102b1578063bcf599f1146102ca578063e0d6d530146102f2578063f77c479114610305575b600c54600160a060020a0316633ebd609260663360006040516020015260405160e060020a63ffffffff851602815260ff9092166004830152600160a060020a03166024820152604401602060405180830381600087803b15156100e257600080fd5b6102c65a03f115156100f357600080fd5b50505060405180519050151561010857600080fd5b005b341561011557600080fd5b610108600435602435610334565b341561012e57600080fd5b610108600480359060446024803590810190830135806020601f820181900481020160405190810160405281815292919060208401838380828437509496506106de95505050505050565b341561018457600080fd5b610108610710565b341561019757600080fd5b610108600480359060446024803590810190830135806020601f8201819004810201604051908101604052818152929190602084018383808284378201915050505050509190803590602001908201803590602001908080601f01602080910402602001604051908101604052818152929190602084018383808284375094965061073995505050505050565b341561022f57600080fd5b61023a600435610b88565b60405160208082528190810183818151815260200191508051906020019080838360005b8381101561027657808201518382015260200161025e565b50505050905090810190601f1680156102a35780820380516001836020036101000a031916815260200191505b509250505060405180910390f35b34156102bc57600080fd5b610108600435602435610c97565b34156102d557600080fd5b6102e0600435610f5e565b60405190815260200160405180910390f35b34156102fd57600080fd5b610108611262565b341561031057600080fd5b6103186114a2565b604051600160a060020a03909116815260200160405180910390f35b6001546000908190600160a060020a031663e16c7d98826040516020015260405160e060020a63ffffffff83160281527f46442e437573746f6d65727341646d696e0000000000000000000000000000006004820152602401602060405180830381600087803b15156103a657600080fd5b6102c65a03f115156103b757600080fd5b50505060405180519050600160a060020a031633600160a060020a03161415156103e057600080fd5b7f9ee71fae4eaec97727495a88dce95da03083cceac90064c30bd03ef65b86a3ae848460405191825260208201526040908101905180910390a1600954600160a060020a031663418cf5b185600542876040518563ffffffff1660e060020a0281526004018085815260200184600681111561045857fe5b60ff16815260208101939093525060408083019190915260609091019250600091505180830381600087803b151561048f57600080fd5b6102c65a03f115156104a057600080fd5b5050600954600160a060020a0316905063ffe280ee85600060405160e060020a63ffffffff8516028152600481019290925260248201526060604482015260006064820181905260a49091019060405180830381600087803b151561050457600080fd5b6102c65a03f1151561051557600080fd5b5050600954600160a060020a0316905063c168e0378560006040516040015260405160e060020a63ffffffff841602815260048101919091526024016040805180830381600087803b151561056957600080fd5b6102c65a03f1151561057a57600080fd5b5050506040518051906020018051600a54929450925050600160a060020a03166350bed0438360008481604051602001526040518463ffffffff1660e060020a0281526004018084600160a060020a0316600160a060020a031681526020018360058111156105e557fe5b60ff1681526020018281526020019350505050602060405180830381600087803b151561061157600080fd5b6102c65a03f1151561062257600080fd5b5050506040518051905015156106d857600954600160a060020a031663418cf5b1856006426040518463ffffffff1660e060020a0281526004018084815260200183600681111561066f57fe5b60ff168152602001828152602001807f6465636c696e653a2053656e64206661696c65642e00000000000000000000008152506020019350505050600060405180830381600087803b15156106c357600080fd5b6102c65a03f115156106d457600080fd5b5050505b50505050565b61070c828260006040518059106106f25750595b818152601f19601f83011681016020016040529050610739565b5050565b60005433600160a060020a0390811691161461072b57600080fd5b600054600160a060020a0316ff5b6000610743612db3565b600061074d612dca565b60006107787f46442e456d657267656e637900000000000000000000000000000000000000006114b1565b610780611524565b600160a060020a031633600160a060020a031614806107b0575080600160a060020a031633600160a060020a0316145b15156107bb57600080fd5b600954600160a060020a0316637f205c8c8a60006040516040015260405160e060020a63ffffffff841602815260048101919091526024016040805180830381600087803b151561080b57600080fd5b6102c65a03f1151561081c57600080fd5b505050604051805190602001805190505095507f4e010942cd8d70ef60f3bd7e17c62008722f9551f8f28dc7040004160de7e2cc868a8a8a60405184815260208101849052608060408201818152906060830190830185818151815260200191508051906020019080838360005b838110156108a257808201518382015260200161088a565b50505050905090810190601f1680156108cf5780820380516001836020036101000a031916815260200191505b50838103825284818151815260200191508051906020019080838360005b838110156109055780820151838201526020016108ed565b50505050905090810190601f1680156109325780820380516001836020036101000a031916815260200191505b50965050505050505060405180910390a161094c88611640565b94508751151561098657610981867f4465636c696e65642028656d70747920726573756c742900000000000000000089611668565b610b7d565b6109ba6109ad604080519081016040526002815260f560020a610161026020820152611640565b869063ffffffff6119c716565b6007146109ec57610981867f4465636c696e65642028696e76616c696420726573756c74290000000000000089611668565b610a83610a2b60408051908101604052600181527f5d000000000000000000000000000000000000000000000000000000000000006020820152611640565b610a77610a6a60408051908101604052600181527f5b000000000000000000000000000000000000000000000000000000000000006020820152611640565b889063ffffffff611a2516565b9063ffffffff611a8f16565b50610ac8610ac3610abe610ab1604080519081016040526002815260f560020a610161026020820152611640565b889063ffffffff611af616565b611b09565b611b57565b9350600a8411610afd57610981867f4465636c696e65642028746f6f20666577206f62736572766174696f6e73290089611668565b838352600191505b60058211610b725783610b48610ac3610abe610b3b604080519081016040526002815260f560020a610161026020820152611640565b899063ffffffff611af616565b61271002811515610b5557fe5b04838360068110610b6257fe5b6020020152600190910190610b05565b610b7d868489611b6c565b505050505050505050565b610b90612df1565b610b98612df1565b60008060008060408051805910610bac5750595b818152601f19601f830116810160200160405290509450600093505b6020841015610c8c576008601f8590030260020a87811515610be657fe5b049250601060ff841604915050601081028203600960ff83161115610c0c576027820191505b60098160ff161115610c1c576027015b8160300160f860020a02858560020281518110610c3557fe5b906020010190600160f860020a031916908160001a9053508060300160f860020a02858560020260010181518110610c6957fe5b906020010190600160f860020a031916908160001a905350600190930192610bc8565b509295945050505050565b610c9f612df1565b600c54600090600160a060020a0316633ebd6092606533846040516020015260405160e060020a63ffffffff851602815260ff9092166004830152600160a060020a03166024820152604401602060405180830381600087803b1515610d0457600080fd5b6102c65a03f11515610d1557600080fd5b505050604051805190501515610d2a57600080fd5b610dd8608060405190810160405280604881526020017f5b55524c5d206a736f6e2868747470733a2f2f6170692e666c6967687473746181526020017f74732e636f6d2f666c65782f726174696e67732f726573742f76312f6a736f6e81526020017f2f666c696768742f000000000000000000000000000000000000000000000000815250610db9856120bd565b610160604051908101604052610140808252612fd36020830139612205565b9150610e1b60408051908101604052600681527f6e65737465640000000000000000000000000000000000000000000000000000602082015283620aae60612240565b600954909150600160a060020a0316632ba1e439828660008060405160e060020a63ffffffff8716028152600481018581526024820185905290604401836001811115610e6457fe5b60ff168152602001828152602001945050505050600060405180830381600087803b1515610e9157600080fd5b6102c65a03f11515610ea257600080fd5b5050507f57d5927fefa8de5620b57ca7ac0948a9ea457d8f3af2bd8867728325a6ca5d928482846000604051848152602081018490526060810182905260806040820181815290820184818151815260200191508051906020019080838360005b83811015610f1b578082015183820152602001610f03565b50505050905090810190601f168015610f485780820380516001836020036101000a031916815260200191505b509550505050505060405180910390a150505050565b6000610f68612df1565b610f70612df1565b610f78612df1565b6000806000610f86886120bd565b95506002604051805910610f975750595b818152601f19601f8301168101602001604052905094506004604051805910610fbd5750595b818152601f19601f83011681016020016040529050935085600581518110610fe157fe5b016020015160f860020a900460f860020a028460008151811061100057fe5b906020010190600160f860020a031916908160001a9053508560068151811061102557fe5b016020015160f860020a900460f860020a028460018151811061104457fe5b906020010190600160f860020a031916908160001a9053508560078151811061106957fe5b016020015160f860020a900460f860020a028460028151811061108857fe5b906020010190600160f860020a031916908160001a905350856008815181106110ad57fe5b016020015160f860020a900460f860020a02846003815181106110cc57fe5b906020010190600160f860020a031916908160001a9053506110ed84611b57565b925085600a815181106110fc57fe5b016020015160f860020a900460f860020a028560008151811061111b57fe5b906020010190600160f860020a031916908160001a90535085600b8151811061114057fe5b016020015160f860020a900460f860020a028560018151811061115f57fe5b906020010190600160f860020a031916908160001a90535061118085611b57565b915085600d8151811061118f57fe5b016020015160f860020a900460f860020a02856000815181106111ae57fe5b906020010190600160f860020a031916908160001a90535085600e815181106111d357fe5b016020015160f860020a900460f860020a02856001815181106111f257fe5b906020010190600160f860020a031916908160001a90535061121385611b57565b90508060086000198401600c811061122757fe5b601091828204019190066002029054906101000a900461ffff1661ffff166107b2850361016d02010162015180029650505050505050919050565b60005433600160a060020a0390811691161461127d57600080fd5b6112a67f46442e416363657373436f6e74726f6c6c6572000000000000000000000000006114b1565b600c8054600160a060020a031916600160a060020a03929092169190911790556112ef7f46442e44617461626173650000000000000000000000000000000000000000006114b1565b60098054600160a060020a031916600160a060020a03929092169190911790556113387f46442e4c656467657200000000000000000000000000000000000000000000006114b1565b600a8054600160a060020a031916600160a060020a03929092169190911790556113817f46442e5061796f757400000000000000000000000000000000000000000000006114b1565b600b8054600160a060020a031916600160a060020a03928316179055600c541663c28b4577606560405160e060020a63ffffffff841602815260ff90911660048201527f46442e4e6577506f6c69637900000000000000000000000000000000000000006024820152604401600060405180830381600087803b151561140657600080fd5b6102c65a03f1151561141757600080fd5b5050600c54600160a060020a0316905063c28b4577606660405160e060020a63ffffffff841602815260ff90911660048201527f46442e46756e64657200000000000000000000000000000000000000000000006024820152604401600060405180830381600087803b151561148c57600080fd5b6102c65a03f1151561149d57600080fd5b505050565b600054600160a060020a031681565b600154600090600160a060020a031663e16c7d9883836040516020015260405160e060020a63ffffffff84160281526004810191909152602401602060405180830381600087803b151561150457600080fd5b6102c65a03f1151561151557600080fd5b50505060405180519392505050565b600354600090600160a060020a03161580611551575060035461154f90600160a060020a0316612541565b155b15611562576115606000612545565b505b600354600160a060020a03166338cc48316000604051602001526040518163ffffffff1660e060020a028152600401602060405180830381600087803b15156115aa57600080fd5b6102c65a03f115156115bb57600080fd5b505050604051805160048054600160a060020a031916600160a060020a03928316179081905516905063c281d19e6000604051602001526040518163ffffffff1660e060020a028152600401602060405180830381600087803b151561162057600080fd5b6102c65a03f1151561163157600080fd5b50505060405180519150505b90565b611648612db3565b602082016040805190810160405280845181526020019190915292915050565b6000807f9ee71fae4eaec97727495a88dce95da03083cceac90064c30bd03ef65b86a3ae858560405191825260208201526040908101905180910390a1600954600160a060020a031663418cf5b186600542886040518563ffffffff1660e060020a028152600401808581526020018460068111156116e357fe5b60ff16815260208101939093525060408083019190915260609091019250600091505180830381600087803b151561171a57600080fd5b6102c65a03f1151561172b57600080fd5b5050600954600160a060020a0316905063ffe280ee866000866040518463ffffffff1660e060020a0281526004018084815260200183815260200180602001828103825283818151815260200191508051906020019080838360005b8381101561179f578082015183820152602001611787565b50505050905090810190601f1680156117cc5780820380516001836020036101000a031916815260200191505b50945050505050600060405180830381600087803b15156117ec57600080fd5b6102c65a03f115156117fd57600080fd5b5050600954600160a060020a0316905063c168e0378660006040516040015260405160e060020a63ffffffff841602815260048101919091526024016040805180830381600087803b151561185157600080fd5b6102c65a03f1151561186257600080fd5b5050506040518051906020018051600a54929450925050600160a060020a03166350bed0438360008481604051602001526040518463ffffffff1660e060020a0281526004018084600160a060020a0316600160a060020a031681526020018360058111156118cd57fe5b60ff1681526020018281526020019350505050602060405180830381600087803b15156118f957600080fd5b6102c65a03f1151561190a57600080fd5b5050506040518051905015156119c057600954600160a060020a031663418cf5b1866006426040518463ffffffff1660e060020a0281526004018084815260200183600681111561195757fe5b60ff168152602001828152602001807f6465636c696e653a2053656e64206661696c65642e00000000000000000000008152506020019350505050600060405180830381600087803b15156119ab57600080fd5b6102c65a03f115156119bc57600080fd5b5050505b5050505050565b60008082516119e2855186602001518651876020015161286b565b0190505b83518460200151018111611a1e576001909101908251611a1685602001518303865103838651876020015161286b565b0190506119e6565b5092915050565b611a2d612db3565b6000825184511015611a4157839150611a1e565b5060016020830151846020015114611a69578251602085015160208501518290209190201490505b8015611a875782518481815103905250825184602001818151019052505b509192915050565b611a97612db3565b600080835185511015611aac57849250611aee565b835185518660200151010391506001905083602001518214611ad957835160208501518190209083201490505b8015611aea57835185818151039052505b8492505b505092915050565b611afe612db3565b611a1e83838361290e565b611b11612df1565b611b19612df1565b60008351604051805910611b2a5750595b818152601f19601f830116810160200160405290509150602082019050611a1e818560200151865161297d565b6000611b648260006129c2565b90505b919050565b60095460009081908190819081908190600160a060020a031663c168e0378a836040516040015260405160e060020a63ffffffff841602815260048101919091526024016040805180830381600087803b1515611bc857600080fd5b6102c65a03f11515611bd957600080fd5b5050506040518051906020018051600954909850600160a060020a0316915063eb80733990508a60006040516020015260405160e060020a63ffffffff84160281526004810191909152602401602060405180830381600087803b1515611c3f57600080fd5b6102c65a03f11515611c5057600080fd5b5050506040518051600954909650600160a060020a03169050639d5176fd8660006040516040015260405160e060020a63ffffffff841602815260048101919091526024016040805180830381600087803b1515611cad57600080fd5b6102c65a03f11515611cbe57600080fd5b5050506040518051906020018051600954909650600160a060020a0316915063cdcdb46390508660006040516060015260405160e060020a63ffffffff84160281526004810191909152602401606060405180830381600087803b1515611d2457600080fd5b6102c65a03f11515611d3557600080fd5b50505060405180519060200180519060200180519550600193505050505b600560ff821611611da6578760ff821660068110611d6d57fe5b6020020151600260ff831660068110611d8257fe5b60208082049092015460ff929091066101000a900416029190910190600101611d53565b811515611dc0578751620186a0811515611dbc57fe5b0491505b831515611e5157600954600160a060020a031663802de8fc8684620186a08a02811515611de957fe5b0485620186a0811515611df857fe5b0460405160e060020a63ffffffff8616028152600481019390935260248301919091526044820152606401600060405180830381600087803b1515611e3c57600080fd5b6102c65a03f11515611e4d57600080fd5b5050505b600954600160a060020a031663ffe280ee8a848a6040518463ffffffff1660e060020a0281526004018084815260200183815260200180602001828103825283818151815260200191508051906020019080838360005b83811015611ec0578082015183820152602001611ea8565b50505050905090810190601f168015611eed5780820380516001836020036101000a031916815260200191505b50945050505050600060405180830381600087803b1515611f0d57600080fd5b6102c65a03f11515611f1e57600080fd5b5050600954600160a060020a0316905063418cf5b18a6001426040518463ffffffff1660e060020a02815260040180848152602001836006811115611f5f57fe5b60ff168152602001828152602001807f506f6c69637920756e6465727772697474656e206279206f7261636c650000008152506020019350505050600060405180830381600087803b1515611fb357600080fd5b6102c65a03f11515611fc457600080fd5b507f70385f0d2eec84d8ff6456734404ae65b06b980e7360ea503ca23dcc56a1c51591508a9050895160208b015160408c015160608d015160808e015160a08f015160405196875260208701959095526040808701949094526060860192909252608085015260a084015260c083019190915260e0909101905180910390a1600b54600160a060020a031663746899908a87610384870160405160e060020a63ffffffff8616028152600481019390935260248301919091526044820152606401600060405180830381600087803b151561209e57600080fd5b6102c65a03f115156120af57600080fd5b505050505050505050505050565b6120c5612df1565b6120cd612df1565b60008060006120da612df1565b60206040518059106120e95750595b818152601f19601f83011681016020016040529050945060009350600092505b602083101561217c576008830260020a870291507fff00000000000000000000000000000000000000000000000000000000000000821615612171578185858151811061215257fe5b906020010190600160f860020a031916908160001a9053506001909301925b600190920191612109565b8360405180591061218a5750595b818152601f19601f830116810160200160405290509050600092505b838310156121fb578483815181106121ba57fe5b016020015160f860020a900460f860020a028184815181106121d857fe5b906020010190600160f860020a031916908160001a9053506001909201916121a6565b9695505050505050565b61220d612df1565b6122388484846020604051908101604052806000815250602060405190810160405260008152612b30565b949350505050565b6003546000908190600160a060020a0316158061226f575060035461226d90600160a060020a0316612541565b155b156122805761227e6000612545565b505b600354600160a060020a03166338cc48316000604051602001526040518163ffffffff1660e060020a028152600401602060405180830381600087803b15156122c857600080fd5b6102c65a03f115156122d957600080fd5b505050604051805160048054600160a060020a031916600160a060020a039283161790819055169050632ef3accc86856000604051602001526040518363ffffffff1660e060020a0281526004018080602001838152602001828103825284818151815260200191508051906020019080838360005b8381101561236757808201518382015260200161234f565b50505050905090810190601f1680156123945780820380516001836020036101000a031916815260200191505b509350505050602060405180830381600087803b15156123b357600080fd5b6102c65a03f115156123c457600080fd5b5050506040518051915050670de0b6b3a76400003a8402018111156123ec5760009150612539565b600454600160a060020a031663c51be90f82600088888883604051602001526040518663ffffffff1660e060020a028152600401808581526020018060200180602001848152602001838103835286818151815260200191508051906020019080838360005b8381101561246a578082015183820152602001612452565b50505050905090810190601f1680156124975780820380516001836020036101000a031916815260200191505b50838103825285818151815260200191508051906020019080838360005b838110156124cd5780820151838201526020016124b5565b50505050905090810190601f1680156124fa5780820380516001836020036101000a031916815260200191505b5096505050505050506020604051808303818588803b151561251b57600080fd5b6125ee5a03f1151561252c57600080fd5b5050505060405180519250505b509392505050565b3b90565b600080612565731d3b2638a7cc9f2cb3d298a3da7a90b67e5506ed612541565b11156125d55760038054600160a060020a031916731d3b2638a7cc9f2cb3d298a3da7a90b67e5506ed1790556125cd60408051908101604052600b81527f6574685f6d61696e6e65740000000000000000000000000000000000000000006020820152612da0565b506001611b67565b60006125f473c03a2615d5efaf5f49f60b7bb6583eaec212fdf1612541565b111561265c5760038054600160a060020a03191673c03a2615d5efaf5f49f60b7bb6583eaec212fdf11790556125cd60408051908101604052600c81527f6574685f726f707374656e3300000000000000000000000000000000000000006020820152612da0565b600061267b73b7a07bcf2ba2f2703b24c0691b5278999c59ac7e612541565b11156126e35760038054600160a060020a03191673b7a07bcf2ba2f2703b24c0691b5278999c59ac7e1790556125cd60408051908101604052600981527f6574685f6b6f76616e00000000000000000000000000000000000000000000006020820152612da0565b600061270273146500cfd35b22e4a392fe0adc06de1a1368ed48612541565b111561276a5760038054600160a060020a03191673146500cfd35b22e4a392fe0adc06de1a1368ed481790556125cd60408051908101604052600b81527f6574685f72696e6b6562790000000000000000000000000000000000000000006020820152612da0565b6000612789736f485c8bf6fc43ea212e93bbf8ce046c7f1cb475612541565b11156127bd575060038054600160a060020a031916736f485c8bf6fc43ea212e93bbf8ce046c7f1cb4751790556001611b67565b60006127dc7320e12a1f859b3feae5fb2a0a32c18f5a65555bbf612541565b1115612810575060038054600160a060020a0319167320e12a1f859b3feae5fb2a0a32c18f5a65555bbf1790556001611b67565b600061282f7351efaf4c8b3c9afbd5ab9f4bbc82784ab6ef8faa612541565b1115612863575060038054600160a060020a0319167351efaf4c8b3c9afbd5ab9f4bbc82784ab6ef8faa1790556001611b67565b506000919050565b6000808080808887116128fc57602087116128c25760018760200360080260020a031980875116888b038a018a96505b8183885116146128b757600187019681901061289b578b8b0196505b505050839450612902565b8686209150879350600092505b86890383116128fc5750858320818114156128ec57839450612902565b60019384019392909201916128cf565b88880194505b50505050949350505050565b612916612db3565b600061292e855186602001518651876020015161286b565b9050846020015160208085019190915285015181038352845185602001510181141561295d5760008552612974565b835183510185818151039052508351810160208601525b50909392505050565b60005b602082106129a35782518452602084019350602083019250602082039150612980565b6001826020036101000a03905080198351168185511617909352505050565b60006129cc612df1565b5082600080805b8351811015612b13577f3000000000000000000000000000000000000000000000000000000000000000848281518110612a0957fe5b016020015160f860020a900460f860020a02600160f860020a03191610158015612a7a57507f3900000000000000000000000000000000000000000000000000000000000000848281518110612a5b57fe5b016020015160f860020a900460f860020a02600160f860020a03191611155b15612ad0578115612a9957851515612a9157612b13565b600019909501945b600a830292506030848281518110612aad57fe5b016020015160f860020a900460f860020a0260f860020a90040383019250612b0b565b838181518110612adc57fe5b016020015160f860020a900460f860020a02600160f860020a031916602e60f860020a021415612b0b57600191505b6001016129d3565b6000861115612b255785600a0a830292505b509095945050505050565b612b38612df1565b612b40612df1565b612b48612df1565b612b50612df1565b612b58612df1565b612b60612df1565b612b68612df1565b612b70612df1565b6000808e98508d97508c96508b95508a94508451865188518a518c5101010101604051805910612b9d5750595b818152601f19601f83011681016020016040529050935083925060009150600090505b8851811015612c1957888181518110612bd557fe5b016020015160f860020a900460f860020a02838380600101945081518110612bf957fe5b906020010190600160f860020a031916908160001a905350600101612bc0565b5060005b8751811015612c7657878181518110612c3257fe5b016020015160f860020a900460f860020a02838380600101945081518110612c5657fe5b906020010190600160f860020a031916908160001a905350600101612c1d565b5060005b8651811015612cd357868181518110612c8f57fe5b016020015160f860020a900460f860020a02838380600101945081518110612cb357fe5b906020010190600160f860020a031916908160001a905350600101612c7a565b5060005b8551811015612d3057858181518110612cec57fe5b016020015160f860020a900460f860020a02838380600101945081518110612d1057fe5b906020010190600160f860020a031916908160001a905350600101612cd7565b5060005b8451811015612d8d57848181518110612d4957fe5b016020015160f860020a900460f860020a02838380600101945081518110612d6d57fe5b906020010190600160f860020a031916908160001a905350600101612d34565b50909d9c50505050505050505050505050565b600581805161070c929160200190612e03565b604080519081016040526000808252602082015290565b60c06040519081016040526006815b6000815260200190600190039081612dd95790505090565b60206040519081016040526000815290565b828054600181600116156101000203166002900490600052602060002090601f016020900481019282601f10612e4457805160ff1916838001178555612e71565b82800160010185558215612e71579182015b82811115612e71578251825591602001919060010190612e56565b50612e7d929150612e81565b5090565b61163d91905b80821115612e7d5760008155600101612e87565b60008054600160a060020a03909216600160a060020a031992831681179091556001805490921617815590565b600354600160a060020a03161580612ef25750600354612ef090600160a060020a0316612541565b155b15612f0357612f016000612545565b505b600354600160a060020a03166338cc48316000604051602001526040518163ffffffff1660e060020a028152600401602060405180830381600087803b1515612f4b57600080fd5b6102c65a03f11515612f5c57600080fd5b505050604051805160048054600160a060020a031916600160a060020a03928316179081905516905063ca6ad1e48260405160e060020a63ffffffff84160281526004810191909152602401600060405180830381600087803b1515612fc157600080fd5b6102c65a03f115156106d857600080fd003f247b5b646563727970745d20424172365a39516f6c4d325051696d462f704e43367a586c644f765a327171754f534b6d2f714a6b4a576e5347674165527732317742476e42625869616d722f49534335536c634a42367745504b7468646336462b4970714d2f695861764b73616c525572474e7542734766614d5872386652517736674c7a716b3065634f464e65436134382f79714276432f6b61732b6a544b48695978413377544a72565a437137365930336c5a493278784c616f6e69526b7d292e726174696e67735b305d5b276f62736572766174696f6e73272c276c6174653135272c276c6174653330272c276c6174653435272c2763616e63656c6c6564272c276469766572746564272c276172726976616c416972706f72744673436f6465272c27646570617274757265416972706f72744673436f6465275da165627a7a7230582044c006184bd9bb1f6f991ee2db6b96c78fef0ab880da8ca2267f5736fe3cc47d0029",
  "source": "/**\n * FlightDelay with Oraclized Underwriting and Payout\n *\n * @description\tUnderwrite contract\n * @copyright (c) 2017 etherisc GmbH\n * @author Christoph Mussenbrock\n */\n\npragma solidity ^0.4.11;\n\nimport \"./FlightDelayControlledContract.sol\";\nimport \"./FlightDelayConstants.sol\";\nimport \"./FlightDelayDatabaseInterface.sol\";\nimport \"./FlightDelayAccessControllerInterface.sol\";\nimport \"./FlightDelayLedgerInterface.sol\";\nimport \"./FlightDelayUnderwriteInterface.sol\";\nimport \"./FlightDelayPayoutInterface.sol\";\nimport \"./FlightDelayOraclizeInterface.sol\";\nimport \"./convertLib.sol\";\nimport \"./../vendors/strings.sol\";\n\n\ncontract FlightDelayUnderwrite is FlightDelayControlledContract, FlightDelayConstants, FlightDelayOraclizeInterface, ConvertLib {\n\n    using strings for *;\n\n    FlightDelayDatabaseInterface FD_DB;\n    FlightDelayLedgerInterface FD_LG;\n    FlightDelayPayoutInterface FD_PY;\n    FlightDelayAccessControllerInterface FD_AC;\n\n    function FlightDelayUnderwrite(address _controller) public {\n        setController(_controller);\n        oraclize_setCustomGasPrice(ORACLIZE_GASPRICE);\n    }\n\n    function setContracts() public onlyController {\n        FD_AC = FlightDelayAccessControllerInterface(getContract(\"FD.AccessController\"));\n        FD_DB = FlightDelayDatabaseInterface(getContract(\"FD.Database\"));\n        FD_LG = FlightDelayLedgerInterface(getContract(\"FD.Ledger\"));\n        FD_PY = FlightDelayPayoutInterface(getContract(\"FD.Payout\"));\n\n        FD_AC.setPermissionById(101, \"FD.NewPolicy\");\n        FD_AC.setPermissionById(102, \"FD.Funder\");\n    }\n\n    /*\n     * @dev Fund contract\n     */\n    function () payable {\n        require(FD_AC.checkPermission(102, msg.sender));\n\n        // todo: bookkeeping\n        // todo: fire funding event\n    }\n\n    function scheduleUnderwriteOraclizeCall(uint _policyId, bytes32 _carrierFlightNumber) public {\n        require(FD_AC.checkPermission(101, msg.sender));\n\n        string memory oraclizeUrl = strConcat(\n            ORACLIZE_RATINGS_BASE_URL,\n            b32toString(_carrierFlightNumber),\n            ORACLIZE_RATINGS_QUERY\n        );\n\n// --> debug-mode\n//            LogUint(\"_policyId\", _policyId);\n//            LogBytes32Str(\"_carrierFlightNumber\",_carrierFlightNumber);\n//            LogString(\"oraclizeUrl\", oraclizeUrl);\n// <-- debug-mode\n\n        bytes32 queryId = oraclize_query(\"nested\", oraclizeUrl, ORACLIZE_GAS);\n\n        // call oraclize to get Flight Stats; this will also call underwrite()\n        FD_DB.createOraclizeCallback(\n            queryId,\n            _policyId,\n            oraclizeState.ForUnderwriting,\n            0\n        );\n\n        LogOraclizeCall(_policyId, queryId, oraclizeUrl, 0);\n    }\n\n    function __callback(bytes32 _queryId, string _result, bytes _proof) onlyOraclizeOr(getContract('FD.Emergency')) public {\n\n        var (policyId,) = FD_DB.getOraclizeCallback(_queryId);\n        LogOraclizeCallback(policyId, _queryId, _result, _proof);\n\n        var slResult = _result.toSlice();\n\n        // we expect result to contain 8 values, something like\n        // \"[61, 10, 4, 3, 0, 0, \\\"CUN\\\", \\\"SFO\\\"]\" ->\n        // ['observations','late15','late30','late45','cancelled','diverted','arrivalAirportFsCode','departureAirportFsCode']\n        if (bytes(_result).length == 0) {\n            decline(policyId, \"Declined (empty result)\", _proof);\n        } else {\n            // now slice the string using\n            // https://github.com/Arachnid/solidity-stringutils\n            if (slResult.count(\", \".toSlice()) != 7) {\n                // check if result contains 8 values\n                decline(policyId, \"Declined (invalid result)\", _proof);\n            } else {\n                slResult.beyond(\"[\".toSlice()).until(\"]\".toSlice());\n\n                uint observations = parseInt(slResult.split(\", \".toSlice()).toString());\n\n                // decline on < minObservations observations,\n                // can't calculate reasonable probabibilities\n                if (observations <= MIN_OBSERVATIONS) {\n                    decline(policyId, \"Declined (too few observations)\", _proof);\n                } else {\n                    uint[6] memory statistics;\n                    // calculate statistics (scaled by 10000; 1% => 100)\n                    statistics[0] = observations;\n                    for (uint i = 1; i <= 5; i++) {\n                        statistics[i] = parseInt(slResult.split(\", \".toSlice()).toString()) * 10000/observations;\n                    }\n\n                    underwrite(policyId, statistics, _proof);\n\n//                    var origin = slResult.split(\", \".toSlice());\n//                    for (uint j = 0; j < FD_DB.countOrigins(); j++) {\n//                        if (b32toString(FD_DB.getOriginByIndex(j)).toSlice().equals(origin)) {\n//                            underwrite(policyId, statistics, _proof);\n//                            return;\n//                        }\n//                    }\n//\n//                    var destination = slResult.split(\", \".toSlice());\n//                    for (uint k = 0; k < FD_DB.countDestinations(); k++) {\n//                        if (b32toString(FD_DB.getDestinationByIndex(k)).toSlice().equals(destination)) {\n//                           underwrite(policyId, statistics, _proof);\n//                           return;\n//                        }\n//                    }\n//\n//                    decline(policyId, \"Not acceptable airport\", _proof);\n                }\n            }\n        }\n    } // __callback\n\n    function externalDecline(uint _policyId, bytes32 _reason) public {\n        require(msg.sender == FD_CI.getContract(\"FD.CustomersAdmin\"));\n\n        LogPolicyDeclined(_policyId, _reason);\n\n        FD_DB.setState(\n            _policyId,\n            policyState.Declined,\n            now,\n            _reason\n        );\n\n        FD_DB.setWeight(_policyId, 0, \"\");\n\n        var (customer, premium) = FD_DB.getCustomerPremium(_policyId);\n\n        if (!FD_LG.sendFunds(customer, Acc.Premium, premium)) {\n            FD_DB.setState(\n                _policyId,\n                policyState.SendFailed,\n                now,\n                \"decline: Send failed.\"\n            );\n        }\n    }\n\n    function decline(uint _policyId, bytes32 _reason, bytes _proof)\tinternal {\n        LogPolicyDeclined(_policyId, _reason);\n\n        FD_DB.setState(\n            _policyId,\n            policyState.Declined,\n            now,\n            _reason\n        );\n\n        FD_DB.setWeight(_policyId, 0, _proof);\n\n        var (customer, premium) = FD_DB.getCustomerPremium(_policyId);\n\n        // TODO: LOG\n        if (!FD_LG.sendFunds(customer, Acc.Premium, premium)) {\n            FD_DB.setState(\n                _policyId,\n                policyState.SendFailed,\n                now,\n                \"decline: Send failed.\"\n            );\n        }\n    }\n\n    function underwrite(uint _policyId, uint[6] _statistics, bytes _proof) internal {\n        var (, premium) = FD_DB.getCustomerPremium(_policyId); // throws if _policyId invalid\n        bytes32 riskId = FD_DB.getRiskId(_policyId);\n\n        var (, premiumMultiplier) = FD_DB.getPremiumFactors(riskId);\n        var (, , arrivalTime) = FD_DB.getRiskParameters(riskId);\n\n        uint weight;\n        for (uint8 i = 1; i <= 5; i++ ) {\n            weight += WEIGHT_PATTERN[i] * _statistics[i];\n            // 1% = 100 / 100% = 10,000\n        }\n        // to avoid div0 in the payout section,\n        // we have to make a minimal assumption on p.weight.\n        if (weight == 0) {\n            weight = 100000 / _statistics[0];\n        }\n\n        // we calculate the factors to limit cluster risks.\n        if (premiumMultiplier == 0) {\n            // it's the first call, we accept any premium\n            FD_DB.setPremiumFactors(riskId, premium * 100000 / weight, 100000 / weight);\n        }\n\n        FD_DB.setWeight(_policyId, weight, _proof);\n\n        FD_DB.setState(\n            _policyId,\n            policyState.Accepted,\n            now,\n            \"Policy underwritten by oracle\"\n        );\n\n        LogPolicyAccepted(\n            _policyId,\n            _statistics[0],\n            _statistics[1],\n            _statistics[2],\n            _statistics[3],\n            _statistics[4],\n            _statistics[5]\n        );\n\n        // schedule payout Oracle\n        FD_PY.schedulePayoutOraclizeCall(_policyId, riskId, arrivalTime + CHECK_PAYOUT_OFFSET);\n    }\n}\n",
  "sourcePath": "/Users/melnikaite/projects/flightDelay/contracts/FlightDelayUnderwrite.sol",
  "compiler": {
    "name": "solc",
    "version": "0.4.19+commit.c4cbbb05.Emscripten.clang"
  },
  "schemaVersion": "2.0.0",
  "updatedAt": "2018-03-13T09:40:39.998Z"
}