{
  "contractName": "FlightDelayUnderwrite",
  "abi": [
    {
      "constant": false,
      "inputs": [
        {
          "name": "_policyId",
          "type": "uint256"
        },
        {
          "name": "_reason",
          "type": "bytes32"
        }
      ],
      "name": "externalDecline",
      "outputs": [],
      "payable": false,
      "stateMutability": "nonpayable",
      "type": "function"
    },
    {
      "constant": false,
      "inputs": [
        {
          "name": "myid",
          "type": "bytes32"
        },
        {
          "name": "result",
          "type": "string"
        }
      ],
      "name": "__callback",
      "outputs": [],
      "payable": false,
      "stateMutability": "nonpayable",
      "type": "function"
    },
    {
      "constant": false,
      "inputs": [],
      "name": "destruct",
      "outputs": [],
      "payable": false,
      "stateMutability": "nonpayable",
      "type": "function"
    },
    {
      "constant": false,
      "inputs": [
        {
          "name": "_queryId",
          "type": "bytes32"
        },
        {
          "name": "_result",
          "type": "string"
        },
        {
          "name": "_proof",
          "type": "bytes"
        }
      ],
      "name": "__callback",
      "outputs": [],
      "payable": false,
      "stateMutability": "nonpayable",
      "type": "function"
    },
    {
      "constant": false,
      "inputs": [
        {
          "name": "x",
          "type": "bytes32"
        }
      ],
      "name": "b32toHexString",
      "outputs": [
        {
          "name": "",
          "type": "string"
        }
      ],
      "payable": false,
      "stateMutability": "nonpayable",
      "type": "function"
    },
    {
      "constant": false,
      "inputs": [
        {
          "name": "_policyId",
          "type": "uint256"
        },
        {
          "name": "_carrierFlightNumber",
          "type": "bytes32"
        }
      ],
      "name": "scheduleUnderwriteOraclizeCall",
      "outputs": [],
      "payable": false,
      "stateMutability": "nonpayable",
      "type": "function"
    },
    {
      "constant": true,
      "inputs": [
        {
          "name": "_dayMonthYear",
          "type": "bytes32"
        }
      ],
      "name": "toUnixtime",
      "outputs": [
        {
          "name": "unixtime",
          "type": "uint256"
        }
      ],
      "payable": false,
      "stateMutability": "view",
      "type": "function"
    },
    {
      "constant": false,
      "inputs": [],
      "name": "setContracts",
      "outputs": [],
      "payable": false,
      "stateMutability": "nonpayable",
      "type": "function"
    },
    {
      "constant": true,
      "inputs": [],
      "name": "controller",
      "outputs": [
        {
          "name": "",
          "type": "address"
        }
      ],
      "payable": false,
      "stateMutability": "view",
      "type": "function"
    },
    {
      "inputs": [
        {
          "name": "_controller",
          "type": "address"
        }
      ],
      "payable": false,
      "stateMutability": "nonpayable",
      "type": "constructor"
    },
    {
      "payable": true,
      "stateMutability": "payable",
      "type": "fallback"
    },
    {
      "anonymous": false,
      "inputs": [
        {
          "indexed": false,
          "name": "_policyId",
          "type": "uint256"
        },
        {
          "indexed": false,
          "name": "_customer",
          "type": "address"
        },
        {
          "indexed": false,
          "name": "strCarrierFlightNumber",
          "type": "bytes32"
        },
        {
          "indexed": false,
          "name": "ethPremium",
          "type": "uint256"
        }
      ],
      "name": "LogPolicyApplied",
      "type": "event"
    },
    {
      "anonymous": false,
      "inputs": [
        {
          "indexed": false,
          "name": "_policyId",
          "type": "uint256"
        },
        {
          "indexed": false,
          "name": "_statistics0",
          "type": "uint256"
        },
        {
          "indexed": false,
          "name": "_statistics1",
          "type": "uint256"
        },
        {
          "indexed": false,
          "name": "_statistics2",
          "type": "uint256"
        },
        {
          "indexed": false,
          "name": "_statistics3",
          "type": "uint256"
        },
        {
          "indexed": false,
          "name": "_statistics4",
          "type": "uint256"
        },
        {
          "indexed": false,
          "name": "_statistics5",
          "type": "uint256"
        }
      ],
      "name": "LogPolicyAccepted",
      "type": "event"
    },
    {
      "anonymous": false,
      "inputs": [
        {
          "indexed": false,
          "name": "_policyId",
          "type": "uint256"
        },
        {
          "indexed": false,
          "name": "ethAmount",
          "type": "uint256"
        }
      ],
      "name": "LogPolicyPaidOut",
      "type": "event"
    },
    {
      "anonymous": false,
      "inputs": [
        {
          "indexed": false,
          "name": "_policyId",
          "type": "uint256"
        }
      ],
      "name": "LogPolicyExpired",
      "type": "event"
    },
    {
      "anonymous": false,
      "inputs": [
        {
          "indexed": false,
          "name": "_policyId",
          "type": "uint256"
        },
        {
          "indexed": false,
          "name": "strReason",
          "type": "bytes32"
        }
      ],
      "name": "LogPolicyDeclined",
      "type": "event"
    },
    {
      "anonymous": false,
      "inputs": [
        {
          "indexed": false,
          "name": "_policyId",
          "type": "uint256"
        },
        {
          "indexed": false,
          "name": "strReason",
          "type": "bytes32"
        }
      ],
      "name": "LogPolicyManualPayout",
      "type": "event"
    },
    {
      "anonymous": false,
      "inputs": [
        {
          "indexed": false,
          "name": "_recipient",
          "type": "address"
        },
        {
          "indexed": false,
          "name": "_from",
          "type": "uint8"
        },
        {
          "indexed": false,
          "name": "ethAmount",
          "type": "uint256"
        }
      ],
      "name": "LogSendFunds",
      "type": "event"
    },
    {
      "anonymous": false,
      "inputs": [
        {
          "indexed": false,
          "name": "_sender",
          "type": "address"
        },
        {
          "indexed": false,
          "name": "_to",
          "type": "uint8"
        },
        {
          "indexed": false,
          "name": "ethAmount",
          "type": "uint256"
        }
      ],
      "name": "LogReceiveFunds",
      "type": "event"
    },
    {
      "anonymous": false,
      "inputs": [
        {
          "indexed": false,
          "name": "_policyId",
          "type": "uint256"
        },
        {
          "indexed": false,
          "name": "strReason",
          "type": "bytes32"
        }
      ],
      "name": "LogSendFail",
      "type": "event"
    },
    {
      "anonymous": false,
      "inputs": [
        {
          "indexed": false,
          "name": "_policyId",
          "type": "uint256"
        },
        {
          "indexed": false,
          "name": "hexQueryId",
          "type": "bytes32"
        },
        {
          "indexed": false,
          "name": "_oraclizeUrl",
          "type": "string"
        },
        {
          "indexed": false,
          "name": "_oraclizeTime",
          "type": "uint256"
        }
      ],
      "name": "LogOraclizeCall",
      "type": "event"
    },
    {
      "anonymous": false,
      "inputs": [
        {
          "indexed": false,
          "name": "_policyId",
          "type": "uint256"
        },
        {
          "indexed": false,
          "name": "hexQueryId",
          "type": "bytes32"
        },
        {
          "indexed": false,
          "name": "_result",
          "type": "string"
        },
        {
          "indexed": false,
          "name": "hexProof",
          "type": "bytes"
        }
      ],
      "name": "LogOraclizeCallback",
      "type": "event"
    },
    {
      "anonymous": false,
      "inputs": [
        {
          "indexed": false,
          "name": "_policyId",
          "type": "uint256"
        },
        {
          "indexed": false,
          "name": "_policyState",
          "type": "uint8"
        },
        {
          "indexed": false,
          "name": "_stateTime",
          "type": "uint256"
        },
        {
          "indexed": false,
          "name": "_stateMessage",
          "type": "bytes32"
        }
      ],
      "name": "LogSetState",
      "type": "event"
    },
    {
      "anonymous": false,
      "inputs": [
        {
          "indexed": false,
          "name": "_policyId",
          "type": "uint256"
        },
        {
          "indexed": false,
          "name": "_address",
          "type": "address"
        },
        {
          "indexed": false,
          "name": "_externalId",
          "type": "bytes32"
        }
      ],
      "name": "LogExternal",
      "type": "event"
    }
  ],
  "bytecode": "0x606060405260c0604051908101604090815260008252600a6020830152601490820152601e606082015260326080820181905260a082015262000047906002906006620006b3565b506101806040519081016040908152600b8252602a6020830152604690820152606560608201526083608082015260a260a082015260c08082015260df60e082015260fe61010082015261011c61012082015261013b610140820152610159610160820152620000bc90600890600c6200074d565b503415620000c957600080fd5b60405160208062003d60833981016040528080519150620000fa905081640100000000620031e36200011f82021704565b506200011863ee6b2800640100000000620032106200014c82021704565b50620008ca565b60008054600160a060020a03909216600160a060020a031992831681179091556001805490921617815590565b600354600160a060020a031615806200018757506003546200018590600160a060020a0316640100000000620027ef620002b482021704565b155b15620001a957620001a76000640100000000620027f3620002b882021704565b505b600354600160a060020a03166338cc48316000604051602001526040518163ffffffff167c0100000000000000000000000000000000000000000000000000000000028152600401602060405180830381600087803b15156200020b57600080fd5b6102c65a03f115156200021d57600080fd5b505050604051805160048054600160a060020a031916600160a060020a03928316179081905516905063ca6ad1e4826040517c010000000000000000000000000000000000000000000000000000000063ffffffff84160281526004810191909152602401600060405180830381600087803b15156200029c57600080fd5b6102c65a03f11515620002ae57600080fd5b50505050565b3b90565b600080620002e8731d3b2638a7cc9f2cb3d298a3da7a90b67e5506ed640100000000620027ef620002b482021704565b11156200036a5760038054600160a060020a031916731d3b2638a7cc9f2cb3d298a3da7a90b67e5506ed1790556200036160408051908101604052600b81527f6574685f6d61696e6e65740000000000000000000000000000000000000000006020820152640100000000620030e86200069a82021704565b50600162000695565b60006200039973c03a2615d5efaf5f49f60b7bb6583eaec212fdf1640100000000620027ef620002b482021704565b1115620004125760038054600160a060020a03191673c03a2615d5efaf5f49f60b7bb6583eaec212fdf11790556200036160408051908101604052600c81527f6574685f726f707374656e3300000000000000000000000000000000000000006020820152640100000000620030e86200069a82021704565b60006200044173b7a07bcf2ba2f2703b24c0691b5278999c59ac7e640100000000620027ef620002b482021704565b1115620004ba5760038054600160a060020a03191673b7a07bcf2ba2f2703b24c0691b5278999c59ac7e1790556200036160408051908101604052600981527f6574685f6b6f76616e00000000000000000000000000000000000000000000006020820152640100000000620030e86200069a82021704565b6000620004e973146500cfd35b22e4a392fe0adc06de1a1368ed48640100000000620027ef620002b482021704565b1115620005625760038054600160a060020a03191673146500cfd35b22e4a392fe0adc06de1a1368ed481790556200036160408051908101604052600b81527f6574685f72696e6b6562790000000000000000000000000000000000000000006020820152640100000000620030e86200069a82021704565b600062000591736f485c8bf6fc43ea212e93bbf8ce046c7f1cb475640100000000620027ef620002b482021704565b1115620005c7575060038054600160a060020a031916736f485c8bf6fc43ea212e93bbf8ce046c7f1cb475179055600162000695565b6000620005f67320e12a1f859b3feae5fb2a0a32c18f5a65555bbf640100000000620027ef620002b482021704565b11156200062c575060038054600160a060020a0319167320e12a1f859b3feae5fb2a0a32c18f5a65555bbf179055600162000695565b60006200065b7351efaf4c8b3c9afbd5ab9f4bbc82784ab6ef8faa640100000000620027ef620002b482021704565b111562000691575060038054600160a060020a0319167351efaf4c8b3c9afbd5ab9f4bbc82784ab6ef8faa179055600162000695565b5060005b919050565b6005818051620006af929160200190620007e6565b5050565b6001830191839082156200073b5791602002820160005b838211156200070a57835183826101000a81548160ff021916908360ff1602179055509260200192600101602081600001049283019260010302620006ca565b8015620007395782816101000a81549060ff02191690556001016020816000010492830192600103026200070a565b505b506200074992915062000867565b5090565b600183019183908215620007d85791602002820160005b83821115620007a657835183826101000a81548161ffff021916908361ffff160217905550926020019260020160208160010104928301926001030262000764565b8015620007d65782816101000a81549061ffff0219169055600201602081600101049283019260010302620007a6565b505b50620007499291506200088b565b828054600181600116156101000203166002900490600052602060002090601f016020900481019282601f106200082957805160ff191683800117855562000859565b8280016001018555821562000859579182015b82811115620008595782518255916020019190600101906200083c565b5062000749929150620008ad565b6200088891905b808211156200074957805460ff191681556001016200086e565b90565b6200088891905b808211156200074957805461ffff1916815560010162000892565b6200088891905b80821115620007495760008155600101620008b4565b61348680620008da6000396000f30060606040526004361061007f5763ffffffff60e060020a6000350416630da76f1c811461010a57806327dc297e146101235780632b68b9c61461017957806338bbfa501461018c5780638ad46ba0146102245780638b8c5ed9146102b1578063bcf599f1146102ca578063e0d6d530146102f2578063f77c479114610305575b600c54600160a060020a0316633ebd609260663360006040516020015260405160e060020a63ffffffff851602815260ff9092166004830152600160a060020a03166024820152604401602060405180830381600087803b15156100e257600080fd5b6102c65a03f115156100f357600080fd5b50505060405180519050151561010857600080fd5b005b341561011557600080fd5b610108600435602435610334565b341561012e57600080fd5b610108600480359060446024803590810190830135806020601f820181900481020160405190810160405281815292919060208401838380828437509496506106de95505050505050565b341561018457600080fd5b610108610710565b341561019757600080fd5b610108600480359060446024803590810190830135806020601f8201819004810201604051908101604052818152929190602084018383808284378201915050505050509190803590602001908201803590602001908080601f01602080910402602001604051908101604052818152929190602084018383808284375094965061073995505050505050565b341561022f57600080fd5b61023a600435610e22565b60405160208082528190810183818151815260200191508051906020019080838360005b8381101561027657808201518382015260200161025e565b50505050905090810190601f1680156102a35780820380516001836020036101000a031916815260200191505b509250505060405180910390f35b34156102bc57600080fd5b610108600435602435610f31565b34156102d557600080fd5b6102e06004356111f8565b60405190815260200160405180910390f35b34156102fd57600080fd5b6101086114fc565b341561031057600080fd5b61031861173c565b604051600160a060020a03909116815260200160405180910390f35b6001546000908190600160a060020a031663e16c7d98826040516020015260405160e060020a63ffffffff83160281527f46442e437573746f6d65727341646d696e0000000000000000000000000000006004820152602401602060405180830381600087803b15156103a657600080fd5b6102c65a03f115156103b757600080fd5b50505060405180519050600160a060020a031633600160a060020a03161415156103e057600080fd5b7f9ee71fae4eaec97727495a88dce95da03083cceac90064c30bd03ef65b86a3ae848460405191825260208201526040908101905180910390a1600954600160a060020a031663418cf5b185600542876040518563ffffffff1660e060020a0281526004018085815260200184600681111561045857fe5b60ff16815260208101939093525060408083019190915260609091019250600091505180830381600087803b151561048f57600080fd5b6102c65a03f115156104a057600080fd5b5050600954600160a060020a0316905063ffe280ee85600060405160e060020a63ffffffff8516028152600481019290925260248201526060604482015260006064820181905260a49091019060405180830381600087803b151561050457600080fd5b6102c65a03f1151561051557600080fd5b5050600954600160a060020a0316905063c168e0378560006040516040015260405160e060020a63ffffffff841602815260048101919091526024016040805180830381600087803b151561056957600080fd5b6102c65a03f1151561057a57600080fd5b5050506040518051906020018051600a54929450925050600160a060020a03166350bed0438360008481604051602001526040518463ffffffff1660e060020a0281526004018084600160a060020a0316600160a060020a031681526020018360058111156105e557fe5b60ff1681526020018281526020019350505050602060405180830381600087803b151561061157600080fd5b6102c65a03f1151561062257600080fd5b5050506040518051905015156106d857600954600160a060020a031663418cf5b1856006426040518463ffffffff1660e060020a0281526004018084815260200183600681111561066f57fe5b60ff168152602001828152602001807f6465636c696e653a2053656e64206661696c65642e00000000000000000000008152506020019350505050600060405180830381600087803b15156106c357600080fd5b6102c65a03f115156106d457600080fd5b5050505b50505050565b61070c828260006040518059106106f25750595b818152601f19601f83011681016020016040529050610739565b5050565b60005433600160a060020a0390811691161461072b57600080fd5b600054600160a060020a0316ff5b60006107436130fb565b600061074d613112565b60006107576130fb565b60006107616130fb565b600061078c7f46442e456d657267656e6379000000000000000000000000000000000000000061174b565b6107946117be565b600160a060020a031633600160a060020a031614806107c4575080600160a060020a031633600160a060020a0316145b15156107cf57600080fd5b600954600160a060020a0316637f205c8c8e60006040516040015260405160e060020a63ffffffff841602815260048101919091526024016040805180830381600087803b151561081f57600080fd5b6102c65a03f1151561083057600080fd5b505050604051805190602001805190505099507f4e010942cd8d70ef60f3bd7e17c62008722f9551f8f28dc7040004160de7e2cc8a8e8e8e60405184815260208101849052608060408201818152906060830190830185818151815260200191508051906020019080838360005b838110156108b657808201518382015260200161089e565b50505050905090810190601f1680156108e35780820380516001836020036101000a031916815260200191505b50838103825284818151815260200191508051906020019080838360005b83811015610919578082015183820152602001610901565b50505050905090810190601f1680156109465780820380516001836020036101000a031916815260200191505b50965050505050505060405180910390a16109608c6118da565b98508b51151561099a576109958a7f4465636c696e65642028656d70747920726573756c74290000000000000000008d611902565b610e13565b6109ce6109c1604080519081016040526002815260f560020a6101610260208201526118da565b8a9063ffffffff611c6116565b600714610a00576109958a7f4465636c696e65642028696e76616c696420726573756c7429000000000000008d611902565b610a97610a3f60408051908101604052600181527f5d0000000000000000000000000000000000000000000000000000000000000060208201526118da565b610a8b610a7e60408051908101604052600181527f5b0000000000000000000000000000000000000000000000000000000000000060208201526118da565b8c9063ffffffff611cbf16565b9063ffffffff611d2916565b50610adc610ad7610ad2610ac5604080519081016040526002815260f560020a6101610260208201526118da565b8c9063ffffffff611d9016565b611da3565b611df1565b9750600a8811610b11576109958a7f4465636c696e65642028746f6f20666577206f62736572766174696f6e7329008d611902565b878752600195505b60058611610b865787610b5c610ad7610ad2610b4f604080519081016040526002815260f560020a6101610260208201526118da565b8d9063ffffffff611d9016565b61271002811515610b6957fe5b04878760068110610b7657fe5b6020020152600190950194610b19565b610bba610bad604080519081016040526002815260f560020a6101610260208201526118da565b8a9063ffffffff611d9016565b9450600093505b600954600160a060020a031663bc9c58f66000604051602001526040518163ffffffff1660e060020a028152600401602060405180830381600087803b1515610c0957600080fd5b6102c65a03f11515610c1a57600080fd5b50505060405180519050841015610cd657600954610cbb908690610caf90610caa90600160a060020a031663be1698568960006040516020015260405160e060020a63ffffffff84160281526004810191909152602401602060405180830381600087803b1515610c8a57600080fd5b6102c65a03f11515610c9b57600080fd5b50505060405180519050611e06565b6118da565b9063ffffffff611f4e16565b15610ccb576109958a888d611f62565b600190930192610bc1565b610cfd610bad604080519081016040526002815260f560020a6101610260208201526118da565b9250600091505b600954600160a060020a031663b6a0a1196000604051602001526040518163ffffffff1660e060020a028152600401602060405180830381600087803b1515610d4c57600080fd5b6102c65a03f11515610d5d57600080fd5b50505060405180519050821015610de857600954610dcd908490610caf90610caa90600160a060020a031663f2e55ac18760006040516020015260405160e060020a63ffffffff84160281526004810191909152602401602060405180830381600087803b1515610c8a57600080fd5b15610ddd576109958a888d611f62565b600190910190610d04565b610e138a7f4e6f742061636365707461626c6520616972706f7274000000000000000000008d611902565b50505050505050505050505050565b610e2a613139565b610e32613139565b60008060008060408051805910610e465750595b818152601f19601f830116810160200160405290509450600093505b6020841015610f26576008601f8590030260020a87811515610e8057fe5b049250601060ff841604915050601081028203600960ff83161115610ea6576027820191505b60098160ff161115610eb6576027015b8160300160f860020a02858560020281518110610ecf57fe5b906020010190600160f860020a031916908160001a9053508060300160f860020a02858560020260010181518110610f0357fe5b906020010190600160f860020a031916908160001a905350600190930192610e62565b509295945050505050565b610f39613139565b600c54600090600160a060020a0316633ebd6092606533846040516020015260405160e060020a63ffffffff851602815260ff9092166004830152600160a060020a03166024820152604401602060405180830381600087803b1515610f9e57600080fd5b6102c65a03f11515610faf57600080fd5b505050604051805190501515610fc457600080fd5b611072608060405190810160405280604881526020017f5b55524c5d206a736f6e2868747470733a2f2f6170692e666c6967687473746181526020017f74732e636f6d2f666c65782f726174696e67732f726573742f76312f6a736f6e81526020017f2f666c696768742f00000000000000000000000000000000000000000000000081525061105385611e06565b61016060405190810160405261014080825261331b60208301396124b3565b91506110b560408051908101604052600681527f6e65737465640000000000000000000000000000000000000000000000000000602082015283620aae606124ee565b600954909150600160a060020a0316632ba1e439828660008060405160e060020a63ffffffff87160281526004810185815260248201859052906044018360018111156110fe57fe5b60ff168152602001828152602001945050505050600060405180830381600087803b151561112b57600080fd5b6102c65a03f1151561113c57600080fd5b5050507f57d5927fefa8de5620b57ca7ac0948a9ea457d8f3af2bd8867728325a6ca5d928482846000604051848152602081018490526060810182905260806040820181815290820184818151815260200191508051906020019080838360005b838110156111b557808201518382015260200161119d565b50505050905090810190601f1680156111e25780820380516001836020036101000a031916815260200191505b509550505050505060405180910390a150505050565b6000611202613139565b61120a613139565b611212613139565b600080600061122088611e06565b955060026040518059106112315750595b818152601f19601f83011681016020016040529050945060046040518059106112575750595b818152601f19601f8301168101602001604052905093508560058151811061127b57fe5b016020015160f860020a900460f860020a028460008151811061129a57fe5b906020010190600160f860020a031916908160001a905350856006815181106112bf57fe5b016020015160f860020a900460f860020a02846001815181106112de57fe5b906020010190600160f860020a031916908160001a9053508560078151811061130357fe5b016020015160f860020a900460f860020a028460028151811061132257fe5b906020010190600160f860020a031916908160001a9053508560088151811061134757fe5b016020015160f860020a900460f860020a028460038151811061136657fe5b906020010190600160f860020a031916908160001a90535061138784611df1565b925085600a8151811061139657fe5b016020015160f860020a900460f860020a02856000815181106113b557fe5b906020010190600160f860020a031916908160001a90535085600b815181106113da57fe5b016020015160f860020a900460f860020a02856001815181106113f957fe5b906020010190600160f860020a031916908160001a90535061141a85611df1565b915085600d8151811061142957fe5b016020015160f860020a900460f860020a028560008151811061144857fe5b906020010190600160f860020a031916908160001a90535085600e8151811061146d57fe5b016020015160f860020a900460f860020a028560018151811061148c57fe5b906020010190600160f860020a031916908160001a9053506114ad85611df1565b90508060086000198401600c81106114c157fe5b601091828204019190066002029054906101000a900461ffff1661ffff166107b2850361016d02010162015180029650505050505050919050565b60005433600160a060020a0390811691161461151757600080fd5b6115407f46442e416363657373436f6e74726f6c6c65720000000000000000000000000061174b565b600c8054600160a060020a031916600160a060020a03929092169190911790556115897f46442e446174616261736500000000000000000000000000000000000000000061174b565b60098054600160a060020a031916600160a060020a03929092169190911790556115d27f46442e4c6564676572000000000000000000000000000000000000000000000061174b565b600a8054600160a060020a031916600160a060020a039290921691909117905561161b7f46442e5061796f7574000000000000000000000000000000000000000000000061174b565b600b8054600160a060020a031916600160a060020a03928316179055600c541663c28b4577606560405160e060020a63ffffffff841602815260ff90911660048201527f46442e4e6577506f6c69637900000000000000000000000000000000000000006024820152604401600060405180830381600087803b15156116a057600080fd5b6102c65a03f115156116b157600080fd5b5050600c54600160a060020a0316905063c28b4577606660405160e060020a63ffffffff841602815260ff90911660048201527f46442e46756e64657200000000000000000000000000000000000000000000006024820152604401600060405180830381600087803b151561172657600080fd5b6102c65a03f1151561173757600080fd5b505050565b600054600160a060020a031681565b600154600090600160a060020a031663e16c7d9883836040516020015260405160e060020a63ffffffff84160281526004810191909152602401602060405180830381600087803b151561179e57600080fd5b6102c65a03f115156117af57600080fd5b50505060405180519392505050565b600354600090600160a060020a031615806117eb57506003546117e990600160a060020a03166127ef565b155b156117fc576117fa60006127f3565b505b600354600160a060020a03166338cc48316000604051602001526040518163ffffffff1660e060020a028152600401602060405180830381600087803b151561184457600080fd5b6102c65a03f1151561185557600080fd5b505050604051805160048054600160a060020a031916600160a060020a03928316179081905516905063c281d19e6000604051602001526040518163ffffffff1660e060020a028152600401602060405180830381600087803b15156118ba57600080fd5b6102c65a03f115156118cb57600080fd5b50505060405180519150505b90565b6118e26130fb565b602082016040805190810160405280845181526020019190915292915050565b6000807f9ee71fae4eaec97727495a88dce95da03083cceac90064c30bd03ef65b86a3ae858560405191825260208201526040908101905180910390a1600954600160a060020a031663418cf5b186600542886040518563ffffffff1660e060020a0281526004018085815260200184600681111561197d57fe5b60ff16815260208101939093525060408083019190915260609091019250600091505180830381600087803b15156119b457600080fd5b6102c65a03f115156119c557600080fd5b5050600954600160a060020a0316905063ffe280ee866000866040518463ffffffff1660e060020a0281526004018084815260200183815260200180602001828103825283818151815260200191508051906020019080838360005b83811015611a39578082015183820152602001611a21565b50505050905090810190601f168015611a665780820380516001836020036101000a031916815260200191505b50945050505050600060405180830381600087803b1515611a8657600080fd5b6102c65a03f11515611a9757600080fd5b5050600954600160a060020a0316905063c168e0378660006040516040015260405160e060020a63ffffffff841602815260048101919091526024016040805180830381600087803b1515611aeb57600080fd5b6102c65a03f11515611afc57600080fd5b5050506040518051906020018051600a54929450925050600160a060020a03166350bed0438360008481604051602001526040518463ffffffff1660e060020a0281526004018084600160a060020a0316600160a060020a03168152602001836005811115611b6757fe5b60ff1681526020018281526020019350505050602060405180830381600087803b1515611b9357600080fd5b6102c65a03f11515611ba457600080fd5b505050604051805190501515611c5a57600954600160a060020a031663418cf5b1866006426040518463ffffffff1660e060020a02815260040180848152602001836006811115611bf157fe5b60ff168152602001828152602001807f6465636c696e653a2053656e64206661696c65642e00000000000000000000008152506020019350505050600060405180830381600087803b1515611c4557600080fd5b6102c65a03f11515611c5657600080fd5b5050505b5050505050565b6000808251611c7c8551866020015186518760200151612b19565b0190505b83518460200151018111611cb8576001909101908251611cb0856020015183038651038386518760200151612b19565b019050611c80565b5092915050565b611cc76130fb565b6000825184511015611cdb57839150611cb8565b5060016020830151846020015114611d03578251602085015160208501518290209190201490505b8015611d215782518481815103905250825184602001818151019052505b509192915050565b611d316130fb565b600080835185511015611d4657849250611d88565b835185518660200151010391506001905083602001518214611d7357835160208501518190209083201490505b8015611d8457835185818151039052505b8492505b505092915050565b611d986130fb565b611cb8838383612bbc565b611dab613139565b611db3613139565b60008351604051805910611dc45750595b818152601f19601f830116810160200160405290509150602082019050611cb88185602001518651612c2b565b6000611dfe826000612c70565b90505b919050565b611e0e613139565b611e16613139565b6000806000611e23613139565b6020604051805910611e325750595b818152601f19601f83011681016020016040529050945060009350600092505b6020831015611ec5576008830260020a870291507fff00000000000000000000000000000000000000000000000000000000000000821615611eba5781858581518110611e9b57fe5b906020010190600160f860020a031916908160001a9053506001909301925b600190920191611e52565b83604051805910611ed35750595b818152601f19601f830116810160200160405290509050600092505b83831015611f4457848381518110611f0357fe5b016020015160f860020a900460f860020a02818481518110611f2157fe5b906020010190600160f860020a031916908160001a905350600190920191611eef565b9695505050505050565b6000611f5a8383612dde565b159392505050565b60095460009081908190819081908190600160a060020a031663c168e0378a836040516040015260405160e060020a63ffffffff841602815260048101919091526024016040805180830381600087803b1515611fbe57600080fd5b6102c65a03f11515611fcf57600080fd5b5050506040518051906020018051600954909850600160a060020a0316915063eb80733990508a60006040516020015260405160e060020a63ffffffff84160281526004810191909152602401602060405180830381600087803b151561203557600080fd5b6102c65a03f1151561204657600080fd5b5050506040518051600954909650600160a060020a03169050639d5176fd8660006040516040015260405160e060020a63ffffffff841602815260048101919091526024016040805180830381600087803b15156120a357600080fd5b6102c65a03f115156120b457600080fd5b5050506040518051906020018051600954909650600160a060020a0316915063cdcdb46390508660006040516060015260405160e060020a63ffffffff84160281526004810191909152602401606060405180830381600087803b151561211a57600080fd5b6102c65a03f1151561212b57600080fd5b50505060405180519060200180519060200180519550600193505050505b600560ff82161161219c578760ff82166006811061216357fe5b6020020151600260ff83166006811061217857fe5b60208082049092015460ff929091066101000a900416029190910190600101612149565b8115156121b6578751620186a08115156121b257fe5b0491505b83151561224757600954600160a060020a031663802de8fc8684620186a08a028115156121df57fe5b0485620186a08115156121ee57fe5b0460405160e060020a63ffffffff8616028152600481019390935260248301919091526044820152606401600060405180830381600087803b151561223257600080fd5b6102c65a03f1151561224357600080fd5b5050505b600954600160a060020a031663ffe280ee8a848a6040518463ffffffff1660e060020a0281526004018084815260200183815260200180602001828103825283818151815260200191508051906020019080838360005b838110156122b657808201518382015260200161229e565b50505050905090810190601f1680156122e35780820380516001836020036101000a031916815260200191505b50945050505050600060405180830381600087803b151561230357600080fd5b6102c65a03f1151561231457600080fd5b5050600954600160a060020a0316905063418cf5b18a6001426040518463ffffffff1660e060020a0281526004018084815260200183600681111561235557fe5b60ff168152602001828152602001807f506f6c69637920756e6465727772697474656e206279206f7261636c650000008152506020019350505050600060405180830381600087803b15156123a957600080fd5b6102c65a03f115156123ba57600080fd5b507f70385f0d2eec84d8ff6456734404ae65b06b980e7360ea503ca23dcc56a1c51591508a9050895160208b015160408c015160608d015160808e015160a08f015160405196875260208701959095526040808701949094526060860192909252608085015260a084015260c083019190915260e0909101905180910390a1600b54600160a060020a031663746899908a87610384870160405160e060020a63ffffffff8616028152600481019390935260248301919091526044820152606401600060405180830381600087803b151561249457600080fd5b6102c65a03f115156124a557600080fd5b505050505050505050505050565b6124bb613139565b6124e68484846020604051908101604052806000815250602060405190810160405260008152612e78565b949350505050565b6003546000908190600160a060020a0316158061251d575060035461251b90600160a060020a03166127ef565b155b1561252e5761252c60006127f3565b505b600354600160a060020a03166338cc48316000604051602001526040518163ffffffff1660e060020a028152600401602060405180830381600087803b151561257657600080fd5b6102c65a03f1151561258757600080fd5b505050604051805160048054600160a060020a031916600160a060020a039283161790819055169050632ef3accc86856000604051602001526040518363ffffffff1660e060020a0281526004018080602001838152602001828103825284818151815260200191508051906020019080838360005b838110156126155780820151838201526020016125fd565b50505050905090810190601f1680156126425780820380516001836020036101000a031916815260200191505b509350505050602060405180830381600087803b151561266157600080fd5b6102c65a03f1151561267257600080fd5b5050506040518051915050670de0b6b3a76400003a84020181111561269a57600091506127e7565b600454600160a060020a031663c51be90f82600088888883604051602001526040518663ffffffff1660e060020a028152600401808581526020018060200180602001848152602001838103835286818151815260200191508051906020019080838360005b83811015612718578082015183820152602001612700565b50505050905090810190601f1680156127455780820380516001836020036101000a031916815260200191505b50838103825285818151815260200191508051906020019080838360005b8381101561277b578082015183820152602001612763565b50505050905090810190601f1680156127a85780820380516001836020036101000a031916815260200191505b5096505050505050506020604051808303818588803b15156127c957600080fd5b6125ee5a03f115156127da57600080fd5b5050505060405180519250505b509392505050565b3b90565b600080612813731d3b2638a7cc9f2cb3d298a3da7a90b67e5506ed6127ef565b11156128835760038054600160a060020a031916731d3b2638a7cc9f2cb3d298a3da7a90b67e5506ed17905561287b60408051908101604052600b81527f6574685f6d61696e6e657400000000000000000000000000000000000000000060208201526130e8565b506001611e01565b60006128a273c03a2615d5efaf5f49f60b7bb6583eaec212fdf16127ef565b111561290a5760038054600160a060020a03191673c03a2615d5efaf5f49f60b7bb6583eaec212fdf117905561287b60408051908101604052600c81527f6574685f726f707374656e33000000000000000000000000000000000000000060208201526130e8565b600061292973b7a07bcf2ba2f2703b24c0691b5278999c59ac7e6127ef565b11156129915760038054600160a060020a03191673b7a07bcf2ba2f2703b24c0691b5278999c59ac7e17905561287b60408051908101604052600981527f6574685f6b6f76616e000000000000000000000000000000000000000000000060208201526130e8565b60006129b073146500cfd35b22e4a392fe0adc06de1a1368ed486127ef565b1115612a185760038054600160a060020a03191673146500cfd35b22e4a392fe0adc06de1a1368ed4817905561287b60408051908101604052600b81527f6574685f72696e6b65627900000000000000000000000000000000000000000060208201526130e8565b6000612a37736f485c8bf6fc43ea212e93bbf8ce046c7f1cb4756127ef565b1115612a6b575060038054600160a060020a031916736f485c8bf6fc43ea212e93bbf8ce046c7f1cb4751790556001611e01565b6000612a8a7320e12a1f859b3feae5fb2a0a32c18f5a65555bbf6127ef565b1115612abe575060038054600160a060020a0319167320e12a1f859b3feae5fb2a0a32c18f5a65555bbf1790556001611e01565b6000612add7351efaf4c8b3c9afbd5ab9f4bbc82784ab6ef8faa6127ef565b1115612b11575060038054600160a060020a0319167351efaf4c8b3c9afbd5ab9f4bbc82784ab6ef8faa1790556001611e01565b506000919050565b600080808080888711612baa5760208711612b705760018760200360080260020a031980875116888b038a018a96505b818388511614612b65576001870196819010612b49578b8b0196505b505050839450612bb0565b8686209150879350600092505b8689038311612baa575085832081811415612b9a57839450612bb0565b6001938401939290920191612b7d565b88880194505b50505050949350505050565b612bc46130fb565b6000612bdc8551866020015186518760200151612b19565b90508460200151602080850191909152850151810383528451856020015101811415612c0b5760008552612c22565b835183510185818151039052508351810160208601525b50909392505050565b60005b60208210612c515782518452602084019350602083019250602082039150612c2e565b6001826020036101000a03905080198351168185511617909352505050565b6000612c7a613139565b5082600080805b8351811015612dc1577f3000000000000000000000000000000000000000000000000000000000000000848281518110612cb757fe5b016020015160f860020a900460f860020a02600160f860020a03191610158015612d2857507f3900000000000000000000000000000000000000000000000000000000000000848281518110612d0957fe5b016020015160f860020a900460f860020a02600160f860020a03191611155b15612d7e578115612d4757851515612d3f57612dc1565b600019909501945b600a830292506030848281518110612d5b57fe5b016020015160f860020a900460f860020a0260f860020a90040383019250612db9565b838181518110612d8a57fe5b016020015160f860020a900460f860020a02600160f860020a031916602e60f860020a021415612db957600191505b600101612c81565b6000861115612dd35785600a0a830292505b509095945050505050565b600080808080808080808a5197508a518a511015612dfb57895197505b8a60200151965089602001519550600094505b87851015612e62578651935085519250838314612e4e5750506000196008602088900385010260020a0119818116838216038015612e4e57809850612e6a565b602096870196958601959490940193612e0e565b89518b510398505b505050505050505092915050565b612e80613139565b612e88613139565b612e90613139565b612e98613139565b612ea0613139565b612ea8613139565b612eb0613139565b612eb8613139565b6000808e98508d97508c96508b95508a94508451865188518a518c5101010101604051805910612ee55750595b818152601f19601f83011681016020016040529050935083925060009150600090505b8851811015612f6157888181518110612f1d57fe5b016020015160f860020a900460f860020a02838380600101945081518110612f4157fe5b906020010190600160f860020a031916908160001a905350600101612f08565b5060005b8751811015612fbe57878181518110612f7a57fe5b016020015160f860020a900460f860020a02838380600101945081518110612f9e57fe5b906020010190600160f860020a031916908160001a905350600101612f65565b5060005b865181101561301b57868181518110612fd757fe5b016020015160f860020a900460f860020a02838380600101945081518110612ffb57fe5b906020010190600160f860020a031916908160001a905350600101612fc2565b5060005b85518110156130785785818151811061303457fe5b016020015160f860020a900460f860020a0283838060010194508151811061305857fe5b906020010190600160f860020a031916908160001a90535060010161301f565b5060005b84518110156130d55784818151811061309157fe5b016020015160f860020a900460f860020a028383806001019450815181106130b557fe5b906020010190600160f860020a031916908160001a90535060010161307c565b50909d9c50505050505050505050505050565b600581805161070c92916020019061314b565b604080519081016040526000808252602082015290565b60c06040519081016040526006815b60008152602001906001900390816131215790505090565b60206040519081016040526000815290565b828054600181600116156101000203166002900490600052602060002090601f016020900481019282601f1061318c57805160ff19168380011785556131b9565b828001600101855582156131b9579182015b828111156131b957825182559160200191906001019061319e565b506131c59291506131c9565b5090565b6118d791905b808211156131c557600081556001016131cf565b60008054600160a060020a03909216600160a060020a031992831681179091556001805490921617815590565b600354600160a060020a0316158061323a575060035461323890600160a060020a03166127ef565b155b1561324b5761324960006127f3565b505b600354600160a060020a03166338cc48316000604051602001526040518163ffffffff1660e060020a028152600401602060405180830381600087803b151561329357600080fd5b6102c65a03f115156132a457600080fd5b505050604051805160048054600160a060020a031916600160a060020a03928316179081905516905063ca6ad1e48260405160e060020a63ffffffff84160281526004810191909152602401600060405180830381600087803b151561330957600080fd5b6102c65a03f115156106d857600080fd003f247b5b646563727970745d20424172365a39516f6c4d325051696d462f704e43367a586c644f765a327171754f534b6d2f714a6b4a576e5347674165527732317742476e42625869616d722f49534335536c634a42367745504b7468646336462b4970714d2f695861764b73616c525572474e7542734766614d5872386652517736674c7a716b3065634f464e65436134382f79714276432f6b61732b6a544b48695978413377544a72565a437137365930336c5a493278784c616f6e69526b7d292e726174696e67735b305d5b276f62736572766174696f6e73272c276c6174653135272c276c6174653330272c276c6174653435272c2763616e63656c6c6564272c276469766572746564272c276172726976616c416972706f72744673436f6465272c27646570617274757265416972706f72744673436f6465275da165627a7a72305820c27b5595d6ff579776f1ce36fed5dafee1dd8fd2e10f77c7ecf3b8fff979bc070029",
  "source": "/**\n * FlightDelay with Oraclized Underwriting and Payout\n *\n * @description\tUnderwrite contract\n * @copyright (c) 2017 etherisc GmbH\n * @author Christoph Mussenbrock\n */\n\npragma solidity ^0.4.11;\n\nimport \"./FlightDelayControlledContract.sol\";\nimport \"./FlightDelayConstants.sol\";\nimport \"./FlightDelayDatabaseInterface.sol\";\nimport \"./FlightDelayAccessControllerInterface.sol\";\nimport \"./FlightDelayLedgerInterface.sol\";\nimport \"./FlightDelayUnderwriteInterface.sol\";\nimport \"./FlightDelayPayoutInterface.sol\";\nimport \"./FlightDelayOraclizeInterface.sol\";\nimport \"./convertLib.sol\";\nimport \"./../vendors/strings.sol\";\n\n\ncontract FlightDelayUnderwrite is FlightDelayControlledContract, FlightDelayConstants, FlightDelayOraclizeInterface, ConvertLib {\n\n    using strings for *;\n\n    FlightDelayDatabaseInterface FD_DB;\n    FlightDelayLedgerInterface FD_LG;\n    FlightDelayPayoutInterface FD_PY;\n    FlightDelayAccessControllerInterface FD_AC;\n\n    function FlightDelayUnderwrite(address _controller) public {\n        setController(_controller);\n        oraclize_setCustomGasPrice(ORACLIZE_GASPRICE);\n    }\n\n    function setContracts() public onlyController {\n        FD_AC = FlightDelayAccessControllerInterface(getContract(\"FD.AccessController\"));\n        FD_DB = FlightDelayDatabaseInterface(getContract(\"FD.Database\"));\n        FD_LG = FlightDelayLedgerInterface(getContract(\"FD.Ledger\"));\n        FD_PY = FlightDelayPayoutInterface(getContract(\"FD.Payout\"));\n\n        FD_AC.setPermissionById(101, \"FD.NewPolicy\");\n        FD_AC.setPermissionById(102, \"FD.Funder\");\n    }\n\n    /*\n     * @dev Fund contract\n     */\n    function () payable {\n        require(FD_AC.checkPermission(102, msg.sender));\n\n        // todo: bookkeeping\n        // todo: fire funding event\n    }\n\n    function scheduleUnderwriteOraclizeCall(uint _policyId, bytes32 _carrierFlightNumber) public {\n        require(FD_AC.checkPermission(101, msg.sender));\n\n        string memory oraclizeUrl = strConcat(\n            ORACLIZE_RATINGS_BASE_URL,\n            b32toString(_carrierFlightNumber),\n            ORACLIZE_RATINGS_QUERY\n        );\n\n// --> debug-mode\n//            LogUint(\"_policyId\", _policyId);\n//            LogBytes32Str(\"_carrierFlightNumber\",_carrierFlightNumber);\n//            LogString(\"oraclizeUrl\", oraclizeUrl);\n// <-- debug-mode\n\n        bytes32 queryId = oraclize_query(\"nested\", oraclizeUrl, ORACLIZE_GAS);\n\n        // call oraclize to get Flight Stats; this will also call underwrite()\n        FD_DB.createOraclizeCallback(\n            queryId,\n            _policyId,\n            oraclizeState.ForUnderwriting,\n            0\n        );\n\n        LogOraclizeCall(_policyId, queryId, oraclizeUrl, 0);\n    }\n\n    function __callback(bytes32 _queryId, string _result, bytes _proof) onlyOraclizeOr(getContract('FD.Emergency')) public {\n\n        var (policyId,) = FD_DB.getOraclizeCallback(_queryId);\n        LogOraclizeCallback(policyId, _queryId, _result, _proof);\n\n        var slResult = _result.toSlice();\n\n        // we expect result to contain 8 values, something like\n        // \"[61, 10, 4, 3, 0, 0, \\\"CUN\\\", \\\"SFO\\\"]\" ->\n        // ['observations','late15','late30','late45','cancelled','diverted','arrivalAirportFsCode','departureAirportFsCode']\n        if (bytes(_result).length == 0) {\n            decline(policyId, \"Declined (empty result)\", _proof);\n        } else {\n            // now slice the string using\n            // https://github.com/Arachnid/solidity-stringutils\n            if (slResult.count(\", \".toSlice()) != 7) {\n                // check if result contains 8 values\n                decline(policyId, \"Declined (invalid result)\", _proof);\n            } else {\n                slResult.beyond(\"[\".toSlice()).until(\"]\".toSlice());\n\n                uint observations = parseInt(slResult.split(\", \".toSlice()).toString());\n\n                // decline on < minObservations observations,\n                // can't calculate reasonable probabibilities\n                if (observations <= MIN_OBSERVATIONS) {\n                    decline(policyId, \"Declined (too few observations)\", _proof);\n                } else {\n                    uint[6] memory statistics;\n                    // calculate statistics (scaled by 10000; 1% => 100)\n                    statistics[0] = observations;\n                    for (uint i = 1; i <= 5; i++) {\n                        statistics[i] = parseInt(slResult.split(\", \".toSlice()).toString()) * 10000/observations;\n                    }\n\n                    var origin = slResult.split(\", \".toSlice());\n                    for (uint j = 0; j < FD_DB.countOrigins(); j++) {\n                        if (b32toString(FD_DB.getOriginByIndex(j)).toSlice().equals(origin)) {\n                            underwrite(policyId, statistics, _proof);\n                            return;\n                        }\n                    }\n\n                    var destination = slResult.split(\", \".toSlice());\n                    for (uint k = 0; k < FD_DB.countDestinations(); k++) {\n                        if (b32toString(FD_DB.getDestinationByIndex(k)).toSlice().equals(destination)) {\n                           underwrite(policyId, statistics, _proof);\n                           return;\n                        }\n                    }\n\n                    decline(policyId, \"Not acceptable airport\", _proof);\n                }\n            }\n        }\n    } // __callback\n\n    function externalDecline(uint _policyId, bytes32 _reason) public {\n        require(msg.sender == FD_CI.getContract(\"FD.CustomersAdmin\"));\n\n        LogPolicyDeclined(_policyId, _reason);\n\n        FD_DB.setState(\n            _policyId,\n            policyState.Declined,\n            now,\n            _reason\n        );\n\n        FD_DB.setWeight(_policyId, 0, \"\");\n\n        var (customer, premium) = FD_DB.getCustomerPremium(_policyId);\n\n        if (!FD_LG.sendFunds(customer, Acc.Premium, premium)) {\n            FD_DB.setState(\n                _policyId,\n                policyState.SendFailed,\n                now,\n                \"decline: Send failed.\"\n            );\n        }\n    }\n\n    function decline(uint _policyId, bytes32 _reason, bytes _proof)\tinternal {\n        LogPolicyDeclined(_policyId, _reason);\n\n        FD_DB.setState(\n            _policyId,\n            policyState.Declined,\n            now,\n            _reason\n        );\n\n        FD_DB.setWeight(_policyId, 0, _proof);\n\n        var (customer, premium) = FD_DB.getCustomerPremium(_policyId);\n\n        // TODO: LOG\n        if (!FD_LG.sendFunds(customer, Acc.Premium, premium)) {\n            FD_DB.setState(\n                _policyId,\n                policyState.SendFailed,\n                now,\n                \"decline: Send failed.\"\n            );\n        }\n    }\n\n    function underwrite(uint _policyId, uint[6] _statistics, bytes _proof) internal {\n        var (, premium) = FD_DB.getCustomerPremium(_policyId); // throws if _policyId invalid\n        bytes32 riskId = FD_DB.getRiskId(_policyId);\n\n        var (, premiumMultiplier) = FD_DB.getPremiumFactors(riskId);\n        var (, , arrivalTime) = FD_DB.getRiskParameters(riskId);\n\n        uint weight;\n        for (uint8 i = 1; i <= 5; i++ ) {\n            weight += WEIGHT_PATTERN[i] * _statistics[i];\n            // 1% = 100 / 100% = 10,000\n        }\n        // to avoid div0 in the payout section,\n        // we have to make a minimal assumption on p.weight.\n        if (weight == 0) {\n            weight = 100000 / _statistics[0];\n        }\n\n        // we calculate the factors to limit cluster risks.\n        if (premiumMultiplier == 0) {\n            // it's the first call, we accept any premium\n            FD_DB.setPremiumFactors(riskId, premium * 100000 / weight, 100000 / weight);\n        }\n\n        FD_DB.setWeight(_policyId, weight, _proof);\n\n        FD_DB.setState(\n            _policyId,\n            policyState.Accepted,\n            now,\n            \"Policy underwritten by oracle\"\n        );\n\n        LogPolicyAccepted(\n            _policyId,\n            _statistics[0],\n            _statistics[1],\n            _statistics[2],\n            _statistics[3],\n            _statistics[4],\n            _statistics[5]\n        );\n\n        // schedule payout Oracle\n        FD_PY.schedulePayoutOraclizeCall(_policyId, riskId, arrivalTime + CHECK_PAYOUT_OFFSET);\n    }\n}\n",
  "sourcePath": "/home/christoph/Documents/fdi/flightDelay/contracts/FlightDelayUnderwrite.sol",
  "compiler": {
    "name": "solc",
    "version": "0.4.18+commit.9cf6e910.Emscripten.clang"
  },
  "schemaVersion": "1.0.1",
  "updatedAt": "2017-11-17T00:08:44.906Z"
}