{
  "contractName": "FlightDelayController",
  "abi": [
    {
      "constant": true,
      "inputs": [
        {
          "name": "",
          "type": "uint256"
        }
      ],
      "name": "contractIds",
      "outputs": [
        {
          "name": "",
          "type": "bytes32"
        }
      ],
      "payable": false,
      "stateMutability": "view",
      "type": "function"
    },
    {
      "constant": true,
      "inputs": [],
      "name": "owner",
      "outputs": [
        {
          "name": "",
          "type": "address"
        }
      ],
      "payable": false,
      "stateMutability": "view",
      "type": "function"
    },
    {
      "constant": true,
      "inputs": [
        {
          "name": "",
          "type": "bytes32"
        }
      ],
      "name": "contracts",
      "outputs": [
        {
          "name": "addr",
          "type": "address"
        },
        {
          "name": "isControlled",
          "type": "bool"
        },
        {
          "name": "isInitialized",
          "type": "bool"
        }
      ],
      "payable": false,
      "stateMutability": "view",
      "type": "function"
    },
    {
      "inputs": [],
      "payable": false,
      "stateMutability": "nonpayable",
      "type": "constructor"
    },
    {
      "anonymous": false,
      "inputs": [
        {
          "indexed": false,
          "name": "_policyId",
          "type": "uint256"
        },
        {
          "indexed": false,
          "name": "_customer",
          "type": "address"
        },
        {
          "indexed": false,
          "name": "strCarrierFlightNumber",
          "type": "bytes32"
        },
        {
          "indexed": false,
          "name": "ethPremium",
          "type": "uint256"
        }
      ],
      "name": "LogPolicyApplied",
      "type": "event"
    },
    {
      "anonymous": false,
      "inputs": [
        {
          "indexed": false,
          "name": "_policyId",
          "type": "uint256"
        },
        {
          "indexed": false,
          "name": "_statistics0",
          "type": "uint256"
        },
        {
          "indexed": false,
          "name": "_statistics1",
          "type": "uint256"
        },
        {
          "indexed": false,
          "name": "_statistics2",
          "type": "uint256"
        },
        {
          "indexed": false,
          "name": "_statistics3",
          "type": "uint256"
        },
        {
          "indexed": false,
          "name": "_statistics4",
          "type": "uint256"
        },
        {
          "indexed": false,
          "name": "_statistics5",
          "type": "uint256"
        }
      ],
      "name": "LogPolicyAccepted",
      "type": "event"
    },
    {
      "anonymous": false,
      "inputs": [
        {
          "indexed": false,
          "name": "_policyId",
          "type": "uint256"
        },
        {
          "indexed": false,
          "name": "ethAmount",
          "type": "uint256"
        }
      ],
      "name": "LogPolicyPaidOut",
      "type": "event"
    },
    {
      "anonymous": false,
      "inputs": [
        {
          "indexed": false,
          "name": "_policyId",
          "type": "uint256"
        }
      ],
      "name": "LogPolicyExpired",
      "type": "event"
    },
    {
      "anonymous": false,
      "inputs": [
        {
          "indexed": false,
          "name": "_policyId",
          "type": "uint256"
        },
        {
          "indexed": false,
          "name": "strReason",
          "type": "bytes32"
        }
      ],
      "name": "LogPolicyDeclined",
      "type": "event"
    },
    {
      "anonymous": false,
      "inputs": [
        {
          "indexed": false,
          "name": "_policyId",
          "type": "uint256"
        },
        {
          "indexed": false,
          "name": "strReason",
          "type": "bytes32"
        }
      ],
      "name": "LogPolicyManualPayout",
      "type": "event"
    },
    {
      "anonymous": false,
      "inputs": [
        {
          "indexed": false,
          "name": "_recipient",
          "type": "address"
        },
        {
          "indexed": false,
          "name": "_from",
          "type": "uint8"
        },
        {
          "indexed": false,
          "name": "ethAmount",
          "type": "uint256"
        }
      ],
      "name": "LogSendFunds",
      "type": "event"
    },
    {
      "anonymous": false,
      "inputs": [
        {
          "indexed": false,
          "name": "_sender",
          "type": "address"
        },
        {
          "indexed": false,
          "name": "_to",
          "type": "uint8"
        },
        {
          "indexed": false,
          "name": "ethAmount",
          "type": "uint256"
        }
      ],
      "name": "LogReceiveFunds",
      "type": "event"
    },
    {
      "anonymous": false,
      "inputs": [
        {
          "indexed": false,
          "name": "_policyId",
          "type": "uint256"
        },
        {
          "indexed": false,
          "name": "strReason",
          "type": "bytes32"
        }
      ],
      "name": "LogSendFail",
      "type": "event"
    },
    {
      "anonymous": false,
      "inputs": [
        {
          "indexed": false,
          "name": "_policyId",
          "type": "uint256"
        },
        {
          "indexed": false,
          "name": "hexQueryId",
          "type": "bytes32"
        },
        {
          "indexed": false,
          "name": "_oraclizeUrl",
          "type": "string"
        },
        {
          "indexed": false,
          "name": "_oraclizeTime",
          "type": "uint256"
        }
      ],
      "name": "LogOraclizeCall",
      "type": "event"
    },
    {
      "anonymous": false,
      "inputs": [
        {
          "indexed": false,
          "name": "_policyId",
          "type": "uint256"
        },
        {
          "indexed": false,
          "name": "hexQueryId",
          "type": "bytes32"
        },
        {
          "indexed": false,
          "name": "_result",
          "type": "string"
        },
        {
          "indexed": false,
          "name": "hexProof",
          "type": "bytes"
        }
      ],
      "name": "LogOraclizeCallback",
      "type": "event"
    },
    {
      "anonymous": false,
      "inputs": [
        {
          "indexed": false,
          "name": "_policyId",
          "type": "uint256"
        },
        {
          "indexed": false,
          "name": "_policyState",
          "type": "uint8"
        },
        {
          "indexed": false,
          "name": "_stateTime",
          "type": "uint256"
        },
        {
          "indexed": false,
          "name": "_stateMessage",
          "type": "bytes32"
        }
      ],
      "name": "LogSetState",
      "type": "event"
    },
    {
      "anonymous": false,
      "inputs": [
        {
          "indexed": false,
          "name": "_policyId",
          "type": "uint256"
        },
        {
          "indexed": false,
          "name": "_address",
          "type": "address"
        },
        {
          "indexed": false,
          "name": "_externalId",
          "type": "bytes32"
        }
      ],
      "name": "LogExternal",
      "type": "event"
    },
    {
      "constant": false,
      "inputs": [
        {
          "name": "_newOwner",
          "type": "address"
        }
      ],
      "name": "transferOwnership",
      "outputs": [],
      "payable": false,
      "stateMutability": "nonpayable",
      "type": "function"
    },
    {
      "constant": false,
      "inputs": [
        {
          "name": "_id",
          "type": "bytes32"
        }
      ],
      "name": "getContract",
      "outputs": [
        {
          "name": "_addr",
          "type": "address"
        }
      ],
      "payable": false,
      "stateMutability": "nonpayable",
      "type": "function"
    },
    {
      "constant": false,
      "inputs": [
        {
          "name": "_addr",
          "type": "address"
        },
        {
          "name": "_id",
          "type": "bytes32"
        },
        {
          "name": "_isControlled",
          "type": "bool"
        }
      ],
      "name": "registerContract",
      "outputs": [
        {
          "name": "_result",
          "type": "bool"
        }
      ],
      "payable": false,
      "stateMutability": "nonpayable",
      "type": "function"
    },
    {
      "constant": false,
      "inputs": [
        {
          "name": "_id",
          "type": "bytes32"
        }
      ],
      "name": "deregister",
      "outputs": [
        {
          "name": "_result",
          "type": "bool"
        }
      ],
      "payable": false,
      "stateMutability": "nonpayable",
      "type": "function"
    },
    {
      "constant": false,
      "inputs": [],
      "name": "setAllContracts",
      "outputs": [],
      "payable": false,
      "stateMutability": "nonpayable",
      "type": "function"
    },
    {
      "constant": false,
      "inputs": [
        {
          "name": "i",
          "type": "uint256"
        }
      ],
      "name": "setOneContract",
      "outputs": [],
      "payable": false,
      "stateMutability": "nonpayable",
      "type": "function"
    },
    {
      "constant": false,
      "inputs": [
        {
          "name": "_id",
          "type": "bytes32"
        }
      ],
      "name": "destructOne",
      "outputs": [],
      "payable": false,
      "stateMutability": "nonpayable",
      "type": "function"
    },
    {
      "constant": false,
      "inputs": [],
      "name": "destructAll",
      "outputs": [],
      "payable": false,
      "stateMutability": "nonpayable",
      "type": "function"
    }
  ],
  "bytecode": "0x606060405260c0604051908101604090815260008252600a6020830152601490820152601e606082015260326080820181905260a08201526100459060019060066101a3565b50341561005157600080fd5b60008054600160a060020a03191633600160a060020a03908116919091178083556100ad929116907f46442e4f776e6572000000000000000000000000000000000000000000000000906401000000006100ed81026103ad1704565b506100e7307f46442e436f6e74726f6c6c65720000000000000000000000000000000000000060006401000000006103ad6100ed82021704565b5061029a565b6000805433600160a060020a0390811691161461010957600080fd5b61012184848464010000000061068a61014c82021704565b60038054600181016101338382610236565b5060009182526020909120019290925550600192915050565b6000918252600260205260409091208054600160a060020a031916600160a060020a03939093169290921760a060020a60ff0219167401000000000000000000000000000000000000000091151591909102179055565b6001830191839082156102265791602002820160005b838211156101f757835183826101000a81548160ff021916908360ff16021790555092602001926001016020816000010492830192600103026101b9565b80156102245782816101000a81549060ff02191690556001016020816000010492830192600103026101f7565b505b5061023292915061025f565b5090565b81548183558181151161025a5760008381526020902061025a918101908301610280565b505050565b61027d91905b8082111561023257805460ff19168155600101610265565b90565b61027d91905b808211156102325760008155600101610286565b610761806102a96000396000f3006060604052600436106100955763ffffffff60e060020a60003504166320813154811461009a578063438c3aff146100c45780636820f8d2146100ec5780636dafc6b7146101045780638da5cb5b1461011a5780639576e5b314610149578063ca88b3b214610170578063d257106214610183578063e16c7d9814610196578063ec56a373146101ac578063f2fde38b146101f2575b600080fd5b34156100a557600080fd5b6100b0600435610211565b604051901515815260200160405180910390f35b34156100cf57600080fd5b6100da600435610263565b60405190815260200160405180910390f35b34156100f757600080fd5b610102600435610282565b005b341561010f57600080fd5b610102600435610327565b341561012557600080fd5b61012d61039e565b604051600160a060020a03909116815260200160405180910390f35b341561015457600080fd5b6100b0600160a060020a036004351660243560443515156103ad565b341561017b57600080fd5b6101026103ff565b341561018e57600080fd5b6101026104a6565b34156101a157600080fd5b61012d6004356105a4565b34156101b757600080fd5b6101c26004356105bf565b604051600160a060020a039093168352901515602083015215156040808301919091526060909101905180910390f35b34156101fd57600080fd5b610102600160a060020a0360043516610602565b6000805433600160a060020a0390811691161461022d57600080fd5b610236826105a4565b600160a060020a0316151561024d5750600061025e565b61025a600083600061068a565b5060015b919050565b600380548290811061027157fe5b600091825260209091200154905081565b6000805433600160a060020a0390811691161461029e57600080fd5b600260006003848154811015156102b157fe5b60009182526020808320909101548352820192909252604090810190912054600160a060020a03169150819063e0d6d53090518163ffffffff1660e060020a028152600401600060405180830381600087803b151561030f57600080fd5b6102c65a03f1151561032057600080fd5b5050505050565b6000805433600160a060020a0390811691161461034357600080fd5b61034c826105a4565b9050600160a060020a0381161561039a5780600160a060020a0316632b68b9c66040518163ffffffff1660e060020a028152600401600060405180830381600087803b151561030f57600080fd5b5050565b600054600160a060020a031681565b6000805433600160a060020a039081169116146103c957600080fd5b6103d484848461068a565b60038054600181016103e683826106eb565b5060009182526020909120019290925550600192915050565b6000805433600160a060020a0390811691161461041b57600080fd5b5060005b600354811015610498576002600060038381548110151561043c57fe5b600091825260208083209190910154835282019290925260400190205460a060020a900460ff161515600114156104905761049060038281548110151561047f57fe5b906000526020600020900154610327565b60010161041f565b600054600160a060020a0316ff5b60008054819033600160a060020a039081169116146104c457600080fd5b5060005b60035481101561039a57600260006003838154811015156104e557fe5b600091825260208083209190910154835282019290925260400190205460a060020a900460ff1615156001141561059c576002600060038381548110151561052957fe5b60009182526020808320909101548352820192909252604090810190912054600160a060020a03169250829063e0d6d53090518163ffffffff1660e060020a028152600401600060405180830381600087803b151561058757600080fd5b6102c65a03f1151561059857600080fd5b5050505b6001016104c8565b600090815260026020526040902054600160a060020a031690565b600260205260009081526040902054600160a060020a0381169060ff60a060020a8204811691750100000000000000000000000000000000000000000090041683565b60005433600160a060020a0390811691161461061d57600080fd5b600160a060020a038116151561063257600080fd5b6000805473ffffffffffffffffffffffffffffffffffffffff1916600160a060020a0383161781556106879082907f46442e4f776e65720000000000000000000000000000000000000000000000009061068a565b50565b600091825260026020526040909120805473ffffffffffffffffffffffffffffffffffffffff1916600160a060020a03939093169290921774ff0000000000000000000000000000000000000000191660a060020a91151591909102179055565b81548183558181151161070f5760008381526020902061070f918101908301610714565b505050565b61073291905b8082111561072e576000815560010161071a565b5090565b905600a165627a7a723058205d566b11d2d01517f38041be4ee6f75e858977089d7b2c93c25ce6d9f58e6ddb0029",
  "source": "/**\n * FlightDelay with Oraclized Underwriting and Payout\n *\n * @description Controller contract\n * @copyright (c) 2017 etherisc GmbH\n * @author Christoph Mussenbrock\n */\n\npragma solidity ^0.4.11;\n\nimport \"./Owned.sol\";\nimport \"./FlightDelayControlledContract.sol\";\nimport \"./FlightDelayConstants.sol\";\n\ncontract FlightDelayController is Owned, FlightDelayConstants {\n\n    struct Controller {\n        address addr;\n        bool isControlled;\n        bool isInitialized;\n    }\n\n    mapping (bytes32 => Controller) public contracts;\n    bytes32[] public contractIds;\n\n    /**\n    * Constructor.\n    */\n    function FlightDelayController() public {\n        registerContract(owner, \"FD.Owner\", false);\n        registerContract(address(this), \"FD.Controller\", false);\n    }\n\n    /**\n     * @dev Allows the current owner to transfer control of the contract to a newOwner.\n     * @param _newOwner The address to transfer ownership to.\n     */\n    function transferOwnership(address _newOwner) public onlyOwner {\n        require(_newOwner != address(0));\n        owner = _newOwner;\n        setContract(_newOwner, \"FD.Owner\", false);\n    }\n\n    /**\n    * Store address of one contract in mapping.\n    * @param _addr       Address of contract\n    * @param _id         ID of contract\n    */\n    function setContract(address _addr, bytes32 _id, bool _isControlled) internal {\n        contracts[_id].addr = _addr;\n        contracts[_id].isControlled = _isControlled;\n    }\n\n    /**\n    * Get contract address from ID. This function is called by the\n    * contract's setContracts function.\n    * @param _id         ID of contract\n    * @return The address of the contract.\n    */\n    function getContract(bytes32 _id) public returns (address _addr) {\n        _addr = contracts[_id].addr;\n    }\n\n    /**\n    * Registration of contracts.\n    * It will only accept calls of deployments initiated by the owner.\n    * @param _id         ID of contract\n    * @return  bool        success\n    */\n    function registerContract(address _addr, bytes32 _id, bool _isControlled) public onlyOwner returns (bool _result) {\n        setContract(_addr, _id, _isControlled);\n        contractIds.push(_id);\n        _result = true;\n    }\n\n    /**\n    * Deregister a contract.\n    * In future, contracts should be exchangeable.\n    * @param _id         ID of contract\n    * @return  bool        success\n    */\n    function deregister(bytes32 _id) public onlyOwner returns (bool _result) {\n        if (getContract(_id) == 0x0) {\n            return false;\n        }\n        setContract(0x0, _id, false);\n        _result = true;\n    }\n\n    /**\n    * After deploying all contracts, this function is called and calls\n    * setContracts() for every registered contract.\n    * This call pulls the addresses of the needed contracts in the respective contract.\n    * We assume that contractIds.length is small, so this won't run out of gas.\n    */\n    function setAllContracts() public onlyOwner {\n        FlightDelayControlledContract controlledContract;\n        // TODO: Check for upper bound for i\n        // i = 0 is FD.Owner, we skip this. // check!\n        for (uint i = 0; i < contractIds.length; i++) {\n            if (contracts[contractIds[i]].isControlled == true) {\n                controlledContract = FlightDelayControlledContract(contracts[contractIds[i]].addr);\n                controlledContract.setContracts();\n            }\n        }\n    }\n\n    function setOneContract(uint i) public onlyOwner {\n        FlightDelayControlledContract controlledContract;\n        // TODO: Check for upper bound for i\n        controlledContract = FlightDelayControlledContract(contracts[contractIds[i]].addr);\n        controlledContract.setContracts();\n    }\n\n    /**\n    * Destruct one contract.\n    * @param _id         ID of contract to destroy.\n    */\n    function destructOne(bytes32 _id) public onlyOwner {\n        address addr = getContract(_id);\n        if (addr != 0x0) {\n            FlightDelayControlledContract(addr).destruct();\n        }\n    }\n\n    /**\n    * Destruct all contracts.\n    * We assume that contractIds.length is small, so this won't run out of gas.\n    * Otherwise, you can still destroy one contract after the other with destructOne.\n    */\n    function destructAll() public onlyOwner {\n        // TODO: Check for upper bound for i\n        for (uint i = 0; i < contractIds.length; i++) {\n            if (contracts[contractIds[i]].isControlled == true) {\n                destructOne(contractIds[i]);\n            }\n        }\n\n        selfdestruct(owner);\n    }\n}\n",
  "sourcePath": "/Users/melnikaite/projects/flightDelay/contracts/FlightDelayController.sol",
  "compiler": {
    "name": "solc",
    "version": "0.4.19+commit.c4cbbb05.Emscripten.clang"
  },
  "schemaVersion": "2.0.0",
  "updatedAt": "2018-03-13T09:40:39.963Z"
}