{
  "contractName": "FlightDelayPayout",
  "abi": [
    {
      "constant": false,
      "inputs": [],
      "name": "destruct",
      "outputs": [],
      "payable": false,
      "stateMutability": "nonpayable",
      "type": "function"
    },
    {
      "constant": false,
      "inputs": [
        {
          "name": "x",
          "type": "bytes32"
        }
      ],
      "name": "b32toHexString",
      "outputs": [
        {
          "name": "",
          "type": "string"
        }
      ],
      "payable": false,
      "stateMutability": "nonpayable",
      "type": "function"
    },
    {
      "constant": true,
      "inputs": [
        {
          "name": "_dayMonthYear",
          "type": "bytes32"
        }
      ],
      "name": "toUnixtime",
      "outputs": [
        {
          "name": "unixtime",
          "type": "uint256"
        }
      ],
      "payable": false,
      "stateMutability": "view",
      "type": "function"
    },
    {
      "constant": true,
      "inputs": [],
      "name": "controller",
      "outputs": [
        {
          "name": "",
          "type": "address"
        }
      ],
      "payable": false,
      "stateMutability": "view",
      "type": "function"
    },
    {
      "inputs": [
        {
          "name": "_controller",
          "type": "address"
        }
      ],
      "payable": false,
      "stateMutability": "nonpayable",
      "type": "constructor"
    },
    {
      "payable": true,
      "stateMutability": "payable",
      "type": "fallback"
    },
    {
      "anonymous": false,
      "inputs": [
        {
          "indexed": false,
          "name": "_policyId",
          "type": "uint256"
        },
        {
          "indexed": false,
          "name": "_customer",
          "type": "address"
        },
        {
          "indexed": false,
          "name": "strCarrierFlightNumber",
          "type": "bytes32"
        },
        {
          "indexed": false,
          "name": "ethPremium",
          "type": "uint256"
        }
      ],
      "name": "LogPolicyApplied",
      "type": "event"
    },
    {
      "anonymous": false,
      "inputs": [
        {
          "indexed": false,
          "name": "_policyId",
          "type": "uint256"
        },
        {
          "indexed": false,
          "name": "_statistics0",
          "type": "uint256"
        },
        {
          "indexed": false,
          "name": "_statistics1",
          "type": "uint256"
        },
        {
          "indexed": false,
          "name": "_statistics2",
          "type": "uint256"
        },
        {
          "indexed": false,
          "name": "_statistics3",
          "type": "uint256"
        },
        {
          "indexed": false,
          "name": "_statistics4",
          "type": "uint256"
        },
        {
          "indexed": false,
          "name": "_statistics5",
          "type": "uint256"
        }
      ],
      "name": "LogPolicyAccepted",
      "type": "event"
    },
    {
      "anonymous": false,
      "inputs": [
        {
          "indexed": false,
          "name": "_policyId",
          "type": "uint256"
        },
        {
          "indexed": false,
          "name": "ethAmount",
          "type": "uint256"
        }
      ],
      "name": "LogPolicyPaidOut",
      "type": "event"
    },
    {
      "anonymous": false,
      "inputs": [
        {
          "indexed": false,
          "name": "_policyId",
          "type": "uint256"
        }
      ],
      "name": "LogPolicyExpired",
      "type": "event"
    },
    {
      "anonymous": false,
      "inputs": [
        {
          "indexed": false,
          "name": "_policyId",
          "type": "uint256"
        },
        {
          "indexed": false,
          "name": "strReason",
          "type": "bytes32"
        }
      ],
      "name": "LogPolicyDeclined",
      "type": "event"
    },
    {
      "anonymous": false,
      "inputs": [
        {
          "indexed": false,
          "name": "_policyId",
          "type": "uint256"
        },
        {
          "indexed": false,
          "name": "strReason",
          "type": "bytes32"
        }
      ],
      "name": "LogPolicyManualPayout",
      "type": "event"
    },
    {
      "anonymous": false,
      "inputs": [
        {
          "indexed": false,
          "name": "_recipient",
          "type": "address"
        },
        {
          "indexed": false,
          "name": "_from",
          "type": "uint8"
        },
        {
          "indexed": false,
          "name": "ethAmount",
          "type": "uint256"
        }
      ],
      "name": "LogSendFunds",
      "type": "event"
    },
    {
      "anonymous": false,
      "inputs": [
        {
          "indexed": false,
          "name": "_sender",
          "type": "address"
        },
        {
          "indexed": false,
          "name": "_to",
          "type": "uint8"
        },
        {
          "indexed": false,
          "name": "ethAmount",
          "type": "uint256"
        }
      ],
      "name": "LogReceiveFunds",
      "type": "event"
    },
    {
      "anonymous": false,
      "inputs": [
        {
          "indexed": false,
          "name": "_policyId",
          "type": "uint256"
        },
        {
          "indexed": false,
          "name": "strReason",
          "type": "bytes32"
        }
      ],
      "name": "LogSendFail",
      "type": "event"
    },
    {
      "anonymous": false,
      "inputs": [
        {
          "indexed": false,
          "name": "_policyId",
          "type": "uint256"
        },
        {
          "indexed": false,
          "name": "hexQueryId",
          "type": "bytes32"
        },
        {
          "indexed": false,
          "name": "_oraclizeUrl",
          "type": "string"
        },
        {
          "indexed": false,
          "name": "_oraclizeTime",
          "type": "uint256"
        }
      ],
      "name": "LogOraclizeCall",
      "type": "event"
    },
    {
      "anonymous": false,
      "inputs": [
        {
          "indexed": false,
          "name": "_policyId",
          "type": "uint256"
        },
        {
          "indexed": false,
          "name": "hexQueryId",
          "type": "bytes32"
        },
        {
          "indexed": false,
          "name": "_result",
          "type": "string"
        },
        {
          "indexed": false,
          "name": "hexProof",
          "type": "bytes"
        }
      ],
      "name": "LogOraclizeCallback",
      "type": "event"
    },
    {
      "anonymous": false,
      "inputs": [
        {
          "indexed": false,
          "name": "_policyId",
          "type": "uint256"
        },
        {
          "indexed": false,
          "name": "_policyState",
          "type": "uint8"
        },
        {
          "indexed": false,
          "name": "_stateTime",
          "type": "uint256"
        },
        {
          "indexed": false,
          "name": "_stateMessage",
          "type": "bytes32"
        }
      ],
      "name": "LogSetState",
      "type": "event"
    },
    {
      "anonymous": false,
      "inputs": [
        {
          "indexed": false,
          "name": "_policyId",
          "type": "uint256"
        },
        {
          "indexed": false,
          "name": "_address",
          "type": "address"
        },
        {
          "indexed": false,
          "name": "_externalId",
          "type": "bytes32"
        }
      ],
      "name": "LogExternal",
      "type": "event"
    },
    {
      "constant": false,
      "inputs": [],
      "name": "setContracts",
      "outputs": [],
      "payable": false,
      "stateMutability": "nonpayable",
      "type": "function"
    },
    {
      "constant": false,
      "inputs": [
        {
          "name": "_policyId",
          "type": "uint256"
        },
        {
          "name": "_riskId",
          "type": "bytes32"
        },
        {
          "name": "_oraclizeTime",
          "type": "uint256"
        }
      ],
      "name": "schedulePayoutOraclizeCall",
      "outputs": [],
      "payable": false,
      "stateMutability": "nonpayable",
      "type": "function"
    },
    {
      "constant": false,
      "inputs": [
        {
          "name": "myid",
          "type": "bytes32"
        },
        {
          "name": "result",
          "type": "string"
        }
      ],
      "name": "__callback",
      "outputs": [],
      "payable": false,
      "stateMutability": "nonpayable",
      "type": "function"
    },
    {
      "constant": false,
      "inputs": [
        {
          "name": "_queryId",
          "type": "bytes32"
        },
        {
          "name": "_result",
          "type": "string"
        },
        {
          "name": "_proof",
          "type": "bytes"
        }
      ],
      "name": "__callback",
      "outputs": [],
      "payable": false,
      "stateMutability": "nonpayable",
      "type": "function"
    }
  ],
  "bytecode": "0x606060405260c0604051908101604090815260008252600a6020830152601490820152601e606082015260326080820181905260a082015262000047906002906006620006b3565b506101806040519081016040908152600b8252602a6020830152604690820152606560608201526083608082015260a260a082015260c08082015260df60e082015260fe61010082015261011c61012082015261013b610140820152610159610160820152620000bc90600890600c6200074d565b503415620000c957600080fd5b604051602080620038ae833981016040528080519150620000fa90508164010000000062002d676200011f82021704565b506200011863ee6b280064010000000062002d946200014c82021704565b50620008ca565b60008054600160a060020a03909216600160a060020a031992831681179091556001805490921617815590565b600354600160a060020a031615806200018757506003546200018590600160a060020a031664010000000062002403620002b482021704565b155b15620001a957620001a7600064010000000062002407620002b882021704565b505b600354600160a060020a03166338cc48316000604051602001526040518163ffffffff167c0100000000000000000000000000000000000000000000000000000000028152600401602060405180830381600087803b15156200020b57600080fd5b6102c65a03f115156200021d57600080fd5b505050604051805160048054600160a060020a031916600160a060020a03928316179081905516905063ca6ad1e4826040517c010000000000000000000000000000000000000000000000000000000063ffffffff84160281526004810191909152602401600060405180830381600087803b15156200029c57600080fd5b6102c65a03f11515620002ae57600080fd5b50505050565b3b90565b600080620002e8731d3b2638a7cc9f2cb3d298a3da7a90b67e5506ed64010000000062002403620002b482021704565b11156200036a5760038054600160a060020a031916731d3b2638a7cc9f2cb3d298a3da7a90b67e5506ed1790556200036160408051908101604052600b81527f6574685f6d61696e6e6574000000000000000000000000000000000000000000602082015264010000000062002c936200069a82021704565b50600162000695565b60006200039973c03a2615d5efaf5f49f60b7bb6583eaec212fdf164010000000062002403620002b482021704565b1115620004125760038054600160a060020a03191673c03a2615d5efaf5f49f60b7bb6583eaec212fdf11790556200036160408051908101604052600c81527f6574685f726f707374656e330000000000000000000000000000000000000000602082015264010000000062002c936200069a82021704565b60006200044173b7a07bcf2ba2f2703b24c0691b5278999c59ac7e64010000000062002403620002b482021704565b1115620004ba5760038054600160a060020a03191673b7a07bcf2ba2f2703b24c0691b5278999c59ac7e1790556200036160408051908101604052600981527f6574685f6b6f76616e0000000000000000000000000000000000000000000000602082015264010000000062002c936200069a82021704565b6000620004e973146500cfd35b22e4a392fe0adc06de1a1368ed4864010000000062002403620002b482021704565b1115620005625760038054600160a060020a03191673146500cfd35b22e4a392fe0adc06de1a1368ed481790556200036160408051908101604052600b81527f6574685f72696e6b656279000000000000000000000000000000000000000000602082015264010000000062002c936200069a82021704565b600062000591736f485c8bf6fc43ea212e93bbf8ce046c7f1cb47564010000000062002403620002b482021704565b1115620005c7575060038054600160a060020a031916736f485c8bf6fc43ea212e93bbf8ce046c7f1cb475179055600162000695565b6000620005f67320e12a1f859b3feae5fb2a0a32c18f5a65555bbf64010000000062002403620002b482021704565b11156200062c575060038054600160a060020a0319167320e12a1f859b3feae5fb2a0a32c18f5a65555bbf179055600162000695565b60006200065b7351efaf4c8b3c9afbd5ab9f4bbc82784ab6ef8faa64010000000062002403620002b482021704565b111562000691575060038054600160a060020a0319167351efaf4c8b3c9afbd5ab9f4bbc82784ab6ef8faa179055600162000695565b5060005b919050565b6005818051620006af929160200190620007e6565b5050565b6001830191839082156200073b5791602002820160005b838211156200070a57835183826101000a81548160ff021916908360ff1602179055509260200192600101602081600001049283019260010302620006ca565b8015620007395782816101000a81549060ff02191690556001016020816000010492830192600103026200070a565b505b506200074992915062000867565b5090565b600183019183908215620007d85791602002820160005b83821115620007a657835183826101000a81548161ffff021916908361ffff160217905550926020019260020160208160010104928301926001030262000764565b8015620007d65782816101000a81549061ffff0219169055600201602081600101049283019260010302620007a6565b505b50620007499291506200088b565b828054600181600116156101000203166002900490600052602060002090601f016020900481019282601f106200082957805160ff191683800117855562000859565b8280016001018555821562000859579182015b82811115620008595782518255916020019190600101906200083c565b5062000749929150620008ad565b6200088891905b808211156200074957805460ff191681556001016200086e565b90565b6200088891905b808211156200074957805461ffff1916815560010162000892565b6200088891905b80821115620007495760008155600101620008b4565b612fd480620008da6000396000f3006060604052600436106100745763ffffffff60e060020a60003504166327dc297e81146100ff5780632b68b9c61461015557806338bbfa501461016857806374689990146102005780638ad46ba01461021c578063bcf599f1146102a9578063e0d6d530146102d1578063f77c4791146102e4575b600b54600160a060020a0316633ebd609260663360006040516020015260405160e060020a63ffffffff851602815260ff9092166004830152600160a060020a03166024820152604401602060405180830381600087803b15156100d757600080fd5b6102c65a03f115156100e857600080fd5b5050506040518051905015156100fd57600080fd5b005b341561010a57600080fd5b6100fd600480359060446024803590810190830135806020601f8201819004810201604051908101604052818152929190602084018383808284375094965061031395505050505050565b341561016057600080fd5b6100fd610345565b341561017357600080fd5b6100fd600480359060446024803590810190830135806020601f8201819004810201604051908101604052818152929190602084018383808284378201915050505050509190803590602001908201803590602001908080601f01602080910402602001604051908101604052818152929190602084018383808284375094965061036e95505050505050565b341561020b57600080fd5b6100fd600435602435604435610d75565b341561022757600080fd5b6102326004356110c8565b60405160208082528190810183818151815260200191508051906020019080838360005b8381101561026e578082015183820152602001610256565b50505050905090810190601f16801561029b5780820380516001836020036101000a031916815260200191505b509250505060405180910390f35b34156102b457600080fd5b6102bf6004356111d7565b60405190815260200160405180910390f35b34156102dc57600080fd5b6100fd6114db565b34156102ef57600080fd5b6102f7611748565b604051600160a060020a03909116815260200160405180910390f35b610341828260006040518059106103275750595b818152601f19601f8301168101602001604052905061036e565b5050565b60005433600160a060020a0390811691161461036057600080fd5b600054600160a060020a0316ff5b60008060008061037c612ca6565b600080610387612ca6565b60006103b27f46442e456d657267656e63790000000000000000000000000000000000000000611757565b6103ba6117ca565b600160a060020a031633600160a060020a031614806103ea575080600160a060020a031633600160a060020a0316145b15156103f557600080fd5b600954600160a060020a0316637f205c8c8e60006040516040015260405160e060020a63ffffffff841602815260048101919091526024016040805180830381600087803b151561044557600080fd5b6102c65a03f1151561045657600080fd5b50505060405180519060200180519050995099507f4e010942cd8d70ef60f3bd7e17c62008722f9551f8f28dc7040004160de7e2cc8a8e8e8e60405184815260208101849052608060408201818152906060830190830185818151815260200191508051906020019080838360005b838110156104dd5780820151838201526020016104c5565b50505050905090810190601f16801561050a5780820380516001836020036101000a031916815260200191505b50838103825284818151815260200191508051906020019080838360005b83811015610540578082015183820152602001610528565b50505050905090810190601f16801561056d5780820380516001836020036101000a031916815260200191505b50965050505050505060405180910390a1600954600160a060020a03166343f46a5c8b60006040516020015260405160e060020a63ffffffff84160281526004810191909152602401602060405180830381600087803b15156105cf57600080fd5b6102c65a03f115156105e057600080fd5b5050506040518051905097508760068111156105f857fe5b60ff1660051415151561060a57600080fd5b600954600160a060020a031663eb8073398b60006040516020015260405160e060020a63ffffffff84160281526004810191909152602401602060405180830381600087803b151561065b57600080fd5b6102c65a03f1151561066c57600080fd5b5050506040518051905096506106818c6118e6565b95508b51151561078057600954600160a060020a0316639c66452e8e89612a3060006040516020015260405160e060020a63ffffffff8616028152600481019390935260248301919091526044820152606401602060405180830381600087803b15156106ed57600080fd5b6102c65a03f115156106fe57600080fd5b505050604051805190501561076c577fa868cd6faa17ac2172ea3d4f9f7910ca932112bfeb017f45ed09bd881c0540308a6040519081527f4e6f2043616c6c6261636b206174202b313230206d696e00000000000000000060208201526040908101905180910390a1610d66565b61077b8a888b610a8c01610d75565b610d66565b6107e56107a6604080519081016040526001815260f960020a60110260208201526118e6565b6107d96107cc604080519081016040526001815260f960020a60110260208201526118e6565b899063ffffffff61190e16565b9063ffffffff61195116565b5061083161082461080f604080519081016040526001815260f960020a60110260208201526118e6565b610818896119bb565b9063ffffffff61190e16565b879063ffffffff6119e416565b5061083b86611a4b565b60008151811061084757fe5b016020015160f860020a900460f860020a02945084600160f860020a0319167f4300000000000000000000000000000000000000000000000000000000000000141561089a5761077b8a60046000611a99565b7f4400000000000000000000000000000000000000000000000000000000000000600160f860020a0319861614156108d95761077b8a60056000611a99565b60fa60020a601302600160f860020a031986161480159061092457507f4100000000000000000000000000000000000000000000000000000000000000600160f860020a0319861614155b801561095a57507f4300000000000000000000000000000000000000000000000000000000000000600160f860020a0319861614155b801561099057507f4400000000000000000000000000000000000000000000000000000000000000600160f860020a0319861614155b156109f4577fa868cd6faa17ac2172ea3d4f9f7910ca932112bfeb017f45ed09bd881c0540308a6040519081527f556e70726f6365737361626c652073746174757300000000000000000000000060208201526040908101905180910390a1610d66565b6109fd8c6118e6565b9550610a4b610a3e60408051908101604052601181527f61637475616c476174654172726976616c00000000000000000000000000000060208201526118e6565b879063ffffffff611f6c16565b93507f4100000000000000000000000000000000000000000000000000000000000000600160f860020a031986161480610a9e575060fa60020a601302600160f860020a03198616148015610a9e575083155b15610b8457600954600160a060020a0316639c66452e8e89612a3060006040516020015260405160e060020a63ffffffff8616028152600481019390935260248301919091526044820152606401602060405180830381600087803b1515610b0557600080fd5b6102c65a03f11515610b1657600080fd5b505050604051805190501561076c577fa868cd6faa17ac2172ea3d4f9f7910ca932112bfeb017f45ed09bd881c0540308a6040519081527f4e6f206172726976616c206174202b313830206d696e0000000000000000000060208201526040908101905180910390a161077b565b60fa60020a601302600160f860020a03198616148015610ba15750835b15610d5a57610be260408051908101604052601b81527f226172726976616c4761746544656c61794d696e75746573223a20000000000060208201526118e6565b9250610bf4868463ffffffff611f6c16565b15610d0557610c0d836107d9888263ffffffff61190e16565b50610c66610824610c37604080519081016040526001815260f960020a60110260208201526118e6565b6107d9610c5d604080519081016040526001815260f960020a60110260208201526118e6565b6108188b6119bb565b50610ca961082461080f60408051908101604052600181527f7d0000000000000000000000000000000000000000000000000000000000000060208201526118e6565b50610cec61082461080f60408051908101604052600181527f2c0000000000000000000000000000000000000000000000000000000000000060208201526118e6565b50610cfe610cf987611a4b565b611f92565b9150610d0a565b600091505b600f821015610d2457610d1f8a600080611a99565b61077b565b601e821015610d3957610d1f8a600184611a99565b602d821015610d4e57610d1f8a600284611a99565b61077b8a600384611a99565b610d668a600080611a99565b50505050505050505050505050565b600080610d80612cbd565b600b54600090600160a060020a0316633ebd6092606533846040516020015260405160e060020a63ffffffff851602815260ff9092166004830152600160a060020a03166024820152604401602060405180830381600087803b1515610de557600080fd5b6102c65a03f11515610df657600080fd5b505050604051805190501515610e0b57600080fd5b600954600160a060020a031663cdcdb4638760006040516060015260405160e060020a63ffffffff84160281526004810191909152602401606060405180830381600087803b1515610e5c57600080fd5b6102c65a03f11515610e6d57600080fd5b505050604051805190602001805190602001805190505093509350610f3f608060405190810160405280605481526020017f5b55524c5d206a736f6e2868747470733a2f2f6170692e666c6967687473746181526020017f74732e636f6d2f666c65782f666c696768747374617475732f726573742f763281526020017f2f6a736f6e2f666c696768742f7374617475732f000000000000000000000000815250610f1786611fa5565b610f2086611fa5565b610140604051908101604052610104808252612ea560208301396120d5565b9150610f838560408051908101604052600681527f6e65737465640000000000000000000000000000000000000000000000000000602082015284620aae60612101565b600954909150600160a060020a0316632ba1e439828960018960405160e060020a63ffffffff8716028152600481018581526024820185905290604401836001811115610fcc57fe5b60ff168152602001828152602001945050505050600060405180830381600087803b1515610ff957600080fd5b6102c65a03f1151561100a57600080fd5b5050507f57d5927fefa8de5620b57ca7ac0948a9ea457d8f3af2bd8867728325a6ca5d9287828488604051848152602081018490526060810182905260806040820181815290820184818151815260200191508051906020019080838360005b8381101561108257808201518382015260200161106a565b50505050905090810190601f1680156110af5780820380516001836020036101000a031916815260200191505b509550505050505060405180910390a150505050505050565b6110d0612cbd565b6110d8612cbd565b600080600080604080518059106110ec5750595b818152601f19601f830116810160200160405290509450600093505b60208410156111cc576008601f8590030260020a8781151561112657fe5b049250601060ff841604915050601081028203600960ff8316111561114c576027820191505b60098160ff16111561115c576027015b8160300160f860020a0285856002028151811061117557fe5b906020010190600160f860020a031916908160001a9053508060300160f860020a028585600202600101815181106111a957fe5b906020010190600160f860020a031916908160001a905350600190930192611108565b509295945050505050565b60006111e1612cbd565b6111e9612cbd565b6111f1612cbd565b60008060006111ff88611fa5565b955060026040518059106112105750595b818152601f19601f83011681016020016040529050945060046040518059106112365750595b818152601f19601f8301168101602001604052905093508560058151811061125a57fe5b016020015160f860020a900460f860020a028460008151811061127957fe5b906020010190600160f860020a031916908160001a9053508560068151811061129e57fe5b016020015160f860020a900460f860020a02846001815181106112bd57fe5b906020010190600160f860020a031916908160001a905350856007815181106112e257fe5b016020015160f860020a900460f860020a028460028151811061130157fe5b906020010190600160f860020a031916908160001a9053508560088151811061132657fe5b016020015160f860020a900460f860020a028460038151811061134557fe5b906020010190600160f860020a031916908160001a90535061136684611f92565b925085600a8151811061137557fe5b016020015160f860020a900460f860020a028560008151811061139457fe5b906020010190600160f860020a031916908160001a90535085600b815181106113b957fe5b016020015160f860020a900460f860020a02856001815181106113d857fe5b906020010190600160f860020a031916908160001a9053506113f985611f92565b915085600d8151811061140857fe5b016020015160f860020a900460f860020a028560008151811061142757fe5b906020010190600160f860020a031916908160001a90535085600e8151811061144c57fe5b016020015160f860020a900460f860020a028560018151811061146b57fe5b906020010190600160f860020a031916908160001a90535061148c85611f92565b90508060086000198401600c81106114a057fe5b601091828204019190066002029054906101000a900461ffff1661ffff166107b2850361016d02010162015180029650505050505050919050565b60005433600160a060020a039081169116146114f657600080fd5b61151f7f46442e416363657373436f6e74726f6c6c657200000000000000000000000000611757565b600b8054600160a060020a031916600160a060020a03929092169190911790556115687f46442e4461746162617365000000000000000000000000000000000000000000611757565b60098054600160a060020a031916600160a060020a03929092169190911790556115b17f46442e4c65646765720000000000000000000000000000000000000000000000611757565b600a8054600160a060020a031916600160a060020a03928316179055600b541663c28b4577606560405160e060020a63ffffffff841602815260ff90911660048201527f46442e556e6465727772697465000000000000000000000000000000000000006024820152604401600060405180830381600087803b151561163657600080fd5b6102c65a03f1151561164757600080fd5b5050600b54600160a060020a0316905063c3d08f0660656116666117ca565b60405160e060020a63ffffffff851602815260ff9092166004830152600160a060020a03166024820152604401600060405180830381600087803b15156116ac57600080fd5b6102c65a03f115156116bd57600080fd5b5050600b54600160a060020a0316905063c28b4577606660405160e060020a63ffffffff841602815260ff90911660048201527f46442e46756e64657200000000000000000000000000000000000000000000006024820152604401600060405180830381600087803b151561173257600080fd5b6102c65a03f1151561174357600080fd5b505050565b600054600160a060020a031681565b600154600090600160a060020a031663e16c7d9883836040516020015260405160e060020a63ffffffff84160281526004810191909152602401602060405180830381600087803b15156117aa57600080fd5b6102c65a03f115156117bb57600080fd5b50505060405180519392505050565b600354600090600160a060020a031615806117f757506003546117f590600160a060020a0316612403565b155b15611808576118066000612407565b505b600354600160a060020a03166338cc48316000604051602001526040518163ffffffff1660e060020a028152600401602060405180830381600087803b151561185057600080fd5b6102c65a03f1151561186157600080fd5b505050604051805160048054600160a060020a031916600160a060020a03928316179081905516905063c281d19e6000604051602001526040518163ffffffff1660e060020a028152600401602060405180830381600087803b15156118c657600080fd5b6102c65a03f115156118d757600080fd5b50505060405180519150505b90565b6118ee612ca6565b602082016040805190810160405280845181526020019190915292915050565b611916612ca6565b600061192e845185602001518551866020015161272d565b9050836020015181038481815103905250602084018190528391505b5092915050565b611959612ca6565b600082518451101561196d5783915061194a565b5060016020830151846020015114611995578251602085015160208501518290209190201490505b80156119b35782518481815103905250825184602001818151019052505b509192915050565b6119c3612ca6565b6040805190810160405280835181526020018360200151905290505b919050565b6119ec612ca6565b600080835185511015611a0157849250611a43565b835185518660200151010391506001905083602001518214611a2e57835160208501518190209083201490505b8015611a3f57835185818151039052505b8492505b505092915050565b611a53612cbd565b611a5b612cbd565b60008351604051805910611a6c5750595b818152601f19601f83011681016020016040529050915060208201905061194a81856020015186516127d0565b6009546000908190819081908190600160a060020a03166319a0805889898960405160e060020a63ffffffff8616028152600481019390935260ff90911660248301526044820152606401600060405180830381600087803b1515611afd57600080fd5b6102c65a03f11515611b0e57600080fd5b50505060ff87161515611bc557600954600160a060020a031663418cf5b1896004426040518463ffffffff1660e060020a02815260040180848152602001836006811115611b5857fe5b60ff168152602001828152602001807f45787069726564202d206e6f2064656c617921000000000000000000000000008152506020019350505050600060405180830381600087803b1515611bac57600080fd5b6102c65a03f11515611bbd57600080fd5b505050611f62565b600954600160a060020a0316637a5402e98960006040516060015260405160e060020a63ffffffff84160281526004810191909152602401606060405180830381600087803b1515611c1657600080fd5b6102c65a03f11515611c2757600080fd5b505050604051805190602001805190602001805190509450945094508360001415611c5257614e2093505b83600260ff891660068110611c6357fe5b602091828204019190069054906101000a900460ff1660ff16840261271002811515611c8b57fe5b049150819050670f43fc2c04ee0000821115611cad57670f43fc2c04ee000091505b600954600160a060020a0316630d4c8f6289838560405160e060020a63ffffffff8616028152600481019390935260248301919091526044820152606401600060405180830381600087803b1515611d0457600080fd5b6102c65a03f11515611d1557600080fd5b5050600a54600160a060020a031690506350bed043866002856000604051602001526040518463ffffffff1660e060020a0281526004018084600160a060020a0316600160a060020a03168152602001836005811115611d7157fe5b60ff1681526020018281526020019350505050602060405180830381600087803b1515611d9d57600080fd5b6102c65a03f11515611dae57600080fd5b505050604051805190501515611ebc57600954600160a060020a031663418cf5b1896006426040518463ffffffff1660e060020a02815260040180848152602001836006811115611dfb57fe5b60ff168152602001828152602001807f5061796f75742c2073656e64206661696c6564210000000000000000000000008152506020019350505050600060405180830381600087803b1515611e4f57600080fd5b6102c65a03f11515611e6057600080fd5b5050600954600160a060020a03169050630d4c8f628983600060405160e060020a63ffffffff8616028152600481019390935260248301919091526044820152606401600060405180830381600087803b1515611bac57600080fd5b600954600160a060020a031663418cf5b1896003426040518463ffffffff1660e060020a02815260040180848152602001836006811115611ef957fe5b60ff168152602001828152602001807f5061796f7574207375636365737366756c2100000000000000000000000000008152506020019350505050600060405180830381600087803b1515611f4d57600080fd5b6102c65a03f11515611f5e57600080fd5b5050505b5050505050505050565b60008260200151611f898451856020015185518660200151612815565b14159392505050565b6000611f9f8260006128b5565b92915050565b611fad612cbd565b611fb5612cbd565b6000806000611fc2612cbd565b6020604051805910611fd15750595b818152601f19601f83011681016020016040529050945060009350600092505b602083101561204c576008830260020a87029150600160f860020a0319821615612041578185858151811061202257fe5b906020010190600160f860020a031916908160001a9053506001909301925b600190920191611ff1565b8360405180591061205a5750595b818152601f19601f830116810160200160405290509050600092505b838310156120cb5784838151811061208a57fe5b016020015160f860020a900460f860020a028184815181106120a857fe5b906020010190600160f860020a031916908160001a905350600190920191612076565b9695505050505050565b6120dd612cbd565b6120f885858585602060405190810160405260008152612a23565b95945050505050565b6003546000908190600160a060020a03161580612130575060035461212e90600160a060020a0316612403565b155b156121415761213f6000612407565b505b600354600160a060020a03166338cc48316000604051602001526040518163ffffffff1660e060020a028152600401602060405180830381600087803b151561218957600080fd5b6102c65a03f1151561219a57600080fd5b505050604051805160048054600160a060020a031916600160a060020a039283161790819055169050632ef3accc86856000604051602001526040518363ffffffff1660e060020a0281526004018080602001838152602001828103825284818151815260200191508051906020019080838360005b83811015612228578082015183820152602001612210565b50505050905090810190601f1680156122555780820380516001836020036101000a031916815260200191505b509350505050602060405180830381600087803b151561227457600080fd5b6102c65a03f1151561228557600080fd5b5050506040518051915050670de0b6b3a76400003a8402018111156122ad57600091506123fa565b600454600160a060020a031663c51be90f82888888886000604051602001526040518663ffffffff1660e060020a028152600401808581526020018060200180602001848152602001838103835286818151815260200191508051906020019080838360005b8381101561232b578082015183820152602001612313565b50505050905090810190601f1680156123585780820380516001836020036101000a031916815260200191505b50838103825285818151815260200191508051906020019080838360005b8381101561238e578082015183820152602001612376565b50505050905090810190601f1680156123bb5780820380516001836020036101000a031916815260200191505b5096505050505050506020604051808303818588803b15156123dc57600080fd5b6125ee5a03f115156123ed57600080fd5b5050505060405180519250505b50949350505050565b3b90565b600080612427731d3b2638a7cc9f2cb3d298a3da7a90b67e5506ed612403565b11156124975760038054600160a060020a031916731d3b2638a7cc9f2cb3d298a3da7a90b67e5506ed17905561248f60408051908101604052600b81527f6574685f6d61696e6e65740000000000000000000000000000000000000000006020820152612c93565b5060016119df565b60006124b673c03a2615d5efaf5f49f60b7bb6583eaec212fdf1612403565b111561251e5760038054600160a060020a03191673c03a2615d5efaf5f49f60b7bb6583eaec212fdf117905561248f60408051908101604052600c81527f6574685f726f707374656e3300000000000000000000000000000000000000006020820152612c93565b600061253d73b7a07bcf2ba2f2703b24c0691b5278999c59ac7e612403565b11156125a55760038054600160a060020a03191673b7a07bcf2ba2f2703b24c0691b5278999c59ac7e17905561248f60408051908101604052600981527f6574685f6b6f76616e00000000000000000000000000000000000000000000006020820152612c93565b60006125c473146500cfd35b22e4a392fe0adc06de1a1368ed48612403565b111561262c5760038054600160a060020a03191673146500cfd35b22e4a392fe0adc06de1a1368ed4817905561248f60408051908101604052600b81527f6574685f72696e6b6562790000000000000000000000000000000000000000006020820152612c93565b600061264b736f485c8bf6fc43ea212e93bbf8ce046c7f1cb475612403565b111561267f575060038054600160a060020a031916736f485c8bf6fc43ea212e93bbf8ce046c7f1cb47517905560016119df565b600061269e7320e12a1f859b3feae5fb2a0a32c18f5a65555bbf612403565b11156126d2575060038054600160a060020a0319167320e12a1f859b3feae5fb2a0a32c18f5a65555bbf17905560016119df565b60006126f17351efaf4c8b3c9afbd5ab9f4bbc82784ab6ef8faa612403565b1115612725575060038054600160a060020a0319167351efaf4c8b3c9afbd5ab9f4bbc82784ab6ef8faa17905560016119df565b506000919050565b6000808080808887116127be57602087116127845760018760200360080260020a031980875116888b038a018a96505b81838851161461277957600187019681901061275d578b8b0196505b5050508394506127c4565b8686209150879350600092505b86890383116127be5750858320818114156127ae578394506127c4565b6001938401939290920191612791565b88880194505b50505050949350505050565b60005b602082106127f657825184526020840193506020830192506020820391506127d3565b6001826020036101000a03905080198351168185511617909352505050565b60008080808786116128a657602086116128715760018660200360080260020a031980865116878a03890194505b8082865116146128625760001985019489901161284357889450612867565b938701935b50508293506128aa565b8585209150858803870192505b8683106128a657508482208181141561289b5785830193506128aa565b60018303925061287e565b8693505b505050949350505050565b60006128bf612cbd565b5082600080805b8351811015612a06577f30000000000000000000000000000000000000000000000000000000000000008482815181106128fc57fe5b016020015160f860020a900460f860020a02600160f860020a0319161015801561296d57507f390000000000000000000000000000000000000000000000000000000000000084828151811061294e57fe5b016020015160f860020a900460f860020a02600160f860020a03191611155b156129c357811561298c5785151561298457612a06565b600019909501945b600a8302925060308482815181106129a057fe5b016020015160f860020a900460f860020a0260f860020a900403830192506129fe565b8381815181106129cf57fe5b016020015160f860020a900460f860020a02600160f860020a031916602e60f860020a0214156129fe57600191505b6001016128c6565b6000861115612a185785600a0a830292505b509095945050505050565b612a2b612cbd565b612a33612cbd565b612a3b612cbd565b612a43612cbd565b612a4b612cbd565b612a53612cbd565b612a5b612cbd565b612a63612cbd565b6000808e98508d97508c96508b95508a94508451865188518a518c5101010101604051805910612a905750595b818152601f19601f83011681016020016040529050935083925060009150600090505b8851811015612b0c57888181518110612ac857fe5b016020015160f860020a900460f860020a02838380600101945081518110612aec57fe5b906020010190600160f860020a031916908160001a905350600101612ab3565b5060005b8751811015612b6957878181518110612b2557fe5b016020015160f860020a900460f860020a02838380600101945081518110612b4957fe5b906020010190600160f860020a031916908160001a905350600101612b10565b5060005b8651811015612bc657868181518110612b8257fe5b016020015160f860020a900460f860020a02838380600101945081518110612ba657fe5b906020010190600160f860020a031916908160001a905350600101612b6d565b5060005b8551811015612c2357858181518110612bdf57fe5b016020015160f860020a900460f860020a02838380600101945081518110612c0357fe5b906020010190600160f860020a031916908160001a905350600101612bca565b5060005b8451811015612c8057848181518110612c3c57fe5b016020015160f860020a900460f860020a02838380600101945081518110612c6057fe5b906020010190600160f860020a031916908160001a905350600101612c27565b50909d9c50505050505050505050505050565b6005818051610341929160200190612ccf565b604080519081016040526000808252602082015290565b60206040519081016040526000815290565b828054600181600116156101000203166002900490600052602060002090601f016020900481019282601f10612d1057805160ff1916838001178555612d3d565b82800160010185558215612d3d579182015b82811115612d3d578251825591602001919060010190612d22565b50612d49929150612d4d565b5090565b6118e391905b80821115612d495760008155600101612d53565b60008054600160a060020a03909216600160a060020a031992831681179091556001805490921617815590565b600354600160a060020a03161580612dbe5750600354612dbc90600160a060020a0316612403565b155b15612dcf57612dcd6000612407565b505b600354600160a060020a03166338cc48316000604051602001526040518163ffffffff1660e060020a028152600401602060405180830381600087803b1515612e1757600080fd5b6102c65a03f11515612e2857600080fd5b505050604051805160048054600160a060020a031916600160a060020a03928316179081905516905063ca6ad1e48260405160e060020a63ffffffff84160281526004810191909152602401600060405180830381600087803b1515612e8d57600080fd5b6102c65a03f11515612e9e57600080fd5b5050505056003f247b5b646563727970745d20424a787077526148756a5954543938714935736c514a706c6a2f566266563776596b4d4f702f4d7235442f352b676b674a514b5a6230675653436136614b7832576f676f2f634737796157494e5236766e75597a636351453579564a5372375251696c526177786e41745a5874364a42373059705834786c6676706970697434522b4f6d515475724a474777623850676e72344c766f747964436a757036777632426b2f7a335564474137536c2b465535612b307d267574633d74727565292e666c6967687453746174757365735b305d5b27737461747573272c2764656c617973272c276f7065726174696f6e616c54696d6573275da165627a7a7230582001eb166bc4eb526d768f3ef2ce5553adde133a19ac1e0d7a0d9f8867aff9a25d0029",
  "source": "/**\n * FlightDelay with Oraclized Underwriting and Payout\n *\n * @description\tPayout contract\n * @copyright (c) 2017 etherisc GmbH\n * @author Christoph Mussenbrock\n */\n\npragma solidity ^0.4.11;\n\nimport \"./FlightDelayControlledContract.sol\";\nimport \"./FlightDelayConstants.sol\";\nimport \"./FlightDelayDatabaseInterface.sol\";\nimport \"./FlightDelayAccessControllerInterface.sol\";\nimport \"./FlightDelayLedgerInterface.sol\";\nimport \"./FlightDelayPayoutInterface.sol\";\nimport \"./FlightDelayOraclizeInterface.sol\";\nimport \"./convertLib.sol\";\nimport \"./../vendors/strings.sol\";\n\n\ncontract FlightDelayPayout is FlightDelayControlledContract, FlightDelayConstants, FlightDelayOraclizeInterface, ConvertLib {\n\n    using strings for *;\n\n    FlightDelayDatabaseInterface FD_DB;\n    FlightDelayLedgerInterface FD_LG;\n    FlightDelayAccessControllerInterface FD_AC;\n\n    /*\n     * @dev Contract constructor sets its controller\n     * @param _controller FD.Controller\n     */\n    function FlightDelayPayout(address _controller) public {\n        setController(_controller);\n        oraclize_setCustomGasPrice(ORACLIZE_GASPRICE);\n    }\n\n    /*\n     * Public methods\n     */\n\n    /*\n     * @dev Set access permissions for methods\n     */\n    function setContracts() public onlyController {\n        FD_AC = FlightDelayAccessControllerInterface(getContract(\"FD.AccessController\"));\n        FD_DB = FlightDelayDatabaseInterface(getContract(\"FD.Database\"));\n        FD_LG = FlightDelayLedgerInterface(getContract(\"FD.Ledger\"));\n\n        FD_AC.setPermissionById(101, \"FD.Underwrite\");\n        FD_AC.setPermissionByAddress(101, oraclize_cbAddress());\n        FD_AC.setPermissionById(102, \"FD.Funder\");\n    }\n\n    /*\n     * @dev Fund contract\n     */\n    function () public payable {\n        require(FD_AC.checkPermission(102, msg.sender));\n\n        // todo: bookkeeping\n        // todo: fire funding event\n    }\n\n    /*\n     * @dev Schedule oraclize call for payout\n     * @param _policyId\n     * @param _riskId\n     * @param _oraclizeTime\n     */\n    function schedulePayoutOraclizeCall(uint _policyId, bytes32 _riskId, uint _oraclizeTime) public {\n        require(FD_AC.checkPermission(101, msg.sender));\n\n        var (carrierFlightNumber, departureYearMonthDay,) = FD_DB.getRiskParameters(_riskId);\n\n        string memory oraclizeUrl = strConcat(\n            ORACLIZE_STATUS_BASE_URL,\n            b32toString(carrierFlightNumber),\n            b32toString(departureYearMonthDay),\n            ORACLIZE_STATUS_QUERY\n        );\n\n        bytes32 queryId = oraclize_query(\n            _oraclizeTime,\n            \"nested\",\n            oraclizeUrl,\n            ORACLIZE_GAS\n        );\n\n        FD_DB.createOraclizeCallback(\n            queryId,\n            _policyId,\n            oraclizeState.ForPayout,\n            _oraclizeTime\n        );\n\n        LogOraclizeCall(_policyId, queryId, oraclizeUrl, _oraclizeTime);\n    }\n\n    /*\n     * @dev Oraclize callback. In an emergency case, we can call this directly from FD.Emergency Account.\n     * @param _queryId\n     * @param _result\n     * @param _proof\n     */\n    function __callback(bytes32 _queryId, string _result, bytes _proof) public onlyOraclizeOr(getContract('FD.Emergency')) {\n\n        var (policyId, oraclizeTime) = FD_DB.getOraclizeCallback(_queryId);\n        LogOraclizeCallback(policyId, _queryId, _result, _proof);\n\n        // check if policy was declined after this callback was scheduled\n        var state = FD_DB.getPolicyState(policyId);\n        require(uint8(state) != 5);\n\n        bytes32 riskId = FD_DB.getRiskId(policyId);\n\n// --> debug-mode\n//            LogBytes32(\"riskId\", riskId);\n// <-- debug-mode\n\n        var slResult = _result.toSlice();\n\n        if (bytes(_result).length == 0) { // empty Result\n            if (FD_DB.checkTime(_queryId, riskId, 180 minutes)) {\n                LogPolicyManualPayout(policyId, \"No Callback at +120 min\");\n                return;\n            } else {\n                schedulePayoutOraclizeCall(policyId, riskId, oraclizeTime + 45 minutes);\n            }\n        } else {\n            // first check status\n            // extract the status field:\n            slResult.find(\"\\\"\".toSlice()).beyond(\"\\\"\".toSlice());\n            slResult.until(slResult.copy().find(\"\\\"\".toSlice()));\n            bytes1 status = bytes(slResult.toString())[0];\t// s = L\n            if (status == \"C\") {\n                // flight cancelled --> payout\n                payOut(policyId, 4, 0);\n                return;\n            } else if (status == \"D\") {\n                // flight diverted --> payout\n                payOut(policyId, 5, 0);\n                return;\n            } else if (status != \"L\" && status != \"A\" && status != \"C\" && status != \"D\") {\n                LogPolicyManualPayout(policyId, \"Unprocessable status\");\n                return;\n            }\n\n            // process the rest of the response:\n            slResult = _result.toSlice();\n            bool arrived = slResult.contains(\"actualGateArrival\".toSlice());\n\n            if (status == \"A\" || (status == \"L\" && !arrived)) {\n                // flight still active or not at gate --> reschedule\n                if (FD_DB.checkTime(_queryId, riskId, 180 minutes)) {\n                    LogPolicyManualPayout(policyId, \"No arrival at +180 min\");\n                } else {\n                    schedulePayoutOraclizeCall(policyId, riskId, oraclizeTime + 45 minutes);\n                }\n            } else if (status == \"L\" && arrived) {\n                var aG = \"\\\"arrivalGateDelayMinutes\\\": \".toSlice();\n                if (slResult.contains(aG)) {\n                    slResult.find(aG).beyond(aG);\n                    slResult.until(slResult.copy().find(\"\\\"\".toSlice()).beyond(\"\\\"\".toSlice()));\n                    // truffle bug, replace by \"}\" as soon as it is fixed.\n                    slResult.until(slResult.copy().find(\"\\x7D\".toSlice()));\n                    slResult.until(slResult.copy().find(\",\".toSlice()));\n                    uint delayInMinutes = parseInt(slResult.toString());\n                } else {\n                    delayInMinutes = 0;\n                }\n\n                if (delayInMinutes < 15) {\n                    payOut(policyId, 0, 0);\n                } else if (delayInMinutes < 30) {\n                    payOut(policyId, 1, delayInMinutes);\n                } else if (delayInMinutes < 45) {\n                    payOut(policyId, 2, delayInMinutes);\n                } else {\n                    payOut(policyId, 3, delayInMinutes);\n                }\n            } else { // no delay info\n                payOut(policyId, 0, 0);\n            }\n        }\n    }\n\n    /*\n     * Internal methods\n     */\n\n    /*\n     * @dev Payout\n     * @param _policyId\n     * @param _delay\n     * @param _delayInMinutes\n     */\n    function payOut(uint _policyId, uint8 _delay, uint _delayInMinutes)\tinternal {\n// --> debug-mode\n//            LogString(\"im payOut\", \"\");\n//            LogUint(\"policyId\", _policyId);\n//            LogUint(\"delay\", _delay);\n//            LogUint(\"in minutes\", _delayInMinutes);\n// <-- debug-mode\n\n        FD_DB.setDelay(_policyId, _delay, _delayInMinutes);\n\n        if (_delay == 0) {\n            FD_DB.setState(\n                _policyId,\n                policyState.Expired,\n                now,\n                \"Expired - no delay!\"\n            );\n        } else {\n            var (customer, weight, premium) = FD_DB.getPolicyData(_policyId);\n\n// --> debug-mode\n//                LogUint(\"weight\", weight);\n// <-- debug-mode\n\n            if (weight == 0) {\n                weight = 20000;\n            }\n\n            uint payout = premium * WEIGHT_PATTERN[_delay] * 10000 / weight;\n            uint calculatedPayout = payout;\n\n            if (payout > MAX_PAYOUT) {\n                payout = MAX_PAYOUT;\n            }\n\n            FD_DB.setPayouts(_policyId, calculatedPayout, payout);\n\n            if (!FD_LG.sendFunds(customer, Acc.Payout, payout)) {\n                FD_DB.setState(\n                    _policyId,\n                    policyState.SendFailed,\n                    now,\n                    \"Payout, send failed!\"\n                );\n\n                FD_DB.setPayouts(_policyId, calculatedPayout, 0);\n            } else {\n                FD_DB.setState(\n                    _policyId,\n                    policyState.PaidOut,\n                    now,\n                    \"Payout successful!\"\n                );\n            }\n        }\n    }\n}\n",
  "sourcePath": "/Users/melnikaite/projects/flightDelay/contracts/FlightDelayPayout.sol",
  "compiler": {
    "name": "solc",
    "version": "0.4.19+commit.c4cbbb05.Emscripten.clang"
  },
  "schemaVersion": "2.0.0",
  "updatedAt": "2018-03-13T09:40:39.991Z"
}