{
  "contractName": "FlightDelayLedger",
  "abi": [
    {
      "constant": false,
      "inputs": [],
      "name": "destruct",
      "outputs": [],
      "payable": false,
      "stateMutability": "nonpayable",
      "type": "function"
    },
    {
      "constant": true,
      "inputs": [],
      "name": "PATCH_VERSION",
      "outputs": [
        {
          "name": "",
          "type": "uint256"
        }
      ],
      "payable": false,
      "stateMutability": "view",
      "type": "function"
    },
    {
      "constant": true,
      "inputs": [],
      "name": "MINOR_VERSION",
      "outputs": [
        {
          "name": "",
          "type": "uint256"
        }
      ],
      "payable": false,
      "stateMutability": "view",
      "type": "function"
    },
    {
      "constant": true,
      "inputs": [],
      "name": "controller",
      "outputs": [
        {
          "name": "",
          "type": "address"
        }
      ],
      "payable": false,
      "stateMutability": "view",
      "type": "function"
    },
    {
      "constant": true,
      "inputs": [],
      "name": "MAJOR_VERSION",
      "outputs": [
        {
          "name": "",
          "type": "uint256"
        }
      ],
      "payable": false,
      "stateMutability": "view",
      "type": "function"
    },
    {
      "inputs": [
        {
          "name": "_controller",
          "type": "address"
        }
      ],
      "payable": false,
      "stateMutability": "nonpayable",
      "type": "constructor"
    },
    {
      "payable": true,
      "stateMutability": "payable",
      "type": "fallback"
    },
    {
      "anonymous": false,
      "inputs": [
        {
          "indexed": false,
          "name": "_policyId",
          "type": "uint256"
        },
        {
          "indexed": false,
          "name": "_customer",
          "type": "address"
        },
        {
          "indexed": false,
          "name": "strCarrierFlightNumber",
          "type": "bytes32"
        },
        {
          "indexed": false,
          "name": "ethPremium",
          "type": "uint256"
        }
      ],
      "name": "LogPolicyApplied",
      "type": "event"
    },
    {
      "anonymous": false,
      "inputs": [
        {
          "indexed": false,
          "name": "_policyId",
          "type": "uint256"
        },
        {
          "indexed": false,
          "name": "_statistics0",
          "type": "uint256"
        },
        {
          "indexed": false,
          "name": "_statistics1",
          "type": "uint256"
        },
        {
          "indexed": false,
          "name": "_statistics2",
          "type": "uint256"
        },
        {
          "indexed": false,
          "name": "_statistics3",
          "type": "uint256"
        },
        {
          "indexed": false,
          "name": "_statistics4",
          "type": "uint256"
        },
        {
          "indexed": false,
          "name": "_statistics5",
          "type": "uint256"
        }
      ],
      "name": "LogPolicyAccepted",
      "type": "event"
    },
    {
      "anonymous": false,
      "inputs": [
        {
          "indexed": false,
          "name": "_policyId",
          "type": "uint256"
        },
        {
          "indexed": false,
          "name": "ethAmount",
          "type": "uint256"
        }
      ],
      "name": "LogPolicyPaidOut",
      "type": "event"
    },
    {
      "anonymous": false,
      "inputs": [
        {
          "indexed": false,
          "name": "_policyId",
          "type": "uint256"
        }
      ],
      "name": "LogPolicyExpired",
      "type": "event"
    },
    {
      "anonymous": false,
      "inputs": [
        {
          "indexed": false,
          "name": "_policyId",
          "type": "uint256"
        },
        {
          "indexed": false,
          "name": "strReason",
          "type": "bytes32"
        }
      ],
      "name": "LogPolicyDeclined",
      "type": "event"
    },
    {
      "anonymous": false,
      "inputs": [
        {
          "indexed": false,
          "name": "_policyId",
          "type": "uint256"
        },
        {
          "indexed": false,
          "name": "strReason",
          "type": "bytes32"
        }
      ],
      "name": "LogPolicyManualPayout",
      "type": "event"
    },
    {
      "anonymous": false,
      "inputs": [
        {
          "indexed": false,
          "name": "_recipient",
          "type": "address"
        },
        {
          "indexed": false,
          "name": "_from",
          "type": "uint8"
        },
        {
          "indexed": false,
          "name": "ethAmount",
          "type": "uint256"
        }
      ],
      "name": "LogSendFunds",
      "type": "event"
    },
    {
      "anonymous": false,
      "inputs": [
        {
          "indexed": false,
          "name": "_sender",
          "type": "address"
        },
        {
          "indexed": false,
          "name": "_to",
          "type": "uint8"
        },
        {
          "indexed": false,
          "name": "ethAmount",
          "type": "uint256"
        }
      ],
      "name": "LogReceiveFunds",
      "type": "event"
    },
    {
      "anonymous": false,
      "inputs": [
        {
          "indexed": false,
          "name": "_policyId",
          "type": "uint256"
        },
        {
          "indexed": false,
          "name": "strReason",
          "type": "bytes32"
        }
      ],
      "name": "LogSendFail",
      "type": "event"
    },
    {
      "anonymous": false,
      "inputs": [
        {
          "indexed": false,
          "name": "_policyId",
          "type": "uint256"
        },
        {
          "indexed": false,
          "name": "hexQueryId",
          "type": "bytes32"
        },
        {
          "indexed": false,
          "name": "_oraclizeUrl",
          "type": "string"
        },
        {
          "indexed": false,
          "name": "_oraclizeTime",
          "type": "uint256"
        }
      ],
      "name": "LogOraclizeCall",
      "type": "event"
    },
    {
      "anonymous": false,
      "inputs": [
        {
          "indexed": false,
          "name": "_policyId",
          "type": "uint256"
        },
        {
          "indexed": false,
          "name": "hexQueryId",
          "type": "bytes32"
        },
        {
          "indexed": false,
          "name": "_result",
          "type": "string"
        },
        {
          "indexed": false,
          "name": "hexProof",
          "type": "bytes"
        }
      ],
      "name": "LogOraclizeCallback",
      "type": "event"
    },
    {
      "anonymous": false,
      "inputs": [
        {
          "indexed": false,
          "name": "_policyId",
          "type": "uint256"
        },
        {
          "indexed": false,
          "name": "_policyState",
          "type": "uint8"
        },
        {
          "indexed": false,
          "name": "_stateTime",
          "type": "uint256"
        },
        {
          "indexed": false,
          "name": "_stateMessage",
          "type": "bytes32"
        }
      ],
      "name": "LogSetState",
      "type": "event"
    },
    {
      "anonymous": false,
      "inputs": [
        {
          "indexed": false,
          "name": "_policyId",
          "type": "uint256"
        },
        {
          "indexed": false,
          "name": "_address",
          "type": "address"
        },
        {
          "indexed": false,
          "name": "_externalId",
          "type": "bytes32"
        }
      ],
      "name": "LogExternal",
      "type": "event"
    },
    {
      "constant": false,
      "inputs": [],
      "name": "setContracts",
      "outputs": [],
      "payable": false,
      "stateMutability": "nonpayable",
      "type": "function"
    },
    {
      "constant": false,
      "inputs": [
        {
          "name": "_amount",
          "type": "uint256"
        }
      ],
      "name": "withdraw",
      "outputs": [],
      "payable": false,
      "stateMutability": "nonpayable",
      "type": "function"
    },
    {
      "constant": false,
      "inputs": [
        {
          "name": "_to",
          "type": "uint8"
        }
      ],
      "name": "receiveFunds",
      "outputs": [],
      "payable": true,
      "stateMutability": "payable",
      "type": "function"
    },
    {
      "constant": false,
      "inputs": [
        {
          "name": "_recipient",
          "type": "address"
        },
        {
          "name": "_from",
          "type": "uint8"
        },
        {
          "name": "_amount",
          "type": "uint256"
        }
      ],
      "name": "sendFunds",
      "outputs": [
        {
          "name": "_success",
          "type": "bool"
        }
      ],
      "payable": false,
      "stateMutability": "nonpayable",
      "type": "function"
    },
    {
      "constant": false,
      "inputs": [
        {
          "name": "_from",
          "type": "uint8"
        },
        {
          "name": "_to",
          "type": "uint8"
        },
        {
          "name": "_amount",
          "type": "uint256"
        }
      ],
      "name": "bookkeeping",
      "outputs": [],
      "payable": false,
      "stateMutability": "nonpayable",
      "type": "function"
    }
  ],
  "bytecode": "0x606060405260c0604051908101604090815260008252600a6020830152601490820152601e606082015260326080820181905260a082015262000047906002906006620000ba565b5034156200005457600080fd5b6040516020806200125383398101604052808051915062000085905081640100000000620010656200008d82021704565b505062000178565b60008054600160a060020a03909216600160a060020a031992831681179091556001805490921617815590565b600183019183908215620001425791602002820160005b838211156200011157835183826101000a81548160ff021916908360ff1602179055509260200192600101602081600001049283019260010302620000d1565b8015620001405782816101000a81549060ff021916905560010160208160000104928301926001030262000111565b505b506200015092915062000154565b5090565b6200017591905b808211156200015057805460ff191681556001016200015b565b90565b6110cb80620001886000396000f30060606040526004361061008a5763ffffffff60e060020a60003504166329377d6181146101225780632b68b9c6146101305780632e1a7d4d1461014357806350bed043146101595780636bf2606a14610195578063b5675ee4146101ba578063c8b91531146101dc578063e0d6d530146101ef578063f77c479114610202578063f786becd14610231575b600454600160a060020a0316633ebd609260683360006040516020015260405160e060020a63ffffffff851602815260ff9092166004830152600160a060020a03166024820152604401602060405180830381600087803b15156100ed57600080fd5b6102c65a03f115156100fe57600080fd5b50505060405180519050151561011357600080fd5b6101206003600134610244565b005b61012060ff600435166103be565b341561013b57600080fd5b6101206104b4565b341561014e57600080fd5b6101206004356104dd565b341561016457600080fd5b610181600160a060020a036004351660ff602435166044356105e4565b604051901515815260200160405180910390f35b34156101a057600080fd5b6101a861073e565b60405190815260200160405180910390f35b34156101c557600080fd5b61012060ff60043581169060243516604435610244565b34156101e757600080fd5b6101a8610743565b34156101fa57600080fd5b610120610748565b341561020d57600080fd5b610215610fde565b604051600160a060020a03909116815260200160405180910390f35b341561023c57600080fd5b6101a8610fed565b600454600160a060020a0316633ebd609260673360006040516020015260405160e060020a63ffffffff851602815260ff9092166004830152600160a060020a03166024820152604401602060405180830381600087803b15156102a757600080fd5b6102c65a03f115156102b857600080fd5b5050506040518051905015156102cd57600080fd5b600081136102d757fe5b600354600160a060020a03166336be2a738460058111156102f457fe5b8360000360405160e060020a63ffffffff851602815260ff90921660048301526024820152604401600060405180830381600087803b151561033557600080fd5b6102c65a03f1151561034657600080fd5b5050600354600160a060020a031690506336be2a7383600581111561036757fe5b8360405160e060020a63ffffffff851602815260ff90921660048301526024820152604401600060405180830381600087803b15156103a557600080fd5b6102c65a03f115156103b657600080fd5b505050505050565b600454600160a060020a0316633ebd609260653360006040516020015260405160e060020a63ffffffff851602815260ff9092166004830152600160a060020a03166024820152604401602060405180830381600087803b151561042157600080fd5b6102c65a03f1151561043257600080fd5b50505060405180519050151561044757600080fd5b7fd03e9bccd46f248f783faac581aa0546bf19c3646bb6be5ce14839513bb903913382600581111561047557fe5b34604051600160a060020a03909316835260ff90911660208301526040808301919091526060909101905180910390a16104b160038234610244565b50565b60005433600160a060020a039081169116146104cf57600080fd5b600054600160a060020a0316ff5b600454600160a060020a0316633ebd609260683360006040516020015260405160e060020a63ffffffff851602815260ff9092166004830152600160a060020a03166024820152604401602060405180830381600087803b151561054057600080fd5b6102c65a03f1151561055157600080fd5b50505060405180519050151561056657600080fd5b600160a060020a033016318190101561057e57600080fd5b61058b6001600383610244565b6105b47f46442e46756e6465720000000000000000000000000000000000000000000000610ff2565b600160a060020a031681156108fc0282604051600060405180830381858888f1935050505015156104b157600080fd5b600454600090600160a060020a0316633ebd6092606633846040516020015260405160e060020a63ffffffff851602815260ff9092166004830152600160a060020a03166024820152604401602060405180830381600087803b151561064957600080fd5b6102c65a03f1151561065a57600080fd5b50505060405180519050151561066f57600080fd5b8130600160a060020a031631101561068957506000610737565b7f58d25b935835d1791b52774277ec18acc66c328af44c3a19fcf57cb68065611c848460058111156106b757fe5b84604051600160a060020a03909316835260ff90911660208301526040808301919091526060909101905180910390a16106f383600384610244565b600160a060020a03841682156108fc0283604051600060405180830381858888f1935050505015156107335761072b60038484610244565b506000610737565b5060015b9392505050565b600281565b600081565b60005433600160a060020a0390811691161461076357600080fd5b61078c7f46442e416363657373436f6e74726f6c6c657200000000000000000000000000610ff2565b6004805473ffffffffffffffffffffffffffffffffffffffff1916600160a060020a03929092169190911790556107e27f46442e4461746162617365000000000000000000000000000000000000000000610ff2565b6003805473ffffffffffffffffffffffffffffffffffffffff1916600160a060020a039283161790556004541663c28b4577606560405160e060020a63ffffffff841602815260ff90911660048201527f46442e4e6577506f6c69637900000000000000000000000000000000000000006024820152604401600060405180830381600087803b151561087457600080fd5b6102c65a03f1151561088557600080fd5b5050600454600160a060020a0316905063c28b4577606560405160e060020a63ffffffff841602815260ff90911660048201527f46442e436f6e74726f6c6c6572000000000000000000000000000000000000006024820152604401600060405180830381600087803b15156108fa57600080fd5b6102c65a03f1151561090b57600080fd5b5050600454600160a060020a0316905063c28b4577606660405160e060020a63ffffffff841602815260ff90911660048201527f46442e5061796f757400000000000000000000000000000000000000000000006024820152604401600060405180830381600087803b151561098057600080fd5b6102c65a03f1151561099157600080fd5b5050600454600160a060020a0316905063c28b4577606660405160e060020a63ffffffff841602815260ff90911660048201527f46442e4e6577506f6c69637900000000000000000000000000000000000000006024820152604401600060405180830381600087803b1515610a0657600080fd5b6102c65a03f11515610a1757600080fd5b5050600454600160a060020a0316905063c28b4577606660405160e060020a63ffffffff841602815260ff90911660048201527f46442e436f6e74726f6c6c6572000000000000000000000000000000000000006024820152604401600060405180830381600087803b1515610a8c57600080fd5b6102c65a03f11515610a9d57600080fd5b5050600454600160a060020a0316905063c28b4577606660405160e060020a63ffffffff841602815260ff90911660048201527f46442e556e6465727772697465000000000000000000000000000000000000006024820152604401600060405180830381600087803b1515610b1257600080fd5b6102c65a03f11515610b2357600080fd5b5050600454600160a060020a0316905063c28b4577606660405160e060020a63ffffffff841602815260ff90911660048201527f46442e4f776e65720000000000000000000000000000000000000000000000006024820152604401600060405180830381600087803b1515610b9857600080fd5b6102c65a03f11515610ba957600080fd5b5050600454600160a060020a0316905063c28b4577606760405160e060020a63ffffffff841602815260ff90911660048201527f46442e46756e64657200000000000000000000000000000000000000000000006024820152604401600060405180830381600087803b1515610c1e57600080fd5b6102c65a03f11515610c2f57600080fd5b5050600454600160a060020a0316905063c28b4577606760405160e060020a63ffffffff841602815260ff90911660048201527f46442e556e6465727772697465000000000000000000000000000000000000006024820152604401600060405180830381600087803b1515610ca457600080fd5b6102c65a03f11515610cb557600080fd5b5050600454600160a060020a0316905063c28b4577606760405160e060020a63ffffffff841602815260ff90911660048201527f46442e5061796f757400000000000000000000000000000000000000000000006024820152604401600060405180830381600087803b1515610d2a57600080fd5b6102c65a03f11515610d3b57600080fd5b5050600454600160a060020a0316905063c28b4577606760405160e060020a63ffffffff841602815260ff90911660048201527f46442e4c656467657200000000000000000000000000000000000000000000006024820152604401600060405180830381600087803b1515610db057600080fd5b6102c65a03f11515610dc157600080fd5b5050600454600160a060020a0316905063c28b4577606760405160e060020a63ffffffff841602815260ff90911660048201527f46442e4e6577506f6c69637900000000000000000000000000000000000000006024820152604401600060405180830381600087803b1515610e3657600080fd5b6102c65a03f11515610e4757600080fd5b5050600454600160a060020a0316905063c28b4577606760405160e060020a63ffffffff841602815260ff90911660048201527f46442e436f6e74726f6c6c6572000000000000000000000000000000000000006024820152604401600060405180830381600087803b1515610ebc57600080fd5b6102c65a03f11515610ecd57600080fd5b5050600454600160a060020a0316905063c28b4577606760405160e060020a63ffffffff841602815260ff90911660048201527f46442e4f776e65720000000000000000000000000000000000000000000000006024820152604401600060405180830381600087803b1515610f4257600080fd5b6102c65a03f11515610f5357600080fd5b5050600454600160a060020a0316905063c28b4577606860405160e060020a63ffffffff841602815260ff90911660048201527f46442e46756e64657200000000000000000000000000000000000000000000006024820152604401600060405180830381600087803b1515610fc857600080fd5b6102c65a03f11515610fd957600080fd5b505050565b600054600160a060020a031681565b600181565b600154600090600160a060020a031663e16c7d9883836040516020015260405160e060020a63ffffffff84160281526004810191909152602401602060405180830381600087803b151561104557600080fd5b6102c65a03f1151561105657600080fd5b50505060405180519392505050565b60008054600160a060020a0390921673ffffffffffffffffffffffffffffffffffffffff19928316811790915560018054909216178155905600a165627a7a723058202034a87fc23de57ed5ebd22a60493d16df7320bd8e4bfea673deea45ec52db230029",
  "source": "/**\n * FlightDelay with Oraclized Underwriting and Payout\n *\n * @description\tLedger contract\n * @copyright (c) 2017 etherisc GmbH\n * @author Christoph Mussenbrock\n */\n\npragma solidity ^0.4.11;\n\nimport \"./FlightDelayControlledContract.sol\";\nimport \"./FlightDelayAccessControllerInterface.sol\";\nimport \"./FlightDelayDatabaseInterface.sol\";\nimport \"./FlightDelayLedgerInterface.sol\";\nimport \"./FlightDelayConstants.sol\";\n\n\ncontract FlightDelayLedger is FlightDelayControlledContract, FlightDelayLedgerInterface, FlightDelayConstants {\n\n    FlightDelayDatabaseInterface FD_DB;\n    FlightDelayAccessControllerInterface FD_AC;\n\n    function FlightDelayLedger(address _controller) public {\n        setController(_controller);\n    }\n\n    function setContracts() public onlyController {\n        FD_AC = FlightDelayAccessControllerInterface(getContract(\"FD.AccessController\"));\n        FD_DB = FlightDelayDatabaseInterface(getContract(\"FD.Database\"));\n\n        FD_AC.setPermissionById(101, \"FD.NewPolicy\");\n        FD_AC.setPermissionById(101, \"FD.Controller\"); // todo: check!\n\n        FD_AC.setPermissionById(102, \"FD.Payout\");\n        FD_AC.setPermissionById(102, \"FD.NewPolicy\");\n        FD_AC.setPermissionById(102, \"FD.Controller\"); // todo: check!\n        FD_AC.setPermissionById(102, \"FD.Underwrite\");\n        FD_AC.setPermissionById(102, \"FD.Owner\");\n\n        FD_AC.setPermissionById(103, \"FD.Funder\");\n        FD_AC.setPermissionById(103, \"FD.Underwrite\");\n        FD_AC.setPermissionById(103, \"FD.Payout\");\n        FD_AC.setPermissionById(103, \"FD.Ledger\");\n        FD_AC.setPermissionById(103, \"FD.NewPolicy\");\n        FD_AC.setPermissionById(103, \"FD.Controller\");\n        FD_AC.setPermissionById(103, \"FD.Owner\");\n\n        FD_AC.setPermissionById(104, \"FD.Funder\");\n    }\n\n    /*\n     * @dev Fund contract\n     */\n    function () public payable {\n        require(FD_AC.checkPermission(104, msg.sender));\n\n        bookkeeping(Acc.Balance, Acc.RiskFund, msg.value);\n    }\n\n    function withdraw(uint256 _amount) {\n        require(FD_AC.checkPermission(104, msg.sender));\n        require(this.balance >= _amount);\n\n        bookkeeping(Acc.RiskFund, Acc.Balance, _amount);\n\n        getContract(\"FD.Funder\").transfer(_amount);\n    }\n\n    function receiveFunds(Acc _to) public payable {\n        require(FD_AC.checkPermission(101, msg.sender));\n\n        LogReceiveFunds(msg.sender, uint8(_to), msg.value);\n\n        bookkeeping(Acc.Balance, _to, msg.value);\n    }\n\n    function sendFunds(address _recipient, Acc _from, uint _amount) public returns (bool _success) {\n        require(FD_AC.checkPermission(102, msg.sender));\n\n        if (this.balance < _amount) {\n            return false; // unsufficient funds\n        }\n\n        LogSendFunds(_recipient, uint8(_from), _amount);\n\n        bookkeeping(_from, Acc.Balance, _amount); // cash out payout\n\n        if (!_recipient.send(_amount)) {\n            bookkeeping(Acc.Balance, _from, _amount);\n            _success = false;\n        } else {\n            _success = true;\n        }\n    }\n\n    // invariant: acc_Premium + acc_RiskFund + acc_Payout + acc_Balance + acc_Reward + acc_OraclizeCosts == 0\n\n    function bookkeeping(Acc _from, Acc _to, uint256 _amount) public {\n        require(FD_AC.checkPermission(103, msg.sender));\n\n        // check against type cast overflow\n        assert(int256(_amount) > 0);\n\n        // overflow check is done in FD_DB\n        FD_DB.setLedger(uint8(_from), -int(_amount));\n        FD_DB.setLedger(uint8(_to), int(_amount));\n    }\n}\n",
  "sourcePath": "/Users/A/Data/Altoros/1244-Etherisc/repos/flightdelay/contracts/FlightDelayLedger.sol",
  "compiler": {
    "name": "solc",
    "version": "0.4.19+commit.c4cbbb05.Emscripten.clang"
  },
  "schemaVersion": "2.0.0",
  "updatedAt": "2018-04-05T12:35:45.913Z"
}