{
  "contractName": "FlightDelayDatabase",
  "abi": [
    {
      "constant": false,
      "inputs": [
        {
          "name": "_timestamp",
          "type": "uint256"
        }
      ],
      "name": "setMinDepartureLim",
      "outputs": [
        {
          "name": "_success",
          "type": "bool"
        }
      ],
      "payable": false,
      "stateMutability": "nonpayable",
      "type": "function"
    },
    {
      "constant": false,
      "inputs": [
        {
          "name": "_policyId",
          "type": "uint256"
        },
        {
          "name": "_calculatedPayout",
          "type": "uint256"
        },
        {
          "name": "_actualPayout",
          "type": "uint256"
        }
      ],
      "name": "setPayouts",
      "outputs": [],
      "payable": false,
      "stateMutability": "nonpayable",
      "type": "function"
    },
    {
      "constant": true,
      "inputs": [
        {
          "name": "",
          "type": "uint256"
        }
      ],
      "name": "validOrigins",
      "outputs": [
        {
          "name": "",
          "type": "bytes32"
        }
      ],
      "payable": false,
      "stateMutability": "view",
      "type": "function"
    },
    {
      "constant": true,
      "inputs": [
        {
          "name": "",
          "type": "uint256"
        }
      ],
      "name": "ledger",
      "outputs": [
        {
          "name": "",
          "type": "int256"
        }
      ],
      "payable": false,
      "stateMutability": "view",
      "type": "function"
    },
    {
      "constant": false,
      "inputs": [
        {
          "name": "_carrierFlightNumber",
          "type": "bytes32"
        },
        {
          "name": "_departureYearMonthDay",
          "type": "bytes32"
        },
        {
          "name": "_arrivalTime",
          "type": "uint256"
        }
      ],
      "name": "createUpdateRisk",
      "outputs": [
        {
          "name": "_riskId",
          "type": "bytes32"
        }
      ],
      "payable": false,
      "stateMutability": "nonpayable",
      "type": "function"
    },
    {
      "constant": true,
      "inputs": [
        {
          "name": "",
          "type": "address"
        },
        {
          "name": "",
          "type": "address"
        },
        {
          "name": "",
          "type": "uint8"
        }
      ],
      "name": "accessControl",
      "outputs": [
        {
          "name": "",
          "type": "bool"
        }
      ],
      "payable": false,
      "stateMutability": "view",
      "type": "function"
    },
    {
      "constant": false,
      "inputs": [
        {
          "name": "_index",
          "type": "uint8"
        }
      ],
      "name": "getLedger",
      "outputs": [
        {
          "name": "_value",
          "type": "int256"
        }
      ],
      "payable": false,
      "stateMutability": "nonpayable",
      "type": "function"
    },
    {
      "constant": false,
      "inputs": [
        {
          "name": "_policyId",
          "type": "uint256"
        },
        {
          "name": "_delay",
          "type": "uint8"
        },
        {
          "name": "_delayInMinutes",
          "type": "uint256"
        }
      ],
      "name": "setDelay",
      "outputs": [],
      "payable": false,
      "stateMutability": "nonpayable",
      "type": "function"
    },
    {
      "constant": false,
      "inputs": [
        {
          "name": "_origin",
          "type": "bytes32"
        }
      ],
      "name": "addOrigin",
      "outputs": [
        {
          "name": "_index",
          "type": "uint256"
        }
      ],
      "payable": false,
      "stateMutability": "nonpayable",
      "type": "function"
    },
    {
      "constant": false,
      "inputs": [],
      "name": "destruct",
      "outputs": [],
      "payable": false,
      "stateMutability": "nonpayable",
      "type": "function"
    },
    {
      "constant": false,
      "inputs": [
        {
          "name": "_queryId",
          "type": "bytes32"
        },
        {
          "name": "_policyId",
          "type": "uint256"
        },
        {
          "name": "_oraclizeState",
          "type": "uint8"
        },
        {
          "name": "_oraclizeTime",
          "type": "uint256"
        }
      ],
      "name": "createOraclizeCallback",
      "outputs": [],
      "payable": false,
      "stateMutability": "nonpayable",
      "type": "function"
    },
    {
      "constant": true,
      "inputs": [],
      "name": "MAX_DEPARTURE_LIM",
      "outputs": [
        {
          "name": "",
          "type": "uint256"
        }
      ],
      "payable": false,
      "stateMutability": "view",
      "type": "function"
    },
    {
      "constant": true,
      "inputs": [
        {
          "name": "",
          "type": "address"
        }
      ],
      "name": "customers",
      "outputs": [
        {
          "name": "customerExternalId",
          "type": "bytes32"
        },
        {
          "name": "identityConfirmed",
          "type": "bool"
        }
      ],
      "payable": false,
      "stateMutability": "view",
      "type": "function"
    },
    {
      "constant": false,
      "inputs": [
        {
          "name": "_index",
          "type": "uint8"
        },
        {
          "name": "_value",
          "type": "int256"
        }
      ],
      "name": "setLedger",
      "outputs": [],
      "payable": false,
      "stateMutability": "nonpayable",
      "type": "function"
    },
    {
      "constant": false,
      "inputs": [
        {
          "name": "_timestamp",
          "type": "uint256"
        }
      ],
      "name": "setMaxDepartureLim",
      "outputs": [
        {
          "name": "_success",
          "type": "bool"
        }
      ],
      "payable": false,
      "stateMutability": "nonpayable",
      "type": "function"
    },
    {
      "constant": true,
      "inputs": [
        {
          "name": "",
          "type": "address"
        },
        {
          "name": "",
          "type": "uint256"
        }
      ],
      "name": "customerPolicies",
      "outputs": [
        {
          "name": "",
          "type": "uint256"
        }
      ],
      "payable": false,
      "stateMutability": "view",
      "type": "function"
    },
    {
      "constant": true,
      "inputs": [
        {
          "name": "",
          "type": "bytes32"
        },
        {
          "name": "",
          "type": "uint256"
        }
      ],
      "name": "extCustomerPolicies",
      "outputs": [
        {
          "name": "",
          "type": "uint256"
        }
      ],
      "payable": false,
      "stateMutability": "view",
      "type": "function"
    },
    {
      "constant": false,
      "inputs": [
        {
          "name": "_policyId",
          "type": "uint256"
        },
        {
          "name": "_state",
          "type": "uint8"
        },
        {
          "name": "_stateTime",
          "type": "uint256"
        },
        {
          "name": "_stateMessage",
          "type": "bytes32"
        }
      ],
      "name": "setState",
      "outputs": [],
      "payable": false,
      "stateMutability": "nonpayable",
      "type": "function"
    },
    {
      "constant": true,
      "inputs": [
        {
          "name": "",
          "type": "bytes32"
        }
      ],
      "name": "oraclizeCallbacks",
      "outputs": [
        {
          "name": "policyId",
          "type": "uint256"
        },
        {
          "name": "oState",
          "type": "uint8"
        },
        {
          "name": "oraclizeTime",
          "type": "uint256"
        }
      ],
      "payable": false,
      "stateMutability": "view",
      "type": "function"
    },
    {
      "constant": false,
      "inputs": [
        {
          "name": "_policyId",
          "type": "uint256"
        }
      ],
      "name": "getPolicyState",
      "outputs": [
        {
          "name": "_state",
          "type": "uint8"
        }
      ],
      "payable": false,
      "stateMutability": "nonpayable",
      "type": "function"
    },
    {
      "constant": true,
      "inputs": [],
      "name": "MIN_DEPARTURE_LIM",
      "outputs": [
        {
          "name": "",
          "type": "uint256"
        }
      ],
      "payable": false,
      "stateMutability": "view",
      "type": "function"
    },
    {
      "constant": false,
      "inputs": [
        {
          "name": "_index",
          "type": "uint256"
        }
      ],
      "name": "removeOriginByIndex",
      "outputs": [
        {
          "name": "_success",
          "type": "bool"
        }
      ],
      "payable": false,
      "stateMutability": "nonpayable",
      "type": "function"
    },
    {
      "constant": false,
      "inputs": [
        {
          "name": "_origin",
          "type": "bytes32"
        }
      ],
      "name": "addDestination",
      "outputs": [
        {
          "name": "_index",
          "type": "uint256"
        }
      ],
      "payable": false,
      "stateMutability": "nonpayable",
      "type": "function"
    },
    {
      "constant": false,
      "inputs": [
        {
          "name": "_queryId",
          "type": "bytes32"
        }
      ],
      "name": "getOraclizePolicyId",
      "outputs": [
        {
          "name": "_policyId",
          "type": "uint256"
        }
      ],
      "payable": false,
      "stateMutability": "nonpayable",
      "type": "function"
    },
    {
      "constant": true,
      "inputs": [],
      "name": "PATCH_VERSION",
      "outputs": [
        {
          "name": "",
          "type": "uint256"
        }
      ],
      "payable": false,
      "stateMutability": "view",
      "type": "function"
    },
    {
      "constant": false,
      "inputs": [
        {
          "name": "_policyId",
          "type": "uint256"
        }
      ],
      "name": "getPolicyData",
      "outputs": [
        {
          "name": "_customer",
          "type": "address"
        },
        {
          "name": "_weight",
          "type": "uint256"
        },
        {
          "name": "_premium",
          "type": "uint256"
        }
      ],
      "payable": false,
      "stateMutability": "nonpayable",
      "type": "function"
    },
    {
      "constant": false,
      "inputs": [
        {
          "name": "_queryId",
          "type": "bytes32"
        }
      ],
      "name": "getOraclizeCallback",
      "outputs": [
        {
          "name": "_policyId",
          "type": "uint256"
        },
        {
          "name": "_oraclizeTime",
          "type": "uint256"
        }
      ],
      "payable": false,
      "stateMutability": "nonpayable",
      "type": "function"
    },
    {
      "constant": false,
      "inputs": [
        {
          "name": "_riskId",
          "type": "bytes32"
        },
        {
          "name": "_cumulatedWeightedPremium",
          "type": "uint256"
        },
        {
          "name": "_premiumMultiplier",
          "type": "uint256"
        }
      ],
      "name": "setPremiumFactors",
      "outputs": [],
      "payable": false,
      "stateMutability": "nonpayable",
      "type": "function"
    },
    {
      "constant": true,
      "inputs": [
        {
          "name": "",
          "type": "bytes32"
        }
      ],
      "name": "risks",
      "outputs": [
        {
          "name": "carrierFlightNumber",
          "type": "bytes32"
        },
        {
          "name": "departureYearMonthDay",
          "type": "bytes32"
        },
        {
          "name": "arrivalTime",
          "type": "uint256"
        },
        {
          "name": "delayInMinutes",
          "type": "uint256"
        },
        {
          "name": "delay",
          "type": "uint8"
        },
        {
          "name": "cumulatedWeightedPremium",
          "type": "uint256"
        },
        {
          "name": "premiumMultiplier",
          "type": "uint256"
        }
      ],
      "payable": false,
      "stateMutability": "view",
      "type": "function"
    },
    {
      "constant": false,
      "inputs": [
        {
          "name": "_index",
          "type": "uint256"
        }
      ],
      "name": "removeDestinationByIndex",
      "outputs": [
        {
          "name": "_success",
          "type": "bool"
        }
      ],
      "payable": false,
      "stateMutability": "nonpayable",
      "type": "function"
    },
    {
      "constant": false,
      "inputs": [
        {
          "name": "_queryId",
          "type": "bytes32"
        },
        {
          "name": "_riskId",
          "type": "bytes32"
        },
        {
          "name": "_offset",
          "type": "uint256"
        }
      ],
      "name": "checkTime",
      "outputs": [
        {
          "name": "_result",
          "type": "bool"
        }
      ],
      "payable": false,
      "stateMutability": "nonpayable",
      "type": "function"
    },
    {
      "constant": false,
      "inputs": [
        {
          "name": "_riskId",
          "type": "bytes32"
        }
      ],
      "name": "getPremiumFactors",
      "outputs": [
        {
          "name": "_cumulatedWeightedPremium",
          "type": "uint256"
        },
        {
          "name": "_premiumMultiplier",
          "type": "uint256"
        }
      ],
      "payable": false,
      "stateMutability": "nonpayable",
      "type": "function"
    },
    {
      "constant": true,
      "inputs": [],
      "name": "countDestinations",
      "outputs": [
        {
          "name": "_length",
          "type": "uint256"
        }
      ],
      "payable": false,
      "stateMutability": "view",
      "type": "function"
    },
    {
      "constant": true,
      "inputs": [],
      "name": "countOrigins",
      "outputs": [
        {
          "name": "_length",
          "type": "uint256"
        }
      ],
      "payable": false,
      "stateMutability": "view",
      "type": "function"
    },
    {
      "constant": true,
      "inputs": [
        {
          "name": "_i",
          "type": "uint256"
        }
      ],
      "name": "getOriginByIndex",
      "outputs": [
        {
          "name": "_origin",
          "type": "bytes32"
        }
      ],
      "payable": false,
      "stateMutability": "view",
      "type": "function"
    },
    {
      "constant": false,
      "inputs": [
        {
          "name": "_policyId",
          "type": "uint256"
        }
      ],
      "name": "getCustomerPremium",
      "outputs": [
        {
          "name": "_customer",
          "type": "address"
        },
        {
          "name": "_premium",
          "type": "uint256"
        }
      ],
      "payable": false,
      "stateMutability": "nonpayable",
      "type": "function"
    },
    {
      "constant": true,
      "inputs": [
        {
          "name": "",
          "type": "uint256"
        }
      ],
      "name": "validDestinations",
      "outputs": [
        {
          "name": "",
          "type": "bytes32"
        }
      ],
      "payable": false,
      "stateMutability": "view",
      "type": "function"
    },
    {
      "constant": false,
      "inputs": [
        {
          "name": "_contract",
          "type": "address"
        },
        {
          "name": "_caller",
          "type": "address"
        },
        {
          "name": "_perm",
          "type": "uint8"
        },
        {
          "name": "_access",
          "type": "bool"
        }
      ],
      "name": "setAccessControl",
      "outputs": [],
      "payable": false,
      "stateMutability": "nonpayable",
      "type": "function"
    },
    {
      "constant": true,
      "inputs": [],
      "name": "MINOR_VERSION",
      "outputs": [
        {
          "name": "",
          "type": "uint256"
        }
      ],
      "payable": false,
      "stateMutability": "view",
      "type": "function"
    },
    {
      "constant": false,
      "inputs": [
        {
          "name": "_contract",
          "type": "address"
        },
        {
          "name": "_caller",
          "type": "address"
        },
        {
          "name": "_perm",
          "type": "uint8"
        }
      ],
      "name": "setAccessControl",
      "outputs": [],
      "payable": false,
      "stateMutability": "nonpayable",
      "type": "function"
    },
    {
      "constant": false,
      "inputs": [
        {
          "name": "_riskId",
          "type": "bytes32"
        }
      ],
      "name": "getRiskParameters",
      "outputs": [
        {
          "name": "_carrierFlightNumber",
          "type": "bytes32"
        },
        {
          "name": "_departureYearMonthDay",
          "type": "bytes32"
        },
        {
          "name": "_arrivalTime",
          "type": "uint256"
        }
      ],
      "payable": false,
      "stateMutability": "nonpayable",
      "type": "function"
    },
    {
      "constant": true,
      "inputs": [
        {
          "name": "",
          "type": "uint256"
        }
      ],
      "name": "policies",
      "outputs": [
        {
          "name": "customer",
          "type": "address"
        },
        {
          "name": "premium",
          "type": "uint256"
        },
        {
          "name": "riskId",
          "type": "bytes32"
        },
        {
          "name": "weight",
          "type": "uint256"
        },
        {
          "name": "calculatedPayout",
          "type": "uint256"
        },
        {
          "name": "actualPayout",
          "type": "uint256"
        },
        {
          "name": "state",
          "type": "uint8"
        },
        {
          "name": "stateTime",
          "type": "uint256"
        },
        {
          "name": "stateMessage",
          "type": "bytes32"
        },
        {
          "name": "proof",
          "type": "bytes"
        },
        {
          "name": "currency",
          "type": "uint8"
        },
        {
          "name": "customerExternalId",
          "type": "bytes32"
        }
      ],
      "payable": false,
      "stateMutability": "view",
      "type": "function"
    },
    {
      "constant": false,
      "inputs": [
        {
          "name": "_contract",
          "type": "address"
        },
        {
          "name": "_caller",
          "type": "address"
        },
        {
          "name": "_perm",
          "type": "uint8"
        }
      ],
      "name": "getAccessControl",
      "outputs": [
        {
          "name": "_allowed",
          "type": "bool"
        }
      ],
      "payable": false,
      "stateMutability": "nonpayable",
      "type": "function"
    },
    {
      "constant": false,
      "inputs": [],
      "name": "setContracts",
      "outputs": [],
      "payable": false,
      "stateMutability": "nonpayable",
      "type": "function"
    },
    {
      "constant": false,
      "inputs": [
        {
          "name": "_policyId",
          "type": "uint256"
        }
      ],
      "name": "getRiskId",
      "outputs": [
        {
          "name": "_riskId",
          "type": "bytes32"
        }
      ],
      "payable": false,
      "stateMutability": "nonpayable",
      "type": "function"
    },
    {
      "constant": true,
      "inputs": [
        {
          "name": "_i",
          "type": "uint256"
        }
      ],
      "name": "getDestinationByIndex",
      "outputs": [
        {
          "name": "_destination",
          "type": "bytes32"
        }
      ],
      "payable": false,
      "stateMutability": "view",
      "type": "function"
    },
    {
      "constant": true,
      "inputs": [],
      "name": "controller",
      "outputs": [
        {
          "name": "",
          "type": "address"
        }
      ],
      "payable": false,
      "stateMutability": "view",
      "type": "function"
    },
    {
      "constant": true,
      "inputs": [],
      "name": "MAJOR_VERSION",
      "outputs": [
        {
          "name": "",
          "type": "uint256"
        }
      ],
      "payable": false,
      "stateMutability": "view",
      "type": "function"
    },
    {
      "constant": false,
      "inputs": [
        {
          "name": "_customer",
          "type": "address"
        },
        {
          "name": "_premium",
          "type": "uint256"
        },
        {
          "name": "_currency",
          "type": "uint8"
        },
        {
          "name": "_customerExternalId",
          "type": "bytes32"
        },
        {
          "name": "_riskId",
          "type": "bytes32"
        }
      ],
      "name": "createPolicy",
      "outputs": [
        {
          "name": "_policyId",
          "type": "uint256"
        }
      ],
      "payable": false,
      "stateMutability": "nonpayable",
      "type": "function"
    },
    {
      "constant": false,
      "inputs": [
        {
          "name": "_policyId",
          "type": "uint256"
        },
        {
          "name": "_weight",
          "type": "uint256"
        },
        {
          "name": "_proof",
          "type": "bytes"
        }
      ],
      "name": "setWeight",
      "outputs": [],
      "payable": false,
      "stateMutability": "nonpayable",
      "type": "function"
    },
    {
      "inputs": [
        {
          "name": "_controller",
          "type": "address"
        }
      ],
      "payable": false,
      "stateMutability": "nonpayable",
      "type": "constructor"
    },
    {
      "anonymous": false,
      "inputs": [
        {
          "indexed": false,
          "name": "_policyId",
          "type": "uint256"
        },
        {
          "indexed": false,
          "name": "_customer",
          "type": "address"
        },
        {
          "indexed": false,
          "name": "strCarrierFlightNumber",
          "type": "bytes32"
        },
        {
          "indexed": false,
          "name": "ethPremium",
          "type": "uint256"
        }
      ],
      "name": "LogPolicyApplied",
      "type": "event"
    },
    {
      "anonymous": false,
      "inputs": [
        {
          "indexed": false,
          "name": "_policyId",
          "type": "uint256"
        },
        {
          "indexed": false,
          "name": "_statistics0",
          "type": "uint256"
        },
        {
          "indexed": false,
          "name": "_statistics1",
          "type": "uint256"
        },
        {
          "indexed": false,
          "name": "_statistics2",
          "type": "uint256"
        },
        {
          "indexed": false,
          "name": "_statistics3",
          "type": "uint256"
        },
        {
          "indexed": false,
          "name": "_statistics4",
          "type": "uint256"
        },
        {
          "indexed": false,
          "name": "_statistics5",
          "type": "uint256"
        }
      ],
      "name": "LogPolicyAccepted",
      "type": "event"
    },
    {
      "anonymous": false,
      "inputs": [
        {
          "indexed": false,
          "name": "_policyId",
          "type": "uint256"
        },
        {
          "indexed": false,
          "name": "ethAmount",
          "type": "uint256"
        }
      ],
      "name": "LogPolicyPaidOut",
      "type": "event"
    },
    {
      "anonymous": false,
      "inputs": [
        {
          "indexed": false,
          "name": "_policyId",
          "type": "uint256"
        }
      ],
      "name": "LogPolicyExpired",
      "type": "event"
    },
    {
      "anonymous": false,
      "inputs": [
        {
          "indexed": false,
          "name": "_policyId",
          "type": "uint256"
        },
        {
          "indexed": false,
          "name": "strReason",
          "type": "bytes32"
        }
      ],
      "name": "LogPolicyDeclined",
      "type": "event"
    },
    {
      "anonymous": false,
      "inputs": [
        {
          "indexed": false,
          "name": "_policyId",
          "type": "uint256"
        },
        {
          "indexed": false,
          "name": "strReason",
          "type": "bytes32"
        }
      ],
      "name": "LogPolicyManualPayout",
      "type": "event"
    },
    {
      "anonymous": false,
      "inputs": [
        {
          "indexed": false,
          "name": "_recipient",
          "type": "address"
        },
        {
          "indexed": false,
          "name": "_from",
          "type": "uint8"
        },
        {
          "indexed": false,
          "name": "ethAmount",
          "type": "uint256"
        }
      ],
      "name": "LogSendFunds",
      "type": "event"
    },
    {
      "anonymous": false,
      "inputs": [
        {
          "indexed": false,
          "name": "_sender",
          "type": "address"
        },
        {
          "indexed": false,
          "name": "_to",
          "type": "uint8"
        },
        {
          "indexed": false,
          "name": "ethAmount",
          "type": "uint256"
        }
      ],
      "name": "LogReceiveFunds",
      "type": "event"
    },
    {
      "anonymous": false,
      "inputs": [
        {
          "indexed": false,
          "name": "_policyId",
          "type": "uint256"
        },
        {
          "indexed": false,
          "name": "strReason",
          "type": "bytes32"
        }
      ],
      "name": "LogSendFail",
      "type": "event"
    },
    {
      "anonymous": false,
      "inputs": [
        {
          "indexed": false,
          "name": "_policyId",
          "type": "uint256"
        },
        {
          "indexed": false,
          "name": "hexQueryId",
          "type": "bytes32"
        },
        {
          "indexed": false,
          "name": "_oraclizeUrl",
          "type": "string"
        },
        {
          "indexed": false,
          "name": "_oraclizeTime",
          "type": "uint256"
        }
      ],
      "name": "LogOraclizeCall",
      "type": "event"
    },
    {
      "anonymous": false,
      "inputs": [
        {
          "indexed": false,
          "name": "_policyId",
          "type": "uint256"
        },
        {
          "indexed": false,
          "name": "hexQueryId",
          "type": "bytes32"
        },
        {
          "indexed": false,
          "name": "_result",
          "type": "string"
        },
        {
          "indexed": false,
          "name": "hexProof",
          "type": "bytes"
        }
      ],
      "name": "LogOraclizeCallback",
      "type": "event"
    },
    {
      "anonymous": false,
      "inputs": [
        {
          "indexed": false,
          "name": "_policyId",
          "type": "uint256"
        },
        {
          "indexed": false,
          "name": "_policyState",
          "type": "uint8"
        },
        {
          "indexed": false,
          "name": "_stateTime",
          "type": "uint256"
        },
        {
          "indexed": false,
          "name": "_stateMessage",
          "type": "bytes32"
        }
      ],
      "name": "LogSetState",
      "type": "event"
    },
    {
      "anonymous": false,
      "inputs": [
        {
          "indexed": false,
          "name": "_policyId",
          "type": "uint256"
        },
        {
          "indexed": false,
          "name": "_address",
          "type": "address"
        },
        {
          "indexed": false,
          "name": "_externalId",
          "type": "bytes32"
        }
      ],
      "name": "LogExternal",
      "type": "event"
    }
  ],
  "bytecode": "0x606060405260c0604051908101604090815260008083526020830181905290820152601e606082015260326080820181905260a0820152620000459060069081620000b8565b5034156200005257600080fd5b6040516020806200239383398101604052808051915062000083905081640100000000620021a76200008b82021704565b505062000176565b60008054600160a060020a03909216600160a060020a031992831681179091556001805490921617815590565b600183019183908215620001405791602002820160005b838211156200010f57835183826101000a81548160ff021916908360ff1602179055509260200192600101602081600001049283019260010302620000cf565b80156200013e5782816101000a81549060ff02191690556001016020816000010492830192600103026200010f565b505b506200014e92915062000152565b5090565b6200017391905b808211156200014e57805460ff1916815560010162000159565b90565b61220d80620001866000396000f3006060604052600436106102425763ffffffff60e060020a60003504166306d978b281146102475780630d4c8f62146102715780630fd5084a1461028f57806310a7fd7b146102b7578063128a1c74146102cd5780631733c3c8146102e9578063196f9aa51461031457806319a080581461032d578063285c22b11461034c5780632b68b9c6146103625780632ba1e439146103755780632dccba8914610397578063336989ae146103aa57806336be2a73146103e35780633cd99b70146103ff5780633e79e4c2146104155780633f31b3ac14610437578063418cf5b114610450578063426d5ef11461047257806343f46a5c146104ba5780634ccbd06b146104f45780634f3fc16214610507578063570e0db51461051d57806359f02c4d146105335780636bf2606a146105495780637a5402e91461055c5780637f205c8c146105a8578063802de8fc146105d65780638993021b146105f25780639330f97f146106495780639c66452e1461065f5780639d5176fd1461067b578063b6a0a11914610691578063bc9c58f6146106a4578063be169856146106b7578063c168e037146106cd578063c4adb40614610705578063c58a33211461071b578063c8b915311461074b578063ca2d553a1461075e578063cdcdb46314610789578063d3e89483146107c3578063d45efad5146108e1578063e0d6d5301461090c578063eb8073391461091f578063f2e55ac114610935578063f77c47911461094b578063f786becd1461097a578063f92a69ec1461098d578063ffe280ee146109bb575b600080fd5b341561025257600080fd5b61025d600435610a17565b604051901515815260200160405180910390f35b341561027c57600080fd5b61028d600435602435604435610aab565b005b341561029a57600080fd5b6102a5600435610b66565b60405190815260200160405180910390f35b34156102c257600080fd5b6102a5600435610b85565b34156102d857600080fd5b6102a5600435602435604435610b99565b34156102f457600080fd5b61025d600160a060020a036004358116906024351660ff60443516610c85565b341561031f57600080fd5b6102a560ff60043516610cab565b341561033857600080fd5b61028d60043560ff60243516604435610cc5565b341561035757600080fd5b6102a5600435610da8565b341561036d57600080fd5b61028d610e60565b341561038057600080fd5b61028d60043560243560ff60443516606435610e89565b34156103a257600080fd5b6102a5610f83565b34156103b557600080fd5b6103c9600160a060020a0360043516610f89565b604051918252151560208201526040908101905180910390f35b34156103ee57600080fd5b61028d60ff60043516602435610fa5565b341561040a57600080fd5b61025d6004356110ad565b341561042057600080fd5b6102a5600160a060020a0360043516602435611141565b341561044257600080fd5b6102a560043560243561116f565b341561045b57600080fd5b61028d60043560ff6024351660443560643561118a565b341561047d57600080fd5b6104886004356112c7565b6040518084815260200183600181111561049e57fe5b60ff168152602001828152602001935050505060405180910390f35b34156104c557600080fd5b6104d06004356112eb565b604051808260068111156104e057fe5b60ff16815260200191505060405180910390f35b34156104ff57600080fd5b6102a561131b565b341561051257600080fd5b61025d600435611321565b341561052857600080fd5b6102a560043561141b565b341561053e57600080fd5b6102a56004356114d3565b341561055457600080fd5b6102a56114e5565b341561056757600080fd5b6105726004356114ea565b6040518084600160a060020a0316600160a060020a03168152602001838152602001828152602001935050505060405180910390f35b34156105b357600080fd5b6105be600435611533565b60405191825260208201526040908101905180910390f35b34156105e157600080fd5b61028d60043560243560443561154d565b34156105fd57600080fd5b6106086004356115f6565b6040519687526020870195909552604080870194909452606086019290925260ff16608085015260a084015260c083019190915260e0909101905180910390f35b341561065457600080fd5b61025d600435611637565b341561066a57600080fd5b61025d600435602435604435611725565b341561068657600080fd5b6105be600435611751565b341561069c57600080fd5b6102a561176e565b34156106af57600080fd5b6102a5611774565b34156106c257600080fd5b6102a560043561177a565b34156106d857600080fd5b6106e360043561179e565b604051600160a060020a03909216825260208201526040908101905180910390f35b341561071057600080fd5b6102a56004356117df565b341561072657600080fd5b61028d600160a060020a036004358116906024351660ff6044351660643515156117ed565b341561075657600080fd5b6102a56118de565b341561076957600080fd5b61028d600160a060020a036004358116906024351660ff604435166118e3565b341561079457600080fd5b61079f6004356118f0565b60405192835260208301919091526040808301919091526060909101905180910390f35b34156107ce57600080fd5b6107d960043561190f565b604051600160a060020a038d168152602081018c9052604081018b9052606081018a90526080810189905260a0810188905260c0810187600681111561081b57fe5b60ff1681526020810187905260408101869052606081019060800184600381111561084257fe5b60ff16815260208101849052604083820381018352865460026000196001831615610100020190911604908201819052606090910190869080156108c75780601f1061089c576101008083540402835291602001916108c7565b820191906000526020600020905b8154815290600101906020018083116108aa57829003601f168201915b50509d505050505050505050505050505060405180910390f35b34156108ec57600080fd5b61025d600160a060020a036004358116906024351660ff6044351661198f565b341561091757600080fd5b61028d6119c9565b341561092a57600080fd5b6102a5600435611cc7565b341561094057600080fd5b6102a5600435611cf4565b341561095657600080fd5b61095e611d05565b604051600160a060020a03909116815260200160405180910390f35b341561098557600080fd5b6102a5611d14565b341561099857600080fd5b6102a5600160a060020a036004351660243560ff60443516606435608435611d19565b34156109c657600080fd5b61028d600480359060248035919060649060443590810190830135806020601f82018190048102016040519081016040528181529291906020840183838082843750949650611ea295505050505050565b601854600090600160a060020a0316633ebd6092606633846040516020015260405160e060020a63ffffffff851602815260ff9092166004830152600160a060020a03166024820152604401602060405180830381600087803b1515610a7c57600080fd5b6102c65a03f11515610a8d57600080fd5b505050604051805190501515610aa257600080fd5b50600755600190565b601854600090600160a060020a0316633ebd6092606533846040516020015260405160e060020a63ffffffff851602815260ff9092166004830152600160a060020a03166024820152604401602060405180830381600087803b1515610b1057600080fd5b6102c65a03f11515610b2157600080fd5b505050604051805190501515610b3657600080fd5b600b805485908110610b4457fe5b60009182526020909120600c9091020160048101939093555060059091015550565b6009805482908110610b7457fe5b600091825260209091200154905081565b60128160068110610b9257fe5b0154905081565b6018546000908190600160a060020a0316633ebd6092606533846040516020015260405160e060020a63ffffffff851602815260ff9092166004830152600160a060020a03166024820152604401602060405180830381600087803b1515610c0057600080fd5b6102c65a03f11515610c1157600080fd5b505050604051805190501515610c2657600080fd5b8484846040519283526020830191909152604080830191909152606090910190519081900390206000818152601060205260409020600681015491935091501515610c7d5784815560018101849055600281018390555b509392505050565b601160209081526000938452604080852082529284528284209052825290205460ff1681565b6000601260ff831660068110610cbd57fe5b015492915050565b601854600090600160a060020a0316633ebd6092606533846040516020015260405160e060020a63ffffffff851602815260ff9092166004830152600160a060020a03166024820152604401602060405180830381600087803b1515610d2a57600080fd5b6102c65a03f11515610d3b57600080fd5b505050604051805190501515610d5057600080fd5b60106000600b86815481101515610d6357fe5b60009182526020808320600c92909202909101600201548352820192909252604001902060048101805460ff191660ff95909516949094179093555060039091015550565b601854600090600160a060020a0316633ebd6092606633846040516020015260405160e060020a63ffffffff851602815260ff9092166004830152600160a060020a03166024820152604401602060405180830381600087803b1515610e0d57600080fd5b6102c65a03f11515610e1e57600080fd5b505050604051805190501515610e3357600080fd5b6009805460018101610e458382611fe4565b50600091825260209091200191909155506009546000190190565b60005433600160a060020a03908116911614610e7b57600080fd5b600054600160a060020a0316ff5b601854600160a060020a0316633ebd609260653360006040516020015260405160e060020a63ffffffff851602815260ff9092166004830152600160a060020a03166024820152604401602060405180830381600087803b1515610eec57600080fd5b6102c65a03f11515610efd57600080fd5b505050604051805190501515610f1257600080fd5b606060405190810160405280848152602001836001811115610f3057fe5b815260209081018390526000868152600f9091526040902081518155602082015160018083018054909160ff19909116908381811115610f6c57fe5b021790555060408201516002909101555050505050565b60085481565b600d602052600090815260409020805460019091015460ff1682565b601854600090600160a060020a0316633ebd6092606533846040516020015260405160e060020a63ffffffff851602815260ff9092166004830152600160a060020a03166024820152604401602060405180830381600087803b151561100a57600080fd5b6102c65a03f1151561101b57600080fd5b50505060405180519050151561103057600080fd5b601260ff84166006811061104057fe5b0154905081601260ff85166006811061105557fe5b018054909101905560008212156110855780601260ff85166006811061107757fe5b01541261108057fe5b6110a8565b60008213156110a85780601260ff85166006811061109f57fe5b0154136110a857fe5b505050565b601854600090600160a060020a0316633ebd6092606633846040516020015260405160e060020a63ffffffff851602815260ff9092166004830152600160a060020a03166024820152604401602060405180830381600087803b151561111257600080fd5b6102c65a03f1151561112357600080fd5b50505060405180519050151561113857600080fd5b50600855600190565b600e6020528160005260406000208181548110151561115c57fe5b6000918252602090912001549150829050565b600c6020528160005260406000208181548110151561115c57fe5b601854600090600160a060020a0316633ebd6092606533846040516020015260405160e060020a63ffffffff851602815260ff9092166004830152600160a060020a03166024820152604401602060405180830381600087803b15156111ef57600080fd5b6102c65a03f1151561120057600080fd5b50505060405180519050151561121557600080fd5b7f0f3fb52a4b3a9f6b9191fcfe3320487160165440bcdabb6577a8bc165a87dcc88585600681111561124357fe5b858560405193845260ff909216602084015260408084019190915260608301919091526080909101905180910390a1600b80548690811061128057fe5b90600052602060002090600c02019050838160060160006101000a81548160ff021916908360068111156112b057fe5b021790555060078101929092556008909101555050565b600f60205260009081526040902080546001820154600290920154909160ff169083565b600080600b838154811015156112fd57fe5b600091825260209091206006600c90920201015460ff169392505050565b60075481565b6018546000908190600160a060020a0316633ebd6092606633846040516020015260405160e060020a63ffffffff851602815260ff9092166004830152600160a060020a03166024820152604401602060405180830381600087803b151561138857600080fd5b6102c65a03f1151561139957600080fd5b5050506040518051905015156113ae57600080fd5b60095415156113c05760009150611415565b6009805460001981019081106113d257fe5b9060005260206000209001549050806009848154811015156113f057fe5b600091825260209091200155600980549061140f906000198301611fe4565b50600191505b50919050565b601854600090600160a060020a0316633ebd6092606633846040516020015260405160e060020a63ffffffff851602815260ff9092166004830152600160a060020a03166024820152604401602060405180830381600087803b151561148057600080fd5b6102c65a03f1151561149157600080fd5b5050506040518051905015156114a657600080fd5b600a8054600181016114b88382611fe4565b5060009182526020909120019190915550600a546000190190565b6000908152600f602052604090205490565b600281565b600080600080600b858154811015156114ff57fe5b60009182526020909120600c9091020180546003820154600190920154600160a060020a0390911697919650945092505050565b6000908152600f6020526040902080546002909101549091565b601854600090600160a060020a0316633ebd6092606533846040516020015260405160e060020a63ffffffff851602815260ff9092166004830152600160a060020a03166024820152604401602060405180830381600087803b15156115b257600080fd5b6102c65a03f115156115c357600080fd5b5050506040518051905015156115d857600080fd5b50600092835260106020526040909220600581019190915560060155565b6010602052600090815260409020805460018201546002830154600384015460048501546005860154600690960154949593949293919260ff909116919087565b6018546000908190600160a060020a0316633ebd6092606633846040516020015260405160e060020a63ffffffff851602815260ff9092166004830152600160a060020a03166024820152604401602060405180830381600087803b151561169e57600080fd5b6102c65a03f115156116af57600080fd5b5050506040518051905015156116c457600080fd5b600a5415156116d65760009150611415565b600a805460001981019081106116e857fe5b906000526020600020900154905080600a8481548110151561170657fe5b600091825260209091200155600a80549061140f906000198301611fe4565b6000928352600f6020908152604080852093855260109091529092206002908101549101549101901190565b600090815260106020526040902060058101546006909101549091565b600a5490565b60095490565b600060098281548110151561178b57fe5b9060005260206000209001549050919050565b6000806000600b848154811015156117b257fe5b60009182526020909120600c909102018054600190910154600160a060020a039091169590945092505050565b600a805482908110610b7457fe5b600154600160a060020a031663e16c7d9860006040516020015260405160e060020a63ffffffff83160281527f46442e416363657373436f6e74726f6c6c6572000000000000000000000000006004820152602401602060405180830381600087803b151561185b57600080fd5b6102c65a03f1151561186c57600080fd5b50505060405180519050600160a060020a031633600160a060020a031614151561189557600080fd5b600160a060020a03938416600090815260116020908152604080832095909616825293845284812060ff9390931681529190925291909120805460ff1916911515919091179055565b600081565b6110a883838360016117ed565b6000908152601060205260409020805460018201546002909201549092565b600b80548290811061191d57fe5b60009182526020909120600c90910201805460018201546002830154600384015460048501546005860154600687015460078801546008890154600a8a0154600b8b0154600160a060020a03909a169b509799969895979496939560ff9384169592949193600990920192909116908c565b600160a060020a03928316600090815260116020908152604080832094909516825292835283812060ff9283168252909252919020541690565b60005433600160a060020a039081169116146119e457600080fd5b611a0d7f46442e416363657373436f6e74726f6c6c657200000000000000000000000000611f71565b6018805473ffffffffffffffffffffffffffffffffffffffff1916600160a060020a0392831617908190551663c28b4577606560405160e060020a63ffffffff841602815260ff90911660048201527f46442e4e6577506f6c69637900000000000000000000000000000000000000006024820152604401600060405180830381600087803b1515611a9e57600080fd5b6102c65a03f11515611aaf57600080fd5b5050601854600160a060020a0316905063c28b4577606560405160e060020a63ffffffff841602815260ff90911660048201527f46442e556e6465727772697465000000000000000000000000000000000000006024820152604401600060405180830381600087803b1515611b2457600080fd5b6102c65a03f11515611b3557600080fd5b5050601854600160a060020a0316905063c28b4577606560405160e060020a63ffffffff841602815260ff90911660048201527f46442e5061796f757400000000000000000000000000000000000000000000006024820152604401600060405180830381600087803b1515611baa57600080fd5b6102c65a03f11515611bbb57600080fd5b5050601854600160a060020a0316905063c28b4577606560405160e060020a63ffffffff841602815260ff90911660048201527f46442e4c656467657200000000000000000000000000000000000000000000006024820152604401600060405180830381600087803b1515611c3057600080fd5b6102c65a03f11515611c4157600080fd5b5050601854600160a060020a0316905063c28b4577606660405160e060020a63ffffffff841602815260ff90911660048201527f46442e4f776e65720000000000000000000000000000000000000000000000006024820152604401600060405180830381600087803b1515611cb657600080fd5b6102c65a03f115156110a857600080fd5b600080600b83815481101515611cd957fe5b600091825260209091206002600c9092020101549392505050565b6000600a8281548110151561178b57fe5b600054600160a060020a031681565b600181565b6018546000908190600160a060020a0316633ebd6092606533846040516020015260405160e060020a63ffffffff851602815260ff9092166004830152600160a060020a03166024820152604401602060405180830381600087803b1515611d8057600080fd5b6102c65a03f11515611d9157600080fd5b505050604051805190501515611da657600080fd5b600b805490611db89060018301612008565b600160a060020a0388166000908152600e6020526040902080549193509060018101611de48382611fe4565b506000918252602080832091909101849055858252600c905260409020805460018101611e118382611fe4565b506000918252602090912001829055600b805483908110611e2e57fe5b60009182526020909120600c90910201805473ffffffffffffffffffffffffffffffffffffffff1916600160a060020a038916178155600a81018054919250869160ff19166001836003811115611e8157fe5b0217905550600b810193909355600183019490945560029091015550919050565b601854600090600160a060020a0316633ebd6092606533846040516020015260405160e060020a63ffffffff851602815260ff9092166004830152600160a060020a03166024820152604401602060405180830381600087803b1515611f0757600080fd5b6102c65a03f11515611f1857600080fd5b505050604051805190501515611f2d57600080fd5b600b805485908110611f3b57fe5b90600052602060002090600c020190508281600301819055508181600901908051611f6a929160200190612034565b5050505050565b600154600090600160a060020a031663e16c7d9883836040516020015260405160e060020a63ffffffff84160281526004810191909152602401602060405180830381600087803b1515611fc457600080fd5b6102c65a03f11515611fd557600080fd5b50505060405180519392505050565b8154818355818115116110a8576000838152602090206110a89181019083016120b2565b8154818355818115116110a857600c0281600c0283600052602060002091820191016110a891906120cf565b828054600181600116156101000203166002900490600052602060002090601f016020900481019282601f1061207557805160ff19168380011785556120a2565b828001600101855582156120a2579182015b828111156120a2578251825591602001919060010190612087565b506120ae9291506120b2565b5090565b6120cc91905b808211156120ae57600081556001016120b8565b90565b6120cc91905b808211156120ae57805473ffffffffffffffffffffffffffffffffffffffff191681556000600182018190556002820181905560038201819055600482018190556005820181905560068201805460ff1916905560078201819055600882018190556121446009830182612160565b50600a8101805460ff191690556000600b820155600c016120d5565b50805460018160011615610100020316600290046000825580601f1061218657506121a4565b601f0160209004906000526020600020908101906121a491906120b2565b50565b60008054600160a060020a0390921673ffffffffffffffffffffffffffffffffffffffff19928316811790915560018054909216178155905600a165627a7a72305820b377e209383eb741b66c7ff93f024277af9ed5b7d96476cf733776e60087cfcb0029",
  "source": "/**\n * FlightDelay with Oraclized Underwriting and Payout\n *\n * @description Database contract\n * @copyright (c) 2017 etherisc GmbH\n * @author Christoph Mussenbrock, Stephan Karpischek\n */\n\npragma solidity ^0.4.11;\n\nimport \"./FlightDelayControlledContract.sol\";\nimport \"./FlightDelayDatabaseInterface.sol\";\nimport \"./FlightDelayAccessControllerInterface.sol\";\nimport \"./FlightDelayConstants.sol\";\n\n\ncontract FlightDelayDatabase is FlightDelayControlledContract, FlightDelayDatabaseInterface, FlightDelayConstants {\n\n    uint public MIN_DEPARTURE_LIM;\n\n    uint public MAX_DEPARTURE_LIM;\n\n    bytes32[] public validOrigins;\n    bytes32[] public validDestinations;\n\n    // Table of policies\n    Policy[] public policies;\n\n    mapping (bytes32 => uint[]) public extCustomerPolicies;\n\n    mapping (address => Customer) public customers;\n\n    // Lookup policyIds from customer addresses\n    mapping (address => uint[]) public customerPolicies;\n\n    // Lookup policy Ids from queryIds\n    mapping (bytes32 => OraclizeCallback) public oraclizeCallbacks;\n\n    // Lookup risks from risk IDs\n    mapping (bytes32 => Risk) public risks;\n\n    // Lookup AccessControl\n    mapping(address => mapping(address => mapping(uint8 => bool))) public accessControl;\n\n    // Lookup accounts of internal ledger\n    int[6] public ledger;\n\n    FlightDelayAccessControllerInterface FD_AC;\n\n    function FlightDelayDatabase (address _controller) public {\n        setController(_controller);\n    }\n\n    function setContracts() public onlyController {\n        FD_AC = FlightDelayAccessControllerInterface(getContract(\"FD.AccessController\"));\n\n        FD_AC.setPermissionById(101, \"FD.NewPolicy\");\n        FD_AC.setPermissionById(101, \"FD.Underwrite\");\n\n        FD_AC.setPermissionById(101, \"FD.Payout\");\n        FD_AC.setPermissionById(101, \"FD.Ledger\");\n\n        FD_AC.setPermissionById(102, \"FD.Owner\");\n    }\n\n    function setMinDepartureLim(uint _timestamp) returns (bool _success) {\n        require(FD_AC.checkPermission(102, msg.sender));\n\n        MIN_DEPARTURE_LIM = _timestamp;\n        _success = true;\n    }\n\n    function setMaxDepartureLim(uint _timestamp) returns (bool _success) {\n        require(FD_AC.checkPermission(102, msg.sender));\n\n        MAX_DEPARTURE_LIM = _timestamp;\n        _success = true;\n    }\n\n    function addOrigin(bytes32 _origin) returns (uint256 _index) {\n        require(FD_AC.checkPermission(102, msg.sender));\n\n        validOrigins.push(_origin);\n        _index = validOrigins.length - 1;\n    }\n\n    function removeOriginByIndex(uint256 _index) returns (bool _success) {\n        require(FD_AC.checkPermission(102, msg.sender));\n\n        if (validOrigins.length == 0) {\n            return false;\n        } else {\n            bytes32 lastElement = validOrigins[validOrigins.length - 1];\n            validOrigins[_index] = lastElement;\n            validOrigins.length--;\n            return true;\n        }\n    }\n\n    function countOrigins() public constant returns (uint256 _length) {\n        _length = validOrigins.length;\n    }\n\n    function getOriginByIndex(uint256 _i) public constant returns (bytes32 _origin) {\n        _origin = validOrigins[_i];\n    }\n\n    function addDestination(bytes32 _origin) returns (uint256 _index) {\n        require(FD_AC.checkPermission(102, msg.sender));\n\n        validDestinations.push(_origin);\n        _index = validDestinations.length - 1;\n    }\n\n    function removeDestinationByIndex(uint256 _index) returns (bool _success) {\n        require(FD_AC.checkPermission(102, msg.sender));\n\n        if (validDestinations.length == 0) {\n            return false;\n        } else {\n            bytes32 lastElement = validDestinations[validDestinations.length - 1];\n            validDestinations[_index] = lastElement;\n            validDestinations.length--;\n            return true;\n        }\n    }\n\n    function countDestinations() public constant returns (uint256 _length) {\n        _length = validDestinations.length;\n    }\n\n    function getDestinationByIndex(uint256 _i) public constant returns (bytes32 _destination) {\n        _destination = validDestinations[_i];\n    }\n\n\n    // Getter and Setter for AccessControl\n    function setAccessControl (\n        address _contract,\n        address _caller,\n        uint8 _perm,\n        bool _access\n    ) public {\n        // one and only hardcoded accessControl\n        require(msg.sender == FD_CI.getContract(\"FD.AccessController\"));\n        accessControl[_contract][_caller][_perm] = _access;\n    }\n\n// --> test-mode\n//        function setAccessControlTestOnly (\n//            address _contract,\n//            address _caller,\n//            uint8 _perm,\n//            bool _access\n//        ) public {\n//            accessControl[_contract][_caller][_perm] = _access;\n//        }\n// <-- test-mode\n\n    function setAccessControl(address _contract, address _caller, uint8 _perm) public {\n        setAccessControl(\n            _contract,\n            _caller,\n            _perm,\n            true\n        );\n    }\n\n    function getAccessControl(address _contract, address _caller, uint8 _perm) public returns (bool _allowed) {\n        _allowed = accessControl[_contract][_caller][_perm];\n    }\n\n    // Getter and Setter for ledger\n    function setLedger(uint8 _index, int _value) public {\n        require(FD_AC.checkPermission(101, msg.sender));\n\n        int previous = ledger[_index];\n        ledger[_index] += _value;\n\n// --> debug-mode\n//            LogInt(\"previous\", previous);\n//            LogInt(\"ledger[_index]\", ledger[_index]);\n//            LogInt(\"_value\", _value);\n// <-- debug-mode\n\n        // check for int overflow\n        if (_value < 0) {\n            assert(ledger[_index] < previous);\n        } else if (_value > 0) {\n            assert(ledger[_index] > previous);\n        }\n    }\n\n    function getLedger(uint8 _index) public returns (int _value) {\n        _value = ledger[_index];\n    }\n\n    // Getter and Setter for policies\n    function getCustomerPremium(uint _policyId) public returns (address _customer, uint _premium) {\n        Policy storage p = policies[_policyId];\n        _customer = p.customer;\n        _premium = p.premium;\n    }\n\n    function getPolicyData(uint _policyId) public returns (address _customer, uint _weight, uint _premium) {\n        Policy storage p = policies[_policyId];\n        _customer = p.customer;\n        _weight = p.weight;\n        _premium = p.premium;\n    }\n\n    function getPolicyState(uint _policyId) public returns (policyState _state) {\n        Policy storage p = policies[_policyId];\n        _state = p.state;\n    }\n\n    function getRiskId(uint _policyId) public returns (bytes32 _riskId) {\n        Policy storage p = policies[_policyId];\n        _riskId = p.riskId;\n    }\n\n    function createPolicy(address _customer, uint _premium, Currency _currency, bytes32 _customerExternalId, bytes32 _riskId) public returns (uint _policyId) {\n        require(FD_AC.checkPermission(101, msg.sender));\n\n        _policyId = policies.length++;\n\n        //todo: check for ovewflows\n\n// --> test-mode\n//            LogUint(\"_policyId\", _policyId);\n// <-- test-mode\n\n        customerPolicies[_customer].push(_policyId);\n        extCustomerPolicies[_customerExternalId].push(_policyId);\n\n        Policy storage p = policies[_policyId];\n\n        p.customer = _customer;\n        p.currency = _currency;\n        p.customerExternalId = _customerExternalId;\n        p.premium = _premium;\n        p.riskId = _riskId;\n    }\n\n    function setState(\n        uint _policyId,\n        policyState _state,\n        uint _stateTime,\n        bytes32 _stateMessage\n    ) public {\n        require(FD_AC.checkPermission(101, msg.sender));\n\n        LogSetState(\n            _policyId,\n            uint8(_state),\n            _stateTime,\n            _stateMessage\n        );\n\n        Policy storage p = policies[_policyId];\n\n        p.state = _state;\n        p.stateTime = _stateTime;\n        p.stateMessage = _stateMessage;\n    }\n\n    function setWeight(uint _policyId, uint _weight, bytes _proof) public {\n        require(FD_AC.checkPermission(101, msg.sender));\n\n        Policy storage p = policies[_policyId];\n\n        p.weight = _weight;\n        p.proof = _proof;\n    }\n\n    function setPayouts(uint _policyId, uint _calculatedPayout, uint _actualPayout) public {\n        require(FD_AC.checkPermission(101, msg.sender));\n\n        Policy storage p = policies[_policyId];\n\n        p.calculatedPayout = _calculatedPayout;\n        p.actualPayout = _actualPayout;\n    }\n\n    function setDelay(uint _policyId, uint8 _delay, uint _delayInMinutes) public {\n        require(FD_AC.checkPermission(101, msg.sender));\n\n        Risk storage r = risks[policies[_policyId].riskId];\n\n        r.delay = _delay;\n        r.delayInMinutes = _delayInMinutes;\n    }\n\n    // Getter and Setter for risks\n    function getRiskParameters(bytes32 _riskId) public returns (bytes32 _carrierFlightNumber, bytes32 _departureYearMonthDay, uint _arrivalTime) {\n        Risk storage r = risks[_riskId];\n        _carrierFlightNumber = r.carrierFlightNumber;\n        _departureYearMonthDay = r.departureYearMonthDay;\n        _arrivalTime = r.arrivalTime;\n    }\n\n    function getPremiumFactors(bytes32 _riskId) public returns (uint _cumulatedWeightedPremium, uint _premiumMultiplier) {\n        Risk storage r = risks[_riskId];\n        _cumulatedWeightedPremium = r.cumulatedWeightedPremium;\n        _premiumMultiplier = r.premiumMultiplier;\n    }\n\n    function createUpdateRisk(bytes32 _carrierFlightNumber, bytes32 _departureYearMonthDay, uint _arrivalTime) returns (bytes32 _riskId) {\n        require(FD_AC.checkPermission(101, msg.sender));\n\n        _riskId = sha3(\n            _carrierFlightNumber,\n            _departureYearMonthDay,\n            _arrivalTime\n        );\n\n// --> test-mode\n//            LogBytes32(\"riskId\", _riskId);\n// <-- test-mode\n\n        Risk storage r = risks[_riskId];\n\n        if (r.premiumMultiplier == 0) {\n            r.carrierFlightNumber = _carrierFlightNumber;\n            r.departureYearMonthDay = _departureYearMonthDay;\n            r.arrivalTime = _arrivalTime;\n        }\n    }\n\n    function setPremiumFactors(bytes32 _riskId, uint _cumulatedWeightedPremium, uint _premiumMultiplier) public {\n        require(FD_AC.checkPermission(101, msg.sender));\n\n        Risk storage r = risks[_riskId];\n        r.cumulatedWeightedPremium = _cumulatedWeightedPremium;\n        r.premiumMultiplier = _premiumMultiplier;\n    }\n\n    // Getter and Setter for oraclizeCallbacks\n    function getOraclizeCallback(bytes32 _queryId) public returns (uint _policyId, uint _oraclizeTime) {\n        OraclizeCallback storage o = oraclizeCallbacks[_queryId];\n        _policyId = o.policyId;\n        _oraclizeTime = o.oraclizeTime;\n    }\n\n    function getOraclizePolicyId(bytes32 _queryId) public returns (uint _policyId) {\n        OraclizeCallback storage o = oraclizeCallbacks[_queryId];\n        _policyId = o.policyId;\n    }\n\n    function createOraclizeCallback(\n        bytes32 _queryId,\n        uint _policyId,\n        oraclizeState _oraclizeState,\n        uint _oraclizeTime) public {\n\n        require(FD_AC.checkPermission(101, msg.sender));\n\n        oraclizeCallbacks[_queryId] = OraclizeCallback(_policyId, _oraclizeState, _oraclizeTime);\n    }\n\n    // mixed\n    function checkTime(bytes32 _queryId, bytes32 _riskId, uint _offset) public returns (bool _result) {\n        OraclizeCallback storage o = oraclizeCallbacks[_queryId];\n        Risk storage r = risks[_riskId];\n\n        _result = o.oraclizeTime > r.arrivalTime + _offset;\n    }\n}\n",
  "sourcePath": "/Users/A/Data/Altoros/1244-Etherisc/repos/flightdelay/contracts/FlightDelayDatabase.sol",
  "compiler": {
    "name": "solc",
    "version": "0.4.18+commit.9cf6e910.Emscripten.clang"
  },
  "schemaVersion": "1.0.1",
  "updatedAt": "2018-05-16T16:59:40.027Z"
}