{
  "contractName": "FlightDelayPayout",
  "abi": [
    {
      "constant": false,
      "inputs": [
        {
          "name": "myid",
          "type": "bytes32"
        },
        {
          "name": "result",
          "type": "string"
        }
      ],
      "name": "__callback",
      "outputs": [],
      "payable": false,
      "stateMutability": "nonpayable",
      "type": "function"
    },
    {
      "constant": false,
      "inputs": [],
      "name": "destruct",
      "outputs": [],
      "payable": false,
      "stateMutability": "nonpayable",
      "type": "function"
    },
    {
      "constant": false,
      "inputs": [
        {
          "name": "_queryId",
          "type": "bytes32"
        },
        {
          "name": "_result",
          "type": "string"
        },
        {
          "name": "_proof",
          "type": "bytes"
        }
      ],
      "name": "__callback",
      "outputs": [],
      "payable": false,
      "stateMutability": "nonpayable",
      "type": "function"
    },
    {
      "constant": true,
      "inputs": [],
      "name": "PATCH_VERSION",
      "outputs": [
        {
          "name": "",
          "type": "uint256"
        }
      ],
      "payable": false,
      "stateMutability": "view",
      "type": "function"
    },
    {
      "constant": false,
      "inputs": [
        {
          "name": "_policyId",
          "type": "uint256"
        },
        {
          "name": "_riskId",
          "type": "bytes32"
        },
        {
          "name": "_oraclizeTime",
          "type": "uint256"
        }
      ],
      "name": "schedulePayoutOraclizeCall",
      "outputs": [],
      "payable": false,
      "stateMutability": "nonpayable",
      "type": "function"
    },
    {
      "constant": false,
      "inputs": [
        {
          "name": "x",
          "type": "bytes32"
        }
      ],
      "name": "b32toHexString",
      "outputs": [
        {
          "name": "",
          "type": "string"
        }
      ],
      "payable": false,
      "stateMutability": "nonpayable",
      "type": "function"
    },
    {
      "constant": true,
      "inputs": [
        {
          "name": "_dayMonthYear",
          "type": "bytes32"
        }
      ],
      "name": "toUnixtime",
      "outputs": [
        {
          "name": "unixtime",
          "type": "uint256"
        }
      ],
      "payable": false,
      "stateMutability": "view",
      "type": "function"
    },
    {
      "constant": true,
      "inputs": [],
      "name": "MINOR_VERSION",
      "outputs": [
        {
          "name": "",
          "type": "uint256"
        }
      ],
      "payable": false,
      "stateMutability": "view",
      "type": "function"
    },
    {
      "constant": false,
      "inputs": [],
      "name": "setContracts",
      "outputs": [],
      "payable": false,
      "stateMutability": "nonpayable",
      "type": "function"
    },
    {
      "constant": true,
      "inputs": [],
      "name": "controller",
      "outputs": [
        {
          "name": "",
          "type": "address"
        }
      ],
      "payable": false,
      "stateMutability": "view",
      "type": "function"
    },
    {
      "constant": true,
      "inputs": [],
      "name": "MAJOR_VERSION",
      "outputs": [
        {
          "name": "",
          "type": "uint256"
        }
      ],
      "payable": false,
      "stateMutability": "view",
      "type": "function"
    },
    {
      "inputs": [
        {
          "name": "_controller",
          "type": "address"
        }
      ],
      "payable": false,
      "stateMutability": "nonpayable",
      "type": "constructor"
    },
    {
      "payable": true,
      "stateMutability": "payable",
      "type": "fallback"
    },
    {
      "anonymous": false,
      "inputs": [
        {
          "indexed": false,
          "name": "_policyId",
          "type": "uint256"
        },
        {
          "indexed": false,
          "name": "_customer",
          "type": "address"
        },
        {
          "indexed": false,
          "name": "strCarrierFlightNumber",
          "type": "bytes32"
        },
        {
          "indexed": false,
          "name": "ethPremium",
          "type": "uint256"
        }
      ],
      "name": "LogPolicyApplied",
      "type": "event"
    },
    {
      "anonymous": false,
      "inputs": [
        {
          "indexed": false,
          "name": "_policyId",
          "type": "uint256"
        },
        {
          "indexed": false,
          "name": "_statistics0",
          "type": "uint256"
        },
        {
          "indexed": false,
          "name": "_statistics1",
          "type": "uint256"
        },
        {
          "indexed": false,
          "name": "_statistics2",
          "type": "uint256"
        },
        {
          "indexed": false,
          "name": "_statistics3",
          "type": "uint256"
        },
        {
          "indexed": false,
          "name": "_statistics4",
          "type": "uint256"
        },
        {
          "indexed": false,
          "name": "_statistics5",
          "type": "uint256"
        }
      ],
      "name": "LogPolicyAccepted",
      "type": "event"
    },
    {
      "anonymous": false,
      "inputs": [
        {
          "indexed": false,
          "name": "_policyId",
          "type": "uint256"
        },
        {
          "indexed": false,
          "name": "ethAmount",
          "type": "uint256"
        }
      ],
      "name": "LogPolicyPaidOut",
      "type": "event"
    },
    {
      "anonymous": false,
      "inputs": [
        {
          "indexed": false,
          "name": "_policyId",
          "type": "uint256"
        }
      ],
      "name": "LogPolicyExpired",
      "type": "event"
    },
    {
      "anonymous": false,
      "inputs": [
        {
          "indexed": false,
          "name": "_policyId",
          "type": "uint256"
        },
        {
          "indexed": false,
          "name": "strReason",
          "type": "bytes32"
        }
      ],
      "name": "LogPolicyDeclined",
      "type": "event"
    },
    {
      "anonymous": false,
      "inputs": [
        {
          "indexed": false,
          "name": "_policyId",
          "type": "uint256"
        },
        {
          "indexed": false,
          "name": "strReason",
          "type": "bytes32"
        }
      ],
      "name": "LogPolicyManualPayout",
      "type": "event"
    },
    {
      "anonymous": false,
      "inputs": [
        {
          "indexed": false,
          "name": "_recipient",
          "type": "address"
        },
        {
          "indexed": false,
          "name": "_from",
          "type": "uint8"
        },
        {
          "indexed": false,
          "name": "ethAmount",
          "type": "uint256"
        }
      ],
      "name": "LogSendFunds",
      "type": "event"
    },
    {
      "anonymous": false,
      "inputs": [
        {
          "indexed": false,
          "name": "_sender",
          "type": "address"
        },
        {
          "indexed": false,
          "name": "_to",
          "type": "uint8"
        },
        {
          "indexed": false,
          "name": "ethAmount",
          "type": "uint256"
        }
      ],
      "name": "LogReceiveFunds",
      "type": "event"
    },
    {
      "anonymous": false,
      "inputs": [
        {
          "indexed": false,
          "name": "_policyId",
          "type": "uint256"
        },
        {
          "indexed": false,
          "name": "strReason",
          "type": "bytes32"
        }
      ],
      "name": "LogSendFail",
      "type": "event"
    },
    {
      "anonymous": false,
      "inputs": [
        {
          "indexed": false,
          "name": "_policyId",
          "type": "uint256"
        },
        {
          "indexed": false,
          "name": "hexQueryId",
          "type": "bytes32"
        },
        {
          "indexed": false,
          "name": "_oraclizeUrl",
          "type": "string"
        },
        {
          "indexed": false,
          "name": "_oraclizeTime",
          "type": "uint256"
        }
      ],
      "name": "LogOraclizeCall",
      "type": "event"
    },
    {
      "anonymous": false,
      "inputs": [
        {
          "indexed": false,
          "name": "_policyId",
          "type": "uint256"
        },
        {
          "indexed": false,
          "name": "hexQueryId",
          "type": "bytes32"
        },
        {
          "indexed": false,
          "name": "_result",
          "type": "string"
        },
        {
          "indexed": false,
          "name": "hexProof",
          "type": "bytes"
        }
      ],
      "name": "LogOraclizeCallback",
      "type": "event"
    },
    {
      "anonymous": false,
      "inputs": [
        {
          "indexed": false,
          "name": "_policyId",
          "type": "uint256"
        },
        {
          "indexed": false,
          "name": "_policyState",
          "type": "uint8"
        },
        {
          "indexed": false,
          "name": "_stateTime",
          "type": "uint256"
        },
        {
          "indexed": false,
          "name": "_stateMessage",
          "type": "bytes32"
        }
      ],
      "name": "LogSetState",
      "type": "event"
    },
    {
      "anonymous": false,
      "inputs": [
        {
          "indexed": false,
          "name": "_policyId",
          "type": "uint256"
        },
        {
          "indexed": false,
          "name": "_address",
          "type": "address"
        },
        {
          "indexed": false,
          "name": "_externalId",
          "type": "bytes32"
        }
      ],
      "name": "LogExternal",
      "type": "event"
    }
  ],
  "bytecode": "0x606060405260c0604051908101604090815260008083526020830181905290820152601e606082015260326080820181905260a082015262000046906002906006620006b2565b506101806040519081016040908152600b8252602a6020830152604690820152606560608201526083608082015260a260a082015260c08082015260df60e082015260fe61010082015261011c61012082015261013b610140820152610159610160820152620000bb90600890600c6200074c565b503415620000c857600080fd5b60405160208062003944833981016040528080519150620000f990508164010000000062002dfe6200011e82021704565b506200011763ee6b280064010000000062002e2b6200014b82021704565b50620008c9565b60008054600160a060020a03909216600160a060020a031992831681179091556001805490921617815590565b600354600160a060020a031615806200018657506003546200018490600160a060020a03166401000000006200249a620002b382021704565b155b15620001a857620001a660006401000000006200249e620002b782021704565b505b600354600160a060020a03166338cc48316000604051602001526040518163ffffffff167c0100000000000000000000000000000000000000000000000000000000028152600401602060405180830381600087803b15156200020a57600080fd5b6102c65a03f115156200021c57600080fd5b505050604051805160048054600160a060020a031916600160a060020a03928316179081905516905063ca6ad1e4826040517c010000000000000000000000000000000000000000000000000000000063ffffffff84160281526004810191909152602401600060405180830381600087803b15156200029b57600080fd5b6102c65a03f11515620002ad57600080fd5b50505050565b3b90565b600080620002e7731d3b2638a7cc9f2cb3d298a3da7a90b67e5506ed6401000000006200249a620002b382021704565b1115620003695760038054600160a060020a031916731d3b2638a7cc9f2cb3d298a3da7a90b67e5506ed1790556200036060408051908101604052600b81527f6574685f6d61696e6e6574000000000000000000000000000000000000000000602082015264010000000062002d2a6200069982021704565b50600162000694565b60006200039873c03a2615d5efaf5f49f60b7bb6583eaec212fdf16401000000006200249a620002b382021704565b1115620004115760038054600160a060020a03191673c03a2615d5efaf5f49f60b7bb6583eaec212fdf11790556200036060408051908101604052600c81527f6574685f726f707374656e330000000000000000000000000000000000000000602082015264010000000062002d2a6200069982021704565b60006200044073b7a07bcf2ba2f2703b24c0691b5278999c59ac7e6401000000006200249a620002b382021704565b1115620004b95760038054600160a060020a03191673b7a07bcf2ba2f2703b24c0691b5278999c59ac7e1790556200036060408051908101604052600981527f6574685f6b6f76616e0000000000000000000000000000000000000000000000602082015264010000000062002d2a6200069982021704565b6000620004e873146500cfd35b22e4a392fe0adc06de1a1368ed486401000000006200249a620002b382021704565b1115620005615760038054600160a060020a03191673146500cfd35b22e4a392fe0adc06de1a1368ed481790556200036060408051908101604052600b81527f6574685f72696e6b656279000000000000000000000000000000000000000000602082015264010000000062002d2a6200069982021704565b600062000590736f485c8bf6fc43ea212e93bbf8ce046c7f1cb4756401000000006200249a620002b382021704565b1115620005c6575060038054600160a060020a031916736f485c8bf6fc43ea212e93bbf8ce046c7f1cb475179055600162000694565b6000620005f57320e12a1f859b3feae5fb2a0a32c18f5a65555bbf6401000000006200249a620002b382021704565b11156200062b575060038054600160a060020a0319167320e12a1f859b3feae5fb2a0a32c18f5a65555bbf179055600162000694565b60006200065a7351efaf4c8b3c9afbd5ab9f4bbc82784ab6ef8faa6401000000006200249a620002b382021704565b111562000690575060038054600160a060020a0319167351efaf4c8b3c9afbd5ab9f4bbc82784ab6ef8faa179055600162000694565b5060005b919050565b6005818051620006ae929160200190620007e5565b5050565b6001830191839082156200073a5791602002820160005b838211156200070957835183826101000a81548160ff021916908360ff1602179055509260200192600101602081600001049283019260010302620006c9565b8015620007385782816101000a81549060ff021916905560010160208160000104928301926001030262000709565b505b506200074892915062000866565b5090565b600183019183908215620007d75791602002820160005b83821115620007a557835183826101000a81548161ffff021916908361ffff160217905550926020019260020160208160010104928301926001030262000763565b8015620007d55782816101000a81549061ffff0219169055600201602081600101049283019260010302620007a5565b505b50620007489291506200088a565b828054600181600116156101000203166002900490600052602060002090601f016020900481019282601f106200082857805160ff191683800117855562000858565b8280016001018555821562000858579182015b82811115620008585782518255916020019190600101906200083b565b5062000748929150620008ac565b6200088791905b808211156200074857805460ff191681556001016200086d565b90565b6200088791905b808211156200074857805461ffff1916815560010162000891565b6200088791905b80821115620007485760008155600101620008b3565b61306b80620008d96000396000f3006060604052600436106100955763ffffffff60e060020a60003504166327dc297e81146101205780632b68b9c61461017657806338bbfa50146101895780636bf2606a1461022157806374689990146102465780638ad46ba014610262578063bcf599f1146102ef578063c8b9153114610305578063e0d6d53014610318578063f77c47911461032b578063f786becd1461035a575b600b54600160a060020a0316633ebd609260663360006040516020015260405160e060020a63ffffffff851602815260ff9092166004830152600160a060020a03166024820152604401602060405180830381600087803b15156100f857600080fd5b6102c65a03f1151561010957600080fd5b50505060405180519050151561011e57600080fd5b005b341561012b57600080fd5b61011e600480359060446024803590810190830135806020601f8201819004810201604051908101604052818152929190602084018383808284375094965061036d95505050505050565b341561018157600080fd5b61011e61039f565b341561019457600080fd5b61011e600480359060446024803590810190830135806020601f8201819004810201604051908101604052818152929190602084018383808284378201915050505050509190803590602001908201803590602001908080601f0160208091040260200160405190810160405281815292919060208401838380828437509496506103c895505050505050565b341561022c57600080fd5b610234610dcf565b60405190815260200160405180910390f35b341561025157600080fd5b61011e600435602435604435610dd4565b341561026d57600080fd5b610278600435611127565b60405160208082528190810183818151815260200191508051906020019080838360005b838110156102b457808201518382015260200161029c565b50505050905090810190601f1680156102e15780820380516001836020036101000a031916815260200191505b509250505060405180910390f35b34156102fa57600080fd5b610234600435611236565b341561031057600080fd5b61023461153a565b341561032357600080fd5b61011e61153f565b341561033657600080fd5b61033e6117ac565b604051600160a060020a03909116815260200160405180910390f35b341561036557600080fd5b6102346117bb565b61039b828260006040518059106103815750595b818152601f19601f830116810160200160405290506103c8565b5050565b60005433600160a060020a039081169116146103ba57600080fd5b600054600160a060020a0316ff5b6000806000806103d6612d3d565b6000806103e1612d3d565b600061040c7f46442e456d657267656e637900000000000000000000000000000000000000006117c0565b610414611833565b600160a060020a031633600160a060020a03161480610444575080600160a060020a031633600160a060020a0316145b151561044f57600080fd5b600954600160a060020a0316637f205c8c8e60006040516040015260405160e060020a63ffffffff841602815260048101919091526024016040805180830381600087803b151561049f57600080fd5b6102c65a03f115156104b057600080fd5b50505060405180519060200180519050995099507f4e010942cd8d70ef60f3bd7e17c62008722f9551f8f28dc7040004160de7e2cc8a8e8e8e60405184815260208101849052608060408201818152906060830190830185818151815260200191508051906020019080838360005b8381101561053757808201518382015260200161051f565b50505050905090810190601f1680156105645780820380516001836020036101000a031916815260200191505b50838103825284818151815260200191508051906020019080838360005b8381101561059a578082015183820152602001610582565b50505050905090810190601f1680156105c75780820380516001836020036101000a031916815260200191505b50965050505050505060405180910390a1600954600160a060020a03166343f46a5c8b60006040516020015260405160e060020a63ffffffff84160281526004810191909152602401602060405180830381600087803b151561062957600080fd5b6102c65a03f1151561063a57600080fd5b50505060405180519050975087600681111561065257fe5b60ff1660051415151561066457600080fd5b600954600160a060020a031663eb8073398b60006040516020015260405160e060020a63ffffffff84160281526004810191909152602401602060405180830381600087803b15156106b557600080fd5b6102c65a03f115156106c657600080fd5b5050506040518051905096506106db8c61194f565b95508b5115156107da57600954600160a060020a0316639c66452e8e89612a3060006040516020015260405160e060020a63ffffffff8616028152600481019390935260248301919091526044820152606401602060405180830381600087803b151561074757600080fd5b6102c65a03f1151561075857600080fd5b50505060405180519050156107c6577fa868cd6faa17ac2172ea3d4f9f7910ca932112bfeb017f45ed09bd881c0540308a6040519081527f4e6f2043616c6c6261636b206174202b313230206d696e00000000000000000060208201526040908101905180910390a1610dc0565b6107d58a888b610a8c01610dd4565b610dc0565b61083f610800604080519081016040526001815260f960020a601102602082015261194f565b610833610826604080519081016040526001815260f960020a601102602082015261194f565b899063ffffffff61197716565b9063ffffffff6119ba16565b5061088b61087e610869604080519081016040526001815260f960020a601102602082015261194f565b61087289611a24565b9063ffffffff61197716565b879063ffffffff611a4d16565b5061089586611ab4565b6000815181106108a157fe5b016020015160f860020a900460f860020a02945084600160f860020a0319167f430000000000000000000000000000000000000000000000000000000000000014156108f4576107d58a60046000611b02565b7f4400000000000000000000000000000000000000000000000000000000000000600160f860020a031986161415610933576107d58a60056000611b02565b60fa60020a601302600160f860020a031986161480159061097e57507f4100000000000000000000000000000000000000000000000000000000000000600160f860020a0319861614155b80156109b457507f4300000000000000000000000000000000000000000000000000000000000000600160f860020a0319861614155b80156109ea57507f4400000000000000000000000000000000000000000000000000000000000000600160f860020a0319861614155b15610a4e577fa868cd6faa17ac2172ea3d4f9f7910ca932112bfeb017f45ed09bd881c0540308a6040519081527f556e70726f6365737361626c652073746174757300000000000000000000000060208201526040908101905180910390a1610dc0565b610a578c61194f565b9550610aa5610a9860408051908101604052601181527f61637475616c476174654172726976616c000000000000000000000000000000602082015261194f565b879063ffffffff61200316565b93507f4100000000000000000000000000000000000000000000000000000000000000600160f860020a031986161480610af8575060fa60020a601302600160f860020a03198616148015610af8575083155b15610bde57600954600160a060020a0316639c66452e8e89612a3060006040516020015260405160e060020a63ffffffff8616028152600481019390935260248301919091526044820152606401602060405180830381600087803b1515610b5f57600080fd5b6102c65a03f11515610b7057600080fd5b50505060405180519050156107c6577fa868cd6faa17ac2172ea3d4f9f7910ca932112bfeb017f45ed09bd881c0540308a6040519081527f4e6f206172726976616c206174202b313830206d696e0000000000000000000060208201526040908101905180910390a16107d5565b60fa60020a601302600160f860020a03198616148015610bfb5750835b15610db457610c3c60408051908101604052601b81527f226172726976616c4761746544656c61794d696e75746573223a200000000000602082015261194f565b9250610c4e868463ffffffff61200316565b15610d5f57610c6783610833888263ffffffff61197716565b50610cc061087e610c91604080519081016040526001815260f960020a601102602082015261194f565b610833610cb7604080519081016040526001815260f960020a601102602082015261194f565b6108728b611a24565b50610d0361087e61086960408051908101604052600181527f7d00000000000000000000000000000000000000000000000000000000000000602082015261194f565b50610d4661087e61086960408051908101604052600181527f2c00000000000000000000000000000000000000000000000000000000000000602082015261194f565b50610d58610d5387611ab4565b612029565b9150610d64565b600091505b600f821015610d7e57610d798a600080611b02565b6107d5565b601e821015610d9357610d798a600184611b02565b602d821015610da857610d798a600284611b02565b6107d58a600384611b02565b610dc08a600080611b02565b50505050505050505050505050565b600281565b600080610ddf612d54565b600b54600090600160a060020a0316633ebd6092606533846040516020015260405160e060020a63ffffffff851602815260ff9092166004830152600160a060020a03166024820152604401602060405180830381600087803b1515610e4457600080fd5b6102c65a03f11515610e5557600080fd5b505050604051805190501515610e6a57600080fd5b600954600160a060020a031663cdcdb4638760006040516060015260405160e060020a63ffffffff84160281526004810191909152602401606060405180830381600087803b1515610ebb57600080fd5b6102c65a03f11515610ecc57600080fd5b505050604051805190602001805190602001805190505093509350610f9e608060405190810160405280605481526020017f5b55524c5d206a736f6e2868747470733a2f2f6170692e666c6967687473746181526020017f74732e636f6d2f666c65782f666c696768747374617475732f726573742f763281526020017f2f6a736f6e2f666c696768742f7374617475732f000000000000000000000000815250610f768661203c565b610f7f8661203c565b610140604051908101604052610104808252612f3c602083013961216c565b9150610fe28560408051908101604052600681527f6e65737465640000000000000000000000000000000000000000000000000000602082015284620aae60612198565b600954909150600160a060020a0316632ba1e439828960018960405160e060020a63ffffffff871602815260048101858152602482018590529060440183600181111561102b57fe5b60ff168152602001828152602001945050505050600060405180830381600087803b151561105857600080fd5b6102c65a03f1151561106957600080fd5b5050507f57d5927fefa8de5620b57ca7ac0948a9ea457d8f3af2bd8867728325a6ca5d9287828488604051848152602081018490526060810182905260806040820181815290820184818151815260200191508051906020019080838360005b838110156110e15780820151838201526020016110c9565b50505050905090810190601f16801561110e5780820380516001836020036101000a031916815260200191505b509550505050505060405180910390a150505050505050565b61112f612d54565b611137612d54565b6000806000806040805180591061114b5750595b818152601f19601f830116810160200160405290509450600093505b602084101561122b576008601f8590030260020a8781151561118557fe5b049250601060ff841604915050601081028203600960ff831611156111ab576027820191505b60098160ff1611156111bb576027015b8160300160f860020a028585600202815181106111d457fe5b906020010190600160f860020a031916908160001a9053508060300160f860020a0285856002026001018151811061120857fe5b906020010190600160f860020a031916908160001a905350600190930192611167565b509295945050505050565b6000611240612d54565b611248612d54565b611250612d54565b600080600061125e8861203c565b9550600260405180591061126f5750595b818152601f19601f83011681016020016040529050945060046040518059106112955750595b818152601f19601f830116810160200160405290509350856005815181106112b957fe5b016020015160f860020a900460f860020a02846000815181106112d857fe5b906020010190600160f860020a031916908160001a905350856006815181106112fd57fe5b016020015160f860020a900460f860020a028460018151811061131c57fe5b906020010190600160f860020a031916908160001a9053508560078151811061134157fe5b016020015160f860020a900460f860020a028460028151811061136057fe5b906020010190600160f860020a031916908160001a9053508560088151811061138557fe5b016020015160f860020a900460f860020a02846003815181106113a457fe5b906020010190600160f860020a031916908160001a9053506113c584612029565b925085600a815181106113d457fe5b016020015160f860020a900460f860020a02856000815181106113f357fe5b906020010190600160f860020a031916908160001a90535085600b8151811061141857fe5b016020015160f860020a900460f860020a028560018151811061143757fe5b906020010190600160f860020a031916908160001a90535061145885612029565b915085600d8151811061146757fe5b016020015160f860020a900460f860020a028560008151811061148657fe5b906020010190600160f860020a031916908160001a90535085600e815181106114ab57fe5b016020015160f860020a900460f860020a02856001815181106114ca57fe5b906020010190600160f860020a031916908160001a9053506114eb85612029565b90508060086000198401600c81106114ff57fe5b601091828204019190066002029054906101000a900461ffff1661ffff166107b2850361016d02010162015180029650505050505050919050565b600081565b60005433600160a060020a0390811691161461155a57600080fd5b6115837f46442e416363657373436f6e74726f6c6c6572000000000000000000000000006117c0565b600b8054600160a060020a031916600160a060020a03929092169190911790556115cc7f46442e44617461626173650000000000000000000000000000000000000000006117c0565b60098054600160a060020a031916600160a060020a03929092169190911790556116157f46442e4c656467657200000000000000000000000000000000000000000000006117c0565b600a8054600160a060020a031916600160a060020a03928316179055600b541663c28b4577606560405160e060020a63ffffffff841602815260ff90911660048201527f46442e556e6465727772697465000000000000000000000000000000000000006024820152604401600060405180830381600087803b151561169a57600080fd5b6102c65a03f115156116ab57600080fd5b5050600b54600160a060020a0316905063c3d08f0660656116ca611833565b60405160e060020a63ffffffff851602815260ff9092166004830152600160a060020a03166024820152604401600060405180830381600087803b151561171057600080fd5b6102c65a03f1151561172157600080fd5b5050600b54600160a060020a0316905063c28b4577606660405160e060020a63ffffffff841602815260ff90911660048201527f46442e46756e64657200000000000000000000000000000000000000000000006024820152604401600060405180830381600087803b151561179657600080fd5b6102c65a03f115156117a757600080fd5b505050565b600054600160a060020a031681565b600181565b600154600090600160a060020a031663e16c7d9883836040516020015260405160e060020a63ffffffff84160281526004810191909152602401602060405180830381600087803b151561181357600080fd5b6102c65a03f1151561182457600080fd5b50505060405180519392505050565b600354600090600160a060020a03161580611860575060035461185e90600160a060020a031661249a565b155b156118715761186f600061249e565b505b600354600160a060020a03166338cc48316000604051602001526040518163ffffffff1660e060020a028152600401602060405180830381600087803b15156118b957600080fd5b6102c65a03f115156118ca57600080fd5b505050604051805160048054600160a060020a031916600160a060020a03928316179081905516905063c281d19e6000604051602001526040518163ffffffff1660e060020a028152600401602060405180830381600087803b151561192f57600080fd5b6102c65a03f1151561194057600080fd5b50505060405180519150505b90565b611957612d3d565b602082016040805190810160405280845181526020019190915292915050565b61197f612d3d565b600061199784518560200151855186602001516127c4565b9050836020015181038481815103905250602084018190528391505b5092915050565b6119c2612d3d565b60008251845110156119d6578391506119b3565b50600160208301518460200151146119fe578251602085015160208501518290209190201490505b8015611a1c5782518481815103905250825184602001818151019052505b509192915050565b611a2c612d3d565b6040805190810160405280835181526020018360200151905290505b919050565b611a55612d3d565b600080835185511015611a6a57849250611aac565b835185518660200151010391506001905083602001518214611a9757835160208501518190209083201490505b8015611aa857835185818151039052505b8492505b505092915050565b611abc612d54565b611ac4612d54565b60008351604051805910611ad55750595b818152601f19601f8301168101602001604052905091506020820190506119b38185602001518651612867565b6009546000908190819081908190600160a060020a03166319a0805889898960405160e060020a63ffffffff8616028152600481019390935260ff90911660248301526044820152606401600060405180830381600087803b1515611b6657600080fd5b6102c65a03f11515611b7757600080fd5b50505060ff87161580611bad5750600260ff881660068110611b9557fe5b60208082049092015460ff929091066101000a900416155b15611c5c57600954600160a060020a031663418cf5b1896004426040518463ffffffff1660e060020a02815260040180848152602001836006811115611bef57fe5b60ff168152602001828152602001807f45787069726564202d206e6f2064656c617921000000000000000000000000008152506020019350505050600060405180830381600087803b1515611c4357600080fd5b6102c65a03f11515611c5457600080fd5b505050611ff9565b600954600160a060020a0316637a5402e98960006040516060015260405160e060020a63ffffffff84160281526004810191909152602401606060405180830381600087803b1515611cad57600080fd5b6102c65a03f11515611cbe57600080fd5b505050604051805190602001805190602001805190509450945094508360001415611ce957614e2093505b83600260ff891660068110611cfa57fe5b602091828204019190069054906101000a900460ff1660ff16840261271002811515611d2257fe5b049150819050670f43fc2c04ee0000821115611d4457670f43fc2c04ee000091505b600954600160a060020a0316630d4c8f6289838560405160e060020a63ffffffff8616028152600481019390935260248301919091526044820152606401600060405180830381600087803b1515611d9b57600080fd5b6102c65a03f11515611dac57600080fd5b5050600a54600160a060020a031690506350bed043866002856000604051602001526040518463ffffffff1660e060020a0281526004018084600160a060020a0316600160a060020a03168152602001836005811115611e0857fe5b60ff1681526020018281526020019350505050602060405180830381600087803b1515611e3457600080fd5b6102c65a03f11515611e4557600080fd5b505050604051805190501515611f5357600954600160a060020a031663418cf5b1896006426040518463ffffffff1660e060020a02815260040180848152602001836006811115611e9257fe5b60ff168152602001828152602001807f5061796f75742c2073656e64206661696c6564210000000000000000000000008152506020019350505050600060405180830381600087803b1515611ee657600080fd5b6102c65a03f11515611ef757600080fd5b5050600954600160a060020a03169050630d4c8f628983600060405160e060020a63ffffffff8616028152600481019390935260248301919091526044820152606401600060405180830381600087803b1515611c4357600080fd5b600954600160a060020a031663418cf5b1896003426040518463ffffffff1660e060020a02815260040180848152602001836006811115611f9057fe5b60ff168152602001828152602001807f5061796f7574207375636365737366756c2100000000000000000000000000008152506020019350505050600060405180830381600087803b1515611fe457600080fd5b6102c65a03f11515611ff557600080fd5b5050505b5050505050505050565b6000826020015161202084518560200151855186602001516128ac565b14159392505050565b600061203682600061294c565b92915050565b612044612d54565b61204c612d54565b6000806000612059612d54565b60206040518059106120685750595b818152601f19601f83011681016020016040529050945060009350600092505b60208310156120e3576008830260020a87029150600160f860020a03198216156120d857818585815181106120b957fe5b906020010190600160f860020a031916908160001a9053506001909301925b600190920191612088565b836040518059106120f15750595b818152601f19601f830116810160200160405290509050600092505b838310156121625784838151811061212157fe5b016020015160f860020a900460f860020a0281848151811061213f57fe5b906020010190600160f860020a031916908160001a90535060019092019161210d565b9695505050505050565b612174612d54565b61218f85858585602060405190810160405260008152612aba565b95945050505050565b6003546000908190600160a060020a031615806121c757506003546121c590600160a060020a031661249a565b155b156121d8576121d6600061249e565b505b600354600160a060020a03166338cc48316000604051602001526040518163ffffffff1660e060020a028152600401602060405180830381600087803b151561222057600080fd5b6102c65a03f1151561223157600080fd5b505050604051805160048054600160a060020a031916600160a060020a039283161790819055169050632ef3accc86856000604051602001526040518363ffffffff1660e060020a0281526004018080602001838152602001828103825284818151815260200191508051906020019080838360005b838110156122bf5780820151838201526020016122a7565b50505050905090810190601f1680156122ec5780820380516001836020036101000a031916815260200191505b509350505050602060405180830381600087803b151561230b57600080fd5b6102c65a03f1151561231c57600080fd5b5050506040518051915050670de0b6b3a76400003a8402018111156123445760009150612491565b600454600160a060020a031663c51be90f82888888886000604051602001526040518663ffffffff1660e060020a028152600401808581526020018060200180602001848152602001838103835286818151815260200191508051906020019080838360005b838110156123c25780820151838201526020016123aa565b50505050905090810190601f1680156123ef5780820380516001836020036101000a031916815260200191505b50838103825285818151815260200191508051906020019080838360005b8381101561242557808201518382015260200161240d565b50505050905090810190601f1680156124525780820380516001836020036101000a031916815260200191505b5096505050505050506020604051808303818588803b151561247357600080fd5b6125ee5a03f1151561248457600080fd5b5050505060405180519250505b50949350505050565b3b90565b6000806124be731d3b2638a7cc9f2cb3d298a3da7a90b67e5506ed61249a565b111561252e5760038054600160a060020a031916731d3b2638a7cc9f2cb3d298a3da7a90b67e5506ed17905561252660408051908101604052600b81527f6574685f6d61696e6e65740000000000000000000000000000000000000000006020820152612d2a565b506001611a48565b600061254d73c03a2615d5efaf5f49f60b7bb6583eaec212fdf161249a565b11156125b55760038054600160a060020a03191673c03a2615d5efaf5f49f60b7bb6583eaec212fdf117905561252660408051908101604052600c81527f6574685f726f707374656e3300000000000000000000000000000000000000006020820152612d2a565b60006125d473b7a07bcf2ba2f2703b24c0691b5278999c59ac7e61249a565b111561263c5760038054600160a060020a03191673b7a07bcf2ba2f2703b24c0691b5278999c59ac7e17905561252660408051908101604052600981527f6574685f6b6f76616e00000000000000000000000000000000000000000000006020820152612d2a565b600061265b73146500cfd35b22e4a392fe0adc06de1a1368ed4861249a565b11156126c35760038054600160a060020a03191673146500cfd35b22e4a392fe0adc06de1a1368ed4817905561252660408051908101604052600b81527f6574685f72696e6b6562790000000000000000000000000000000000000000006020820152612d2a565b60006126e2736f485c8bf6fc43ea212e93bbf8ce046c7f1cb47561249a565b1115612716575060038054600160a060020a031916736f485c8bf6fc43ea212e93bbf8ce046c7f1cb4751790556001611a48565b60006127357320e12a1f859b3feae5fb2a0a32c18f5a65555bbf61249a565b1115612769575060038054600160a060020a0319167320e12a1f859b3feae5fb2a0a32c18f5a65555bbf1790556001611a48565b60006127887351efaf4c8b3c9afbd5ab9f4bbc82784ab6ef8faa61249a565b11156127bc575060038054600160a060020a0319167351efaf4c8b3c9afbd5ab9f4bbc82784ab6ef8faa1790556001611a48565b506000919050565b600080808080888711612855576020871161281b5760018760200360080260020a031980875116888b038a018a96505b8183885116146128105760018701968190106127f4578b8b0196505b50505083945061285b565b8686209150879350600092505b86890383116128555750858320818114156128455783945061285b565b6001938401939290920191612828565b88880194505b50505050949350505050565b60005b6020821061288d578251845260208401935060208301925060208203915061286a565b6001826020036101000a03905080198351168185511617909352505050565b600080808087861161293d57602086116129085760018660200360080260020a031980865116878a03890194505b8082865116146128f9576000198501948990116128da578894506128fe565b938701935b5050829350612941565b8585209150858803870192505b86831061293d575084822081811415612932578583019350612941565b600183039250612915565b8693505b505050949350505050565b6000612956612d54565b5082600080805b8351811015612a9d577f300000000000000000000000000000000000000000000000000000000000000084828151811061299357fe5b016020015160f860020a900460f860020a02600160f860020a03191610158015612a0457507f39000000000000000000000000000000000000000000000000000000000000008482815181106129e557fe5b016020015160f860020a900460f860020a02600160f860020a03191611155b15612a5a578115612a2357851515612a1b57612a9d565b600019909501945b600a830292506030848281518110612a3757fe5b016020015160f860020a900460f860020a0260f860020a90040383019250612a95565b838181518110612a6657fe5b016020015160f860020a900460f860020a02600160f860020a031916602e60f860020a021415612a9557600191505b60010161295d565b6000861115612aaf5785600a0a830292505b509095945050505050565b612ac2612d54565b612aca612d54565b612ad2612d54565b612ada612d54565b612ae2612d54565b612aea612d54565b612af2612d54565b612afa612d54565b6000808e98508d97508c96508b95508a94508451865188518a518c5101010101604051805910612b275750595b818152601f19601f83011681016020016040529050935083925060009150600090505b8851811015612ba357888181518110612b5f57fe5b016020015160f860020a900460f860020a02838380600101945081518110612b8357fe5b906020010190600160f860020a031916908160001a905350600101612b4a565b5060005b8751811015612c0057878181518110612bbc57fe5b016020015160f860020a900460f860020a02838380600101945081518110612be057fe5b906020010190600160f860020a031916908160001a905350600101612ba7565b5060005b8651811015612c5d57868181518110612c1957fe5b016020015160f860020a900460f860020a02838380600101945081518110612c3d57fe5b906020010190600160f860020a031916908160001a905350600101612c04565b5060005b8551811015612cba57858181518110612c7657fe5b016020015160f860020a900460f860020a02838380600101945081518110612c9a57fe5b906020010190600160f860020a031916908160001a905350600101612c61565b5060005b8451811015612d1757848181518110612cd357fe5b016020015160f860020a900460f860020a02838380600101945081518110612cf757fe5b906020010190600160f860020a031916908160001a905350600101612cbe565b50909d9c50505050505050505050505050565b600581805161039b929160200190612d66565b604080519081016040526000808252602082015290565b60206040519081016040526000815290565b828054600181600116156101000203166002900490600052602060002090601f016020900481019282601f10612da757805160ff1916838001178555612dd4565b82800160010185558215612dd4579182015b82811115612dd4578251825591602001919060010190612db9565b50612de0929150612de4565b5090565b61194c91905b80821115612de05760008155600101612dea565b60008054600160a060020a03909216600160a060020a031992831681179091556001805490921617815590565b600354600160a060020a03161580612e555750600354612e5390600160a060020a031661249a565b155b15612e6657612e64600061249e565b505b600354600160a060020a03166338cc48316000604051602001526040518163ffffffff1660e060020a028152600401602060405180830381600087803b1515612eae57600080fd5b6102c65a03f11515612ebf57600080fd5b505050604051805160048054600160a060020a031916600160a060020a03928316179081905516905063ca6ad1e48260405160e060020a63ffffffff84160281526004810191909152602401600060405180830381600087803b1515612f2457600080fd5b6102c65a03f11515612f3557600080fd5b5050505056003f247b5b646563727970745d2042492f784a426d2f633072594670417077355a6f424a435273566b50487755676e6262745754573138774d4943357a4c4877384d334d4a6866303034316b4c4671782f69326a6a346149514c5832734e536b6d39312f50444b79646d7450314f4f733158517441443444422f6d546c4c6948634d79363358786f526e674872305a52523457424a514b6b69666865706d676943687437566c5869594e636c705a305247716d636e644673357079774979766641687d267574633d74727565292e666c6967687453746174757365735b305d5b27737461747573272c2764656c617973272c276f7065726174696f6e616c54696d6573275da165627a7a723058209f4a101c00918940dac0ce1329b01bc013ec2537b2107cccaa6cac6438c70bcb0029",
  "source": "/**\n * FlightDelay with Oraclized Underwriting and Payout\n *\n * @description\tPayout contract\n * @copyright (c) 2017 etherisc GmbH\n * @author Christoph Mussenbrock\n */\n\npragma solidity ^0.4.11;\n\nimport \"./FlightDelayControlledContract.sol\";\nimport \"./FlightDelayConstants.sol\";\nimport \"./FlightDelayDatabaseInterface.sol\";\nimport \"./FlightDelayAccessControllerInterface.sol\";\nimport \"./FlightDelayLedgerInterface.sol\";\nimport \"./FlightDelayPayoutInterface.sol\";\nimport \"./FlightDelayOraclizeInterface.sol\";\nimport \"./convertLib.sol\";\nimport \"./../vendors/strings.sol\";\n\n\ncontract FlightDelayPayout is FlightDelayControlledContract, FlightDelayConstants, FlightDelayOraclizeInterface, ConvertLib {\n\n    using strings for *;\n\n    FlightDelayDatabaseInterface FD_DB;\n    FlightDelayLedgerInterface FD_LG;\n    FlightDelayAccessControllerInterface FD_AC;\n\n    /*\n     * @dev Contract constructor sets its controller\n     * @param _controller FD.Controller\n     */\n    function FlightDelayPayout(address _controller) public {\n        setController(_controller);\n        oraclize_setCustomGasPrice(ORACLIZE_GASPRICE);\n    }\n\n    /*\n     * Public methods\n     */\n\n    /*\n     * @dev Set access permissions for methods\n     */\n    function setContracts() public onlyController {\n        FD_AC = FlightDelayAccessControllerInterface(getContract(\"FD.AccessController\"));\n        FD_DB = FlightDelayDatabaseInterface(getContract(\"FD.Database\"));\n        FD_LG = FlightDelayLedgerInterface(getContract(\"FD.Ledger\"));\n\n        FD_AC.setPermissionById(101, \"FD.Underwrite\");\n        FD_AC.setPermissionByAddress(101, oraclize_cbAddress());\n        FD_AC.setPermissionById(102, \"FD.Funder\");\n    }\n\n    /*\n     * @dev Fund contract\n     */\n    function () public payable {\n        require(FD_AC.checkPermission(102, msg.sender));\n\n        // todo: bookkeeping\n        // todo: fire funding event\n    }\n\n    /*\n     * @dev Schedule oraclize call for payout\n     * @param _policyId\n     * @param _riskId\n     * @param _oraclizeTime\n     */\n    function schedulePayoutOraclizeCall(uint _policyId, bytes32 _riskId, uint _oraclizeTime) public {\n        require(FD_AC.checkPermission(101, msg.sender));\n\n        var (carrierFlightNumber, departureYearMonthDay,) = FD_DB.getRiskParameters(_riskId);\n\n        string memory oraclizeUrl = strConcat(\n            ORACLIZE_STATUS_BASE_URL,\n            b32toString(carrierFlightNumber),\n            b32toString(departureYearMonthDay),\n            ORACLIZE_STATUS_QUERY\n        );\n\n        bytes32 queryId = oraclize_query(\n            _oraclizeTime,\n            \"nested\",\n            oraclizeUrl,\n            ORACLIZE_GAS\n        );\n\n        FD_DB.createOraclizeCallback(\n            queryId,\n            _policyId,\n            oraclizeState.ForPayout,\n            _oraclizeTime\n        );\n\n        LogOraclizeCall(_policyId, queryId, oraclizeUrl, _oraclizeTime);\n    }\n\n    /*\n     * @dev Oraclize callback. In an emergency case, we can call this directly from FD.Emergency Account.\n     * @param _queryId\n     * @param _result\n     * @param _proof\n     */\n    function __callback(bytes32 _queryId, string _result, bytes _proof) public onlyOraclizeOr(getContract('FD.Emergency')) {\n\n        var (policyId, oraclizeTime) = FD_DB.getOraclizeCallback(_queryId);\n        LogOraclizeCallback(policyId, _queryId, _result, _proof);\n\n        // check if policy was declined after this callback was scheduled\n        var state = FD_DB.getPolicyState(policyId);\n        require(uint8(state) != 5);\n\n        bytes32 riskId = FD_DB.getRiskId(policyId);\n\n// --> debug-mode\n//            LogBytes32(\"riskId\", riskId);\n// <-- debug-mode\n\n        var slResult = _result.toSlice();\n\n        if (bytes(_result).length == 0) { // empty Result\n            if (FD_DB.checkTime(_queryId, riskId, 180 minutes)) {\n                LogPolicyManualPayout(policyId, \"No Callback at +120 min\");\n                return;\n            } else {\n                schedulePayoutOraclizeCall(policyId, riskId, oraclizeTime + 45 minutes);\n            }\n        } else {\n            // first check status\n            // extract the status field:\n            slResult.find(\"\\\"\".toSlice()).beyond(\"\\\"\".toSlice());\n            slResult.until(slResult.copy().find(\"\\\"\".toSlice()));\n            bytes1 status = bytes(slResult.toString())[0];\t// s = L\n            if (status == \"C\") {\n                // flight cancelled --> payout\n                payOut(policyId, 4, 0);\n                return;\n            } else if (status == \"D\") {\n                // flight diverted --> payout\n                payOut(policyId, 5, 0);\n                return;\n            } else if (status != \"L\" && status != \"A\" && status != \"C\" && status != \"D\") {\n                LogPolicyManualPayout(policyId, \"Unprocessable status\");\n                return;\n            }\n\n            // process the rest of the response:\n            slResult = _result.toSlice();\n            bool arrived = slResult.contains(\"actualGateArrival\".toSlice());\n\n            if (status == \"A\" || (status == \"L\" && !arrived)) {\n                // flight still active or not at gate --> reschedule\n                if (FD_DB.checkTime(_queryId, riskId, 180 minutes)) {\n                    LogPolicyManualPayout(policyId, \"No arrival at +180 min\");\n                } else {\n                    schedulePayoutOraclizeCall(policyId, riskId, oraclizeTime + 45 minutes);\n                }\n            } else if (status == \"L\" && arrived) {\n                var aG = \"\\\"arrivalGateDelayMinutes\\\": \".toSlice();\n                if (slResult.contains(aG)) {\n                    slResult.find(aG).beyond(aG);\n                    slResult.until(slResult.copy().find(\"\\\"\".toSlice()).beyond(\"\\\"\".toSlice()));\n                    // truffle bug, replace by \"}\" as soon as it is fixed.\n                    slResult.until(slResult.copy().find(\"\\x7D\".toSlice()));\n                    slResult.until(slResult.copy().find(\",\".toSlice()));\n                    uint delayInMinutes = parseInt(slResult.toString());\n                } else {\n                    delayInMinutes = 0;\n                }\n\n                if (delayInMinutes < 15) {\n                    payOut(policyId, 0, 0);\n                } else if (delayInMinutes < 30) {\n                    payOut(policyId, 1, delayInMinutes);\n                } else if (delayInMinutes < 45) {\n                    payOut(policyId, 2, delayInMinutes);\n                } else {\n                    payOut(policyId, 3, delayInMinutes);\n                }\n            } else { // no delay info\n                payOut(policyId, 0, 0);\n            }\n        }\n    }\n\n    /*\n     * Internal methods\n     */\n\n    /*\n     * @dev Payout\n     * @param _policyId\n     * @param _delay\n     * @param _delayInMinutes\n     */\n    function payOut(uint _policyId, uint8 _delay, uint _delayInMinutes)\tinternal {\n// --> debug-mode\n//            LogString(\"im payOut\", \"\");\n//            LogUint(\"policyId\", _policyId);\n//            LogUint(\"delay\", _delay);\n//            LogUint(\"in minutes\", _delayInMinutes);\n// <-- debug-mode\n\n        FD_DB.setDelay(_policyId, _delay, _delayInMinutes);\n\n        if (_delay == 0 || WEIGHT_PATTERN[_delay] == 0) {\n            FD_DB.setState(\n                _policyId,\n                policyState.Expired,\n                now,\n                \"Expired - no delay!\"\n            );\n        } else {\n            var (customer, weight, premium) = FD_DB.getPolicyData(_policyId);\n\n// --> debug-mode\n//                LogUint(\"weight\", weight);\n// <-- debug-mode\n\n            if (weight == 0) {\n                weight = 20000;\n            }\n\n            uint payout = premium * WEIGHT_PATTERN[_delay] * 10000 / weight;\n            uint calculatedPayout = payout;\n\n            if (payout > MAX_PAYOUT) {\n                payout = MAX_PAYOUT;\n            }\n\n            FD_DB.setPayouts(_policyId, calculatedPayout, payout);\n\n            if (!FD_LG.sendFunds(customer, Acc.Payout, payout)) {\n                FD_DB.setState(\n                    _policyId,\n                    policyState.SendFailed,\n                    now,\n                    \"Payout, send failed!\"\n                );\n\n                FD_DB.setPayouts(_policyId, calculatedPayout, 0);\n            } else {\n                FD_DB.setState(\n                    _policyId,\n                    policyState.PaidOut,\n                    now,\n                    \"Payout successful!\"\n                );\n            }\n        }\n    }\n}\n",
  "sourcePath": "/Users/A/Data/Altoros/1244-Etherisc/repos/flightdelay/contracts/FlightDelayPayout.sol",
  "compiler": {
    "name": "solc",
    "version": "0.4.18+commit.9cf6e910.Emscripten.clang"
  },
  "schemaVersion": "1.0.1",
  "updatedAt": "2018-05-08T18:38:15.027Z"
}