{
  "contractName": "FlightDelayAddressResolver",
  "abi": [
    {
      "constant": true,
      "inputs": [],
      "name": "getAddress",
      "outputs": [
        {
          "name": "_addr",
          "type": "address"
        }
      ],
      "payable": false,
      "stateMutability": "view",
      "type": "function"
    },
    {
      "constant": true,
      "inputs": [],
      "name": "addr",
      "outputs": [
        {
          "name": "",
          "type": "address"
        }
      ],
      "payable": false,
      "stateMutability": "view",
      "type": "function"
    },
    {
      "constant": false,
      "inputs": [
        {
          "name": "_owner",
          "type": "address"
        }
      ],
      "name": "changeOwner",
      "outputs": [],
      "payable": false,
      "stateMutability": "nonpayable",
      "type": "function"
    },
    {
      "constant": false,
      "inputs": [
        {
          "name": "_addr",
          "type": "address"
        }
      ],
      "name": "setAddress",
      "outputs": [],
      "payable": false,
      "stateMutability": "nonpayable",
      "type": "function"
    },
    {
      "inputs": [],
      "payable": false,
      "stateMutability": "nonpayable",
      "type": "constructor"
    }
  ],
  "bytecode": "0x6060604052341561000f57600080fd5b60018054600160a060020a03191633600160a060020a03161790556101c6806100396000396000f3006060604052600436106100615763ffffffff7c010000000000000000000000000000000000000000000000000000000060003504166338cc48318114610066578063767800de14610095578063a6f9dae1146100a8578063e30081a0146100c9575b600080fd5b341561007157600080fd5b6100796100e8565b604051600160a060020a03909116815260200160405180910390f35b34156100a057600080fd5b6100796100f7565b34156100b357600080fd5b6100c7600160a060020a0360043516610106565b005b34156100d457600080fd5b6100c7600160a060020a0360043516610150565b600054600160a060020a031690565b600054600160a060020a031681565b60015433600160a060020a0390811691161461012157600080fd5b6001805473ffffffffffffffffffffffffffffffffffffffff1916600160a060020a0392909216919091179055565b60015433600160a060020a0390811691161461016b57600080fd5b6000805473ffffffffffffffffffffffffffffffffffffffff1916600160a060020a03929092169190911790555600a165627a7a723058201f8e8d459547832f470e06f05aea33070fb0c5024a787b23e7b4b565a0cb56f10029",
  "source": "/*\n  Copyright (c) 2015-2016 Oraclize SRL\n  Copyright (c) 2016 Oraclize LTD\n*/\n\npragma solidity ^0.4.11;\n\n\ncontract FlightDelayAddressResolver {\n\n    address public addr;\n\n    address owner;\n\n    function FlightDelayAddressResolver() public {\n        owner = msg.sender;\n    }\n\n    function changeOwner(address _owner) public {\n        require(msg.sender == owner);\n        owner = _owner;\n    }\n\n    function getAddress() public constant returns (address _addr) {\n        return addr;\n    }\n\n    function setAddress(address _addr) public {\n        require(msg.sender == owner);\n        addr = _addr;\n    }\n}\n",
  "sourcePath": "/Users/A/Data/Altoros/1244-Etherisc/repositories/flightDelay/contracts/FlightDelayAddressResolver.sol",
  "compiler": {
    "name": "solc",
    "version": "0.4.18+commit.9cf6e910.Emscripten.clang"
  },
  "schemaVersion": "1.0.1",
  "updatedAt": "2017-12-12T00:50:45.163Z"
}