{
  "contractName": "FlightDelayPayout",
  "abi": [
    {
      "constant": false,
      "inputs": [],
      "name": "destruct",
      "outputs": [],
      "payable": false,
      "stateMutability": "nonpayable",
      "type": "function"
    },
    {
      "constant": true,
      "inputs": [],
      "name": "PATCH_VERSION",
      "outputs": [
        {
          "name": "",
          "type": "uint256"
        }
      ],
      "payable": false,
      "stateMutability": "view",
      "type": "function"
    },
    {
      "constant": false,
      "inputs": [
        {
          "name": "x",
          "type": "bytes32"
        }
      ],
      "name": "b32toHexString",
      "outputs": [
        {
          "name": "",
          "type": "string"
        }
      ],
      "payable": false,
      "stateMutability": "nonpayable",
      "type": "function"
    },
    {
      "constant": true,
      "inputs": [
        {
          "name": "_dayMonthYear",
          "type": "bytes32"
        }
      ],
      "name": "toUnixtime",
      "outputs": [
        {
          "name": "unixtime",
          "type": "uint256"
        }
      ],
      "payable": false,
      "stateMutability": "view",
      "type": "function"
    },
    {
      "constant": true,
      "inputs": [],
      "name": "MINOR_VERSION",
      "outputs": [
        {
          "name": "",
          "type": "uint256"
        }
      ],
      "payable": false,
      "stateMutability": "view",
      "type": "function"
    },
    {
      "constant": true,
      "inputs": [],
      "name": "controller",
      "outputs": [
        {
          "name": "",
          "type": "address"
        }
      ],
      "payable": false,
      "stateMutability": "view",
      "type": "function"
    },
    {
      "constant": true,
      "inputs": [],
      "name": "MAJOR_VERSION",
      "outputs": [
        {
          "name": "",
          "type": "uint256"
        }
      ],
      "payable": false,
      "stateMutability": "view",
      "type": "function"
    },
    {
      "inputs": [
        {
          "name": "_controller",
          "type": "address"
        }
      ],
      "payable": false,
      "stateMutability": "nonpayable",
      "type": "constructor"
    },
    {
      "payable": true,
      "stateMutability": "payable",
      "type": "fallback"
    },
    {
      "anonymous": false,
      "inputs": [
        {
          "indexed": false,
          "name": "_policyId",
          "type": "uint256"
        },
        {
          "indexed": false,
          "name": "_customer",
          "type": "address"
        },
        {
          "indexed": false,
          "name": "strCarrierFlightNumber",
          "type": "bytes32"
        },
        {
          "indexed": false,
          "name": "ethPremium",
          "type": "uint256"
        }
      ],
      "name": "LogPolicyApplied",
      "type": "event"
    },
    {
      "anonymous": false,
      "inputs": [
        {
          "indexed": false,
          "name": "_policyId",
          "type": "uint256"
        },
        {
          "indexed": false,
          "name": "_statistics0",
          "type": "uint256"
        },
        {
          "indexed": false,
          "name": "_statistics1",
          "type": "uint256"
        },
        {
          "indexed": false,
          "name": "_statistics2",
          "type": "uint256"
        },
        {
          "indexed": false,
          "name": "_statistics3",
          "type": "uint256"
        },
        {
          "indexed": false,
          "name": "_statistics4",
          "type": "uint256"
        },
        {
          "indexed": false,
          "name": "_statistics5",
          "type": "uint256"
        }
      ],
      "name": "LogPolicyAccepted",
      "type": "event"
    },
    {
      "anonymous": false,
      "inputs": [
        {
          "indexed": false,
          "name": "_policyId",
          "type": "uint256"
        },
        {
          "indexed": false,
          "name": "ethAmount",
          "type": "uint256"
        }
      ],
      "name": "LogPolicyPaidOut",
      "type": "event"
    },
    {
      "anonymous": false,
      "inputs": [
        {
          "indexed": false,
          "name": "_policyId",
          "type": "uint256"
        }
      ],
      "name": "LogPolicyExpired",
      "type": "event"
    },
    {
      "anonymous": false,
      "inputs": [
        {
          "indexed": false,
          "name": "_policyId",
          "type": "uint256"
        },
        {
          "indexed": false,
          "name": "strReason",
          "type": "bytes32"
        }
      ],
      "name": "LogPolicyDeclined",
      "type": "event"
    },
    {
      "anonymous": false,
      "inputs": [
        {
          "indexed": false,
          "name": "_policyId",
          "type": "uint256"
        },
        {
          "indexed": false,
          "name": "strReason",
          "type": "bytes32"
        }
      ],
      "name": "LogPolicyManualPayout",
      "type": "event"
    },
    {
      "anonymous": false,
      "inputs": [
        {
          "indexed": false,
          "name": "_recipient",
          "type": "address"
        },
        {
          "indexed": false,
          "name": "_from",
          "type": "uint8"
        },
        {
          "indexed": false,
          "name": "ethAmount",
          "type": "uint256"
        }
      ],
      "name": "LogSendFunds",
      "type": "event"
    },
    {
      "anonymous": false,
      "inputs": [
        {
          "indexed": false,
          "name": "_sender",
          "type": "address"
        },
        {
          "indexed": false,
          "name": "_to",
          "type": "uint8"
        },
        {
          "indexed": false,
          "name": "ethAmount",
          "type": "uint256"
        }
      ],
      "name": "LogReceiveFunds",
      "type": "event"
    },
    {
      "anonymous": false,
      "inputs": [
        {
          "indexed": false,
          "name": "_policyId",
          "type": "uint256"
        },
        {
          "indexed": false,
          "name": "strReason",
          "type": "bytes32"
        }
      ],
      "name": "LogSendFail",
      "type": "event"
    },
    {
      "anonymous": false,
      "inputs": [
        {
          "indexed": false,
          "name": "_policyId",
          "type": "uint256"
        },
        {
          "indexed": false,
          "name": "hexQueryId",
          "type": "bytes32"
        },
        {
          "indexed": false,
          "name": "_oraclizeUrl",
          "type": "string"
        },
        {
          "indexed": false,
          "name": "_oraclizeTime",
          "type": "uint256"
        }
      ],
      "name": "LogOraclizeCall",
      "type": "event"
    },
    {
      "anonymous": false,
      "inputs": [
        {
          "indexed": false,
          "name": "_policyId",
          "type": "uint256"
        },
        {
          "indexed": false,
          "name": "hexQueryId",
          "type": "bytes32"
        },
        {
          "indexed": false,
          "name": "_result",
          "type": "string"
        },
        {
          "indexed": false,
          "name": "hexProof",
          "type": "bytes"
        }
      ],
      "name": "LogOraclizeCallback",
      "type": "event"
    },
    {
      "anonymous": false,
      "inputs": [
        {
          "indexed": false,
          "name": "_policyId",
          "type": "uint256"
        },
        {
          "indexed": false,
          "name": "_policyState",
          "type": "uint8"
        },
        {
          "indexed": false,
          "name": "_stateTime",
          "type": "uint256"
        },
        {
          "indexed": false,
          "name": "_stateMessage",
          "type": "bytes32"
        }
      ],
      "name": "LogSetState",
      "type": "event"
    },
    {
      "anonymous": false,
      "inputs": [
        {
          "indexed": false,
          "name": "_policyId",
          "type": "uint256"
        },
        {
          "indexed": false,
          "name": "_address",
          "type": "address"
        },
        {
          "indexed": false,
          "name": "_externalId",
          "type": "bytes32"
        }
      ],
      "name": "LogExternal",
      "type": "event"
    },
    {
      "constant": false,
      "inputs": [],
      "name": "setContracts",
      "outputs": [],
      "payable": false,
      "stateMutability": "nonpayable",
      "type": "function"
    },
    {
      "constant": false,
      "inputs": [
        {
          "name": "_policyId",
          "type": "uint256"
        },
        {
          "name": "_riskId",
          "type": "bytes32"
        },
        {
          "name": "_oraclizeTime",
          "type": "uint256"
        }
      ],
      "name": "schedulePayoutOraclizeCall",
      "outputs": [],
      "payable": false,
      "stateMutability": "nonpayable",
      "type": "function"
    },
    {
      "constant": false,
      "inputs": [
        {
          "name": "myid",
          "type": "bytes32"
        },
        {
          "name": "result",
          "type": "string"
        }
      ],
      "name": "__callback",
      "outputs": [],
      "payable": false,
      "stateMutability": "nonpayable",
      "type": "function"
    },
    {
      "constant": false,
      "inputs": [
        {
          "name": "_queryId",
          "type": "bytes32"
        },
        {
          "name": "_result",
          "type": "string"
        },
        {
          "name": "_proof",
          "type": "bytes"
        }
      ],
      "name": "__callback",
      "outputs": [],
      "payable": false,
      "stateMutability": "nonpayable",
      "type": "function"
    }
  ],
  "bytecode": "0x606060405260c0604051908101604090815260008252600a6020830152601490820152601e606082015260326080820181905260a082015262000047906002906006620006b3565b506101806040519081016040908152600b8252602a6020830152604690820152606560608201526083608082015260a260a082015260c08082015260df60e082015260fe61010082015261011c61012082015261013b610140820152610159610160820152620000bc90600890600c6200074d565b503415620000c957600080fd5b604051602080620038a2833981016040528080519150620000fa90508164010000000062002e5f6200011f82021704565b506200011863ee6b280064010000000062002e8c6200014c82021704565b50620008ca565b60008054600160a060020a03909216600160a060020a031992831681179091556001805490921617815590565b600354600160a060020a031615806200018757506003546200018590600160a060020a0316640100000000620024fb620002b482021704565b155b15620001a957620001a76000640100000000620024ff620002b882021704565b505b600354600160a060020a03166338cc48316000604051602001526040518163ffffffff167c0100000000000000000000000000000000000000000000000000000000028152600401602060405180830381600087803b15156200020b57600080fd5b6102c65a03f115156200021d57600080fd5b505050604051805160048054600160a060020a031916600160a060020a03928316179081905516905063ca6ad1e4826040517c010000000000000000000000000000000000000000000000000000000063ffffffff84160281526004810191909152602401600060405180830381600087803b15156200029c57600080fd5b6102c65a03f11515620002ae57600080fd5b50505050565b3b90565b600080620002e8731d3b2638a7cc9f2cb3d298a3da7a90b67e5506ed640100000000620024fb620002b482021704565b11156200036a5760038054600160a060020a031916731d3b2638a7cc9f2cb3d298a3da7a90b67e5506ed1790556200036160408051908101604052600b81527f6574685f6d61696e6e6574000000000000000000000000000000000000000000602082015264010000000062002d8b6200069a82021704565b50600162000695565b60006200039973c03a2615d5efaf5f49f60b7bb6583eaec212fdf1640100000000620024fb620002b482021704565b1115620004125760038054600160a060020a03191673c03a2615d5efaf5f49f60b7bb6583eaec212fdf11790556200036160408051908101604052600c81527f6574685f726f707374656e330000000000000000000000000000000000000000602082015264010000000062002d8b6200069a82021704565b60006200044173b7a07bcf2ba2f2703b24c0691b5278999c59ac7e640100000000620024fb620002b482021704565b1115620004ba5760038054600160a060020a03191673b7a07bcf2ba2f2703b24c0691b5278999c59ac7e1790556200036160408051908101604052600981527f6574685f6b6f76616e0000000000000000000000000000000000000000000000602082015264010000000062002d8b6200069a82021704565b6000620004e973146500cfd35b22e4a392fe0adc06de1a1368ed48640100000000620024fb620002b482021704565b1115620005625760038054600160a060020a03191673146500cfd35b22e4a392fe0adc06de1a1368ed481790556200036160408051908101604052600b81527f6574685f72696e6b656279000000000000000000000000000000000000000000602082015264010000000062002d8b6200069a82021704565b600062000591736f485c8bf6fc43ea212e93bbf8ce046c7f1cb475640100000000620024fb620002b482021704565b1115620005c7575060038054600160a060020a031916736f485c8bf6fc43ea212e93bbf8ce046c7f1cb475179055600162000695565b6000620005f67320e12a1f859b3feae5fb2a0a32c18f5a65555bbf640100000000620024fb620002b482021704565b11156200062c575060038054600160a060020a0319167320e12a1f859b3feae5fb2a0a32c18f5a65555bbf179055600162000695565b60006200065b7351efaf4c8b3c9afbd5ab9f4bbc82784ab6ef8faa640100000000620024fb620002b482021704565b111562000691575060038054600160a060020a0319167351efaf4c8b3c9afbd5ab9f4bbc82784ab6ef8faa179055600162000695565b5060005b919050565b6005818051620006af929160200190620007e6565b5050565b6001830191839082156200073b5791602002820160005b838211156200070a57835183826101000a81548160ff021916908360ff1602179055509260200192600101602081600001049283019260010302620006ca565b8015620007395782816101000a81549060ff02191690556001016020816000010492830192600103026200070a565b505b506200074992915062000867565b5090565b600183019183908215620007d85791602002820160005b83821115620007a657835183826101000a81548161ffff021916908361ffff160217905550926020019260020160208160010104928301926001030262000764565b8015620007d65782816101000a81549061ffff0219169055600201602081600101049283019260010302620007a6565b505b50620007499291506200088b565b828054600181600116156101000203166002900490600052602060002090601f016020900481019282601f106200082957805160ff191683800117855562000859565b8280016001018555821562000859579182015b82811115620008595782518255916020019190600101906200083c565b5062000749929150620008ad565b6200088891905b808211156200074957805460ff191681556001016200086e565b90565b6200088891905b808211156200074957805461ffff1916815560010162000892565b6200088891905b80821115620007495760008155600101620008b4565b612fc880620008da6000396000f3006060604052600436106100955763ffffffff60e060020a60003504166327dc297e81146101205780632b68b9c61461017657806338bbfa50146101895780636bf2606a1461022157806374689990146102465780638ad46ba014610262578063bcf599f1146102ef578063c8b9153114610305578063e0d6d53014610318578063f77c47911461032b578063f786becd1461035a575b600b54600160a060020a0316633ebd609260663360006040516020015260405160e060020a63ffffffff851602815260ff9092166004830152600160a060020a03166024820152604401602060405180830381600087803b15156100f857600080fd5b6102c65a03f1151561010957600080fd5b50505060405180519050151561011e57600080fd5b005b341561012b57600080fd5b61011e600480359060446024803590810190830135806020601f8201819004810201604051908101604052818152929190602084018383808284375094965061036d95505050505050565b341561018157600080fd5b61011e61039f565b341561019457600080fd5b61011e600480359060446024803590810190830135806020601f8201819004810201604051908101604052818152929190602084018383808284378201915050505050509190803590602001908201803590602001908080601f0160208091040260200160405190810160405281815292919060208401838380828437509496506103c895505050505050565b341561022c57600080fd5b610234610dcf565b60405190815260200160405180910390f35b341561025157600080fd5b61011e600435602435604435610dd4565b341561026d57600080fd5b6102786004356111b6565b60405160208082528190810183818151815260200191508051906020019080838360005b838110156102b457808201518382015260200161029c565b50505050905090810190601f1680156102e15780820380516001836020036101000a031916815260200191505b509250505060405180910390f35b34156102fa57600080fd5b6102346004356112c5565b341561031057600080fd5b6102346115c9565b341561032357600080fd5b61011e6115ce565b341561033657600080fd5b61033e61183b565b604051600160a060020a03909116815260200160405180910390f35b341561036557600080fd5b61023461184a565b61039b828260006040518059106103815750595b818152601f19601f830116810160200160405290506103c8565b5050565b60005433600160a060020a039081169116146103ba57600080fd5b600054600160a060020a0316ff5b6000806000806103d6612d9e565b6000806103e1612d9e565b600061040c7f46442e456d657267656e6379000000000000000000000000000000000000000061184f565b6104146118c2565b600160a060020a031633600160a060020a03161480610444575080600160a060020a031633600160a060020a0316145b151561044f57600080fd5b600954600160a060020a0316637f205c8c8e60006040516040015260405160e060020a63ffffffff841602815260048101919091526024016040805180830381600087803b151561049f57600080fd5b6102c65a03f115156104b057600080fd5b50505060405180519060200180519050995099507f4e010942cd8d70ef60f3bd7e17c62008722f9551f8f28dc7040004160de7e2cc8a8e8e8e60405184815260208101849052608060408201818152906060830190830185818151815260200191508051906020019080838360005b8381101561053757808201518382015260200161051f565b50505050905090810190601f1680156105645780820380516001836020036101000a031916815260200191505b50838103825284818151815260200191508051906020019080838360005b8381101561059a578082015183820152602001610582565b50505050905090810190601f1680156105c75780820380516001836020036101000a031916815260200191505b50965050505050505060405180910390a1600954600160a060020a03166343f46a5c8b60006040516020015260405160e060020a63ffffffff84160281526004810191909152602401602060405180830381600087803b151561062957600080fd5b6102c65a03f1151561063a57600080fd5b50505060405180519050975087600681111561065257fe5b60ff1660051415151561066457600080fd5b600954600160a060020a031663eb8073398b60006040516020015260405160e060020a63ffffffff84160281526004810191909152602401602060405180830381600087803b15156106b557600080fd5b6102c65a03f115156106c657600080fd5b5050506040518051905096506106db8c6119de565b95508b5115156107da57600954600160a060020a0316639c66452e8e89612a3060006040516020015260405160e060020a63ffffffff8616028152600481019390935260248301919091526044820152606401602060405180830381600087803b151561074757600080fd5b6102c65a03f1151561075857600080fd5b50505060405180519050156107c6577fa868cd6faa17ac2172ea3d4f9f7910ca932112bfeb017f45ed09bd881c0540308a6040519081527f4e6f2043616c6c6261636b206174202b313230206d696e00000000000000000060208201526040908101905180910390a1610dc0565b6107d58a888b610a8c01610dd4565b610dc0565b61083f610800604080519081016040526001815260f960020a60110260208201526119de565b610833610826604080519081016040526001815260f960020a60110260208201526119de565b899063ffffffff611a0616565b9063ffffffff611a4916565b5061088b61087e610869604080519081016040526001815260f960020a60110260208201526119de565b61087289611ab3565b9063ffffffff611a0616565b879063ffffffff611adc16565b5061089586611b43565b6000815181106108a157fe5b016020015160f860020a900460f860020a02945084600160f860020a0319167f430000000000000000000000000000000000000000000000000000000000000014156108f4576107d58a60046000611b91565b7f4400000000000000000000000000000000000000000000000000000000000000600160f860020a031986161415610933576107d58a60056000611b91565b60fa60020a601302600160f860020a031986161480159061097e57507f4100000000000000000000000000000000000000000000000000000000000000600160f860020a0319861614155b80156109b457507f4300000000000000000000000000000000000000000000000000000000000000600160f860020a0319861614155b80156109ea57507f4400000000000000000000000000000000000000000000000000000000000000600160f860020a0319861614155b15610a4e577fa868cd6faa17ac2172ea3d4f9f7910ca932112bfeb017f45ed09bd881c0540308a6040519081527f556e70726f6365737361626c652073746174757300000000000000000000000060208201526040908101905180910390a1610dc0565b610a578c6119de565b9550610aa5610a9860408051908101604052601181527f61637475616c476174654172726976616c00000000000000000000000000000060208201526119de565b879063ffffffff61206416565b93507f4100000000000000000000000000000000000000000000000000000000000000600160f860020a031986161480610af8575060fa60020a601302600160f860020a03198616148015610af8575083155b15610bde57600954600160a060020a0316639c66452e8e89612a3060006040516020015260405160e060020a63ffffffff8616028152600481019390935260248301919091526044820152606401602060405180830381600087803b1515610b5f57600080fd5b6102c65a03f11515610b7057600080fd5b50505060405180519050156107c6577fa868cd6faa17ac2172ea3d4f9f7910ca932112bfeb017f45ed09bd881c0540308a6040519081527f4e6f206172726976616c206174202b313830206d696e0000000000000000000060208201526040908101905180910390a16107d5565b60fa60020a601302600160f860020a03198616148015610bfb5750835b15610db457610c3c60408051908101604052601b81527f226172726976616c4761746544656c61794d696e75746573223a20000000000060208201526119de565b9250610c4e868463ffffffff61206416565b15610d5f57610c6783610833888263ffffffff611a0616565b50610cc061087e610c91604080519081016040526001815260f960020a60110260208201526119de565b610833610cb7604080519081016040526001815260f960020a60110260208201526119de565b6108728b611ab3565b50610d0361087e61086960408051908101604052600181527f7d0000000000000000000000000000000000000000000000000000000000000060208201526119de565b50610d4661087e61086960408051908101604052600181527f2c0000000000000000000000000000000000000000000000000000000000000060208201526119de565b50610d58610d5387611b43565b61208a565b9150610d64565b600091505b600f821015610d7e57610d798a600080611b91565b6107d5565b601e821015610d9357610d798a600184611b91565b602d821015610da857610d798a600284611b91565b6107d58a600384611b91565b610dc08a600080611b91565b50505050505050505050505050565b600281565b600080610ddf612db5565b600b54600090600160a060020a0316633ebd6092606533846040516020015260405160e060020a63ffffffff851602815260ff9092166004830152600160a060020a03166024820152604401602060405180830381600087803b1515610e4457600080fd5b6102c65a03f11515610e5557600080fd5b505050604051805190501515610e6a57600080fd5b600954600160a060020a031663cdcdb4638760006040516060015260405160e060020a63ffffffff84160281526004810191909152602401606060405180830381600087803b1515610ebb57600080fd5b6102c65a03f11515610ecc57600080fd5b50505060405180519060200180519060200180519050509350935061102d608060405190810160405280605481526020017f5b55524c5d206a736f6e2868747470733a2f2f6170692e666c6967687473746181526020017f74732e636f6d2f666c65782f666c696768747374617475732f726573742f763281526020017f2f6a736f6e2f666c696768742f7374617475732f000000000000000000000000815250610f768661209d565b610f7f8661209d565b60a060405190810160405280607081526020017f3f247b5b646563727970745d203c212d2d50555420454e435259505445445f5181526020017f5545525920484552452d2d3e207d267574633d74727565292e666c696768745381526020017f746174757365735b305d5b27737461747573272c2764656c617973272c276f7081526020017f65726174696f6e616c54696d6573275d000000000000000000000000000000008152506121cd565b91506110718560408051908101604052600681527f6e65737465640000000000000000000000000000000000000000000000000000602082015284620aae606121f9565b600954909150600160a060020a0316632ba1e439828960018960405160e060020a63ffffffff87160281526004810185815260248201859052906044018360018111156110ba57fe5b60ff168152602001828152602001945050505050600060405180830381600087803b15156110e757600080fd5b6102c65a03f115156110f857600080fd5b5050507f57d5927fefa8de5620b57ca7ac0948a9ea457d8f3af2bd8867728325a6ca5d9287828488604051848152602081018490526060810182905260806040820181815290820184818151815260200191508051906020019080838360005b83811015611170578082015183820152602001611158565b50505050905090810190601f16801561119d5780820380516001836020036101000a031916815260200191505b509550505050505060405180910390a150505050505050565b6111be612db5565b6111c6612db5565b600080600080604080518059106111da5750595b818152601f19601f830116810160200160405290509450600093505b60208410156112ba576008601f8590030260020a8781151561121457fe5b049250601060ff841604915050601081028203600960ff8316111561123a576027820191505b60098160ff16111561124a576027015b8160300160f860020a0285856002028151811061126357fe5b906020010190600160f860020a031916908160001a9053508060300160f860020a0285856002026001018151811061129757fe5b906020010190600160f860020a031916908160001a9053506001909301926111f6565b509295945050505050565b60006112cf612db5565b6112d7612db5565b6112df612db5565b60008060006112ed8861209d565b955060026040518059106112fe5750595b818152601f19601f83011681016020016040529050945060046040518059106113245750595b818152601f19601f8301168101602001604052905093508560058151811061134857fe5b016020015160f860020a900460f860020a028460008151811061136757fe5b906020010190600160f860020a031916908160001a9053508560068151811061138c57fe5b016020015160f860020a900460f860020a02846001815181106113ab57fe5b906020010190600160f860020a031916908160001a905350856007815181106113d057fe5b016020015160f860020a900460f860020a02846002815181106113ef57fe5b906020010190600160f860020a031916908160001a9053508560088151811061141457fe5b016020015160f860020a900460f860020a028460038151811061143357fe5b906020010190600160f860020a031916908160001a9053506114548461208a565b925085600a8151811061146357fe5b016020015160f860020a900460f860020a028560008151811061148257fe5b906020010190600160f860020a031916908160001a90535085600b815181106114a757fe5b016020015160f860020a900460f860020a02856001815181106114c657fe5b906020010190600160f860020a031916908160001a9053506114e78561208a565b915085600d815181106114f657fe5b016020015160f860020a900460f860020a028560008151811061151557fe5b906020010190600160f860020a031916908160001a90535085600e8151811061153a57fe5b016020015160f860020a900460f860020a028560018151811061155957fe5b906020010190600160f860020a031916908160001a90535061157a8561208a565b90508060086000198401600c811061158e57fe5b601091828204019190066002029054906101000a900461ffff1661ffff166107b2850361016d02010162015180029650505050505050919050565b600081565b60005433600160a060020a039081169116146115e957600080fd5b6116127f46442e416363657373436f6e74726f6c6c65720000000000000000000000000061184f565b600b8054600160a060020a031916600160a060020a039290921691909117905561165b7f46442e446174616261736500000000000000000000000000000000000000000061184f565b60098054600160a060020a031916600160a060020a03929092169190911790556116a47f46442e4c6564676572000000000000000000000000000000000000000000000061184f565b600a8054600160a060020a031916600160a060020a03928316179055600b541663c28b4577606560405160e060020a63ffffffff841602815260ff90911660048201527f46442e556e6465727772697465000000000000000000000000000000000000006024820152604401600060405180830381600087803b151561172957600080fd5b6102c65a03f1151561173a57600080fd5b5050600b54600160a060020a0316905063c3d08f0660656117596118c2565b60405160e060020a63ffffffff851602815260ff9092166004830152600160a060020a03166024820152604401600060405180830381600087803b151561179f57600080fd5b6102c65a03f115156117b057600080fd5b5050600b54600160a060020a0316905063c28b4577606660405160e060020a63ffffffff841602815260ff90911660048201527f46442e46756e64657200000000000000000000000000000000000000000000006024820152604401600060405180830381600087803b151561182557600080fd5b6102c65a03f1151561183657600080fd5b505050565b600054600160a060020a031681565b600181565b600154600090600160a060020a031663e16c7d9883836040516020015260405160e060020a63ffffffff84160281526004810191909152602401602060405180830381600087803b15156118a257600080fd5b6102c65a03f115156118b357600080fd5b50505060405180519392505050565b600354600090600160a060020a031615806118ef57506003546118ed90600160a060020a03166124fb565b155b15611900576118fe60006124ff565b505b600354600160a060020a03166338cc48316000604051602001526040518163ffffffff1660e060020a028152600401602060405180830381600087803b151561194857600080fd5b6102c65a03f1151561195957600080fd5b505050604051805160048054600160a060020a031916600160a060020a03928316179081905516905063c281d19e6000604051602001526040518163ffffffff1660e060020a028152600401602060405180830381600087803b15156119be57600080fd5b6102c65a03f115156119cf57600080fd5b50505060405180519150505b90565b6119e6612d9e565b602082016040805190810160405280845181526020019190915292915050565b611a0e612d9e565b6000611a268451856020015185518660200151612825565b9050836020015181038481815103905250602084018190528391505b5092915050565b611a51612d9e565b6000825184511015611a6557839150611a42565b5060016020830151846020015114611a8d578251602085015160208501518290209190201490505b8015611aab5782518481815103905250825184602001818151019052505b509192915050565b611abb612d9e565b6040805190810160405280835181526020018360200151905290505b919050565b611ae4612d9e565b600080835185511015611af957849250611b3b565b835185518660200151010391506001905083602001518214611b2657835160208501518190209083201490505b8015611b3757835185818151039052505b8492505b505092915050565b611b4b612db5565b611b53612db5565b60008351604051805910611b645750595b818152601f19601f830116810160200160405290509150602082019050611a4281856020015186516128c8565b6009546000908190819081908190600160a060020a03166319a0805889898960405160e060020a63ffffffff8616028152600481019390935260ff90911660248301526044820152606401600060405180830381600087803b1515611bf557600080fd5b6102c65a03f11515611c0657600080fd5b50505060ff87161515611cbd57600954600160a060020a031663418cf5b1896004426040518463ffffffff1660e060020a02815260040180848152602001836006811115611c5057fe5b60ff168152602001828152602001807f45787069726564202d206e6f2064656c617921000000000000000000000000008152506020019350505050600060405180830381600087803b1515611ca457600080fd5b6102c65a03f11515611cb557600080fd5b50505061205a565b600954600160a060020a0316637a5402e98960006040516060015260405160e060020a63ffffffff84160281526004810191909152602401606060405180830381600087803b1515611d0e57600080fd5b6102c65a03f11515611d1f57600080fd5b505050604051805190602001805190602001805190509450945094508360001415611d4a57614e2093505b83600260ff891660068110611d5b57fe5b602091828204019190069054906101000a900460ff1660ff16840261271002811515611d8357fe5b049150819050670f43fc2c04ee0000821115611da557670f43fc2c04ee000091505b600954600160a060020a0316630d4c8f6289838560405160e060020a63ffffffff8616028152600481019390935260248301919091526044820152606401600060405180830381600087803b1515611dfc57600080fd5b6102c65a03f11515611e0d57600080fd5b5050600a54600160a060020a031690506350bed043866002856000604051602001526040518463ffffffff1660e060020a0281526004018084600160a060020a0316600160a060020a03168152602001836005811115611e6957fe5b60ff1681526020018281526020019350505050602060405180830381600087803b1515611e9557600080fd5b6102c65a03f11515611ea657600080fd5b505050604051805190501515611fb457600954600160a060020a031663418cf5b1896006426040518463ffffffff1660e060020a02815260040180848152602001836006811115611ef357fe5b60ff168152602001828152602001807f5061796f75742c2073656e64206661696c6564210000000000000000000000008152506020019350505050600060405180830381600087803b1515611f4757600080fd5b6102c65a03f11515611f5857600080fd5b5050600954600160a060020a03169050630d4c8f628983600060405160e060020a63ffffffff8616028152600481019390935260248301919091526044820152606401600060405180830381600087803b1515611ca457600080fd5b600954600160a060020a031663418cf5b1896003426040518463ffffffff1660e060020a02815260040180848152602001836006811115611ff157fe5b60ff168152602001828152602001807f5061796f7574207375636365737366756c2100000000000000000000000000008152506020019350505050600060405180830381600087803b151561204557600080fd5b6102c65a03f1151561205657600080fd5b5050505b5050505050505050565b60008260200151612081845185602001518551866020015161290d565b14159392505050565b60006120978260006129ad565b92915050565b6120a5612db5565b6120ad612db5565b60008060006120ba612db5565b60206040518059106120c95750595b818152601f19601f83011681016020016040529050945060009350600092505b6020831015612144576008830260020a87029150600160f860020a0319821615612139578185858151811061211a57fe5b906020010190600160f860020a031916908160001a9053506001909301925b6001909201916120e9565b836040518059106121525750595b818152601f19601f830116810160200160405290509050600092505b838310156121c35784838151811061218257fe5b016020015160f860020a900460f860020a028184815181106121a057fe5b906020010190600160f860020a031916908160001a90535060019092019161216e565b9695505050505050565b6121d5612db5565b6121f085858585602060405190810160405260008152612b1b565b95945050505050565b6003546000908190600160a060020a03161580612228575060035461222690600160a060020a03166124fb565b155b156122395761223760006124ff565b505b600354600160a060020a03166338cc48316000604051602001526040518163ffffffff1660e060020a028152600401602060405180830381600087803b151561228157600080fd5b6102c65a03f1151561229257600080fd5b505050604051805160048054600160a060020a031916600160a060020a039283161790819055169050632ef3accc86856000604051602001526040518363ffffffff1660e060020a0281526004018080602001838152602001828103825284818151815260200191508051906020019080838360005b83811015612320578082015183820152602001612308565b50505050905090810190601f16801561234d5780820380516001836020036101000a031916815260200191505b509350505050602060405180830381600087803b151561236c57600080fd5b6102c65a03f1151561237d57600080fd5b5050506040518051915050670de0b6b3a76400003a8402018111156123a557600091506124f2565b600454600160a060020a031663c51be90f82888888886000604051602001526040518663ffffffff1660e060020a028152600401808581526020018060200180602001848152602001838103835286818151815260200191508051906020019080838360005b8381101561242357808201518382015260200161240b565b50505050905090810190601f1680156124505780820380516001836020036101000a031916815260200191505b50838103825285818151815260200191508051906020019080838360005b8381101561248657808201518382015260200161246e565b50505050905090810190601f1680156124b35780820380516001836020036101000a031916815260200191505b5096505050505050506020604051808303818588803b15156124d457600080fd5b6125ee5a03f115156124e557600080fd5b5050505060405180519250505b50949350505050565b3b90565b60008061251f731d3b2638a7cc9f2cb3d298a3da7a90b67e5506ed6124fb565b111561258f5760038054600160a060020a031916731d3b2638a7cc9f2cb3d298a3da7a90b67e5506ed17905561258760408051908101604052600b81527f6574685f6d61696e6e65740000000000000000000000000000000000000000006020820152612d8b565b506001611ad7565b60006125ae73c03a2615d5efaf5f49f60b7bb6583eaec212fdf16124fb565b11156126165760038054600160a060020a03191673c03a2615d5efaf5f49f60b7bb6583eaec212fdf117905561258760408051908101604052600c81527f6574685f726f707374656e3300000000000000000000000000000000000000006020820152612d8b565b600061263573b7a07bcf2ba2f2703b24c0691b5278999c59ac7e6124fb565b111561269d5760038054600160a060020a03191673b7a07bcf2ba2f2703b24c0691b5278999c59ac7e17905561258760408051908101604052600981527f6574685f6b6f76616e00000000000000000000000000000000000000000000006020820152612d8b565b60006126bc73146500cfd35b22e4a392fe0adc06de1a1368ed486124fb565b11156127245760038054600160a060020a03191673146500cfd35b22e4a392fe0adc06de1a1368ed4817905561258760408051908101604052600b81527f6574685f72696e6b6562790000000000000000000000000000000000000000006020820152612d8b565b6000612743736f485c8bf6fc43ea212e93bbf8ce046c7f1cb4756124fb565b1115612777575060038054600160a060020a031916736f485c8bf6fc43ea212e93bbf8ce046c7f1cb4751790556001611ad7565b60006127967320e12a1f859b3feae5fb2a0a32c18f5a65555bbf6124fb565b11156127ca575060038054600160a060020a0319167320e12a1f859b3feae5fb2a0a32c18f5a65555bbf1790556001611ad7565b60006127e97351efaf4c8b3c9afbd5ab9f4bbc82784ab6ef8faa6124fb565b111561281d575060038054600160a060020a0319167351efaf4c8b3c9afbd5ab9f4bbc82784ab6ef8faa1790556001611ad7565b506000919050565b6000808080808887116128b6576020871161287c5760018760200360080260020a031980875116888b038a018a96505b818388511614612871576001870196819010612855578b8b0196505b5050508394506128bc565b8686209150879350600092505b86890383116128b65750858320818114156128a6578394506128bc565b6001938401939290920191612889565b88880194505b50505050949350505050565b60005b602082106128ee57825184526020840193506020830192506020820391506128cb565b6001826020036101000a03905080198351168185511617909352505050565b600080808087861161299e57602086116129695760018660200360080260020a031980865116878a03890194505b80828651161461295a5760001985019489901161293b5788945061295f565b938701935b50508293506129a2565b8585209150858803870192505b86831061299e5750848220818114156129935785830193506129a2565b600183039250612976565b8693505b505050949350505050565b60006129b7612db5565b5082600080805b8351811015612afe577f30000000000000000000000000000000000000000000000000000000000000008482815181106129f457fe5b016020015160f860020a900460f860020a02600160f860020a03191610158015612a6557507f3900000000000000000000000000000000000000000000000000000000000000848281518110612a4657fe5b016020015160f860020a900460f860020a02600160f860020a03191611155b15612abb578115612a8457851515612a7c57612afe565b600019909501945b600a830292506030848281518110612a9857fe5b016020015160f860020a900460f860020a0260f860020a90040383019250612af6565b838181518110612ac757fe5b016020015160f860020a900460f860020a02600160f860020a031916602e60f860020a021415612af657600191505b6001016129be565b6000861115612b105785600a0a830292505b509095945050505050565b612b23612db5565b612b2b612db5565b612b33612db5565b612b3b612db5565b612b43612db5565b612b4b612db5565b612b53612db5565b612b5b612db5565b6000808e98508d97508c96508b95508a94508451865188518a518c5101010101604051805910612b885750595b818152601f19601f83011681016020016040529050935083925060009150600090505b8851811015612c0457888181518110612bc057fe5b016020015160f860020a900460f860020a02838380600101945081518110612be457fe5b906020010190600160f860020a031916908160001a905350600101612bab565b5060005b8751811015612c6157878181518110612c1d57fe5b016020015160f860020a900460f860020a02838380600101945081518110612c4157fe5b906020010190600160f860020a031916908160001a905350600101612c08565b5060005b8651811015612cbe57868181518110612c7a57fe5b016020015160f860020a900460f860020a02838380600101945081518110612c9e57fe5b906020010190600160f860020a031916908160001a905350600101612c65565b5060005b8551811015612d1b57858181518110612cd757fe5b016020015160f860020a900460f860020a02838380600101945081518110612cfb57fe5b906020010190600160f860020a031916908160001a905350600101612cc2565b5060005b8451811015612d7857848181518110612d3457fe5b016020015160f860020a900460f860020a02838380600101945081518110612d5857fe5b906020010190600160f860020a031916908160001a905350600101612d1f565b50909d9c50505050505050505050505050565b600581805161039b929160200190612dc7565b604080519081016040526000808252602082015290565b60206040519081016040526000815290565b828054600181600116156101000203166002900490600052602060002090601f016020900481019282601f10612e0857805160ff1916838001178555612e35565b82800160010185558215612e35579182015b82811115612e35578251825591602001919060010190612e1a565b50612e41929150612e45565b5090565b6119db91905b80821115612e415760008155600101612e4b565b60008054600160a060020a03909216600160a060020a031992831681179091556001805490921617815590565b600354600160a060020a03161580612eb65750600354612eb490600160a060020a03166124fb565b155b15612ec757612ec560006124ff565b505b600354600160a060020a03166338cc48316000604051602001526040518163ffffffff1660e060020a028152600401602060405180830381600087803b1515612f0f57600080fd5b6102c65a03f11515612f2057600080fd5b505050604051805160048054600160a060020a031916600160a060020a03928316179081905516905063ca6ad1e48260405160e060020a63ffffffff84160281526004810191909152602401600060405180830381600087803b1515612f8557600080fd5b6102c65a03f11515612f9657600080fd5b505050505600a165627a7a7230582075652c5121dff6ff875c907e699e52fd00b368f6673dea6de02357eb23b0419f0029",
  "source": "/**\n * FlightDelay with Oraclized Underwriting and Payout\n *\n * @description\tPayout contract\n * @copyright (c) 2017 etherisc GmbH\n * @author Christoph Mussenbrock\n */\n\npragma solidity ^0.4.11;\n\nimport \"./FlightDelayControlledContract.sol\";\nimport \"./FlightDelayConstants.sol\";\nimport \"./FlightDelayDatabaseInterface.sol\";\nimport \"./FlightDelayAccessControllerInterface.sol\";\nimport \"./FlightDelayLedgerInterface.sol\";\nimport \"./FlightDelayPayoutInterface.sol\";\nimport \"./FlightDelayOraclizeInterface.sol\";\nimport \"./convertLib.sol\";\nimport \"./../vendors/strings.sol\";\n\n\ncontract FlightDelayPayout is FlightDelayControlledContract, FlightDelayConstants, FlightDelayOraclizeInterface, ConvertLib {\n\n    using strings for *;\n\n    FlightDelayDatabaseInterface FD_DB;\n    FlightDelayLedgerInterface FD_LG;\n    FlightDelayAccessControllerInterface FD_AC;\n\n    /*\n     * @dev Contract constructor sets its controller\n     * @param _controller FD.Controller\n     */\n    function FlightDelayPayout(address _controller) public {\n        setController(_controller);\n        oraclize_setCustomGasPrice(ORACLIZE_GASPRICE);\n    }\n\n    /*\n     * Public methods\n     */\n\n    /*\n     * @dev Set access permissions for methods\n     */\n    function setContracts() public onlyController {\n        FD_AC = FlightDelayAccessControllerInterface(getContract(\"FD.AccessController\"));\n        FD_DB = FlightDelayDatabaseInterface(getContract(\"FD.Database\"));\n        FD_LG = FlightDelayLedgerInterface(getContract(\"FD.Ledger\"));\n\n        FD_AC.setPermissionById(101, \"FD.Underwrite\");\n        FD_AC.setPermissionByAddress(101, oraclize_cbAddress());\n        FD_AC.setPermissionById(102, \"FD.Funder\");\n    }\n\n    /*\n     * @dev Fund contract\n     */\n    function () public payable {\n        require(FD_AC.checkPermission(102, msg.sender));\n\n        // todo: bookkeeping\n        // todo: fire funding event\n    }\n\n    /*\n     * @dev Schedule oraclize call for payout\n     * @param _policyId\n     * @param _riskId\n     * @param _oraclizeTime\n     */\n    function schedulePayoutOraclizeCall(uint _policyId, bytes32 _riskId, uint _oraclizeTime) public {\n        require(FD_AC.checkPermission(101, msg.sender));\n\n        var (carrierFlightNumber, departureYearMonthDay,) = FD_DB.getRiskParameters(_riskId);\n\n        string memory oraclizeUrl = strConcat(\n            ORACLIZE_STATUS_BASE_URL,\n            b32toString(carrierFlightNumber),\n            b32toString(departureYearMonthDay),\n            ORACLIZE_STATUS_QUERY\n        );\n\n        bytes32 queryId = oraclize_query(\n            _oraclizeTime,\n            \"nested\",\n            oraclizeUrl,\n            ORACLIZE_GAS\n        );\n\n        FD_DB.createOraclizeCallback(\n            queryId,\n            _policyId,\n            oraclizeState.ForPayout,\n            _oraclizeTime\n        );\n\n        LogOraclizeCall(_policyId, queryId, oraclizeUrl, _oraclizeTime);\n    }\n\n    /*\n     * @dev Oraclize callback. In an emergency case, we can call this directly from FD.Emergency Account.\n     * @param _queryId\n     * @param _result\n     * @param _proof\n     */\n    function __callback(bytes32 _queryId, string _result, bytes _proof) public onlyOraclizeOr(getContract('FD.Emergency')) {\n\n        var (policyId, oraclizeTime) = FD_DB.getOraclizeCallback(_queryId);\n        LogOraclizeCallback(policyId, _queryId, _result, _proof);\n\n        // check if policy was declined after this callback was scheduled\n        var state = FD_DB.getPolicyState(policyId);\n        require(uint8(state) != 5);\n\n        bytes32 riskId = FD_DB.getRiskId(policyId);\n\n// --> debug-mode\n//            LogBytes32(\"riskId\", riskId);\n// <-- debug-mode\n\n        var slResult = _result.toSlice();\n\n        if (bytes(_result).length == 0) { // empty Result\n            if (FD_DB.checkTime(_queryId, riskId, 180 minutes)) {\n                LogPolicyManualPayout(policyId, \"No Callback at +120 min\");\n                return;\n            } else {\n                schedulePayoutOraclizeCall(policyId, riskId, oraclizeTime + 45 minutes);\n            }\n        } else {\n            // first check status\n            // extract the status field:\n            slResult.find(\"\\\"\".toSlice()).beyond(\"\\\"\".toSlice());\n            slResult.until(slResult.copy().find(\"\\\"\".toSlice()));\n            bytes1 status = bytes(slResult.toString())[0];\t// s = L\n            if (status == \"C\") {\n                // flight cancelled --> payout\n                payOut(policyId, 4, 0);\n                return;\n            } else if (status == \"D\") {\n                // flight diverted --> payout\n                payOut(policyId, 5, 0);\n                return;\n            } else if (status != \"L\" && status != \"A\" && status != \"C\" && status != \"D\") {\n                LogPolicyManualPayout(policyId, \"Unprocessable status\");\n                return;\n            }\n\n            // process the rest of the response:\n            slResult = _result.toSlice();\n            bool arrived = slResult.contains(\"actualGateArrival\".toSlice());\n\n            if (status == \"A\" || (status == \"L\" && !arrived)) {\n                // flight still active or not at gate --> reschedule\n                if (FD_DB.checkTime(_queryId, riskId, 180 minutes)) {\n                    LogPolicyManualPayout(policyId, \"No arrival at +180 min\");\n                } else {\n                    schedulePayoutOraclizeCall(policyId, riskId, oraclizeTime + 45 minutes);\n                }\n            } else if (status == \"L\" && arrived) {\n                var aG = \"\\\"arrivalGateDelayMinutes\\\": \".toSlice();\n                if (slResult.contains(aG)) {\n                    slResult.find(aG).beyond(aG);\n                    slResult.until(slResult.copy().find(\"\\\"\".toSlice()).beyond(\"\\\"\".toSlice()));\n                    // truffle bug, replace by \"}\" as soon as it is fixed.\n                    slResult.until(slResult.copy().find(\"\\x7D\".toSlice()));\n                    slResult.until(slResult.copy().find(\",\".toSlice()));\n                    uint delayInMinutes = parseInt(slResult.toString());\n                } else {\n                    delayInMinutes = 0;\n                }\n\n                if (delayInMinutes < 15) {\n                    payOut(policyId, 0, 0);\n                } else if (delayInMinutes < 30) {\n                    payOut(policyId, 1, delayInMinutes);\n                } else if (delayInMinutes < 45) {\n                    payOut(policyId, 2, delayInMinutes);\n                } else {\n                    payOut(policyId, 3, delayInMinutes);\n                }\n            } else { // no delay info\n                payOut(policyId, 0, 0);\n            }\n        }\n    }\n\n    /*\n     * Internal methods\n     */\n\n    /*\n     * @dev Payout\n     * @param _policyId\n     * @param _delay\n     * @param _delayInMinutes\n     */\n    function payOut(uint _policyId, uint8 _delay, uint _delayInMinutes)\tinternal {\n// --> debug-mode\n//            LogString(\"im payOut\", \"\");\n//            LogUint(\"policyId\", _policyId);\n//            LogUint(\"delay\", _delay);\n//            LogUint(\"in minutes\", _delayInMinutes);\n// <-- debug-mode\n\n        FD_DB.setDelay(_policyId, _delay, _delayInMinutes);\n\n        if (_delay == 0) {\n            FD_DB.setState(\n                _policyId,\n                policyState.Expired,\n                now,\n                \"Expired - no delay!\"\n            );\n        } else {\n            var (customer, weight, premium) = FD_DB.getPolicyData(_policyId);\n\n// --> debug-mode\n//                LogUint(\"weight\", weight);\n// <-- debug-mode\n\n            if (weight == 0) {\n                weight = 20000;\n            }\n\n            uint payout = premium * WEIGHT_PATTERN[_delay] * 10000 / weight;\n            uint calculatedPayout = payout;\n\n            if (payout > MAX_PAYOUT) {\n                payout = MAX_PAYOUT;\n            }\n\n            FD_DB.setPayouts(_policyId, calculatedPayout, payout);\n\n            if (!FD_LG.sendFunds(customer, Acc.Payout, payout)) {\n                FD_DB.setState(\n                    _policyId,\n                    policyState.SendFailed,\n                    now,\n                    \"Payout, send failed!\"\n                );\n\n                FD_DB.setPayouts(_policyId, calculatedPayout, 0);\n            } else {\n                FD_DB.setState(\n                    _policyId,\n                    policyState.PaidOut,\n                    now,\n                    \"Payout successful!\"\n                );\n            }\n        }\n    }\n}\n",
  "sourcePath": "/Users/A/Data/Altoros/1244-Etherisc/repos/flightdelay/contracts/FlightDelayPayout.sol",
  "compiler": {
    "name": "solc",
    "version": "0.4.19+commit.c4cbbb05.Emscripten.clang"
  },
  "schemaVersion": "2.0.0",
  "updatedAt": "2018-04-05T12:35:45.922Z"
}