{
  "contractName": "FlightDelayAccessController",
  "abi": [
    {
      "constant": false,
      "inputs": [],
      "name": "destruct",
      "outputs": [],
      "payable": false,
      "stateMutability": "nonpayable",
      "type": "function"
    },
    {
      "constant": false,
      "inputs": [
        {
          "name": "_perm",
          "type": "uint8"
        },
        {
          "name": "_addr",
          "type": "address"
        }
      ],
      "name": "checkPermission",
      "outputs": [
        {
          "name": "_success",
          "type": "bool"
        }
      ],
      "payable": false,
      "stateMutability": "nonpayable",
      "type": "function"
    },
    {
      "constant": true,
      "inputs": [],
      "name": "PATCH_VERSION",
      "outputs": [
        {
          "name": "",
          "type": "uint256"
        }
      ],
      "payable": false,
      "stateMutability": "view",
      "type": "function"
    },
    {
      "constant": false,
      "inputs": [
        {
          "name": "_perm",
          "type": "uint8"
        },
        {
          "name": "_addr",
          "type": "address"
        },
        {
          "name": "_access",
          "type": "bool"
        }
      ],
      "name": "setPermissionByAddress",
      "outputs": [],
      "payable": false,
      "stateMutability": "nonpayable",
      "type": "function"
    },
    {
      "constant": false,
      "inputs": [
        {
          "name": "_target",
          "type": "address"
        },
        {
          "name": "_accessor",
          "type": "address"
        },
        {
          "name": "_perm",
          "type": "uint8"
        },
        {
          "name": "_access",
          "type": "bool"
        }
      ],
      "name": "fixPermission",
      "outputs": [],
      "payable": false,
      "stateMutability": "nonpayable",
      "type": "function"
    },
    {
      "constant": false,
      "inputs": [
        {
          "name": "_perm",
          "type": "uint8"
        },
        {
          "name": "_id",
          "type": "bytes32"
        }
      ],
      "name": "setPermissionById",
      "outputs": [],
      "payable": false,
      "stateMutability": "nonpayable",
      "type": "function"
    },
    {
      "constant": false,
      "inputs": [
        {
          "name": "_perm",
          "type": "uint8"
        },
        {
          "name": "_addr",
          "type": "address"
        }
      ],
      "name": "setPermissionByAddress",
      "outputs": [],
      "payable": false,
      "stateMutability": "nonpayable",
      "type": "function"
    },
    {
      "constant": true,
      "inputs": [],
      "name": "MINOR_VERSION",
      "outputs": [
        {
          "name": "",
          "type": "uint256"
        }
      ],
      "payable": false,
      "stateMutability": "view",
      "type": "function"
    },
    {
      "constant": false,
      "inputs": [
        {
          "name": "_perm",
          "type": "uint8"
        },
        {
          "name": "_id",
          "type": "bytes32"
        },
        {
          "name": "_access",
          "type": "bool"
        }
      ],
      "name": "setPermissionById",
      "outputs": [],
      "payable": false,
      "stateMutability": "nonpayable",
      "type": "function"
    },
    {
      "constant": false,
      "inputs": [],
      "name": "setContracts",
      "outputs": [],
      "payable": false,
      "stateMutability": "nonpayable",
      "type": "function"
    },
    {
      "constant": true,
      "inputs": [],
      "name": "controller",
      "outputs": [
        {
          "name": "",
          "type": "address"
        }
      ],
      "payable": false,
      "stateMutability": "view",
      "type": "function"
    },
    {
      "constant": true,
      "inputs": [],
      "name": "MAJOR_VERSION",
      "outputs": [
        {
          "name": "",
          "type": "uint256"
        }
      ],
      "payable": false,
      "stateMutability": "view",
      "type": "function"
    },
    {
      "inputs": [
        {
          "name": "_controller",
          "type": "address"
        }
      ],
      "payable": false,
      "stateMutability": "nonpayable",
      "type": "constructor"
    },
    {
      "anonymous": false,
      "inputs": [
        {
          "indexed": false,
          "name": "_policyId",
          "type": "uint256"
        },
        {
          "indexed": false,
          "name": "_customer",
          "type": "address"
        },
        {
          "indexed": false,
          "name": "strCarrierFlightNumber",
          "type": "bytes32"
        },
        {
          "indexed": false,
          "name": "ethPremium",
          "type": "uint256"
        }
      ],
      "name": "LogPolicyApplied",
      "type": "event"
    },
    {
      "anonymous": false,
      "inputs": [
        {
          "indexed": false,
          "name": "_policyId",
          "type": "uint256"
        },
        {
          "indexed": false,
          "name": "_statistics0",
          "type": "uint256"
        },
        {
          "indexed": false,
          "name": "_statistics1",
          "type": "uint256"
        },
        {
          "indexed": false,
          "name": "_statistics2",
          "type": "uint256"
        },
        {
          "indexed": false,
          "name": "_statistics3",
          "type": "uint256"
        },
        {
          "indexed": false,
          "name": "_statistics4",
          "type": "uint256"
        },
        {
          "indexed": false,
          "name": "_statistics5",
          "type": "uint256"
        }
      ],
      "name": "LogPolicyAccepted",
      "type": "event"
    },
    {
      "anonymous": false,
      "inputs": [
        {
          "indexed": false,
          "name": "_policyId",
          "type": "uint256"
        },
        {
          "indexed": false,
          "name": "ethAmount",
          "type": "uint256"
        }
      ],
      "name": "LogPolicyPaidOut",
      "type": "event"
    },
    {
      "anonymous": false,
      "inputs": [
        {
          "indexed": false,
          "name": "_policyId",
          "type": "uint256"
        }
      ],
      "name": "LogPolicyExpired",
      "type": "event"
    },
    {
      "anonymous": false,
      "inputs": [
        {
          "indexed": false,
          "name": "_policyId",
          "type": "uint256"
        },
        {
          "indexed": false,
          "name": "strReason",
          "type": "bytes32"
        }
      ],
      "name": "LogPolicyDeclined",
      "type": "event"
    },
    {
      "anonymous": false,
      "inputs": [
        {
          "indexed": false,
          "name": "_policyId",
          "type": "uint256"
        },
        {
          "indexed": false,
          "name": "strReason",
          "type": "bytes32"
        }
      ],
      "name": "LogPolicyManualPayout",
      "type": "event"
    },
    {
      "anonymous": false,
      "inputs": [
        {
          "indexed": false,
          "name": "_recipient",
          "type": "address"
        },
        {
          "indexed": false,
          "name": "_from",
          "type": "uint8"
        },
        {
          "indexed": false,
          "name": "ethAmount",
          "type": "uint256"
        }
      ],
      "name": "LogSendFunds",
      "type": "event"
    },
    {
      "anonymous": false,
      "inputs": [
        {
          "indexed": false,
          "name": "_sender",
          "type": "address"
        },
        {
          "indexed": false,
          "name": "_to",
          "type": "uint8"
        },
        {
          "indexed": false,
          "name": "ethAmount",
          "type": "uint256"
        }
      ],
      "name": "LogReceiveFunds",
      "type": "event"
    },
    {
      "anonymous": false,
      "inputs": [
        {
          "indexed": false,
          "name": "_policyId",
          "type": "uint256"
        },
        {
          "indexed": false,
          "name": "strReason",
          "type": "bytes32"
        }
      ],
      "name": "LogSendFail",
      "type": "event"
    },
    {
      "anonymous": false,
      "inputs": [
        {
          "indexed": false,
          "name": "_policyId",
          "type": "uint256"
        },
        {
          "indexed": false,
          "name": "hexQueryId",
          "type": "bytes32"
        },
        {
          "indexed": false,
          "name": "_oraclizeUrl",
          "type": "string"
        },
        {
          "indexed": false,
          "name": "_oraclizeTime",
          "type": "uint256"
        }
      ],
      "name": "LogOraclizeCall",
      "type": "event"
    },
    {
      "anonymous": false,
      "inputs": [
        {
          "indexed": false,
          "name": "_policyId",
          "type": "uint256"
        },
        {
          "indexed": false,
          "name": "hexQueryId",
          "type": "bytes32"
        },
        {
          "indexed": false,
          "name": "_result",
          "type": "string"
        },
        {
          "indexed": false,
          "name": "hexProof",
          "type": "bytes"
        }
      ],
      "name": "LogOraclizeCallback",
      "type": "event"
    },
    {
      "anonymous": false,
      "inputs": [
        {
          "indexed": false,
          "name": "_policyId",
          "type": "uint256"
        },
        {
          "indexed": false,
          "name": "_policyState",
          "type": "uint8"
        },
        {
          "indexed": false,
          "name": "_stateTime",
          "type": "uint256"
        },
        {
          "indexed": false,
          "name": "_stateMessage",
          "type": "bytes32"
        }
      ],
      "name": "LogSetState",
      "type": "event"
    },
    {
      "anonymous": false,
      "inputs": [
        {
          "indexed": false,
          "name": "_policyId",
          "type": "uint256"
        },
        {
          "indexed": false,
          "name": "_address",
          "type": "address"
        },
        {
          "indexed": false,
          "name": "_externalId",
          "type": "bytes32"
        }
      ],
      "name": "LogExternal",
      "type": "event"
    }
  ],
  "bytecode": "0x606060405260c0604051908101604090815260008083526020830181905290820152601e606082015260326080820181905260a08201526100449060029060066100b1565b50341561005057600080fd5b6040516020806109a583398101604052808051915061007d9050816401000000006107cb61008482021704565b5050610165565b60008054600160a060020a03909216600160a060020a031992831681179091556001805490921617815590565b6001830191839082156101345791602002820160005b8382111561010557835183826101000a81548160ff021916908360ff16021790555092602001926001016020816000010492830192600103026100c7565b80156101325782816101000a81549060ff0219169055600101602081600001049283019260010302610105565b505b50610140929150610144565b5090565b61016291905b8082111561014057805460ff1916815560010161014a565b90565b610831806101746000396000f3006060604052600436106100a05763ffffffff60e060020a6000350416632b68b9c681146100a55780633ebd6092146100ba5780636bf2606a146100f3578063983c7630146101185780639f8abede14610142578063c28b457714610172578063c3d08f061461018e578063c8b91531146101b3578063d6a43a3e146101c6578063e0d6d530146101e7578063f77c4791146101fa578063f786becd14610229575b600080fd5b34156100b057600080fd5b6100b861023c565b005b34156100c557600080fd5b6100df60ff60043516600160a060020a0360243516610265565b604051901515815260200160405180910390f35b34156100fe57600080fd5b6101066102f6565b60405190815260200160405180910390f35b341561012357600080fd5b6100b860ff60043516600160a060020a036024351660443515156102fb565b341561014d57600080fd5b6100b8600160a060020a036004358116906024351660ff604435166064351515610380565b341561017d57600080fd5b6100b860ff600435166024356104ae565b341561019957600080fd5b6100b860ff60043516600160a060020a0360243516610593565b34156101be57600080fd5b6101066105f8565b34156101d157600080fd5b6100b860ff6004351660243560443515156105fd565b34156101f257600080fd5b6100b86106d1565b341561020557600080fd5b61020d610744565b604051600160a060020a03909116815260200160405180910390f35b341561023457600080fd5b610106610753565b60005433600160a060020a0390811691161461025757600080fd5b600054600160a060020a0316ff5b600354600090600160a060020a031663d45efad5338486856040516020015260405160e060020a63ffffffff8616028152600160a060020a03938416600482015291909216602482015260ff9091166044820152606401602060405180830381600087803b15156102d557600080fd5b6102c65a03f115156102e657600080fd5b5050506040518051949350505050565b600281565b600354600160a060020a031663c58a33213384868560405160e060020a63ffffffff8716028152600160a060020a03948516600482015292909316602483015260ff1660448201529015156064820152608401600060405180830381600087803b151561036757600080fd5b6102c65a03f1151561037857600080fd5b505050505050565b600154600160a060020a031663e16c7d9860006040516020015260405160e060020a63ffffffff83160281527f46442e456d657267656e637900000000000000000000000000000000000000006004820152602401602060405180830381600087803b15156103ee57600080fd5b6102c65a03f115156103ff57600080fd5b50505060405180519050600160a060020a031633600160a060020a031614151561042857600080fd5b600354600160a060020a031663c58a33218585858560405160e060020a63ffffffff8716028152600160a060020a03948516600482015292909316602483015260ff1660448201529015156064820152608401600060405180830381600087803b151561049457600080fd5b6102c65a03f115156104a557600080fd5b50505050505050565b600354600154600160a060020a039182169163ca2d553a9133911663e16c7d988560006040516020015260405160e060020a63ffffffff84160281526004810191909152602401602060405180830381600087803b151561050e57600080fd5b6102c65a03f1151561051f57600080fd5b505050604051805190508560405160e060020a63ffffffff8616028152600160a060020a03938416600482015291909216602482015260ff9091166044820152606401600060405180830381600087803b151561057b57600080fd5b6102c65a03f1151561058c57600080fd5b5050505050565b600354600160a060020a031663ca2d553a33838560405160e060020a63ffffffff8616028152600160a060020a03938416600482015291909216602482015260ff9091166044820152606401600060405180830381600087803b151561057b57600080fd5b600081565b600354600154600160a060020a039182169163c58a33219133911663e16c7d988660006040516020015260405160e060020a63ffffffff84160281526004810191909152602401602060405180830381600087803b151561065d57600080fd5b6102c65a03f1151561066e57600080fd5b50505060405180519050868560405160e060020a63ffffffff8716028152600160a060020a03948516600482015292909316602483015260ff1660448201529015156064820152608401600060405180830381600087803b151561036757600080fd5b60005433600160a060020a039081169116146106ec57600080fd5b6107157f46442e4461746162617365000000000000000000000000000000000000000000610758565b6003805473ffffffffffffffffffffffffffffffffffffffff1916600160a060020a0392909216919091179055565b600054600160a060020a031681565b600181565b600154600090600160a060020a031663e16c7d9883836040516020015260405160e060020a63ffffffff84160281526004810191909152602401602060405180830381600087803b15156107ab57600080fd5b6102c65a03f115156107bc57600080fd5b50505060405180519392505050565b60008054600160a060020a0390921673ffffffffffffffffffffffffffffffffffffffff19928316811790915560018054909216178155905600a165627a7a723058204c4a860f8db7b7bb35d3fc3ed44ea9537022a35d7e70f069adb128aee76e08150029",
  "source": "/**\n * FlightDelay with Oraclized Underwriting and Payout\n *\n * @description\tAccess controller\n * @copyright (c) 2017 etherisc GmbH\n * @author Christoph Mussenbrock\n */\n\npragma solidity ^0.4.11;\n\nimport \"./FlightDelayControlledContract.sol\";\nimport \"./FlightDelayDatabaseInterface.sol\";\nimport \"./FlightDelayConstants.sol\";\n\n\ncontract FlightDelayAccessController is FlightDelayControlledContract, FlightDelayConstants {\n\n    FlightDelayDatabaseInterface FD_DB;\n\n    modifier onlyEmergency() {\n        require(msg.sender == FD_CI.getContract('FD.Emergency'));\n        _;\n    }\n\n    function FlightDelayAccessController(address _controller) public {\n        setController(_controller);\n    }\n\n    function setContracts() public onlyController {\n        FD_DB = FlightDelayDatabaseInterface(getContract(\"FD.Database\"));\n    }\n\n    function setPermissionById(uint8 _perm, bytes32 _id) public {\n        FD_DB.setAccessControl(msg.sender, FD_CI.getContract(_id), _perm);\n    }\n\n    function fixPermission(address _target, address _accessor, uint8 _perm, bool _access) public onlyEmergency {\n        FD_DB.setAccessControl(\n            _target,\n            _accessor,\n            _perm,\n            _access\n        );\n\n    }\n\n    function setPermissionById(uint8 _perm, bytes32 _id, bool _access) public {\n        FD_DB.setAccessControl(\n            msg.sender,\n            FD_CI.getContract(_id),\n            _perm,\n            _access\n        );\n    }\n\n    function setPermissionByAddress(uint8 _perm, address _addr) public {\n        FD_DB.setAccessControl(msg.sender, _addr, _perm);\n    }\n\n    function setPermissionByAddress(uint8 _perm, address _addr, bool _access) public {\n        FD_DB.setAccessControl(\n            msg.sender,\n            _addr,\n            _perm,\n            _access\n        );\n    }\n\n    function checkPermission(uint8 _perm, address _addr) public returns (bool _success) {\n// --> debug-mode\n//            // LogUint(\"_perm\", _perm);\n//            // LogAddress(\"_addr\", _addr);\n//            // LogAddress(\"msg.sender\", msg.sender);\n//            // LogBool(\"getAccessControl\", FD_DB.getAccessControl(msg.sender, _addr, _perm));\n// <-- debug-mode\n        _success = FD_DB.getAccessControl(msg.sender, _addr, _perm);\n    }\n}\n",
  "sourcePath": "/Users/A/Data/Altoros/1244-Etherisc/repos/flightdelay/contracts/FlightDelayAccessController.sol",
  "compiler": {
    "name": "solc",
    "version": "0.4.18+commit.9cf6e910.Emscripten.clang"
  },
  "schemaVersion": "1.0.1",
  "updatedAt": "2018-05-08T18:38:14.893Z"
}