{
  "contractName": "FlightDelayDatabase",
  "abi": [
    {
      "constant": false,
      "inputs": [
        {
          "name": "_timestamp",
          "type": "uint256"
        }
      ],
      "name": "setMinDepartureLim",
      "outputs": [
        {
          "name": "_success",
          "type": "bool"
        }
      ],
      "payable": false,
      "stateMutability": "nonpayable",
      "type": "function"
    },
    {
      "constant": false,
      "inputs": [
        {
          "name": "_policyId",
          "type": "uint256"
        },
        {
          "name": "_calculatedPayout",
          "type": "uint256"
        },
        {
          "name": "_actualPayout",
          "type": "uint256"
        }
      ],
      "name": "setPayouts",
      "outputs": [],
      "payable": false,
      "stateMutability": "nonpayable",
      "type": "function"
    },
    {
      "constant": true,
      "inputs": [
        {
          "name": "",
          "type": "uint256"
        }
      ],
      "name": "validOrigins",
      "outputs": [
        {
          "name": "",
          "type": "bytes32"
        }
      ],
      "payable": false,
      "stateMutability": "view",
      "type": "function"
    },
    {
      "constant": true,
      "inputs": [
        {
          "name": "",
          "type": "uint256"
        }
      ],
      "name": "ledger",
      "outputs": [
        {
          "name": "",
          "type": "int256"
        }
      ],
      "payable": false,
      "stateMutability": "view",
      "type": "function"
    },
    {
      "constant": false,
      "inputs": [
        {
          "name": "_carrierFlightNumber",
          "type": "bytes32"
        },
        {
          "name": "_departureYearMonthDay",
          "type": "bytes32"
        },
        {
          "name": "_arrivalTime",
          "type": "uint256"
        }
      ],
      "name": "createUpdateRisk",
      "outputs": [
        {
          "name": "_riskId",
          "type": "bytes32"
        }
      ],
      "payable": false,
      "stateMutability": "nonpayable",
      "type": "function"
    },
    {
      "constant": true,
      "inputs": [
        {
          "name": "",
          "type": "address"
        },
        {
          "name": "",
          "type": "address"
        },
        {
          "name": "",
          "type": "uint8"
        }
      ],
      "name": "accessControl",
      "outputs": [
        {
          "name": "",
          "type": "bool"
        }
      ],
      "payable": false,
      "stateMutability": "view",
      "type": "function"
    },
    {
      "constant": false,
      "inputs": [
        {
          "name": "_index",
          "type": "uint8"
        }
      ],
      "name": "getLedger",
      "outputs": [
        {
          "name": "_value",
          "type": "int256"
        }
      ],
      "payable": false,
      "stateMutability": "nonpayable",
      "type": "function"
    },
    {
      "constant": false,
      "inputs": [
        {
          "name": "_policyId",
          "type": "uint256"
        },
        {
          "name": "_delay",
          "type": "uint8"
        },
        {
          "name": "_delayInMinutes",
          "type": "uint256"
        }
      ],
      "name": "setDelay",
      "outputs": [],
      "payable": false,
      "stateMutability": "nonpayable",
      "type": "function"
    },
    {
      "constant": false,
      "inputs": [
        {
          "name": "_origin",
          "type": "bytes32"
        }
      ],
      "name": "addOrigin",
      "outputs": [
        {
          "name": "_index",
          "type": "uint256"
        }
      ],
      "payable": false,
      "stateMutability": "nonpayable",
      "type": "function"
    },
    {
      "constant": false,
      "inputs": [],
      "name": "destruct",
      "outputs": [],
      "payable": false,
      "stateMutability": "nonpayable",
      "type": "function"
    },
    {
      "constant": false,
      "inputs": [
        {
          "name": "_queryId",
          "type": "bytes32"
        },
        {
          "name": "_policyId",
          "type": "uint256"
        },
        {
          "name": "_oraclizeState",
          "type": "uint8"
        },
        {
          "name": "_oraclizeTime",
          "type": "uint256"
        }
      ],
      "name": "createOraclizeCallback",
      "outputs": [],
      "payable": false,
      "stateMutability": "nonpayable",
      "type": "function"
    },
    {
      "constant": true,
      "inputs": [],
      "name": "MAX_DEPARTURE_LIM",
      "outputs": [
        {
          "name": "",
          "type": "uint256"
        }
      ],
      "payable": false,
      "stateMutability": "view",
      "type": "function"
    },
    {
      "constant": true,
      "inputs": [
        {
          "name": "",
          "type": "address"
        }
      ],
      "name": "customers",
      "outputs": [
        {
          "name": "customerExternalId",
          "type": "bytes32"
        },
        {
          "name": "identityConfirmed",
          "type": "bool"
        }
      ],
      "payable": false,
      "stateMutability": "view",
      "type": "function"
    },
    {
      "constant": false,
      "inputs": [
        {
          "name": "_index",
          "type": "uint8"
        },
        {
          "name": "_value",
          "type": "int256"
        }
      ],
      "name": "setLedger",
      "outputs": [],
      "payable": false,
      "stateMutability": "nonpayable",
      "type": "function"
    },
    {
      "constant": false,
      "inputs": [
        {
          "name": "_timestamp",
          "type": "uint256"
        }
      ],
      "name": "setMaxDepartureLim",
      "outputs": [
        {
          "name": "_success",
          "type": "bool"
        }
      ],
      "payable": false,
      "stateMutability": "nonpayable",
      "type": "function"
    },
    {
      "constant": true,
      "inputs": [
        {
          "name": "",
          "type": "address"
        },
        {
          "name": "",
          "type": "uint256"
        }
      ],
      "name": "customerPolicies",
      "outputs": [
        {
          "name": "",
          "type": "uint256"
        }
      ],
      "payable": false,
      "stateMutability": "view",
      "type": "function"
    },
    {
      "constant": true,
      "inputs": [
        {
          "name": "",
          "type": "bytes32"
        },
        {
          "name": "",
          "type": "uint256"
        }
      ],
      "name": "extCustomerPolicies",
      "outputs": [
        {
          "name": "",
          "type": "uint256"
        }
      ],
      "payable": false,
      "stateMutability": "view",
      "type": "function"
    },
    {
      "constant": false,
      "inputs": [
        {
          "name": "_policyId",
          "type": "uint256"
        },
        {
          "name": "_state",
          "type": "uint8"
        },
        {
          "name": "_stateTime",
          "type": "uint256"
        },
        {
          "name": "_stateMessage",
          "type": "bytes32"
        }
      ],
      "name": "setState",
      "outputs": [],
      "payable": false,
      "stateMutability": "nonpayable",
      "type": "function"
    },
    {
      "constant": true,
      "inputs": [
        {
          "name": "",
          "type": "bytes32"
        }
      ],
      "name": "oraclizeCallbacks",
      "outputs": [
        {
          "name": "policyId",
          "type": "uint256"
        },
        {
          "name": "oState",
          "type": "uint8"
        },
        {
          "name": "oraclizeTime",
          "type": "uint256"
        }
      ],
      "payable": false,
      "stateMutability": "view",
      "type": "function"
    },
    {
      "constant": false,
      "inputs": [
        {
          "name": "_policyId",
          "type": "uint256"
        }
      ],
      "name": "getPolicyState",
      "outputs": [
        {
          "name": "_state",
          "type": "uint8"
        }
      ],
      "payable": false,
      "stateMutability": "nonpayable",
      "type": "function"
    },
    {
      "constant": true,
      "inputs": [],
      "name": "MIN_DEPARTURE_LIM",
      "outputs": [
        {
          "name": "",
          "type": "uint256"
        }
      ],
      "payable": false,
      "stateMutability": "view",
      "type": "function"
    },
    {
      "constant": false,
      "inputs": [
        {
          "name": "_index",
          "type": "uint256"
        }
      ],
      "name": "removeOriginByIndex",
      "outputs": [
        {
          "name": "_success",
          "type": "bool"
        }
      ],
      "payable": false,
      "stateMutability": "nonpayable",
      "type": "function"
    },
    {
      "constant": false,
      "inputs": [
        {
          "name": "_origin",
          "type": "bytes32"
        }
      ],
      "name": "addDestination",
      "outputs": [
        {
          "name": "_index",
          "type": "uint256"
        }
      ],
      "payable": false,
      "stateMutability": "nonpayable",
      "type": "function"
    },
    {
      "constant": false,
      "inputs": [
        {
          "name": "_queryId",
          "type": "bytes32"
        }
      ],
      "name": "getOraclizePolicyId",
      "outputs": [
        {
          "name": "_policyId",
          "type": "uint256"
        }
      ],
      "payable": false,
      "stateMutability": "nonpayable",
      "type": "function"
    },
    {
      "constant": false,
      "inputs": [
        {
          "name": "_policyId",
          "type": "uint256"
        }
      ],
      "name": "getPolicyData",
      "outputs": [
        {
          "name": "_customer",
          "type": "address"
        },
        {
          "name": "_weight",
          "type": "uint256"
        },
        {
          "name": "_premium",
          "type": "uint256"
        }
      ],
      "payable": false,
      "stateMutability": "nonpayable",
      "type": "function"
    },
    {
      "constant": false,
      "inputs": [
        {
          "name": "_queryId",
          "type": "bytes32"
        }
      ],
      "name": "getOraclizeCallback",
      "outputs": [
        {
          "name": "_policyId",
          "type": "uint256"
        },
        {
          "name": "_oraclizeTime",
          "type": "uint256"
        }
      ],
      "payable": false,
      "stateMutability": "nonpayable",
      "type": "function"
    },
    {
      "constant": false,
      "inputs": [
        {
          "name": "_riskId",
          "type": "bytes32"
        },
        {
          "name": "_cumulatedWeightedPremium",
          "type": "uint256"
        },
        {
          "name": "_premiumMultiplier",
          "type": "uint256"
        }
      ],
      "name": "setPremiumFactors",
      "outputs": [],
      "payable": false,
      "stateMutability": "nonpayable",
      "type": "function"
    },
    {
      "constant": true,
      "inputs": [
        {
          "name": "",
          "type": "bytes32"
        }
      ],
      "name": "risks",
      "outputs": [
        {
          "name": "carrierFlightNumber",
          "type": "bytes32"
        },
        {
          "name": "departureYearMonthDay",
          "type": "bytes32"
        },
        {
          "name": "arrivalTime",
          "type": "uint256"
        },
        {
          "name": "delayInMinutes",
          "type": "uint256"
        },
        {
          "name": "delay",
          "type": "uint8"
        },
        {
          "name": "cumulatedWeightedPremium",
          "type": "uint256"
        },
        {
          "name": "premiumMultiplier",
          "type": "uint256"
        }
      ],
      "payable": false,
      "stateMutability": "view",
      "type": "function"
    },
    {
      "constant": false,
      "inputs": [
        {
          "name": "_index",
          "type": "uint256"
        }
      ],
      "name": "removeDestinationByIndex",
      "outputs": [
        {
          "name": "_success",
          "type": "bool"
        }
      ],
      "payable": false,
      "stateMutability": "nonpayable",
      "type": "function"
    },
    {
      "constant": false,
      "inputs": [
        {
          "name": "_queryId",
          "type": "bytes32"
        },
        {
          "name": "_riskId",
          "type": "bytes32"
        },
        {
          "name": "_offset",
          "type": "uint256"
        }
      ],
      "name": "checkTime",
      "outputs": [
        {
          "name": "_result",
          "type": "bool"
        }
      ],
      "payable": false,
      "stateMutability": "nonpayable",
      "type": "function"
    },
    {
      "constant": false,
      "inputs": [
        {
          "name": "_riskId",
          "type": "bytes32"
        }
      ],
      "name": "getPremiumFactors",
      "outputs": [
        {
          "name": "_cumulatedWeightedPremium",
          "type": "uint256"
        },
        {
          "name": "_premiumMultiplier",
          "type": "uint256"
        }
      ],
      "payable": false,
      "stateMutability": "nonpayable",
      "type": "function"
    },
    {
      "constant": true,
      "inputs": [],
      "name": "countDestinations",
      "outputs": [
        {
          "name": "_length",
          "type": "uint256"
        }
      ],
      "payable": false,
      "stateMutability": "view",
      "type": "function"
    },
    {
      "constant": true,
      "inputs": [],
      "name": "countOrigins",
      "outputs": [
        {
          "name": "_length",
          "type": "uint256"
        }
      ],
      "payable": false,
      "stateMutability": "view",
      "type": "function"
    },
    {
      "constant": true,
      "inputs": [
        {
          "name": "_i",
          "type": "uint256"
        }
      ],
      "name": "getOriginByIndex",
      "outputs": [
        {
          "name": "_origin",
          "type": "bytes32"
        }
      ],
      "payable": false,
      "stateMutability": "view",
      "type": "function"
    },
    {
      "constant": false,
      "inputs": [
        {
          "name": "_policyId",
          "type": "uint256"
        }
      ],
      "name": "getCustomerPremium",
      "outputs": [
        {
          "name": "_customer",
          "type": "address"
        },
        {
          "name": "_premium",
          "type": "uint256"
        }
      ],
      "payable": false,
      "stateMutability": "nonpayable",
      "type": "function"
    },
    {
      "constant": true,
      "inputs": [
        {
          "name": "",
          "type": "uint256"
        }
      ],
      "name": "validDestinations",
      "outputs": [
        {
          "name": "",
          "type": "bytes32"
        }
      ],
      "payable": false,
      "stateMutability": "view",
      "type": "function"
    },
    {
      "constant": false,
      "inputs": [
        {
          "name": "_contract",
          "type": "address"
        },
        {
          "name": "_caller",
          "type": "address"
        },
        {
          "name": "_perm",
          "type": "uint8"
        },
        {
          "name": "_access",
          "type": "bool"
        }
      ],
      "name": "setAccessControl",
      "outputs": [],
      "payable": false,
      "stateMutability": "nonpayable",
      "type": "function"
    },
    {
      "constant": false,
      "inputs": [
        {
          "name": "_contract",
          "type": "address"
        },
        {
          "name": "_caller",
          "type": "address"
        },
        {
          "name": "_perm",
          "type": "uint8"
        }
      ],
      "name": "setAccessControl",
      "outputs": [],
      "payable": false,
      "stateMutability": "nonpayable",
      "type": "function"
    },
    {
      "constant": false,
      "inputs": [
        {
          "name": "_riskId",
          "type": "bytes32"
        }
      ],
      "name": "getRiskParameters",
      "outputs": [
        {
          "name": "_carrierFlightNumber",
          "type": "bytes32"
        },
        {
          "name": "_departureYearMonthDay",
          "type": "bytes32"
        },
        {
          "name": "_arrivalTime",
          "type": "uint256"
        }
      ],
      "payable": false,
      "stateMutability": "nonpayable",
      "type": "function"
    },
    {
      "constant": true,
      "inputs": [
        {
          "name": "",
          "type": "uint256"
        }
      ],
      "name": "policies",
      "outputs": [
        {
          "name": "customer",
          "type": "address"
        },
        {
          "name": "premium",
          "type": "uint256"
        },
        {
          "name": "riskId",
          "type": "bytes32"
        },
        {
          "name": "weight",
          "type": "uint256"
        },
        {
          "name": "calculatedPayout",
          "type": "uint256"
        },
        {
          "name": "actualPayout",
          "type": "uint256"
        },
        {
          "name": "state",
          "type": "uint8"
        },
        {
          "name": "stateTime",
          "type": "uint256"
        },
        {
          "name": "stateMessage",
          "type": "bytes32"
        },
        {
          "name": "proof",
          "type": "bytes"
        },
        {
          "name": "currency",
          "type": "uint8"
        },
        {
          "name": "customerExternalId",
          "type": "bytes32"
        }
      ],
      "payable": false,
      "stateMutability": "view",
      "type": "function"
    },
    {
      "constant": false,
      "inputs": [
        {
          "name": "_contract",
          "type": "address"
        },
        {
          "name": "_caller",
          "type": "address"
        },
        {
          "name": "_perm",
          "type": "uint8"
        }
      ],
      "name": "getAccessControl",
      "outputs": [
        {
          "name": "_allowed",
          "type": "bool"
        }
      ],
      "payable": false,
      "stateMutability": "nonpayable",
      "type": "function"
    },
    {
      "constant": false,
      "inputs": [],
      "name": "setContracts",
      "outputs": [],
      "payable": false,
      "stateMutability": "nonpayable",
      "type": "function"
    },
    {
      "constant": false,
      "inputs": [
        {
          "name": "_policyId",
          "type": "uint256"
        }
      ],
      "name": "getRiskId",
      "outputs": [
        {
          "name": "_riskId",
          "type": "bytes32"
        }
      ],
      "payable": false,
      "stateMutability": "nonpayable",
      "type": "function"
    },
    {
      "constant": true,
      "inputs": [
        {
          "name": "_i",
          "type": "uint256"
        }
      ],
      "name": "getDestinationByIndex",
      "outputs": [
        {
          "name": "_destination",
          "type": "bytes32"
        }
      ],
      "payable": false,
      "stateMutability": "view",
      "type": "function"
    },
    {
      "constant": true,
      "inputs": [],
      "name": "controller",
      "outputs": [
        {
          "name": "",
          "type": "address"
        }
      ],
      "payable": false,
      "stateMutability": "view",
      "type": "function"
    },
    {
      "constant": false,
      "inputs": [
        {
          "name": "_customer",
          "type": "address"
        },
        {
          "name": "_premium",
          "type": "uint256"
        },
        {
          "name": "_currency",
          "type": "uint8"
        },
        {
          "name": "_customerExternalId",
          "type": "bytes32"
        },
        {
          "name": "_riskId",
          "type": "bytes32"
        }
      ],
      "name": "createPolicy",
      "outputs": [
        {
          "name": "_policyId",
          "type": "uint256"
        }
      ],
      "payable": false,
      "stateMutability": "nonpayable",
      "type": "function"
    },
    {
      "constant": false,
      "inputs": [
        {
          "name": "_policyId",
          "type": "uint256"
        },
        {
          "name": "_weight",
          "type": "uint256"
        },
        {
          "name": "_proof",
          "type": "bytes"
        }
      ],
      "name": "setWeight",
      "outputs": [],
      "payable": false,
      "stateMutability": "nonpayable",
      "type": "function"
    },
    {
      "inputs": [
        {
          "name": "_controller",
          "type": "address"
        }
      ],
      "payable": false,
      "stateMutability": "nonpayable",
      "type": "constructor"
    },
    {
      "anonymous": false,
      "inputs": [
        {
          "indexed": false,
          "name": "_policyId",
          "type": "uint256"
        },
        {
          "indexed": false,
          "name": "_customer",
          "type": "address"
        },
        {
          "indexed": false,
          "name": "strCarrierFlightNumber",
          "type": "bytes32"
        },
        {
          "indexed": false,
          "name": "ethPremium",
          "type": "uint256"
        }
      ],
      "name": "LogPolicyApplied",
      "type": "event"
    },
    {
      "anonymous": false,
      "inputs": [
        {
          "indexed": false,
          "name": "_policyId",
          "type": "uint256"
        },
        {
          "indexed": false,
          "name": "_statistics0",
          "type": "uint256"
        },
        {
          "indexed": false,
          "name": "_statistics1",
          "type": "uint256"
        },
        {
          "indexed": false,
          "name": "_statistics2",
          "type": "uint256"
        },
        {
          "indexed": false,
          "name": "_statistics3",
          "type": "uint256"
        },
        {
          "indexed": false,
          "name": "_statistics4",
          "type": "uint256"
        },
        {
          "indexed": false,
          "name": "_statistics5",
          "type": "uint256"
        }
      ],
      "name": "LogPolicyAccepted",
      "type": "event"
    },
    {
      "anonymous": false,
      "inputs": [
        {
          "indexed": false,
          "name": "_policyId",
          "type": "uint256"
        },
        {
          "indexed": false,
          "name": "ethAmount",
          "type": "uint256"
        }
      ],
      "name": "LogPolicyPaidOut",
      "type": "event"
    },
    {
      "anonymous": false,
      "inputs": [
        {
          "indexed": false,
          "name": "_policyId",
          "type": "uint256"
        }
      ],
      "name": "LogPolicyExpired",
      "type": "event"
    },
    {
      "anonymous": false,
      "inputs": [
        {
          "indexed": false,
          "name": "_policyId",
          "type": "uint256"
        },
        {
          "indexed": false,
          "name": "strReason",
          "type": "bytes32"
        }
      ],
      "name": "LogPolicyDeclined",
      "type": "event"
    },
    {
      "anonymous": false,
      "inputs": [
        {
          "indexed": false,
          "name": "_policyId",
          "type": "uint256"
        },
        {
          "indexed": false,
          "name": "strReason",
          "type": "bytes32"
        }
      ],
      "name": "LogPolicyManualPayout",
      "type": "event"
    },
    {
      "anonymous": false,
      "inputs": [
        {
          "indexed": false,
          "name": "_recipient",
          "type": "address"
        },
        {
          "indexed": false,
          "name": "_from",
          "type": "uint8"
        },
        {
          "indexed": false,
          "name": "ethAmount",
          "type": "uint256"
        }
      ],
      "name": "LogSendFunds",
      "type": "event"
    },
    {
      "anonymous": false,
      "inputs": [
        {
          "indexed": false,
          "name": "_sender",
          "type": "address"
        },
        {
          "indexed": false,
          "name": "_to",
          "type": "uint8"
        },
        {
          "indexed": false,
          "name": "ethAmount",
          "type": "uint256"
        }
      ],
      "name": "LogReceiveFunds",
      "type": "event"
    },
    {
      "anonymous": false,
      "inputs": [
        {
          "indexed": false,
          "name": "_policyId",
          "type": "uint256"
        },
        {
          "indexed": false,
          "name": "strReason",
          "type": "bytes32"
        }
      ],
      "name": "LogSendFail",
      "type": "event"
    },
    {
      "anonymous": false,
      "inputs": [
        {
          "indexed": false,
          "name": "_policyId",
          "type": "uint256"
        },
        {
          "indexed": false,
          "name": "hexQueryId",
          "type": "bytes32"
        },
        {
          "indexed": false,
          "name": "_oraclizeUrl",
          "type": "string"
        },
        {
          "indexed": false,
          "name": "_oraclizeTime",
          "type": "uint256"
        }
      ],
      "name": "LogOraclizeCall",
      "type": "event"
    },
    {
      "anonymous": false,
      "inputs": [
        {
          "indexed": false,
          "name": "_policyId",
          "type": "uint256"
        },
        {
          "indexed": false,
          "name": "hexQueryId",
          "type": "bytes32"
        },
        {
          "indexed": false,
          "name": "_result",
          "type": "string"
        },
        {
          "indexed": false,
          "name": "hexProof",
          "type": "bytes"
        }
      ],
      "name": "LogOraclizeCallback",
      "type": "event"
    },
    {
      "anonymous": false,
      "inputs": [
        {
          "indexed": false,
          "name": "_policyId",
          "type": "uint256"
        },
        {
          "indexed": false,
          "name": "_policyState",
          "type": "uint8"
        },
        {
          "indexed": false,
          "name": "_stateTime",
          "type": "uint256"
        },
        {
          "indexed": false,
          "name": "_stateMessage",
          "type": "bytes32"
        }
      ],
      "name": "LogSetState",
      "type": "event"
    },
    {
      "anonymous": false,
      "inputs": [
        {
          "indexed": false,
          "name": "_policyId",
          "type": "uint256"
        },
        {
          "indexed": false,
          "name": "_address",
          "type": "address"
        },
        {
          "indexed": false,
          "name": "_externalId",
          "type": "bytes32"
        }
      ],
      "name": "LogExternal",
      "type": "event"
    }
  ],
  "bytecode": "0x606060405260c0604051908101604090815260008252600a6020830152601490820152601e606082015260326080820181905260a0820152620000469060069081620000b9565b5034156200005357600080fd5b6040516020806200232b833981016040528080519150620000849050816401000000006200213e6200008c82021704565b505062000177565b60008054600160a060020a03909216600160a060020a031992831681179091556001805490921617815590565b600183019183908215620001415791602002820160005b838211156200011057835183826101000a81548160ff021916908360ff1602179055509260200192600101602081600001049283019260010302620000d0565b80156200013f5782816101000a81549060ff021916905560010160208160000104928301926001030262000110565b505b506200014f92915062000153565b5090565b6200017491905b808211156200014f57805460ff191681556001016200015a565b90565b6121a480620001876000396000f3006060604052600436106102215763ffffffff60e060020a60003504166306d978b281146102265780630d4c8f62146102505780630fd5084a1461026e57806310a7fd7b14610296578063128a1c74146102ac5780631733c3c8146102c8578063196f9aa5146102f357806319a080581461030c578063285c22b11461032b5780632b68b9c6146103415780632ba1e439146103545780632dccba8914610376578063336989ae1461038957806336be2a73146103c25780633cd99b70146103de5780633e79e4c2146103f45780633f31b3ac14610416578063418cf5b11461042f578063426d5ef11461045157806343f46a5c146104995780634ccbd06b146104d35780634f3fc162146104e6578063570e0db5146104fc57806359f02c4d146105125780637a5402e9146105285780637f205c8c14610574578063802de8fc146105a25780638993021b146105be5780639330f97f146106155780639c66452e1461062b5780639d5176fd14610647578063b6a0a1191461065d578063bc9c58f614610670578063be16985614610683578063c168e03714610699578063c4adb406146106d1578063c58a3321146106e7578063ca2d553a14610717578063cdcdb46314610742578063d3e894831461077c578063d45efad51461089a578063e0d6d530146108c5578063eb807339146108d8578063f2e55ac1146108ee578063f77c479114610904578063f92a69ec14610933578063ffe280ee14610961575b600080fd5b341561023157600080fd5b61023c6004356109bd565b604051901515815260200160405180910390f35b341561025b57600080fd5b61026c600435602435604435610a51565b005b341561027957600080fd5b610284600435610b0c565b60405190815260200160405180910390f35b34156102a157600080fd5b610284600435610b2b565b34156102b757600080fd5b610284600435602435604435610b3f565b34156102d357600080fd5b61023c600160a060020a036004358116906024351660ff60443516610c2b565b34156102fe57600080fd5b61028460ff60043516610c51565b341561031757600080fd5b61026c60043560ff60243516604435610c6b565b341561033657600080fd5b610284600435610d4e565b341561034c57600080fd5b61026c610e06565b341561035f57600080fd5b61026c60043560243560ff60443516606435610e2f565b341561038157600080fd5b610284610f29565b341561039457600080fd5b6103a8600160a060020a0360043516610f2f565b604051918252151560208201526040908101905180910390f35b34156103cd57600080fd5b61026c60ff60043516602435610f4b565b34156103e957600080fd5b61023c600435611053565b34156103ff57600080fd5b610284600160a060020a03600435166024356110e7565b341561042157600080fd5b610284600435602435611115565b341561043a57600080fd5b61026c60043560ff60243516604435606435611130565b341561045c57600080fd5b61046760043561126d565b6040518084815260200183600181111561047d57fe5b60ff168152602001828152602001935050505060405180910390f35b34156104a457600080fd5b6104af600435611291565b604051808260068111156104bf57fe5b60ff16815260200191505060405180910390f35b34156104de57600080fd5b6102846112c1565b34156104f157600080fd5b61023c6004356112c7565b341561050757600080fd5b6102846004356113c1565b341561051d57600080fd5b610284600435611479565b341561053357600080fd5b61053e60043561148b565b6040518084600160a060020a0316600160a060020a03168152602001838152602001828152602001935050505060405180910390f35b341561057f57600080fd5b61058a6004356114d4565b60405191825260208201526040908101905180910390f35b34156105ad57600080fd5b61026c6004356024356044356114ee565b34156105c957600080fd5b6105d4600435611597565b6040519687526020870195909552604080870194909452606086019290925260ff16608085015260a084015260c083019190915260e0909101905180910390f35b341561062057600080fd5b61023c6004356115d8565b341561063657600080fd5b61023c6004356024356044356116c6565b341561065257600080fd5b61058a6004356116f2565b341561066857600080fd5b61028461170f565b341561067b57600080fd5b610284611715565b341561068e57600080fd5b61028460043561171b565b34156106a457600080fd5b6106af60043561173f565b604051600160a060020a03909216825260208201526040908101905180910390f35b34156106dc57600080fd5b610284600435611780565b34156106f257600080fd5b61026c600160a060020a036004358116906024351660ff60443516606435151561178e565b341561072257600080fd5b61026c600160a060020a036004358116906024351660ff6044351661187f565b341561074d57600080fd5b61075860043561188c565b60405192835260208301919091526040808301919091526060909101905180910390f35b341561078757600080fd5b6107926004356118ab565b604051600160a060020a038d168152602081018c9052604081018b9052606081018a90526080810189905260a0810188905260c081018760068111156107d457fe5b60ff168152602081018790526040810186905260608101906080018460038111156107fb57fe5b60ff16815260208101849052604083820381018352865460026000196001831615610100020190911604908201819052606090910190869080156108805780601f1061085557610100808354040283529160200191610880565b820191906000526020600020905b81548152906001019060200180831161086357829003601f168201915b50509d505050505050505050505050505060405180910390f35b34156108a557600080fd5b61023c600160a060020a036004358116906024351660ff6044351661192b565b34156108d057600080fd5b61026c611965565b34156108e357600080fd5b610284600435611c63565b34156108f957600080fd5b610284600435611c90565b341561090f57600080fd5b610917611ca1565b604051600160a060020a03909116815260200160405180910390f35b341561093e57600080fd5b610284600160a060020a036004351660243560ff60443516606435608435611cb0565b341561096c57600080fd5b61026c600480359060248035919060649060443590810190830135806020601f82018190048102016040519081016040528181529291906020840183838082843750949650611e3995505050505050565b601854600090600160a060020a0316633ebd6092606633846040516020015260405160e060020a63ffffffff851602815260ff9092166004830152600160a060020a03166024820152604401602060405180830381600087803b1515610a2257600080fd5b6102c65a03f11515610a3357600080fd5b505050604051805190501515610a4857600080fd5b50600755600190565b601854600090600160a060020a0316633ebd6092606533846040516020015260405160e060020a63ffffffff851602815260ff9092166004830152600160a060020a03166024820152604401602060405180830381600087803b1515610ab657600080fd5b6102c65a03f11515610ac757600080fd5b505050604051805190501515610adc57600080fd5b600b805485908110610aea57fe5b60009182526020909120600c9091020160048101939093555060059091015550565b6009805482908110610b1a57fe5b600091825260209091200154905081565b60128160068110610b3857fe5b0154905081565b6018546000908190600160a060020a0316633ebd6092606533846040516020015260405160e060020a63ffffffff851602815260ff9092166004830152600160a060020a03166024820152604401602060405180830381600087803b1515610ba657600080fd5b6102c65a03f11515610bb757600080fd5b505050604051805190501515610bcc57600080fd5b8484846040519283526020830191909152604080830191909152606090910190519081900390206000818152601060205260409020600681015491935091501515610c235784815560018101849055600281018390555b509392505050565b601160209081526000938452604080852082529284528284209052825290205460ff1681565b6000601260ff831660068110610c6357fe5b015492915050565b601854600090600160a060020a0316633ebd6092606533846040516020015260405160e060020a63ffffffff851602815260ff9092166004830152600160a060020a03166024820152604401602060405180830381600087803b1515610cd057600080fd5b6102c65a03f11515610ce157600080fd5b505050604051805190501515610cf657600080fd5b60106000600b86815481101515610d0957fe5b60009182526020808320600c92909202909101600201548352820192909252604001902060048101805460ff191660ff95909516949094179093555060039091015550565b601854600090600160a060020a0316633ebd6092606633846040516020015260405160e060020a63ffffffff851602815260ff9092166004830152600160a060020a03166024820152604401602060405180830381600087803b1515610db357600080fd5b6102c65a03f11515610dc457600080fd5b505050604051805190501515610dd957600080fd5b6009805460018101610deb8382611f7b565b50600091825260209091200191909155506009546000190190565b60005433600160a060020a03908116911614610e2157600080fd5b600054600160a060020a0316ff5b601854600160a060020a0316633ebd609260653360006040516020015260405160e060020a63ffffffff851602815260ff9092166004830152600160a060020a03166024820152604401602060405180830381600087803b1515610e9257600080fd5b6102c65a03f11515610ea357600080fd5b505050604051805190501515610eb857600080fd5b606060405190810160405280848152602001836001811115610ed657fe5b815260209081018390526000868152600f9091526040902081518155602082015160018083018054909160ff19909116908381811115610f1257fe5b021790555060408201516002909101555050505050565b60085481565b600d602052600090815260409020805460019091015460ff1682565b601854600090600160a060020a0316633ebd6092606533846040516020015260405160e060020a63ffffffff851602815260ff9092166004830152600160a060020a03166024820152604401602060405180830381600087803b1515610fb057600080fd5b6102c65a03f11515610fc157600080fd5b505050604051805190501515610fd657600080fd5b601260ff841660068110610fe657fe5b0154905081601260ff851660068110610ffb57fe5b0180549091019055600082121561102b5780601260ff85166006811061101d57fe5b01541261102657fe5b61104e565b600082131561104e5780601260ff85166006811061104557fe5b01541361104e57fe5b505050565b601854600090600160a060020a0316633ebd6092606633846040516020015260405160e060020a63ffffffff851602815260ff9092166004830152600160a060020a03166024820152604401602060405180830381600087803b15156110b857600080fd5b6102c65a03f115156110c957600080fd5b5050506040518051905015156110de57600080fd5b50600855600190565b600e6020528160005260406000208181548110151561110257fe5b6000918252602090912001549150829050565b600c6020528160005260406000208181548110151561110257fe5b601854600090600160a060020a0316633ebd6092606533846040516020015260405160e060020a63ffffffff851602815260ff9092166004830152600160a060020a03166024820152604401602060405180830381600087803b151561119557600080fd5b6102c65a03f115156111a657600080fd5b5050506040518051905015156111bb57600080fd5b7f0f3fb52a4b3a9f6b9191fcfe3320487160165440bcdabb6577a8bc165a87dcc8858560068111156111e957fe5b858560405193845260ff909216602084015260408084019190915260608301919091526080909101905180910390a1600b80548690811061122657fe5b90600052602060002090600c02019050838160060160006101000a81548160ff0219169083600681111561125657fe5b021790555060078101929092556008909101555050565b600f60205260009081526040902080546001820154600290920154909160ff169083565b600080600b838154811015156112a357fe5b600091825260209091206006600c90920201015460ff169392505050565b60075481565b6018546000908190600160a060020a0316633ebd6092606633846040516020015260405160e060020a63ffffffff851602815260ff9092166004830152600160a060020a03166024820152604401602060405180830381600087803b151561132e57600080fd5b6102c65a03f1151561133f57600080fd5b50505060405180519050151561135457600080fd5b600954151561136657600091506113bb565b60098054600019810190811061137857fe5b90600052602060002090015490508060098481548110151561139657fe5b60009182526020909120015560098054906113b5906000198301611f7b565b50600191505b50919050565b601854600090600160a060020a0316633ebd6092606633846040516020015260405160e060020a63ffffffff851602815260ff9092166004830152600160a060020a03166024820152604401602060405180830381600087803b151561142657600080fd5b6102c65a03f1151561143757600080fd5b50505060405180519050151561144c57600080fd5b600a80546001810161145e8382611f7b565b5060009182526020909120019190915550600a546000190190565b6000908152600f602052604090205490565b600080600080600b858154811015156114a057fe5b60009182526020909120600c9091020180546003820154600190920154600160a060020a0390911697919650945092505050565b6000908152600f6020526040902080546002909101549091565b601854600090600160a060020a0316633ebd6092606533846040516020015260405160e060020a63ffffffff851602815260ff9092166004830152600160a060020a03166024820152604401602060405180830381600087803b151561155357600080fd5b6102c65a03f1151561156457600080fd5b50505060405180519050151561157957600080fd5b50600092835260106020526040909220600581019190915560060155565b6010602052600090815260409020805460018201546002830154600384015460048501546005860154600690960154949593949293919260ff909116919087565b6018546000908190600160a060020a0316633ebd6092606633846040516020015260405160e060020a63ffffffff851602815260ff9092166004830152600160a060020a03166024820152604401602060405180830381600087803b151561163f57600080fd5b6102c65a03f1151561165057600080fd5b50505060405180519050151561166557600080fd5b600a54151561167757600091506113bb565b600a8054600019810190811061168957fe5b906000526020600020900154905080600a848154811015156116a757fe5b600091825260209091200155600a8054906113b5906000198301611f7b565b6000928352600f6020908152604080852093855260109091529092206002908101549101549101901190565b600090815260106020526040902060058101546006909101549091565b600a5490565b60095490565b600060098281548110151561172c57fe5b9060005260206000209001549050919050565b6000806000600b8481548110151561175357fe5b60009182526020909120600c909102018054600190910154600160a060020a039091169590945092505050565b600a805482908110610b1a57fe5b600154600160a060020a031663e16c7d9860006040516020015260405160e060020a63ffffffff83160281527f46442e416363657373436f6e74726f6c6c6572000000000000000000000000006004820152602401602060405180830381600087803b15156117fc57600080fd5b6102c65a03f1151561180d57600080fd5b50505060405180519050600160a060020a031633600160a060020a031614151561183657600080fd5b600160a060020a03938416600090815260116020908152604080832095909616825293845284812060ff9390931681529190925291909120805460ff1916911515919091179055565b61104e838383600161178e565b6000908152601060205260409020805460018201546002909201549092565b600b8054829081106118b957fe5b60009182526020909120600c90910201805460018201546002830154600384015460048501546005860154600687015460078801546008890154600a8a0154600b8b0154600160a060020a03909a169b509799969895979496939560ff9384169592949193600990920192909116908c565b600160a060020a03928316600090815260116020908152604080832094909516825292835283812060ff9283168252909252919020541690565b60005433600160a060020a0390811691161461198057600080fd5b6119a97f46442e416363657373436f6e74726f6c6c657200000000000000000000000000611f08565b6018805473ffffffffffffffffffffffffffffffffffffffff1916600160a060020a0392831617908190551663c28b4577606560405160e060020a63ffffffff841602815260ff90911660048201527f46442e4e6577506f6c69637900000000000000000000000000000000000000006024820152604401600060405180830381600087803b1515611a3a57600080fd5b6102c65a03f11515611a4b57600080fd5b5050601854600160a060020a0316905063c28b4577606560405160e060020a63ffffffff841602815260ff90911660048201527f46442e556e6465727772697465000000000000000000000000000000000000006024820152604401600060405180830381600087803b1515611ac057600080fd5b6102c65a03f11515611ad157600080fd5b5050601854600160a060020a0316905063c28b4577606560405160e060020a63ffffffff841602815260ff90911660048201527f46442e5061796f757400000000000000000000000000000000000000000000006024820152604401600060405180830381600087803b1515611b4657600080fd5b6102c65a03f11515611b5757600080fd5b5050601854600160a060020a0316905063c28b4577606560405160e060020a63ffffffff841602815260ff90911660048201527f46442e4c656467657200000000000000000000000000000000000000000000006024820152604401600060405180830381600087803b1515611bcc57600080fd5b6102c65a03f11515611bdd57600080fd5b5050601854600160a060020a0316905063c28b4577606660405160e060020a63ffffffff841602815260ff90911660048201527f46442e4f776e65720000000000000000000000000000000000000000000000006024820152604401600060405180830381600087803b1515611c5257600080fd5b6102c65a03f1151561104e57600080fd5b600080600b83815481101515611c7557fe5b600091825260209091206002600c9092020101549392505050565b6000600a8281548110151561172c57fe5b600054600160a060020a031681565b6018546000908190600160a060020a0316633ebd6092606533846040516020015260405160e060020a63ffffffff851602815260ff9092166004830152600160a060020a03166024820152604401602060405180830381600087803b1515611d1757600080fd5b6102c65a03f11515611d2857600080fd5b505050604051805190501515611d3d57600080fd5b600b805490611d4f9060018301611f9f565b600160a060020a0388166000908152600e6020526040902080549193509060018101611d7b8382611f7b565b506000918252602080832091909101849055858252600c905260409020805460018101611da88382611f7b565b506000918252602090912001829055600b805483908110611dc557fe5b60009182526020909120600c90910201805473ffffffffffffffffffffffffffffffffffffffff1916600160a060020a038916178155600a81018054919250869160ff19166001836003811115611e1857fe5b0217905550600b810193909355600183019490945560029091015550919050565b601854600090600160a060020a0316633ebd6092606533846040516020015260405160e060020a63ffffffff851602815260ff9092166004830152600160a060020a03166024820152604401602060405180830381600087803b1515611e9e57600080fd5b6102c65a03f11515611eaf57600080fd5b505050604051805190501515611ec457600080fd5b600b805485908110611ed257fe5b90600052602060002090600c020190508281600301819055508181600901908051611f01929160200190611fcb565b5050505050565b600154600090600160a060020a031663e16c7d9883836040516020015260405160e060020a63ffffffff84160281526004810191909152602401602060405180830381600087803b1515611f5b57600080fd5b6102c65a03f11515611f6c57600080fd5b50505060405180519392505050565b81548183558181151161104e5760008381526020902061104e918101908301612049565b81548183558181151161104e57600c0281600c02836000526020600020918201910161104e9190612066565b828054600181600116156101000203166002900490600052602060002090601f016020900481019282601f1061200c57805160ff1916838001178555612039565b82800160010185558215612039579182015b8281111561203957825182559160200191906001019061201e565b50612045929150612049565b5090565b61206391905b80821115612045576000815560010161204f565b90565b61206391905b8082111561204557805473ffffffffffffffffffffffffffffffffffffffff191681556000600182018190556002820181905560038201819055600482018190556005820181905560068201805460ff1916905560078201819055600882018190556120db60098301826120f7565b50600a8101805460ff191690556000600b820155600c0161206c565b50805460018160011615610100020316600290046000825580601f1061211d575061213b565b601f01602090049060005260206000209081019061213b9190612049565b50565b60008054600160a060020a0390921673ffffffffffffffffffffffffffffffffffffffff19928316811790915560018054909216178155905600a165627a7a72305820a3237620fd0bd94fee9c61d2aeffd240e0965331cfa4b05d6381ecf4e26068ce0029",
  "source": "/**\n * FlightDelay with Oraclized Underwriting and Payout\n *\n * @description Database contract\n * @copyright (c) 2017 etherisc GmbH\n * @author Christoph Mussenbrock, Stephan Karpischek\n */\n\npragma solidity ^0.4.11;\n\nimport \"./FlightDelayControlledContract.sol\";\nimport \"./FlightDelayDatabaseInterface.sol\";\nimport \"./FlightDelayAccessControllerInterface.sol\";\nimport \"./FlightDelayConstants.sol\";\n\n\ncontract FlightDelayDatabase is FlightDelayControlledContract, FlightDelayDatabaseInterface, FlightDelayConstants {\n\n    uint public MIN_DEPARTURE_LIM;\n\n    uint public MAX_DEPARTURE_LIM;\n\n    bytes32[] public validOrigins;\n    bytes32[] public validDestinations;\n\n    // Table of policies\n    Policy[] public policies;\n\n    mapping (bytes32 => uint[]) public extCustomerPolicies;\n\n    mapping (address => Customer) public customers;\n\n    // Lookup policyIds from customer addresses\n    mapping (address => uint[]) public customerPolicies;\n\n    // Lookup policy Ids from queryIds\n    mapping (bytes32 => OraclizeCallback) public oraclizeCallbacks;\n\n    // Lookup risks from risk IDs\n    mapping (bytes32 => Risk) public risks;\n\n    // Lookup AccessControl\n    mapping(address => mapping(address => mapping(uint8 => bool))) public accessControl;\n\n    // Lookup accounts of internal ledger\n    int[6] public ledger;\n\n    FlightDelayAccessControllerInterface FD_AC;\n\n    function FlightDelayDatabase (address _controller) public {\n        setController(_controller);\n    }\n\n    function setContracts() public onlyController {\n        FD_AC = FlightDelayAccessControllerInterface(getContract(\"FD.AccessController\"));\n\n        FD_AC.setPermissionById(101, \"FD.NewPolicy\");\n        FD_AC.setPermissionById(101, \"FD.Underwrite\");\n\n        FD_AC.setPermissionById(101, \"FD.Payout\");\n        FD_AC.setPermissionById(101, \"FD.Ledger\");\n\n        FD_AC.setPermissionById(102, \"FD.Owner\");\n    }\n\n    function setMinDepartureLim(uint _timestamp) returns (bool _success) {\n        require(FD_AC.checkPermission(102, msg.sender));\n\n        MIN_DEPARTURE_LIM = _timestamp;\n        _success = true;\n    }\n\n    function setMaxDepartureLim(uint _timestamp) returns (bool _success) {\n        require(FD_AC.checkPermission(102, msg.sender));\n\n        MAX_DEPARTURE_LIM = _timestamp;\n        _success = true;\n    }\n\n    function addOrigin(bytes32 _origin) returns (uint256 _index) {\n        require(FD_AC.checkPermission(102, msg.sender));\n\n        validOrigins.push(_origin);\n        _index = validOrigins.length - 1;\n    }\n\n    function removeOriginByIndex(uint256 _index) returns (bool _success) {\n        require(FD_AC.checkPermission(102, msg.sender));\n\n        if (validOrigins.length == 0) {\n            return false;\n        } else {\n            bytes32 lastElement = validOrigins[validOrigins.length - 1];\n            validOrigins[_index] = lastElement;\n            validOrigins.length--;\n            return true;\n        }\n    }\n\n    function countOrigins() public constant returns (uint256 _length) {\n        _length = validOrigins.length;\n    }\n\n    function getOriginByIndex(uint256 _i) public constant returns (bytes32 _origin) {\n        _origin = validOrigins[_i];\n    }\n\n    function addDestination(bytes32 _origin) returns (uint256 _index) {\n        require(FD_AC.checkPermission(102, msg.sender));\n\n        validDestinations.push(_origin);\n        _index = validDestinations.length - 1;\n    }\n\n    function removeDestinationByIndex(uint256 _index) returns (bool _success) {\n        require(FD_AC.checkPermission(102, msg.sender));\n\n        if (validDestinations.length == 0) {\n            return false;\n        } else {\n            bytes32 lastElement = validDestinations[validDestinations.length - 1];\n            validDestinations[_index] = lastElement;\n            validDestinations.length--;\n            return true;\n        }\n    }\n\n    function countDestinations() public constant returns (uint256 _length) {\n        _length = validDestinations.length;\n    }\n\n    function getDestinationByIndex(uint256 _i) public constant returns (bytes32 _destination) {\n        _destination = validDestinations[_i];\n    }\n\n\n    // Getter and Setter for AccessControl\n    function setAccessControl (\n        address _contract,\n        address _caller,\n        uint8 _perm,\n        bool _access\n    ) public {\n        // one and only hardcoded accessControl\n        require(msg.sender == FD_CI.getContract(\"FD.AccessController\"));\n        accessControl[_contract][_caller][_perm] = _access;\n    }\n\n// --> test-mode\n//        function setAccessControlTestOnly (\n//            address _contract,\n//            address _caller,\n//            uint8 _perm,\n//            bool _access\n//        ) public {\n//            accessControl[_contract][_caller][_perm] = _access;\n//        }\n// <-- test-mode\n\n    function setAccessControl(address _contract, address _caller, uint8 _perm) public {\n        setAccessControl(\n            _contract,\n            _caller,\n            _perm,\n            true\n        );\n    }\n\n    function getAccessControl(address _contract, address _caller, uint8 _perm) public returns (bool _allowed) {\n        _allowed = accessControl[_contract][_caller][_perm];\n    }\n\n    // Getter and Setter for ledger\n    function setLedger(uint8 _index, int _value) public {\n        require(FD_AC.checkPermission(101, msg.sender));\n\n        int previous = ledger[_index];\n        ledger[_index] += _value;\n\n// --> debug-mode\n//            LogInt(\"previous\", previous);\n//            LogInt(\"ledger[_index]\", ledger[_index]);\n//            LogInt(\"_value\", _value);\n// <-- debug-mode\n\n        // check for int overflow\n        if (_value < 0) {\n            assert(ledger[_index] < previous);\n        } else if (_value > 0) {\n            assert(ledger[_index] > previous);\n        }\n    }\n\n    function getLedger(uint8 _index) public returns (int _value) {\n        _value = ledger[_index];\n    }\n\n    // Getter and Setter for policies\n    function getCustomerPremium(uint _policyId) public returns (address _customer, uint _premium) {\n        Policy storage p = policies[_policyId];\n        _customer = p.customer;\n        _premium = p.premium;\n    }\n\n    function getPolicyData(uint _policyId) public returns (address _customer, uint _weight, uint _premium) {\n        Policy storage p = policies[_policyId];\n        _customer = p.customer;\n        _weight = p.weight;\n        _premium = p.premium;\n    }\n\n    function getPolicyState(uint _policyId) public returns (policyState _state) {\n        Policy storage p = policies[_policyId];\n        _state = p.state;\n    }\n\n    function getRiskId(uint _policyId) public returns (bytes32 _riskId) {\n        Policy storage p = policies[_policyId];\n        _riskId = p.riskId;\n    }\n\n    function createPolicy(address _customer, uint _premium, Currency _currency, bytes32 _customerExternalId, bytes32 _riskId) public returns (uint _policyId) {\n        require(FD_AC.checkPermission(101, msg.sender));\n\n        _policyId = policies.length++;\n\n        //todo: check for ovewflows\n\n// --> test-mode\n//            LogUint(\"_policyId\", _policyId);\n// <-- test-mode\n\n        customerPolicies[_customer].push(_policyId);\n        extCustomerPolicies[_customerExternalId].push(_policyId);\n\n        Policy storage p = policies[_policyId];\n\n        p.customer = _customer;\n        p.currency = _currency;\n        p.customerExternalId = _customerExternalId;\n        p.premium = _premium;\n        p.riskId = _riskId;\n    }\n\n    function setState(\n        uint _policyId,\n        policyState _state,\n        uint _stateTime,\n        bytes32 _stateMessage\n    ) public {\n        require(FD_AC.checkPermission(101, msg.sender));\n\n        LogSetState(\n            _policyId,\n            uint8(_state),\n            _stateTime,\n            _stateMessage\n        );\n\n        Policy storage p = policies[_policyId];\n\n        p.state = _state;\n        p.stateTime = _stateTime;\n        p.stateMessage = _stateMessage;\n    }\n\n    function setWeight(uint _policyId, uint _weight, bytes _proof) public {\n        require(FD_AC.checkPermission(101, msg.sender));\n\n        Policy storage p = policies[_policyId];\n\n        p.weight = _weight;\n        p.proof = _proof;\n    }\n\n    function setPayouts(uint _policyId, uint _calculatedPayout, uint _actualPayout) public {\n        require(FD_AC.checkPermission(101, msg.sender));\n\n        Policy storage p = policies[_policyId];\n\n        p.calculatedPayout = _calculatedPayout;\n        p.actualPayout = _actualPayout;\n    }\n\n    function setDelay(uint _policyId, uint8 _delay, uint _delayInMinutes) public {\n        require(FD_AC.checkPermission(101, msg.sender));\n\n        Risk storage r = risks[policies[_policyId].riskId];\n\n        r.delay = _delay;\n        r.delayInMinutes = _delayInMinutes;\n    }\n\n    // Getter and Setter for risks\n    function getRiskParameters(bytes32 _riskId) public returns (bytes32 _carrierFlightNumber, bytes32 _departureYearMonthDay, uint _arrivalTime) {\n        Risk storage r = risks[_riskId];\n        _carrierFlightNumber = r.carrierFlightNumber;\n        _departureYearMonthDay = r.departureYearMonthDay;\n        _arrivalTime = r.arrivalTime;\n    }\n\n    function getPremiumFactors(bytes32 _riskId) public returns (uint _cumulatedWeightedPremium, uint _premiumMultiplier) {\n        Risk storage r = risks[_riskId];\n        _cumulatedWeightedPremium = r.cumulatedWeightedPremium;\n        _premiumMultiplier = r.premiumMultiplier;\n    }\n\n    function createUpdateRisk(bytes32 _carrierFlightNumber, bytes32 _departureYearMonthDay, uint _arrivalTime) returns (bytes32 _riskId) {\n        require(FD_AC.checkPermission(101, msg.sender));\n\n        _riskId = sha3(\n            _carrierFlightNumber,\n            _departureYearMonthDay,\n            _arrivalTime\n        );\n\n// --> test-mode\n//            LogBytes32(\"riskId\", _riskId);\n// <-- test-mode\n\n        Risk storage r = risks[_riskId];\n\n        if (r.premiumMultiplier == 0) {\n            r.carrierFlightNumber = _carrierFlightNumber;\n            r.departureYearMonthDay = _departureYearMonthDay;\n            r.arrivalTime = _arrivalTime;\n        }\n    }\n\n    function setPremiumFactors(bytes32 _riskId, uint _cumulatedWeightedPremium, uint _premiumMultiplier) public {\n        require(FD_AC.checkPermission(101, msg.sender));\n\n        Risk storage r = risks[_riskId];\n        r.cumulatedWeightedPremium = _cumulatedWeightedPremium;\n        r.premiumMultiplier = _premiumMultiplier;\n    }\n\n    // Getter and Setter for oraclizeCallbacks\n    function getOraclizeCallback(bytes32 _queryId) public returns (uint _policyId, uint _oraclizeTime) {\n        OraclizeCallback storage o = oraclizeCallbacks[_queryId];\n        _policyId = o.policyId;\n        _oraclizeTime = o.oraclizeTime;\n    }\n\n    function getOraclizePolicyId(bytes32 _queryId) public returns (uint _policyId) {\n        OraclizeCallback storage o = oraclizeCallbacks[_queryId];\n        _policyId = o.policyId;\n    }\n\n    function createOraclizeCallback(\n        bytes32 _queryId,\n        uint _policyId,\n        oraclizeState _oraclizeState,\n        uint _oraclizeTime) public {\n\n        require(FD_AC.checkPermission(101, msg.sender));\n\n        oraclizeCallbacks[_queryId] = OraclizeCallback(_policyId, _oraclizeState, _oraclizeTime);\n    }\n\n    // mixed\n    function checkTime(bytes32 _queryId, bytes32 _riskId, uint _offset) public returns (bool _result) {\n        OraclizeCallback storage o = oraclizeCallbacks[_queryId];\n        Risk storage r = risks[_riskId];\n\n        _result = o.oraclizeTime > r.arrivalTime + _offset;\n    }\n}\n",
  "sourcePath": "/Users/A/Data/Altoros/1244-Etherisc/repositories/flightDelay/contracts/FlightDelayDatabase.sol",
  "compiler": {
    "name": "solc",
    "version": "0.4.18+commit.9cf6e910.Emscripten.clang"
  },
  "schemaVersion": "1.0.1",
  "updatedAt": "2017-12-12T00:50:45.167Z"
}