{
  "contractName": "FlightDelayConstants",
  "abi": [
    {
      "constant": true,
      "inputs": [],
      "name": "PATCH_VERSION",
      "outputs": [
        {
          "name": "",
          "type": "uint256"
        }
      ],
      "payable": false,
      "stateMutability": "view",
      "type": "function"
    },
    {
      "constant": true,
      "inputs": [],
      "name": "MINOR_VERSION",
      "outputs": [
        {
          "name": "",
          "type": "uint256"
        }
      ],
      "payable": false,
      "stateMutability": "view",
      "type": "function"
    },
    {
      "constant": true,
      "inputs": [],
      "name": "MAJOR_VERSION",
      "outputs": [
        {
          "name": "",
          "type": "uint256"
        }
      ],
      "payable": false,
      "stateMutability": "view",
      "type": "function"
    },
    {
      "anonymous": false,
      "inputs": [
        {
          "indexed": false,
          "name": "_policyId",
          "type": "uint256"
        },
        {
          "indexed": false,
          "name": "_customer",
          "type": "address"
        },
        {
          "indexed": false,
          "name": "strCarrierFlightNumber",
          "type": "bytes32"
        },
        {
          "indexed": false,
          "name": "ethPremium",
          "type": "uint256"
        }
      ],
      "name": "LogPolicyApplied",
      "type": "event"
    },
    {
      "anonymous": false,
      "inputs": [
        {
          "indexed": false,
          "name": "_policyId",
          "type": "uint256"
        },
        {
          "indexed": false,
          "name": "_statistics0",
          "type": "uint256"
        },
        {
          "indexed": false,
          "name": "_statistics1",
          "type": "uint256"
        },
        {
          "indexed": false,
          "name": "_statistics2",
          "type": "uint256"
        },
        {
          "indexed": false,
          "name": "_statistics3",
          "type": "uint256"
        },
        {
          "indexed": false,
          "name": "_statistics4",
          "type": "uint256"
        },
        {
          "indexed": false,
          "name": "_statistics5",
          "type": "uint256"
        }
      ],
      "name": "LogPolicyAccepted",
      "type": "event"
    },
    {
      "anonymous": false,
      "inputs": [
        {
          "indexed": false,
          "name": "_policyId",
          "type": "uint256"
        },
        {
          "indexed": false,
          "name": "ethAmount",
          "type": "uint256"
        }
      ],
      "name": "LogPolicyPaidOut",
      "type": "event"
    },
    {
      "anonymous": false,
      "inputs": [
        {
          "indexed": false,
          "name": "_policyId",
          "type": "uint256"
        }
      ],
      "name": "LogPolicyExpired",
      "type": "event"
    },
    {
      "anonymous": false,
      "inputs": [
        {
          "indexed": false,
          "name": "_policyId",
          "type": "uint256"
        },
        {
          "indexed": false,
          "name": "strReason",
          "type": "bytes32"
        }
      ],
      "name": "LogPolicyDeclined",
      "type": "event"
    },
    {
      "anonymous": false,
      "inputs": [
        {
          "indexed": false,
          "name": "_policyId",
          "type": "uint256"
        },
        {
          "indexed": false,
          "name": "strReason",
          "type": "bytes32"
        }
      ],
      "name": "LogPolicyManualPayout",
      "type": "event"
    },
    {
      "anonymous": false,
      "inputs": [
        {
          "indexed": false,
          "name": "_recipient",
          "type": "address"
        },
        {
          "indexed": false,
          "name": "_from",
          "type": "uint8"
        },
        {
          "indexed": false,
          "name": "ethAmount",
          "type": "uint256"
        }
      ],
      "name": "LogSendFunds",
      "type": "event"
    },
    {
      "anonymous": false,
      "inputs": [
        {
          "indexed": false,
          "name": "_sender",
          "type": "address"
        },
        {
          "indexed": false,
          "name": "_to",
          "type": "uint8"
        },
        {
          "indexed": false,
          "name": "ethAmount",
          "type": "uint256"
        }
      ],
      "name": "LogReceiveFunds",
      "type": "event"
    },
    {
      "anonymous": false,
      "inputs": [
        {
          "indexed": false,
          "name": "_policyId",
          "type": "uint256"
        },
        {
          "indexed": false,
          "name": "strReason",
          "type": "bytes32"
        }
      ],
      "name": "LogSendFail",
      "type": "event"
    },
    {
      "anonymous": false,
      "inputs": [
        {
          "indexed": false,
          "name": "_policyId",
          "type": "uint256"
        },
        {
          "indexed": false,
          "name": "hexQueryId",
          "type": "bytes32"
        },
        {
          "indexed": false,
          "name": "_oraclizeUrl",
          "type": "string"
        },
        {
          "indexed": false,
          "name": "_oraclizeTime",
          "type": "uint256"
        }
      ],
      "name": "LogOraclizeCall",
      "type": "event"
    },
    {
      "anonymous": false,
      "inputs": [
        {
          "indexed": false,
          "name": "_policyId",
          "type": "uint256"
        },
        {
          "indexed": false,
          "name": "hexQueryId",
          "type": "bytes32"
        },
        {
          "indexed": false,
          "name": "_result",
          "type": "string"
        },
        {
          "indexed": false,
          "name": "hexProof",
          "type": "bytes"
        }
      ],
      "name": "LogOraclizeCallback",
      "type": "event"
    },
    {
      "anonymous": false,
      "inputs": [
        {
          "indexed": false,
          "name": "_policyId",
          "type": "uint256"
        },
        {
          "indexed": false,
          "name": "_policyState",
          "type": "uint8"
        },
        {
          "indexed": false,
          "name": "_stateTime",
          "type": "uint256"
        },
        {
          "indexed": false,
          "name": "_stateMessage",
          "type": "bytes32"
        }
      ],
      "name": "LogSetState",
      "type": "event"
    },
    {
      "anonymous": false,
      "inputs": [
        {
          "indexed": false,
          "name": "_policyId",
          "type": "uint256"
        },
        {
          "indexed": false,
          "name": "_address",
          "type": "address"
        },
        {
          "indexed": false,
          "name": "_externalId",
          "type": "bytes32"
        }
      ],
      "name": "LogExternal",
      "type": "event"
    }
  ],
  "bytecode": "0x606060405260c06040519081016040908152600080835260208301819052908201819052601e606083015260326080830181905260a0830152610043916006610054565b50341561004f57600080fd5b610108565b6001830191839082156100d75791602002820160005b838211156100a857835183826101000a81548160ff021916908360ff160217905550926020019260010160208160000104928301926001030261006a565b80156100d55782816101000a81549060ff02191690556001016020816000010492830192600103026100a8565b505b506100e39291506100e7565b5090565b61010591905b808211156100e357805460ff191681556001016100ed565b90565b60d4806101166000396000f30060606040526004361060525763ffffffff7c01000000000000000000000000000000000000000000000000000000006000350416636bf2606a81146057578063c8b91531146079578063f786becd146089575b600080fd5b3415606157600080fd5b60676099565b60405190815260200160405180910390f35b3415608357600080fd5b6067609e565b3415609357600080fd5b606760a3565b600281565b600081565b6001815600a165627a7a72305820ce4a3ea404dcbae6119cc43761dfdb9e1f92ddf7edf7a217b56187ccd601b87b0029",
  "source": "/**\n * FlightDelay with Oraclized Underwriting and Payout\n *\n * @description\tEvents and Constants\n * @copyright (c) 2017 etherisc GmbH\n * @author Christoph Mussenbrock\n */\n\npragma solidity ^0.4.11;\n\n\ncontract FlightDelayConstants {\n\n    /*\n    * General events\n    */\n\n// --> test-mode\n//        event LogUint(string _message, uint _uint);\n//        event LogUintEth(string _message, uint ethUint);\n//        event LogUintTime(string _message, uint timeUint);\n//        event LogInt(string _message, int _int);\n//        event LogAddress(string _message, address _address);\n//        event LogBytes32(string _message, bytes32 hexBytes32);\n//        event LogBytes(string _message, bytes hexBytes);\n//        event LogBytes32Str(string _message, bytes32 strBytes32);\n//        event LogString(string _message, string _string);\n//        event LogBool(string _message, bool _bool);\n//        event Log(address);\n// <-- test-mode\n\n    event LogPolicyApplied(\n        uint _policyId,\n        address _customer,\n        bytes32 strCarrierFlightNumber,\n        uint ethPremium\n    );\n    event LogPolicyAccepted(\n        uint _policyId,\n        uint _statistics0,\n        uint _statistics1,\n        uint _statistics2,\n        uint _statistics3,\n        uint _statistics4,\n        uint _statistics5\n    );\n    event LogPolicyPaidOut(\n        uint _policyId,\n        uint ethAmount\n    );\n    event LogPolicyExpired(\n        uint _policyId\n    );\n    event LogPolicyDeclined(\n        uint _policyId,\n        bytes32 strReason\n    );\n    event LogPolicyManualPayout(\n        uint _policyId,\n        bytes32 strReason\n    );\n    event LogSendFunds(\n        address _recipient,\n        uint8 _from,\n        uint ethAmount\n    );\n    event LogReceiveFunds(\n        address _sender,\n        uint8 _to,\n        uint ethAmount\n    );\n    event LogSendFail(\n        uint _policyId,\n        bytes32 strReason\n    );\n    event LogOraclizeCall(\n        uint _policyId,\n        bytes32 hexQueryId,\n        string _oraclizeUrl,\n        uint256 _oraclizeTime\n    );\n    event LogOraclizeCallback(\n        uint _policyId,\n        bytes32 hexQueryId,\n        string _result,\n        bytes hexProof\n    );\n    event LogSetState(\n        uint _policyId,\n        uint8 _policyState,\n        uint _stateTime,\n        bytes32 _stateMessage\n    );\n    event LogExternal(\n        uint256 _policyId,\n        address _address,\n        bytes32 _externalId\n    );\n\n    /*\n    * General constants\n    */\n    // contracts release version\n    uint public constant MAJOR_VERSION = 1;\n    uint public constant MINOR_VERSION = 0;\n    uint public constant PATCH_VERSION = 2;\n\n    // minimum observations for valid prediction\n    uint constant MIN_OBSERVATIONS = 10;\n    // minimum premium to cover costs\n    uint constant MIN_PREMIUM = 50 finney;\n    // maximum premium\n    uint constant MAX_PREMIUM = 1 ether;\n    // maximum payout\n    uint constant MAX_PAYOUT = 1100 finney;\n\n    uint constant MIN_PREMIUM_EUR = 1500 wei;\n    uint constant MAX_PREMIUM_EUR = 29000 wei;\n    uint constant MAX_PAYOUT_EUR = 30000 wei;\n\n    uint constant MIN_PREMIUM_USD = 1700 wei;\n    uint constant MAX_PREMIUM_USD = 34000 wei;\n    uint constant MAX_PAYOUT_USD = 35000 wei;\n\n    uint constant MIN_PREMIUM_GBP = 1300 wei;\n    uint constant MAX_PREMIUM_GBP = 25000 wei;\n    uint constant MAX_PAYOUT_GBP = 270 wei;\n\n    // maximum cumulated weighted premium per risk\n    uint constant MAX_CUMULATED_WEIGHTED_PREMIUM = 60 ether;\n    // 1 percent for DAO, 1 percent for maintainer\n    uint8 constant REWARD_PERCENT = 2;\n    // reserve for tail risks\n    uint8 constant RESERVE_PERCENT = 1;\n    // the weight pattern; in future versions this may become part of the policy struct.\n    // currently can't be constant because of compiler restrictions\n    // WEIGHT_PATTERN[0] is not used, just to be consistent\n    uint8[6] WEIGHT_PATTERN = [\n        0,\n        0,\n        0,\n        30,\n        50,\n        50\n    ];\n\n// --> prod-mode\n    // DEFINITIONS FOR ROPSTEN AND MAINNET\n    // minimum time before departure for applying\n    uint constant MIN_TIME_BEFORE_DEPARTURE\t= 24 hours; // for production\n    // check for delay after .. minutes after scheduled arrival\n    uint constant CHECK_PAYOUT_OFFSET = 15 minutes; // for production\n// <-- prod-mode\n\n// --> test-mode\n//        // DEFINITIONS FOR LOCAL TESTNET\n//        // minimum time before departure for applying\n//        uint constant MIN_TIME_BEFORE_DEPARTURE = 1 seconds; // for testing\n//        // check for delay after .. minutes after scheduled arrival\n//        uint constant CHECK_PAYOUT_OFFSET = 1 seconds; // for testing\n// <-- test-mode\n\n    // maximum duration of flight\n    uint constant MAX_FLIGHT_DURATION = 2 days;\n    // Deadline for acceptance of policies: 31.12.2030 (Testnet)\n    uint constant CONTRACT_DEAD_LINE = 1922396399;\n\n    // gas Constants for oraclize\n    uint constant ORACLIZE_GAS = 700000;\n    uint constant ORACLIZE_GASPRICE = 4000000000;\n\n\n    /*\n    * URLs and query strings for oraclize\n    */\n\n// --> prod-mode\n    // DEFINITIONS FOR ROPSTEN AND MAINNET\n    string constant ORACLIZE_RATINGS_BASE_URL =\n        // ratings api is v1, see https://developer.flightstats.com/api-docs/ratings/v1\n        \"[URL] json(https://api.flightstats.com/flex/ratings/rest/v1/json/flight/\";\n    string constant ORACLIZE_RATINGS_QUERY =\n        \"?${[decrypt] BCGB+KxK9Hi0+HSuAjqUImcDiycjuUNPi8ibBGo6KFP/m9gOK6xtJbyi5lbPxPfDypCywVtTwe13VZbu02337Lw0mhTFO0OkUltmxGxi2mWgDBwN+VZdiXjtStOwuNYnhj8hjm71ppPGCVKXExvl1z3qDXkSbMMYZNBG+JNVFP7/YWhSZCXW}).ratings[0]['observations','late15','late30','late45','cancelled','diverted','arrivalAirportFsCode','departureAirportFsCode']\";\n    string constant ORACLIZE_STATUS_BASE_URL =\n        // flight status api is v2, see https://developer.flightstats.com/api-docs/flightstatus/v2/flight\n        \"[URL] json(https://api.flightstats.com/flex/flightstatus/rest/v2/json/flight/status/\";\n    string constant ORACLIZE_STATUS_QUERY =\n        // pattern:\n        \"?${[decrypt] BKc9+sMSvpu/p3qUjdu0QrHliQpNylhoQmHqL/8mQ/jKfsf7wdIiwwdMizp5u6LoP8rIvGhRfEcjK1SgotQDGFqws/5+9S9D5OXdEPXnkEsjQZJsyu8uhRRWg/0QSSP6LYP2ONUQc92QncGJbPCDxOcf3lGiNRrhznHfjFW7n+lwz4mVxN76}&utc=true).flightStatuses[0]['status','delays','operationalTimes']\";\n// <-- prod-mode\n\n// --> test-mode\n//        // DEFINITIONS FOR LOCAL TESTNET\n//        string constant ORACLIZE_RATINGS_BASE_URL =\n//            // ratings api is v1, see https://developer.flightstats.com/api-docs/ratings/v1\n//            \"[URL] json(https://api-test.etherisc.com/flex/ratings/rest/v1/json/flight/\";\n//        string constant ORACLIZE_RATINGS_QUERY =\n//            // for testrpc:\n//            \").ratings[0]['observations','late15','late30','late45','cancelled','diverted','arrivalAirportFsCode','departureAirportFsCode']\";\n//        string constant ORACLIZE_STATUS_BASE_URL =\n//            // flight status api is v2, see https://developer.flightstats.com/api-docs/flightstatus/v2/flight\n//            \"[URL] json(https://api-test.etherisc.com/flex/flightstatus/rest/v2/json/flight/status/\";\n//        string constant ORACLIZE_STATUS_QUERY =\n//            // for testrpc:\n//            \"?utc=true).flightStatuses[0]['status','delays','operationalTimes']\";\n// <-- test-mode\n}\n",
  "sourcePath": "/Users/A/Data/Altoros/1244-Etherisc/repos/flightdelay/contracts/FlightDelayConstants.sol",
  "compiler": {
    "name": "solc",
    "version": "0.4.18+commit.9cf6e910.Emscripten.clang"
  },
  "schemaVersion": "1.0.1",
  "updatedAt": "2018-05-16T16:30:26.971Z"
}