{
  "contractName": "FlightDelayUnderwrite",
  "abi": [
    {
      "constant": false,
      "inputs": [],
      "name": "destruct",
      "outputs": [],
      "payable": false,
      "stateMutability": "nonpayable",
      "type": "function"
    },
    {
      "constant": true,
      "inputs": [],
      "name": "PATCH_VERSION",
      "outputs": [
        {
          "name": "",
          "type": "uint256"
        }
      ],
      "payable": false,
      "stateMutability": "view",
      "type": "function"
    },
    {
      "constant": false,
      "inputs": [
        {
          "name": "x",
          "type": "bytes32"
        }
      ],
      "name": "b32toHexString",
      "outputs": [
        {
          "name": "",
          "type": "string"
        }
      ],
      "payable": false,
      "stateMutability": "nonpayable",
      "type": "function"
    },
    {
      "constant": true,
      "inputs": [
        {
          "name": "_dayMonthYear",
          "type": "bytes32"
        }
      ],
      "name": "toUnixtime",
      "outputs": [
        {
          "name": "unixtime",
          "type": "uint256"
        }
      ],
      "payable": false,
      "stateMutability": "view",
      "type": "function"
    },
    {
      "constant": true,
      "inputs": [],
      "name": "MINOR_VERSION",
      "outputs": [
        {
          "name": "",
          "type": "uint256"
        }
      ],
      "payable": false,
      "stateMutability": "view",
      "type": "function"
    },
    {
      "constant": true,
      "inputs": [],
      "name": "controller",
      "outputs": [
        {
          "name": "",
          "type": "address"
        }
      ],
      "payable": false,
      "stateMutability": "view",
      "type": "function"
    },
    {
      "constant": true,
      "inputs": [],
      "name": "MAJOR_VERSION",
      "outputs": [
        {
          "name": "",
          "type": "uint256"
        }
      ],
      "payable": false,
      "stateMutability": "view",
      "type": "function"
    },
    {
      "inputs": [
        {
          "name": "_controller",
          "type": "address"
        }
      ],
      "payable": false,
      "stateMutability": "nonpayable",
      "type": "constructor"
    },
    {
      "payable": true,
      "stateMutability": "payable",
      "type": "fallback"
    },
    {
      "anonymous": false,
      "inputs": [
        {
          "indexed": false,
          "name": "_policyId",
          "type": "uint256"
        },
        {
          "indexed": false,
          "name": "_customer",
          "type": "address"
        },
        {
          "indexed": false,
          "name": "strCarrierFlightNumber",
          "type": "bytes32"
        },
        {
          "indexed": false,
          "name": "ethPremium",
          "type": "uint256"
        }
      ],
      "name": "LogPolicyApplied",
      "type": "event"
    },
    {
      "anonymous": false,
      "inputs": [
        {
          "indexed": false,
          "name": "_policyId",
          "type": "uint256"
        },
        {
          "indexed": false,
          "name": "_statistics0",
          "type": "uint256"
        },
        {
          "indexed": false,
          "name": "_statistics1",
          "type": "uint256"
        },
        {
          "indexed": false,
          "name": "_statistics2",
          "type": "uint256"
        },
        {
          "indexed": false,
          "name": "_statistics3",
          "type": "uint256"
        },
        {
          "indexed": false,
          "name": "_statistics4",
          "type": "uint256"
        },
        {
          "indexed": false,
          "name": "_statistics5",
          "type": "uint256"
        }
      ],
      "name": "LogPolicyAccepted",
      "type": "event"
    },
    {
      "anonymous": false,
      "inputs": [
        {
          "indexed": false,
          "name": "_policyId",
          "type": "uint256"
        },
        {
          "indexed": false,
          "name": "ethAmount",
          "type": "uint256"
        }
      ],
      "name": "LogPolicyPaidOut",
      "type": "event"
    },
    {
      "anonymous": false,
      "inputs": [
        {
          "indexed": false,
          "name": "_policyId",
          "type": "uint256"
        }
      ],
      "name": "LogPolicyExpired",
      "type": "event"
    },
    {
      "anonymous": false,
      "inputs": [
        {
          "indexed": false,
          "name": "_policyId",
          "type": "uint256"
        },
        {
          "indexed": false,
          "name": "strReason",
          "type": "bytes32"
        }
      ],
      "name": "LogPolicyDeclined",
      "type": "event"
    },
    {
      "anonymous": false,
      "inputs": [
        {
          "indexed": false,
          "name": "_policyId",
          "type": "uint256"
        },
        {
          "indexed": false,
          "name": "strReason",
          "type": "bytes32"
        }
      ],
      "name": "LogPolicyManualPayout",
      "type": "event"
    },
    {
      "anonymous": false,
      "inputs": [
        {
          "indexed": false,
          "name": "_recipient",
          "type": "address"
        },
        {
          "indexed": false,
          "name": "_from",
          "type": "uint8"
        },
        {
          "indexed": false,
          "name": "ethAmount",
          "type": "uint256"
        }
      ],
      "name": "LogSendFunds",
      "type": "event"
    },
    {
      "anonymous": false,
      "inputs": [
        {
          "indexed": false,
          "name": "_sender",
          "type": "address"
        },
        {
          "indexed": false,
          "name": "_to",
          "type": "uint8"
        },
        {
          "indexed": false,
          "name": "ethAmount",
          "type": "uint256"
        }
      ],
      "name": "LogReceiveFunds",
      "type": "event"
    },
    {
      "anonymous": false,
      "inputs": [
        {
          "indexed": false,
          "name": "_policyId",
          "type": "uint256"
        },
        {
          "indexed": false,
          "name": "strReason",
          "type": "bytes32"
        }
      ],
      "name": "LogSendFail",
      "type": "event"
    },
    {
      "anonymous": false,
      "inputs": [
        {
          "indexed": false,
          "name": "_policyId",
          "type": "uint256"
        },
        {
          "indexed": false,
          "name": "hexQueryId",
          "type": "bytes32"
        },
        {
          "indexed": false,
          "name": "_oraclizeUrl",
          "type": "string"
        },
        {
          "indexed": false,
          "name": "_oraclizeTime",
          "type": "uint256"
        }
      ],
      "name": "LogOraclizeCall",
      "type": "event"
    },
    {
      "anonymous": false,
      "inputs": [
        {
          "indexed": false,
          "name": "_policyId",
          "type": "uint256"
        },
        {
          "indexed": false,
          "name": "hexQueryId",
          "type": "bytes32"
        },
        {
          "indexed": false,
          "name": "_result",
          "type": "string"
        },
        {
          "indexed": false,
          "name": "hexProof",
          "type": "bytes"
        }
      ],
      "name": "LogOraclizeCallback",
      "type": "event"
    },
    {
      "anonymous": false,
      "inputs": [
        {
          "indexed": false,
          "name": "_policyId",
          "type": "uint256"
        },
        {
          "indexed": false,
          "name": "_policyState",
          "type": "uint8"
        },
        {
          "indexed": false,
          "name": "_stateTime",
          "type": "uint256"
        },
        {
          "indexed": false,
          "name": "_stateMessage",
          "type": "bytes32"
        }
      ],
      "name": "LogSetState",
      "type": "event"
    },
    {
      "anonymous": false,
      "inputs": [
        {
          "indexed": false,
          "name": "_policyId",
          "type": "uint256"
        },
        {
          "indexed": false,
          "name": "_address",
          "type": "address"
        },
        {
          "indexed": false,
          "name": "_externalId",
          "type": "bytes32"
        }
      ],
      "name": "LogExternal",
      "type": "event"
    },
    {
      "constant": false,
      "inputs": [],
      "name": "setContracts",
      "outputs": [],
      "payable": false,
      "stateMutability": "nonpayable",
      "type": "function"
    },
    {
      "constant": false,
      "inputs": [
        {
          "name": "_policyId",
          "type": "uint256"
        },
        {
          "name": "_carrierFlightNumber",
          "type": "bytes32"
        }
      ],
      "name": "scheduleUnderwriteOraclizeCall",
      "outputs": [],
      "payable": false,
      "stateMutability": "nonpayable",
      "type": "function"
    },
    {
      "constant": false,
      "inputs": [
        {
          "name": "myid",
          "type": "bytes32"
        },
        {
          "name": "result",
          "type": "string"
        }
      ],
      "name": "__callback",
      "outputs": [],
      "payable": false,
      "stateMutability": "nonpayable",
      "type": "function"
    },
    {
      "constant": false,
      "inputs": [
        {
          "name": "_queryId",
          "type": "bytes32"
        },
        {
          "name": "_result",
          "type": "string"
        },
        {
          "name": "_proof",
          "type": "bytes"
        }
      ],
      "name": "__callback",
      "outputs": [],
      "payable": false,
      "stateMutability": "nonpayable",
      "type": "function"
    },
    {
      "constant": false,
      "inputs": [
        {
          "name": "_policyId",
          "type": "uint256"
        },
        {
          "name": "_reason",
          "type": "bytes32"
        }
      ],
      "name": "externalDecline",
      "outputs": [],
      "payable": false,
      "stateMutability": "nonpayable",
      "type": "function"
    }
  ],
  "bytecode": "0x606060405260c0604051908101604090815260008252600a6020830152601490820152601e606082015260326080820181905260a082015262000047906002906006620006b3565b506101806040519081016040908152600b8252602a6020830152604690820152606560608201526083608082015260a260a082015260c08082015260df60e082015260fe61010082015261011c61012082015261013b610140820152610159610160820152620000bc90600890600c6200074d565b503415620000c957600080fd5b604051602080620039eb833981016040528080519150620000fa90508164010000000062002f026200011f82021704565b506200011863ee6b280064010000000062002f2f6200014c82021704565b50620008ca565b60008054600160a060020a03909216600160a060020a031992831681179091556001805490921617815590565b600354600160a060020a031615806200018757506003546200018590600160a060020a0316640100000000620025a8620002b482021704565b155b15620001a957620001a76000640100000000620025ac620002b882021704565b505b600354600160a060020a03166338cc48316000604051602001526040518163ffffffff167c0100000000000000000000000000000000000000000000000000000000028152600401602060405180830381600087803b15156200020b57600080fd5b6102c65a03f115156200021d57600080fd5b505050604051805160048054600160a060020a031916600160a060020a03928316179081905516905063ca6ad1e4826040517c010000000000000000000000000000000000000000000000000000000063ffffffff84160281526004810191909152602401600060405180830381600087803b15156200029c57600080fd5b6102c65a03f11515620002ae57600080fd5b50505050565b3b90565b600080620002e8731d3b2638a7cc9f2cb3d298a3da7a90b67e5506ed640100000000620025a8620002b482021704565b11156200036a5760038054600160a060020a031916731d3b2638a7cc9f2cb3d298a3da7a90b67e5506ed1790556200036160408051908101604052600b81527f6574685f6d61696e6e6574000000000000000000000000000000000000000000602082015264010000000062002e076200069a82021704565b50600162000695565b60006200039973c03a2615d5efaf5f49f60b7bb6583eaec212fdf1640100000000620025a8620002b482021704565b1115620004125760038054600160a060020a03191673c03a2615d5efaf5f49f60b7bb6583eaec212fdf11790556200036160408051908101604052600c81527f6574685f726f707374656e330000000000000000000000000000000000000000602082015264010000000062002e076200069a82021704565b60006200044173b7a07bcf2ba2f2703b24c0691b5278999c59ac7e640100000000620025a8620002b482021704565b1115620004ba5760038054600160a060020a03191673b7a07bcf2ba2f2703b24c0691b5278999c59ac7e1790556200036160408051908101604052600981527f6574685f6b6f76616e0000000000000000000000000000000000000000000000602082015264010000000062002e076200069a82021704565b6000620004e973146500cfd35b22e4a392fe0adc06de1a1368ed48640100000000620025a8620002b482021704565b1115620005625760038054600160a060020a03191673146500cfd35b22e4a392fe0adc06de1a1368ed481790556200036160408051908101604052600b81527f6574685f72696e6b656279000000000000000000000000000000000000000000602082015264010000000062002e076200069a82021704565b600062000591736f485c8bf6fc43ea212e93bbf8ce046c7f1cb475640100000000620025a8620002b482021704565b1115620005c7575060038054600160a060020a031916736f485c8bf6fc43ea212e93bbf8ce046c7f1cb475179055600162000695565b6000620005f67320e12a1f859b3feae5fb2a0a32c18f5a65555bbf640100000000620025a8620002b482021704565b11156200062c575060038054600160a060020a0319167320e12a1f859b3feae5fb2a0a32c18f5a65555bbf179055600162000695565b60006200065b7351efaf4c8b3c9afbd5ab9f4bbc82784ab6ef8faa640100000000620025a8620002b482021704565b111562000691575060038054600160a060020a0319167351efaf4c8b3c9afbd5ab9f4bbc82784ab6ef8faa179055600162000695565b5060005b919050565b6005818051620006af929160200190620007e6565b5050565b6001830191839082156200073b5791602002820160005b838211156200070a57835183826101000a81548160ff021916908360ff1602179055509260200192600101602081600001049283019260010302620006ca565b8015620007395782816101000a81549060ff02191690556001016020816000010492830192600103026200070a565b505b506200074992915062000867565b5090565b600183019183908215620007d85791602002820160005b83821115620007a657835183826101000a81548161ffff021916908361ffff160217905550926020019260020160208160010104928301926001030262000764565b8015620007d65782816101000a81549061ffff0219169055600201602081600101049283019260010302620007a6565b505b50620007499291506200088b565b828054600181600116156101000203166002900490600052602060002090601f016020900481019282601f106200082957805160ff191683800117855562000859565b8280016001018555821562000859579182015b82811115620008595782518255916020019190600101906200083c565b5062000749929150620008ad565b6200088891905b808211156200074957805460ff191681556001016200086e565b90565b6200088891905b808211156200074957805461ffff1916815560010162000892565b6200088891905b80821115620007495760008155600101620008b4565b61311180620008da6000396000f3006060604052600436106100a05763ffffffff60e060020a6000350416630da76f1c811461012b57806327dc297e146101445780632b68b9c61461019a57806338bbfa50146101ad5780636bf2606a146102455780638ad46ba01461026a5780638b8c5ed9146102f7578063bcf599f114610310578063c8b9153114610326578063e0d6d53014610339578063f77c47911461034c578063f786becd1461037b575b600c54600160a060020a0316633ebd609260663360006040516020015260405160e060020a63ffffffff851602815260ff9092166004830152600160a060020a03166024820152604401602060405180830381600087803b151561010357600080fd5b6102c65a03f1151561011457600080fd5b50505060405180519050151561012957600080fd5b005b341561013657600080fd5b61012960043560243561038e565b341561014f57600080fd5b610129600480359060446024803590810190830135806020601f8201819004810201604051908101604052818152929190602084018383808284375094965061073895505050505050565b34156101a557600080fd5b61012961076a565b34156101b857600080fd5b610129600480359060446024803590810190830135806020601f8201819004810201604051908101604052818152929190602084018383808284378201915050505050509190803590602001908201803590602001908080601f01602080910402602001604051908101604052818152929190602084018383808284375094965061079395505050505050565b341561025057600080fd5b610258610be2565b60405190815260200160405180910390f35b341561027557600080fd5b610280600435610be7565b60405160208082528190810183818151815260200191508051906020019080838360005b838110156102bc5780820151838201526020016102a4565b50505050905090810190601f1680156102e95780820380516001836020036101000a031916815260200191505b509250505060405180910390f35b341561030257600080fd5b610129600435602435610cf6565b341561031b57600080fd5b610258600435610fbb565b341561033157600080fd5b6102586112bf565b341561034457600080fd5b6101296112c4565b341561035757600080fd5b61035f611504565b604051600160a060020a03909116815260200160405180910390f35b341561038657600080fd5b610258611513565b6001546000908190600160a060020a031663e16c7d98826040516020015260405160e060020a63ffffffff83160281527f46442e437573746f6d65727341646d696e0000000000000000000000000000006004820152602401602060405180830381600087803b151561040057600080fd5b6102c65a03f1151561041157600080fd5b50505060405180519050600160a060020a031633600160a060020a031614151561043a57600080fd5b7f9ee71fae4eaec97727495a88dce95da03083cceac90064c30bd03ef65b86a3ae848460405191825260208201526040908101905180910390a1600954600160a060020a031663418cf5b185600542876040518563ffffffff1660e060020a028152600401808581526020018460068111156104b257fe5b60ff16815260208101939093525060408083019190915260609091019250600091505180830381600087803b15156104e957600080fd5b6102c65a03f115156104fa57600080fd5b5050600954600160a060020a0316905063ffe280ee85600060405160e060020a63ffffffff8516028152600481019290925260248201526060604482015260006064820181905260a49091019060405180830381600087803b151561055e57600080fd5b6102c65a03f1151561056f57600080fd5b5050600954600160a060020a0316905063c168e0378560006040516040015260405160e060020a63ffffffff841602815260048101919091526024016040805180830381600087803b15156105c357600080fd5b6102c65a03f115156105d457600080fd5b5050506040518051906020018051600a54929450925050600160a060020a03166350bed0438360008481604051602001526040518463ffffffff1660e060020a0281526004018084600160a060020a0316600160a060020a0316815260200183600581111561063f57fe5b60ff1681526020018281526020019350505050602060405180830381600087803b151561066b57600080fd5b6102c65a03f1151561067c57600080fd5b50505060405180519050151561073257600954600160a060020a031663418cf5b1856006426040518463ffffffff1660e060020a028152600401808481526020018360068111156106c957fe5b60ff168152602001828152602001807f6465636c696e653a2053656e64206661696c65642e00000000000000000000008152506020019350505050600060405180830381600087803b151561071d57600080fd5b6102c65a03f1151561072e57600080fd5b5050505b50505050565b6107668282600060405180591061074c5750595b818152601f19601f83011681016020016040529050610793565b5050565b60005433600160a060020a0390811691161461078557600080fd5b600054600160a060020a0316ff5b600061079d612e1a565b60006107a7612e31565b60006107d27f46442e456d657267656e63790000000000000000000000000000000000000000611518565b6107da61158b565b600160a060020a031633600160a060020a0316148061080a575080600160a060020a031633600160a060020a0316145b151561081557600080fd5b600954600160a060020a0316637f205c8c8a60006040516040015260405160e060020a63ffffffff841602815260048101919091526024016040805180830381600087803b151561086557600080fd5b6102c65a03f1151561087657600080fd5b505050604051805190602001805190505095507f4e010942cd8d70ef60f3bd7e17c62008722f9551f8f28dc7040004160de7e2cc868a8a8a60405184815260208101849052608060408201818152906060830190830185818151815260200191508051906020019080838360005b838110156108fc5780820151838201526020016108e4565b50505050905090810190601f1680156109295780820380516001836020036101000a031916815260200191505b50838103825284818151815260200191508051906020019080838360005b8381101561095f578082015183820152602001610947565b50505050905090810190601f16801561098c5780820380516001836020036101000a031916815260200191505b50965050505050505060405180910390a16109a6886116a7565b9450875115156109e0576109db867f4465636c696e65642028656d70747920726573756c7429000000000000000000896116cf565b610bd7565b610a14610a07604080519081016040526002815260f560020a6101610260208201526116a7565b869063ffffffff611a2e16565b600714610a46576109db867f4465636c696e65642028696e76616c696420726573756c742900000000000000896116cf565b610add610a8560408051908101604052600181527f5d0000000000000000000000000000000000000000000000000000000000000060208201526116a7565b610ad1610ac460408051908101604052600181527f5b0000000000000000000000000000000000000000000000000000000000000060208201526116a7565b889063ffffffff611a8c16565b9063ffffffff611af616565b50610b22610b1d610b18610b0b604080519081016040526002815260f560020a6101610260208201526116a7565b889063ffffffff611b5d16565b611b70565b611bbe565b9350600a8411610b57576109db867f4465636c696e65642028746f6f20666577206f62736572766174696f6e732900896116cf565b838352600191505b60058211610bcc5783610ba2610b1d610b18610b95604080519081016040526002815260f560020a6101610260208201526116a7565b899063ffffffff611b5d16565b61271002811515610baf57fe5b04838360068110610bbc57fe5b6020020152600190910190610b5f565b610bd7868489611bd3565b505050505050505050565b600281565b610bef612e58565b610bf7612e58565b60008060008060408051805910610c0b5750595b818152601f19601f830116810160200160405290509450600093505b6020841015610ceb576008601f8590030260020a87811515610c4557fe5b049250601060ff841604915050601081028203600960ff83161115610c6b576027820191505b60098160ff161115610c7b576027015b8160300160f860020a02858560020281518110610c9457fe5b906020010190600160f860020a031916908160001a9053508060300160f860020a02858560020260010181518110610cc857fe5b906020010190600160f860020a031916908160001a905350600190930192610c27565b509295945050505050565b610cfe612e58565b600c54600090600160a060020a0316633ebd6092606533846040516020015260405160e060020a63ffffffff851602815260ff9092166004830152600160a060020a03166024820152604401602060405180830381600087803b1515610d6357600080fd5b6102c65a03f11515610d7457600080fd5b505050604051805190501515610d8957600080fd5b610e35608060405190810160405280604881526020017f5b55524c5d206a736f6e2868747470733a2f2f6170692e666c6967687473746181526020017f74732e636f6d2f666c65782f726174696e67732f726573742f76312f6a736f6e81526020017f2f666c696768742f000000000000000000000000000000000000000000000000815250610e1885612124565b60e060405190810160405260ac80825261303a602083013961226c565b9150610e7860408051908101604052600681527f6e65737465640000000000000000000000000000000000000000000000000000602082015283620aae606122a7565b600954909150600160a060020a0316632ba1e439828660008060405160e060020a63ffffffff8716028152600481018581526024820185905290604401836001811115610ec157fe5b60ff168152602001828152602001945050505050600060405180830381600087803b1515610eee57600080fd5b6102c65a03f11515610eff57600080fd5b5050507f57d5927fefa8de5620b57ca7ac0948a9ea457d8f3af2bd8867728325a6ca5d928482846000604051848152602081018490526060810182905260806040820181815290820184818151815260200191508051906020019080838360005b83811015610f78578082015183820152602001610f60565b50505050905090810190601f168015610fa55780820380516001836020036101000a031916815260200191505b509550505050505060405180910390a150505050565b6000610fc5612e58565b610fcd612e58565b610fd5612e58565b6000806000610fe388612124565b95506002604051805910610ff45750595b818152601f19601f830116810160200160405290509450600460405180591061101a5750595b818152601f19601f8301168101602001604052905093508560058151811061103e57fe5b016020015160f860020a900460f860020a028460008151811061105d57fe5b906020010190600160f860020a031916908160001a9053508560068151811061108257fe5b016020015160f860020a900460f860020a02846001815181106110a157fe5b906020010190600160f860020a031916908160001a905350856007815181106110c657fe5b016020015160f860020a900460f860020a02846002815181106110e557fe5b906020010190600160f860020a031916908160001a9053508560088151811061110a57fe5b016020015160f860020a900460f860020a028460038151811061112957fe5b906020010190600160f860020a031916908160001a90535061114a84611bbe565b925085600a8151811061115957fe5b016020015160f860020a900460f860020a028560008151811061117857fe5b906020010190600160f860020a031916908160001a90535085600b8151811061119d57fe5b016020015160f860020a900460f860020a02856001815181106111bc57fe5b906020010190600160f860020a031916908160001a9053506111dd85611bbe565b915085600d815181106111ec57fe5b016020015160f860020a900460f860020a028560008151811061120b57fe5b906020010190600160f860020a031916908160001a90535085600e8151811061123057fe5b016020015160f860020a900460f860020a028560018151811061124f57fe5b906020010190600160f860020a031916908160001a90535061127085611bbe565b90508060086000198401600c811061128457fe5b601091828204019190066002029054906101000a900461ffff1661ffff166107b2850361016d02010162015180029650505050505050919050565b600081565b60005433600160a060020a039081169116146112df57600080fd5b6113087f46442e416363657373436f6e74726f6c6c657200000000000000000000000000611518565b600c8054600160a060020a031916600160a060020a03929092169190911790556113517f46442e4461746162617365000000000000000000000000000000000000000000611518565b60098054600160a060020a031916600160a060020a039290921691909117905561139a7f46442e4c65646765720000000000000000000000000000000000000000000000611518565b600a8054600160a060020a031916600160a060020a03929092169190911790556113e37f46442e5061796f75740000000000000000000000000000000000000000000000611518565b600b8054600160a060020a031916600160a060020a03928316179055600c541663c28b4577606560405160e060020a63ffffffff841602815260ff90911660048201527f46442e4e6577506f6c69637900000000000000000000000000000000000000006024820152604401600060405180830381600087803b151561146857600080fd5b6102c65a03f1151561147957600080fd5b5050600c54600160a060020a0316905063c28b4577606660405160e060020a63ffffffff841602815260ff90911660048201527f46442e46756e64657200000000000000000000000000000000000000000000006024820152604401600060405180830381600087803b15156114ee57600080fd5b6102c65a03f115156114ff57600080fd5b505050565b600054600160a060020a031681565b600181565b600154600090600160a060020a031663e16c7d9883836040516020015260405160e060020a63ffffffff84160281526004810191909152602401602060405180830381600087803b151561156b57600080fd5b6102c65a03f1151561157c57600080fd5b50505060405180519392505050565b600354600090600160a060020a031615806115b857506003546115b690600160a060020a03166125a8565b155b156115c9576115c760006125ac565b505b600354600160a060020a03166338cc48316000604051602001526040518163ffffffff1660e060020a028152600401602060405180830381600087803b151561161157600080fd5b6102c65a03f1151561162257600080fd5b505050604051805160048054600160a060020a031916600160a060020a03928316179081905516905063c281d19e6000604051602001526040518163ffffffff1660e060020a028152600401602060405180830381600087803b151561168757600080fd5b6102c65a03f1151561169857600080fd5b50505060405180519150505b90565b6116af612e1a565b602082016040805190810160405280845181526020019190915292915050565b6000807f9ee71fae4eaec97727495a88dce95da03083cceac90064c30bd03ef65b86a3ae858560405191825260208201526040908101905180910390a1600954600160a060020a031663418cf5b186600542886040518563ffffffff1660e060020a0281526004018085815260200184600681111561174a57fe5b60ff16815260208101939093525060408083019190915260609091019250600091505180830381600087803b151561178157600080fd5b6102c65a03f1151561179257600080fd5b5050600954600160a060020a0316905063ffe280ee866000866040518463ffffffff1660e060020a0281526004018084815260200183815260200180602001828103825283818151815260200191508051906020019080838360005b838110156118065780820151838201526020016117ee565b50505050905090810190601f1680156118335780820380516001836020036101000a031916815260200191505b50945050505050600060405180830381600087803b151561185357600080fd5b6102c65a03f1151561186457600080fd5b5050600954600160a060020a0316905063c168e0378660006040516040015260405160e060020a63ffffffff841602815260048101919091526024016040805180830381600087803b15156118b857600080fd5b6102c65a03f115156118c957600080fd5b5050506040518051906020018051600a54929450925050600160a060020a03166350bed0438360008481604051602001526040518463ffffffff1660e060020a0281526004018084600160a060020a0316600160a060020a0316815260200183600581111561193457fe5b60ff1681526020018281526020019350505050602060405180830381600087803b151561196057600080fd5b6102c65a03f1151561197157600080fd5b505050604051805190501515611a2757600954600160a060020a031663418cf5b1866006426040518463ffffffff1660e060020a028152600401808481526020018360068111156119be57fe5b60ff168152602001828152602001807f6465636c696e653a2053656e64206661696c65642e00000000000000000000008152506020019350505050600060405180830381600087803b1515611a1257600080fd5b6102c65a03f11515611a2357600080fd5b5050505b5050505050565b6000808251611a4985518660200151865187602001516128d2565b0190505b83518460200151018111611a85576001909101908251611a7d8560200151830386510383865187602001516128d2565b019050611a4d565b5092915050565b611a94612e1a565b6000825184511015611aa857839150611a85565b5060016020830151846020015114611ad0578251602085015160208501518290209190201490505b8015611aee5782518481815103905250825184602001818151019052505b509192915050565b611afe612e1a565b600080835185511015611b1357849250611b55565b835185518660200151010391506001905083602001518214611b4057835160208501518190209083201490505b8015611b5157835185818151039052505b8492505b505092915050565b611b65612e1a565b611a85838383612975565b611b78612e58565b611b80612e58565b60008351604051805910611b915750595b818152601f19601f830116810160200160405290509150602082019050611a8581856020015186516129e4565b6000611bcb826000612a29565b90505b919050565b60095460009081908190819081908190600160a060020a031663c168e0378a836040516040015260405160e060020a63ffffffff841602815260048101919091526024016040805180830381600087803b1515611c2f57600080fd5b6102c65a03f11515611c4057600080fd5b5050506040518051906020018051600954909850600160a060020a0316915063eb80733990508a60006040516020015260405160e060020a63ffffffff84160281526004810191909152602401602060405180830381600087803b1515611ca657600080fd5b6102c65a03f11515611cb757600080fd5b5050506040518051600954909650600160a060020a03169050639d5176fd8660006040516040015260405160e060020a63ffffffff841602815260048101919091526024016040805180830381600087803b1515611d1457600080fd5b6102c65a03f11515611d2557600080fd5b5050506040518051906020018051600954909650600160a060020a0316915063cdcdb46390508660006040516060015260405160e060020a63ffffffff84160281526004810191909152602401606060405180830381600087803b1515611d8b57600080fd5b6102c65a03f11515611d9c57600080fd5b50505060405180519060200180519060200180519550600193505050505b600560ff821611611e0d578760ff821660068110611dd457fe5b6020020151600260ff831660068110611de957fe5b60208082049092015460ff929091066101000a900416029190910190600101611dba565b811515611e27578751620186a0811515611e2357fe5b0491505b831515611eb857600954600160a060020a031663802de8fc8684620186a08a02811515611e5057fe5b0485620186a0811515611e5f57fe5b0460405160e060020a63ffffffff8616028152600481019390935260248301919091526044820152606401600060405180830381600087803b1515611ea357600080fd5b6102c65a03f11515611eb457600080fd5b5050505b600954600160a060020a031663ffe280ee8a848a6040518463ffffffff1660e060020a0281526004018084815260200183815260200180602001828103825283818151815260200191508051906020019080838360005b83811015611f27578082015183820152602001611f0f565b50505050905090810190601f168015611f545780820380516001836020036101000a031916815260200191505b50945050505050600060405180830381600087803b1515611f7457600080fd5b6102c65a03f11515611f8557600080fd5b5050600954600160a060020a0316905063418cf5b18a6001426040518463ffffffff1660e060020a02815260040180848152602001836006811115611fc657fe5b60ff168152602001828152602001807f506f6c69637920756e6465727772697474656e206279206f7261636c650000008152506020019350505050600060405180830381600087803b151561201a57600080fd5b6102c65a03f1151561202b57600080fd5b507f70385f0d2eec84d8ff6456734404ae65b06b980e7360ea503ca23dcc56a1c51591508a9050895160208b015160408c015160608d015160808e015160a08f015160405196875260208701959095526040808701949094526060860192909252608085015260a084015260c083019190915260e0909101905180910390a1600b54600160a060020a031663746899908a87610384870160405160e060020a63ffffffff8616028152600481019390935260248301919091526044820152606401600060405180830381600087803b151561210557600080fd5b6102c65a03f1151561211657600080fd5b505050505050505050505050565b61212c612e58565b612134612e58565b6000806000612141612e58565b60206040518059106121505750595b818152601f19601f83011681016020016040529050945060009350600092505b60208310156121e3576008830260020a870291507fff000000000000000000000000000000000000000000000000000000000000008216156121d857818585815181106121b957fe5b906020010190600160f860020a031916908160001a9053506001909301925b600190920191612170565b836040518059106121f15750595b818152601f19601f830116810160200160405290509050600092505b838310156122625784838151811061222157fe5b016020015160f860020a900460f860020a0281848151811061223f57fe5b906020010190600160f860020a031916908160001a90535060019092019161220d565b9695505050505050565b612274612e58565b61229f8484846020604051908101604052806000815250602060405190810160405260008152612b97565b949350505050565b6003546000908190600160a060020a031615806122d657506003546122d490600160a060020a03166125a8565b155b156122e7576122e560006125ac565b505b600354600160a060020a03166338cc48316000604051602001526040518163ffffffff1660e060020a028152600401602060405180830381600087803b151561232f57600080fd5b6102c65a03f1151561234057600080fd5b505050604051805160048054600160a060020a031916600160a060020a039283161790819055169050632ef3accc86856000604051602001526040518363ffffffff1660e060020a0281526004018080602001838152602001828103825284818151815260200191508051906020019080838360005b838110156123ce5780820151838201526020016123b6565b50505050905090810190601f1680156123fb5780820380516001836020036101000a031916815260200191505b509350505050602060405180830381600087803b151561241a57600080fd5b6102c65a03f1151561242b57600080fd5b5050506040518051915050670de0b6b3a76400003a84020181111561245357600091506125a0565b600454600160a060020a031663c51be90f82600088888883604051602001526040518663ffffffff1660e060020a028152600401808581526020018060200180602001848152602001838103835286818151815260200191508051906020019080838360005b838110156124d15780820151838201526020016124b9565b50505050905090810190601f1680156124fe5780820380516001836020036101000a031916815260200191505b50838103825285818151815260200191508051906020019080838360005b8381101561253457808201518382015260200161251c565b50505050905090810190601f1680156125615780820380516001836020036101000a031916815260200191505b5096505050505050506020604051808303818588803b151561258257600080fd5b6125ee5a03f1151561259357600080fd5b5050505060405180519250505b509392505050565b3b90565b6000806125cc731d3b2638a7cc9f2cb3d298a3da7a90b67e5506ed6125a8565b111561263c5760038054600160a060020a031916731d3b2638a7cc9f2cb3d298a3da7a90b67e5506ed17905561263460408051908101604052600b81527f6574685f6d61696e6e65740000000000000000000000000000000000000000006020820152612e07565b506001611bce565b600061265b73c03a2615d5efaf5f49f60b7bb6583eaec212fdf16125a8565b11156126c35760038054600160a060020a03191673c03a2615d5efaf5f49f60b7bb6583eaec212fdf117905561263460408051908101604052600c81527f6574685f726f707374656e3300000000000000000000000000000000000000006020820152612e07565b60006126e273b7a07bcf2ba2f2703b24c0691b5278999c59ac7e6125a8565b111561274a5760038054600160a060020a03191673b7a07bcf2ba2f2703b24c0691b5278999c59ac7e17905561263460408051908101604052600981527f6574685f6b6f76616e00000000000000000000000000000000000000000000006020820152612e07565b600061276973146500cfd35b22e4a392fe0adc06de1a1368ed486125a8565b11156127d15760038054600160a060020a03191673146500cfd35b22e4a392fe0adc06de1a1368ed4817905561263460408051908101604052600b81527f6574685f72696e6b6562790000000000000000000000000000000000000000006020820152612e07565b60006127f0736f485c8bf6fc43ea212e93bbf8ce046c7f1cb4756125a8565b1115612824575060038054600160a060020a031916736f485c8bf6fc43ea212e93bbf8ce046c7f1cb4751790556001611bce565b60006128437320e12a1f859b3feae5fb2a0a32c18f5a65555bbf6125a8565b1115612877575060038054600160a060020a0319167320e12a1f859b3feae5fb2a0a32c18f5a65555bbf1790556001611bce565b60006128967351efaf4c8b3c9afbd5ab9f4bbc82784ab6ef8faa6125a8565b11156128ca575060038054600160a060020a0319167351efaf4c8b3c9afbd5ab9f4bbc82784ab6ef8faa1790556001611bce565b506000919050565b60008080808088871161296357602087116129295760018760200360080260020a031980875116888b038a018a96505b81838851161461291e576001870196819010612902578b8b0196505b505050839450612969565b8686209150879350600092505b868903831161296357508583208181141561295357839450612969565b6001938401939290920191612936565b88880194505b50505050949350505050565b61297d612e1a565b600061299585518660200151865187602001516128d2565b905084602001516020808501919091528501518103835284518560200151018114156129c457600085526129db565b835183510185818151039052508351810160208601525b50909392505050565b60005b60208210612a0a57825184526020840193506020830192506020820391506129e7565b6001826020036101000a03905080198351168185511617909352505050565b6000612a33612e58565b5082600080805b8351811015612b7a577f3000000000000000000000000000000000000000000000000000000000000000848281518110612a7057fe5b016020015160f860020a900460f860020a02600160f860020a03191610158015612ae157507f3900000000000000000000000000000000000000000000000000000000000000848281518110612ac257fe5b016020015160f860020a900460f860020a02600160f860020a03191611155b15612b37578115612b0057851515612af857612b7a565b600019909501945b600a830292506030848281518110612b1457fe5b016020015160f860020a900460f860020a0260f860020a90040383019250612b72565b838181518110612b4357fe5b016020015160f860020a900460f860020a02600160f860020a031916602e60f860020a021415612b7257600191505b600101612a3a565b6000861115612b8c5785600a0a830292505b509095945050505050565b612b9f612e58565b612ba7612e58565b612baf612e58565b612bb7612e58565b612bbf612e58565b612bc7612e58565b612bcf612e58565b612bd7612e58565b6000808e98508d97508c96508b95508a94508451865188518a518c5101010101604051805910612c045750595b818152601f19601f83011681016020016040529050935083925060009150600090505b8851811015612c8057888181518110612c3c57fe5b016020015160f860020a900460f860020a02838380600101945081518110612c6057fe5b906020010190600160f860020a031916908160001a905350600101612c27565b5060005b8751811015612cdd57878181518110612c9957fe5b016020015160f860020a900460f860020a02838380600101945081518110612cbd57fe5b906020010190600160f860020a031916908160001a905350600101612c84565b5060005b8651811015612d3a57868181518110612cf657fe5b016020015160f860020a900460f860020a02838380600101945081518110612d1a57fe5b906020010190600160f860020a031916908160001a905350600101612ce1565b5060005b8551811015612d9757858181518110612d5357fe5b016020015160f860020a900460f860020a02838380600101945081518110612d7757fe5b906020010190600160f860020a031916908160001a905350600101612d3e565b5060005b8451811015612df457848181518110612db057fe5b016020015160f860020a900460f860020a02838380600101945081518110612dd457fe5b906020010190600160f860020a031916908160001a905350600101612d9b565b50909d9c50505050505050505050505050565b6005818051610766929160200190612e6a565b604080519081016040526000808252602082015290565b60c06040519081016040526006815b6000815260200190600190039081612e405790505090565b60206040519081016040526000815290565b828054600181600116156101000203166002900490600052602060002090601f016020900481019282601f10612eab57805160ff1916838001178555612ed8565b82800160010185558215612ed8579182015b82811115612ed8578251825591602001919060010190612ebd565b50612ee4929150612ee8565b5090565b6116a491905b80821115612ee45760008155600101612eee565b60008054600160a060020a03909216600160a060020a031992831681179091556001805490921617815590565b600354600160a060020a03161580612f595750600354612f5790600160a060020a03166125a8565b155b15612f6a57612f6860006125ac565b505b600354600160a060020a03166338cc48316000604051602001526040518163ffffffff1660e060020a028152600401602060405180830381600087803b1515612fb257600080fd5b6102c65a03f11515612fc357600080fd5b505050604051805160048054600160a060020a031916600160a060020a03928316179081905516905063ca6ad1e48260405160e060020a63ffffffff84160281526004810191909152602401600060405180830381600087803b151561302857600080fd5b6102c65a03f1151561073257600080fd003f247b5b646563727970745d203c212d2d50555420454e435259505445445f515545525920484552452d2d3e207d292e726174696e67735b305d5b276f62736572766174696f6e73272c276c6174653135272c276c6174653330272c276c6174653435272c2763616e63656c6c6564272c276469766572746564272c276172726976616c416972706f72744673436f6465272c27646570617274757265416972706f72744673436f6465275da165627a7a72305820416c1195855b54517487f64e97fd8710ed5303efb789b9aac36e5fd5831161ac0029",
  "source": "/**\n * FlightDelay with Oraclized Underwriting and Payout\n *\n * @description\tUnderwrite contract\n * @copyright (c) 2017 etherisc GmbH\n * @author Christoph Mussenbrock\n */\n\npragma solidity ^0.4.11;\n\nimport \"./FlightDelayControlledContract.sol\";\nimport \"./FlightDelayConstants.sol\";\nimport \"./FlightDelayDatabaseInterface.sol\";\nimport \"./FlightDelayAccessControllerInterface.sol\";\nimport \"./FlightDelayLedgerInterface.sol\";\nimport \"./FlightDelayUnderwriteInterface.sol\";\nimport \"./FlightDelayPayoutInterface.sol\";\nimport \"./FlightDelayOraclizeInterface.sol\";\nimport \"./convertLib.sol\";\nimport \"./../vendors/strings.sol\";\n\n\ncontract FlightDelayUnderwrite is FlightDelayControlledContract, FlightDelayConstants, FlightDelayOraclizeInterface, ConvertLib {\n\n    using strings for *;\n\n    FlightDelayDatabaseInterface FD_DB;\n    FlightDelayLedgerInterface FD_LG;\n    FlightDelayPayoutInterface FD_PY;\n    FlightDelayAccessControllerInterface FD_AC;\n\n    function FlightDelayUnderwrite(address _controller) public {\n        setController(_controller);\n        oraclize_setCustomGasPrice(ORACLIZE_GASPRICE);\n    }\n\n    function setContracts() public onlyController {\n        FD_AC = FlightDelayAccessControllerInterface(getContract(\"FD.AccessController\"));\n        FD_DB = FlightDelayDatabaseInterface(getContract(\"FD.Database\"));\n        FD_LG = FlightDelayLedgerInterface(getContract(\"FD.Ledger\"));\n        FD_PY = FlightDelayPayoutInterface(getContract(\"FD.Payout\"));\n\n        FD_AC.setPermissionById(101, \"FD.NewPolicy\");\n        FD_AC.setPermissionById(102, \"FD.Funder\");\n    }\n\n    /*\n     * @dev Fund contract\n     */\n    function () payable {\n        require(FD_AC.checkPermission(102, msg.sender));\n\n        // todo: bookkeeping\n        // todo: fire funding event\n    }\n\n    function scheduleUnderwriteOraclizeCall(uint _policyId, bytes32 _carrierFlightNumber) public {\n        require(FD_AC.checkPermission(101, msg.sender));\n\n        string memory oraclizeUrl = strConcat(\n            ORACLIZE_RATINGS_BASE_URL,\n            b32toString(_carrierFlightNumber),\n            ORACLIZE_RATINGS_QUERY\n        );\n\n// --> debug-mode\n//            LogUint(\"_policyId\", _policyId);\n//            LogBytes32Str(\"_carrierFlightNumber\",_carrierFlightNumber);\n//            LogString(\"oraclizeUrl\", oraclizeUrl);\n// <-- debug-mode\n\n        bytes32 queryId = oraclize_query(\"nested\", oraclizeUrl, ORACLIZE_GAS);\n\n        // call oraclize to get Flight Stats; this will also call underwrite()\n        FD_DB.createOraclizeCallback(\n            queryId,\n            _policyId,\n            oraclizeState.ForUnderwriting,\n            0\n        );\n\n        LogOraclizeCall(_policyId, queryId, oraclizeUrl, 0);\n    }\n\n    function __callback(bytes32 _queryId, string _result, bytes _proof) onlyOraclizeOr(getContract('FD.Emergency')) public {\n\n        var (policyId,) = FD_DB.getOraclizeCallback(_queryId);\n        LogOraclizeCallback(policyId, _queryId, _result, _proof);\n\n        var slResult = _result.toSlice();\n\n        // we expect result to contain 8 values, something like\n        // \"[61, 10, 4, 3, 0, 0, \\\"CUN\\\", \\\"SFO\\\"]\" ->\n        // ['observations','late15','late30','late45','cancelled','diverted','arrivalAirportFsCode','departureAirportFsCode']\n        if (bytes(_result).length == 0) {\n            decline(policyId, \"Declined (empty result)\", _proof);\n        } else {\n            // now slice the string using\n            // https://github.com/Arachnid/solidity-stringutils\n            if (slResult.count(\", \".toSlice()) != 7) {\n                // check if result contains 8 values\n                decline(policyId, \"Declined (invalid result)\", _proof);\n            } else {\n                slResult.beyond(\"[\".toSlice()).until(\"]\".toSlice());\n\n                uint observations = parseInt(slResult.split(\", \".toSlice()).toString());\n\n                // decline on < minObservations observations,\n                // can't calculate reasonable probabibilities\n                if (observations <= MIN_OBSERVATIONS) {\n                    decline(policyId, \"Declined (too few observations)\", _proof);\n                } else {\n                    uint[6] memory statistics;\n                    // calculate statistics (scaled by 10000; 1% => 100)\n                    statistics[0] = observations;\n                    for (uint i = 1; i <= 5; i++) {\n                        statistics[i] = parseInt(slResult.split(\", \".toSlice()).toString()) * 10000/observations;\n                    }\n\n                    underwrite(policyId, statistics, _proof);\n\n//                    var origin = slResult.split(\", \".toSlice());\n//                    for (uint j = 0; j < FD_DB.countOrigins(); j++) {\n//                        if (b32toString(FD_DB.getOriginByIndex(j)).toSlice().equals(origin)) {\n//                            underwrite(policyId, statistics, _proof);\n//                            return;\n//                        }\n//                    }\n//\n//                    var destination = slResult.split(\", \".toSlice());\n//                    for (uint k = 0; k < FD_DB.countDestinations(); k++) {\n//                        if (b32toString(FD_DB.getDestinationByIndex(k)).toSlice().equals(destination)) {\n//                           underwrite(policyId, statistics, _proof);\n//                           return;\n//                        }\n//                    }\n//\n//                    decline(policyId, \"Not acceptable airport\", _proof);\n                }\n            }\n        }\n    } // __callback\n\n    function externalDecline(uint _policyId, bytes32 _reason) public {\n        require(msg.sender == FD_CI.getContract(\"FD.CustomersAdmin\"));\n\n        LogPolicyDeclined(_policyId, _reason);\n\n        FD_DB.setState(\n            _policyId,\n            policyState.Declined,\n            now,\n            _reason\n        );\n\n        FD_DB.setWeight(_policyId, 0, \"\");\n\n        var (customer, premium) = FD_DB.getCustomerPremium(_policyId);\n\n        if (!FD_LG.sendFunds(customer, Acc.Premium, premium)) {\n            FD_DB.setState(\n                _policyId,\n                policyState.SendFailed,\n                now,\n                \"decline: Send failed.\"\n            );\n        }\n    }\n\n    function decline(uint _policyId, bytes32 _reason, bytes _proof)\tinternal {\n        LogPolicyDeclined(_policyId, _reason);\n\n        FD_DB.setState(\n            _policyId,\n            policyState.Declined,\n            now,\n            _reason\n        );\n\n        FD_DB.setWeight(_policyId, 0, _proof);\n\n        var (customer, premium) = FD_DB.getCustomerPremium(_policyId);\n\n        // TODO: LOG\n        if (!FD_LG.sendFunds(customer, Acc.Premium, premium)) {\n            FD_DB.setState(\n                _policyId,\n                policyState.SendFailed,\n                now,\n                \"decline: Send failed.\"\n            );\n        }\n    }\n\n    function underwrite(uint _policyId, uint[6] _statistics, bytes _proof) internal {\n        var (, premium) = FD_DB.getCustomerPremium(_policyId); // throws if _policyId invalid\n        bytes32 riskId = FD_DB.getRiskId(_policyId);\n\n        var (, premiumMultiplier) = FD_DB.getPremiumFactors(riskId);\n        var (, , arrivalTime) = FD_DB.getRiskParameters(riskId);\n\n        uint weight;\n        for (uint8 i = 1; i <= 5; i++ ) {\n            weight += WEIGHT_PATTERN[i] * _statistics[i];\n            // 1% = 100 / 100% = 10,000\n        }\n        // to avoid div0 in the payout section,\n        // we have to make a minimal assumption on p.weight.\n        if (weight == 0) {\n            weight = 100000 / _statistics[0];\n        }\n\n        // we calculate the factors to limit cluster risks.\n        if (premiumMultiplier == 0) {\n            // it's the first call, we accept any premium\n            FD_DB.setPremiumFactors(riskId, premium * 100000 / weight, 100000 / weight);\n        }\n\n        FD_DB.setWeight(_policyId, weight, _proof);\n\n        FD_DB.setState(\n            _policyId,\n            policyState.Accepted,\n            now,\n            \"Policy underwritten by oracle\"\n        );\n\n        LogPolicyAccepted(\n            _policyId,\n            _statistics[0],\n            _statistics[1],\n            _statistics[2],\n            _statistics[3],\n            _statistics[4],\n            _statistics[5]\n        );\n\n        // schedule payout Oracle\n        FD_PY.schedulePayoutOraclizeCall(_policyId, riskId, arrivalTime + CHECK_PAYOUT_OFFSET);\n    }\n}\n",
  "sourcePath": "/Users/A/Data/Altoros/1244-Etherisc/repos/flightdelay/contracts/FlightDelayUnderwrite.sol",
  "compiler": {
    "name": "solc",
    "version": "0.4.19+commit.c4cbbb05.Emscripten.clang"
  },
  "schemaVersion": "2.0.0",
  "updatedAt": "2018-04-05T12:35:45.927Z"
}