{
  "contractName": "FlightDelayUnderwrite",
  "abi": [
    {
      "constant": false,
      "inputs": [
        {
          "name": "_policyId",
          "type": "uint256"
        },
        {
          "name": "_reason",
          "type": "bytes32"
        }
      ],
      "name": "externalDecline",
      "outputs": [],
      "payable": false,
      "stateMutability": "nonpayable",
      "type": "function"
    },
    {
      "constant": false,
      "inputs": [
        {
          "name": "myid",
          "type": "bytes32"
        },
        {
          "name": "result",
          "type": "string"
        }
      ],
      "name": "__callback",
      "outputs": [],
      "payable": false,
      "stateMutability": "nonpayable",
      "type": "function"
    },
    {
      "constant": false,
      "inputs": [],
      "name": "destruct",
      "outputs": [],
      "payable": false,
      "stateMutability": "nonpayable",
      "type": "function"
    },
    {
      "constant": false,
      "inputs": [
        {
          "name": "_queryId",
          "type": "bytes32"
        },
        {
          "name": "_result",
          "type": "string"
        },
        {
          "name": "_proof",
          "type": "bytes"
        }
      ],
      "name": "__callback",
      "outputs": [],
      "payable": false,
      "stateMutability": "nonpayable",
      "type": "function"
    },
    {
      "constant": true,
      "inputs": [],
      "name": "PATCH_VERSION",
      "outputs": [
        {
          "name": "",
          "type": "uint256"
        }
      ],
      "payable": false,
      "stateMutability": "view",
      "type": "function"
    },
    {
      "constant": false,
      "inputs": [
        {
          "name": "_gasPrice",
          "type": "uint256"
        }
      ],
      "name": "setOraclizeGasPrice",
      "outputs": [
        {
          "name": "_success",
          "type": "bool"
        }
      ],
      "payable": false,
      "stateMutability": "nonpayable",
      "type": "function"
    },
    {
      "constant": false,
      "inputs": [
        {
          "name": "x",
          "type": "bytes32"
        }
      ],
      "name": "b32toHexString",
      "outputs": [
        {
          "name": "",
          "type": "string"
        }
      ],
      "payable": false,
      "stateMutability": "nonpayable",
      "type": "function"
    },
    {
      "constant": false,
      "inputs": [
        {
          "name": "_policyId",
          "type": "uint256"
        },
        {
          "name": "_carrierFlightNumber",
          "type": "bytes32"
        }
      ],
      "name": "scheduleUnderwriteOraclizeCall",
      "outputs": [],
      "payable": false,
      "stateMutability": "nonpayable",
      "type": "function"
    },
    {
      "constant": true,
      "inputs": [
        {
          "name": "_dayMonthYear",
          "type": "bytes32"
        }
      ],
      "name": "toUnixtime",
      "outputs": [
        {
          "name": "unixtime",
          "type": "uint256"
        }
      ],
      "payable": false,
      "stateMutability": "view",
      "type": "function"
    },
    {
      "constant": true,
      "inputs": [],
      "name": "MINOR_VERSION",
      "outputs": [
        {
          "name": "",
          "type": "uint256"
        }
      ],
      "payable": false,
      "stateMutability": "view",
      "type": "function"
    },
    {
      "constant": false,
      "inputs": [],
      "name": "setContracts",
      "outputs": [],
      "payable": false,
      "stateMutability": "nonpayable",
      "type": "function"
    },
    {
      "constant": true,
      "inputs": [],
      "name": "controller",
      "outputs": [
        {
          "name": "",
          "type": "address"
        }
      ],
      "payable": false,
      "stateMutability": "view",
      "type": "function"
    },
    {
      "constant": true,
      "inputs": [],
      "name": "MAJOR_VERSION",
      "outputs": [
        {
          "name": "",
          "type": "uint256"
        }
      ],
      "payable": false,
      "stateMutability": "view",
      "type": "function"
    },
    {
      "inputs": [
        {
          "name": "_controller",
          "type": "address"
        }
      ],
      "payable": false,
      "stateMutability": "nonpayable",
      "type": "constructor"
    },
    {
      "payable": true,
      "stateMutability": "payable",
      "type": "fallback"
    },
    {
      "anonymous": false,
      "inputs": [
        {
          "indexed": false,
          "name": "_policyId",
          "type": "uint256"
        },
        {
          "indexed": false,
          "name": "_customer",
          "type": "address"
        },
        {
          "indexed": false,
          "name": "strCarrierFlightNumber",
          "type": "bytes32"
        },
        {
          "indexed": false,
          "name": "ethPremium",
          "type": "uint256"
        }
      ],
      "name": "LogPolicyApplied",
      "type": "event"
    },
    {
      "anonymous": false,
      "inputs": [
        {
          "indexed": false,
          "name": "_policyId",
          "type": "uint256"
        },
        {
          "indexed": false,
          "name": "_statistics0",
          "type": "uint256"
        },
        {
          "indexed": false,
          "name": "_statistics1",
          "type": "uint256"
        },
        {
          "indexed": false,
          "name": "_statistics2",
          "type": "uint256"
        },
        {
          "indexed": false,
          "name": "_statistics3",
          "type": "uint256"
        },
        {
          "indexed": false,
          "name": "_statistics4",
          "type": "uint256"
        },
        {
          "indexed": false,
          "name": "_statistics5",
          "type": "uint256"
        }
      ],
      "name": "LogPolicyAccepted",
      "type": "event"
    },
    {
      "anonymous": false,
      "inputs": [
        {
          "indexed": false,
          "name": "_policyId",
          "type": "uint256"
        },
        {
          "indexed": false,
          "name": "ethAmount",
          "type": "uint256"
        }
      ],
      "name": "LogPolicyPaidOut",
      "type": "event"
    },
    {
      "anonymous": false,
      "inputs": [
        {
          "indexed": false,
          "name": "_policyId",
          "type": "uint256"
        }
      ],
      "name": "LogPolicyExpired",
      "type": "event"
    },
    {
      "anonymous": false,
      "inputs": [
        {
          "indexed": false,
          "name": "_policyId",
          "type": "uint256"
        },
        {
          "indexed": false,
          "name": "strReason",
          "type": "bytes32"
        }
      ],
      "name": "LogPolicyDeclined",
      "type": "event"
    },
    {
      "anonymous": false,
      "inputs": [
        {
          "indexed": false,
          "name": "_policyId",
          "type": "uint256"
        },
        {
          "indexed": false,
          "name": "strReason",
          "type": "bytes32"
        }
      ],
      "name": "LogPolicyManualPayout",
      "type": "event"
    },
    {
      "anonymous": false,
      "inputs": [
        {
          "indexed": false,
          "name": "_recipient",
          "type": "address"
        },
        {
          "indexed": false,
          "name": "_from",
          "type": "uint8"
        },
        {
          "indexed": false,
          "name": "ethAmount",
          "type": "uint256"
        }
      ],
      "name": "LogSendFunds",
      "type": "event"
    },
    {
      "anonymous": false,
      "inputs": [
        {
          "indexed": false,
          "name": "_sender",
          "type": "address"
        },
        {
          "indexed": false,
          "name": "_to",
          "type": "uint8"
        },
        {
          "indexed": false,
          "name": "ethAmount",
          "type": "uint256"
        }
      ],
      "name": "LogReceiveFunds",
      "type": "event"
    },
    {
      "anonymous": false,
      "inputs": [
        {
          "indexed": false,
          "name": "_policyId",
          "type": "uint256"
        },
        {
          "indexed": false,
          "name": "strReason",
          "type": "bytes32"
        }
      ],
      "name": "LogSendFail",
      "type": "event"
    },
    {
      "anonymous": false,
      "inputs": [
        {
          "indexed": false,
          "name": "_policyId",
          "type": "uint256"
        },
        {
          "indexed": false,
          "name": "hexQueryId",
          "type": "bytes32"
        },
        {
          "indexed": false,
          "name": "_oraclizeUrl",
          "type": "string"
        },
        {
          "indexed": false,
          "name": "_oraclizeTime",
          "type": "uint256"
        }
      ],
      "name": "LogOraclizeCall",
      "type": "event"
    },
    {
      "anonymous": false,
      "inputs": [
        {
          "indexed": false,
          "name": "_policyId",
          "type": "uint256"
        },
        {
          "indexed": false,
          "name": "hexQueryId",
          "type": "bytes32"
        },
        {
          "indexed": false,
          "name": "_result",
          "type": "string"
        },
        {
          "indexed": false,
          "name": "hexProof",
          "type": "bytes"
        }
      ],
      "name": "LogOraclizeCallback",
      "type": "event"
    },
    {
      "anonymous": false,
      "inputs": [
        {
          "indexed": false,
          "name": "_policyId",
          "type": "uint256"
        },
        {
          "indexed": false,
          "name": "_policyState",
          "type": "uint8"
        },
        {
          "indexed": false,
          "name": "_stateTime",
          "type": "uint256"
        },
        {
          "indexed": false,
          "name": "_stateMessage",
          "type": "bytes32"
        }
      ],
      "name": "LogSetState",
      "type": "event"
    },
    {
      "anonymous": false,
      "inputs": [
        {
          "indexed": false,
          "name": "_policyId",
          "type": "uint256"
        },
        {
          "indexed": false,
          "name": "_address",
          "type": "address"
        },
        {
          "indexed": false,
          "name": "_externalId",
          "type": "bytes32"
        }
      ],
      "name": "LogExternal",
      "type": "event"
    }
  ],
  "bytecode": "0x606060405260c0604051908101604090815260008083526020830181905290820152601e606082015260326080820181905260a082015262000046906002906006620006b2565b506101806040519081016040908152600b8252602a6020830152604690820152606560608201526083608082015260a260a082015260c08082015260df60e082015260fe61010082015261011c61012082015261013b610140820152610159610160820152620000bb90600890600c6200074c565b503415620000c857600080fd5b60405160208062003bd7833981016040528080519150620000f9905081640100000000620031656200011e82021704565b506200011763ee6b28006401000000006200227d6200014b82021704565b50620008c9565b60008054600160a060020a03909216600160a060020a031992831681179091556001805490921617815590565b600354600160a060020a031615806200018657506003546200018490600160a060020a03166401000000006200280b620002b382021704565b155b15620001a857620001a660006401000000006200280f620002b782021704565b505b600354600160a060020a03166338cc48316000604051602001526040518163ffffffff167c0100000000000000000000000000000000000000000000000000000000028152600401602060405180830381600087803b15156200020a57600080fd5b6102c65a03f115156200021c57600080fd5b505050604051805160048054600160a060020a031916600160a060020a03928316179081905516905063ca6ad1e4826040517c010000000000000000000000000000000000000000000000000000000063ffffffff84160281526004810191909152602401600060405180830381600087803b15156200029b57600080fd5b6102c65a03f11515620002ad57600080fd5b50505050565b3b90565b600080620002e7731d3b2638a7cc9f2cb3d298a3da7a90b67e5506ed6401000000006200280b620002b382021704565b1115620003695760038054600160a060020a031916731d3b2638a7cc9f2cb3d298a3da7a90b67e5506ed1790556200036060408051908101604052600b81527f6574685f6d61696e6e657400000000000000000000000000000000000000000060208201526401000000006200306a6200069982021704565b50600162000694565b60006200039873c03a2615d5efaf5f49f60b7bb6583eaec212fdf16401000000006200280b620002b382021704565b1115620004115760038054600160a060020a03191673c03a2615d5efaf5f49f60b7bb6583eaec212fdf11790556200036060408051908101604052600c81527f6574685f726f707374656e33000000000000000000000000000000000000000060208201526401000000006200306a6200069982021704565b60006200044073b7a07bcf2ba2f2703b24c0691b5278999c59ac7e6401000000006200280b620002b382021704565b1115620004b95760038054600160a060020a03191673b7a07bcf2ba2f2703b24c0691b5278999c59ac7e1790556200036060408051908101604052600981527f6574685f6b6f76616e000000000000000000000000000000000000000000000060208201526401000000006200306a6200069982021704565b6000620004e873146500cfd35b22e4a392fe0adc06de1a1368ed486401000000006200280b620002b382021704565b1115620005615760038054600160a060020a03191673146500cfd35b22e4a392fe0adc06de1a1368ed481790556200036060408051908101604052600b81527f6574685f72696e6b65627900000000000000000000000000000000000000000060208201526401000000006200306a6200069982021704565b600062000590736f485c8bf6fc43ea212e93bbf8ce046c7f1cb4756401000000006200280b620002b382021704565b1115620005c6575060038054600160a060020a031916736f485c8bf6fc43ea212e93bbf8ce046c7f1cb475179055600162000694565b6000620005f57320e12a1f859b3feae5fb2a0a32c18f5a65555bbf6401000000006200280b620002b382021704565b11156200062b575060038054600160a060020a0319167320e12a1f859b3feae5fb2a0a32c18f5a65555bbf179055600162000694565b60006200065a7351efaf4c8b3c9afbd5ab9f4bbc82784ab6ef8faa6401000000006200280b620002b382021704565b111562000690575060038054600160a060020a0319167351efaf4c8b3c9afbd5ab9f4bbc82784ab6ef8faa179055600162000694565b5060005b919050565b6005818051620006ae929160200190620007e5565b5050565b6001830191839082156200073a5791602002820160005b838211156200070957835183826101000a81548160ff021916908360ff1602179055509260200192600101602081600001049283019260010302620006c9565b8015620007385782816101000a81549060ff021916905560010160208160000104928301926001030262000709565b505b506200074892915062000866565b5090565b600183019183908215620007d75791602002820160005b83821115620007a557835183826101000a81548161ffff021916908361ffff160217905550926020019260020160208160010104928301926001030262000763565b8015620007d55782816101000a81549061ffff0219169055600201602081600101049283019260010302620007a5565b505b50620007489291506200088a565b828054600181600116156101000203166002900490600052602060002090601f016020900481019282601f106200082857805160ff191683800117855562000858565b8280016001018555821562000858579182015b82811115620008585782518255916020019190600101906200083b565b5062000748929150620008ac565b6200088791905b808211156200074857805460ff191681556001016200086d565b90565b6200088791905b808211156200074857805461ffff1916815560010162000891565b6200088791905b80821115620007485760008155600101620008b3565b6132fe80620008d96000396000f3006060604052600436106100ab5763ffffffff60e060020a6000350416630da76f1c811461013657806327dc297e1461014f5780632b68b9c6146101a557806338bbfa50146101b85780636bf2606a1461025057806371c82c14146102755780638ad46ba01461029f5780638b8c5ed91461032c578063bcf599f114610345578063c8b915311461035b578063e0d6d5301461036e578063f77c479114610381578063f786becd146103b0575b600c54600160a060020a0316633ebd609260663360006040516020015260405160e060020a63ffffffff851602815260ff9092166004830152600160a060020a03166024820152604401602060405180830381600087803b151561010e57600080fd5b6102c65a03f1151561011f57600080fd5b50505060405180519050151561013457600080fd5b005b341561014157600080fd5b6101346004356024356103c3565b341561015a57600080fd5b610134600480359060446024803590810190830135806020601f8201819004810201604051908101604052818152929190602084018383808284375094965061076d95505050505050565b34156101b057600080fd5b61013461079f565b34156101c357600080fd5b610134600480359060446024803590810190830135806020601f8201819004810201604051908101604052818152929190602084018383808284378201915050505050509190803590602001908201803590602001908080601f0160208091040260200160405190810160405281815292919060208401838380828437509496506107c895505050505050565b341561025b57600080fd5b610263610c17565b60405190815260200160405180910390f35b341561028057600080fd5b61028b600435610c1c565b604051901515815260200160405180910390f35b34156102aa57600080fd5b6102b5600435610cb8565b60405160208082528190810183818151815260200191508051906020019080838360005b838110156102f15780820151838201526020016102d9565b50505050905090810190601f16801561031e5780820380516001836020036101000a031916815260200191505b509250505060405180910390f35b341561033757600080fd5b610134600435602435610dc7565b341561035057600080fd5b61026360043561108e565b341561036657600080fd5b610263611392565b341561037957600080fd5b610134611397565b341561038c57600080fd5b61039461165d565b604051600160a060020a03909116815260200160405180910390f35b34156103bb57600080fd5b61026361166c565b6001546000908190600160a060020a031663e16c7d98826040516020015260405160e060020a63ffffffff83160281527f46442e437573746f6d65727341646d696e0000000000000000000000000000006004820152602401602060405180830381600087803b151561043557600080fd5b6102c65a03f1151561044657600080fd5b50505060405180519050600160a060020a031633600160a060020a031614151561046f57600080fd5b7f9ee71fae4eaec97727495a88dce95da03083cceac90064c30bd03ef65b86a3ae848460405191825260208201526040908101905180910390a1600954600160a060020a031663418cf5b185600542876040518563ffffffff1660e060020a028152600401808581526020018460068111156104e757fe5b60ff16815260208101939093525060408083019190915260609091019250600091505180830381600087803b151561051e57600080fd5b6102c65a03f1151561052f57600080fd5b5050600954600160a060020a0316905063ffe280ee85600060405160e060020a63ffffffff8516028152600481019290925260248201526060604482015260006064820181905260a49091019060405180830381600087803b151561059357600080fd5b6102c65a03f115156105a457600080fd5b5050600954600160a060020a0316905063c168e0378560006040516040015260405160e060020a63ffffffff841602815260048101919091526024016040805180830381600087803b15156105f857600080fd5b6102c65a03f1151561060957600080fd5b5050506040518051906020018051600a54929450925050600160a060020a03166350bed0438360008481604051602001526040518463ffffffff1660e060020a0281526004018084600160a060020a0316600160a060020a0316815260200183600581111561067457fe5b60ff1681526020018281526020019350505050602060405180830381600087803b15156106a057600080fd5b6102c65a03f115156106b157600080fd5b50505060405180519050151561076757600954600160a060020a031663418cf5b1856006426040518463ffffffff1660e060020a028152600401808481526020018360068111156106fe57fe5b60ff168152602001828152602001807f6465636c696e653a2053656e64206661696c65642e00000000000000000000008152506020019350505050600060405180830381600087803b151561075257600080fd5b6102c65a03f1151561076357600080fd5b5050505b50505050565b61079b828260006040518059106107815750595b818152601f19601f830116810160200160405290506107c8565b5050565b60005433600160a060020a039081169116146107ba57600080fd5b600054600160a060020a0316ff5b60006107d261307d565b60006107dc613094565b60006108077f46442e456d657267656e63790000000000000000000000000000000000000000611671565b61080f6116e4565b600160a060020a031633600160a060020a0316148061083f575080600160a060020a031633600160a060020a0316145b151561084a57600080fd5b600954600160a060020a0316637f205c8c8a60006040516040015260405160e060020a63ffffffff841602815260048101919091526024016040805180830381600087803b151561089a57600080fd5b6102c65a03f115156108ab57600080fd5b505050604051805190602001805190505095507f4e010942cd8d70ef60f3bd7e17c62008722f9551f8f28dc7040004160de7e2cc868a8a8a60405184815260208101849052608060408201818152906060830190830185818151815260200191508051906020019080838360005b83811015610931578082015183820152602001610919565b50505050905090810190601f16801561095e5780820380516001836020036101000a031916815260200191505b50838103825284818151815260200191508051906020019080838360005b8381101561099457808201518382015260200161097c565b50505050905090810190601f1680156109c15780820380516001836020036101000a031916815260200191505b50965050505050505060405180910390a16109db88611800565b945087511515610a1557610a10867f4465636c696e65642028656d70747920726573756c742900000000000000000089611828565b610c0c565b610a49610a3c604080519081016040526002815260f560020a610161026020820152611800565b869063ffffffff611b8716565b600714610a7b57610a10867f4465636c696e65642028696e76616c696420726573756c74290000000000000089611828565b610b12610aba60408051908101604052600181527f5d000000000000000000000000000000000000000000000000000000000000006020820152611800565b610b06610af960408051908101604052600181527f5b000000000000000000000000000000000000000000000000000000000000006020820152611800565b889063ffffffff611be516565b9063ffffffff611c4f16565b50610b57610b52610b4d610b40604080519081016040526002815260f560020a610161026020820152611800565b889063ffffffff611cb616565b611cc9565b611d17565b9350600a8411610b8c57610a10867f4465636c696e65642028746f6f20666577206f62736572766174696f6e73290089611828565b838352600191505b60058211610c015783610bd7610b52610b4d610bca604080519081016040526002815260f560020a610161026020820152611800565b899063ffffffff611cb616565b61271002811515610be457fe5b04838360068110610bf157fe5b6020020152600190910190610b94565b610c0c868489611d2c565b505050505050505050565b600281565b600c54600090600160a060020a0316633ebd6092606733846040516020015260405160e060020a63ffffffff851602815260ff9092166004830152600160a060020a03166024820152604401602060405180830381600087803b1515610c8157600080fd5b6102c65a03f11515610c9257600080fd5b505050604051805190501515610ca757600080fd5b610cb08261227d565b506001919050565b610cc06130bb565b610cc86130bb565b60008060008060408051805910610cdc5750595b818152601f19601f830116810160200160405290509450600093505b6020841015610dbc576008601f8590030260020a87811515610d1657fe5b049250601060ff841604915050601081028203600960ff83161115610d3c576027820191505b60098160ff161115610d4c576027015b8160300160f860020a02858560020281518110610d6557fe5b906020010190600160f860020a031916908160001a9053508060300160f860020a02858560020260010181518110610d9957fe5b906020010190600160f860020a031916908160001a905350600190930192610cf8565b509295945050505050565b610dcf6130bb565b600c54600090600160a060020a0316633ebd6092606533846040516020015260405160e060020a63ffffffff851602815260ff9092166004830152600160a060020a03166024820152604401602060405180830381600087803b1515610e3457600080fd5b6102c65a03f11515610e4557600080fd5b505050604051805190501515610e5a57600080fd5b610f08608060405190810160405280604881526020017f5b55524c5d206a736f6e2868747470733a2f2f6170692e666c6967687473746181526020017f74732e636f6d2f666c65782f726174696e67732f726573742f76312f6a736f6e81526020017f2f666c696768742f000000000000000000000000000000000000000000000000815250610ee985612387565b61016060405190810160405261014080825261319360208301396124cf565b9150610f4b60408051908101604052600681527f6e65737465640000000000000000000000000000000000000000000000000000602082015283620aae6061250a565b600954909150600160a060020a0316632ba1e439828660008060405160e060020a63ffffffff8716028152600481018581526024820185905290604401836001811115610f9457fe5b60ff168152602001828152602001945050505050600060405180830381600087803b1515610fc157600080fd5b6102c65a03f11515610fd257600080fd5b5050507f57d5927fefa8de5620b57ca7ac0948a9ea457d8f3af2bd8867728325a6ca5d928482846000604051848152602081018490526060810182905260806040820181815290820184818151815260200191508051906020019080838360005b8381101561104b578082015183820152602001611033565b50505050905090810190601f1680156110785780820380516001836020036101000a031916815260200191505b509550505050505060405180910390a150505050565b60006110986130bb565b6110a06130bb565b6110a86130bb565b60008060006110b688612387565b955060026040518059106110c75750595b818152601f19601f83011681016020016040529050945060046040518059106110ed5750595b818152601f19601f8301168101602001604052905093508560058151811061111157fe5b016020015160f860020a900460f860020a028460008151811061113057fe5b906020010190600160f860020a031916908160001a9053508560068151811061115557fe5b016020015160f860020a900460f860020a028460018151811061117457fe5b906020010190600160f860020a031916908160001a9053508560078151811061119957fe5b016020015160f860020a900460f860020a02846002815181106111b857fe5b906020010190600160f860020a031916908160001a905350856008815181106111dd57fe5b016020015160f860020a900460f860020a02846003815181106111fc57fe5b906020010190600160f860020a031916908160001a90535061121d84611d17565b925085600a8151811061122c57fe5b016020015160f860020a900460f860020a028560008151811061124b57fe5b906020010190600160f860020a031916908160001a90535085600b8151811061127057fe5b016020015160f860020a900460f860020a028560018151811061128f57fe5b906020010190600160f860020a031916908160001a9053506112b085611d17565b915085600d815181106112bf57fe5b016020015160f860020a900460f860020a02856000815181106112de57fe5b906020010190600160f860020a031916908160001a90535085600e8151811061130357fe5b016020015160f860020a900460f860020a028560018151811061132257fe5b906020010190600160f860020a031916908160001a90535061134385611d17565b90508060086000198401600c811061135757fe5b601091828204019190066002029054906101000a900461ffff1661ffff166107b2850361016d02010162015180029650505050505050919050565b600081565b60005433600160a060020a039081169116146113b257600080fd5b6113db7f46442e416363657373436f6e74726f6c6c657200000000000000000000000000611671565b600c8054600160a060020a031916600160a060020a03929092169190911790556114247f46442e4461746162617365000000000000000000000000000000000000000000611671565b60098054600160a060020a031916600160a060020a039290921691909117905561146d7f46442e4c65646765720000000000000000000000000000000000000000000000611671565b600a8054600160a060020a031916600160a060020a03929092169190911790556114b67f46442e5061796f75740000000000000000000000000000000000000000000000611671565b600b8054600160a060020a031916600160a060020a03928316179055600c541663c28b4577606560405160e060020a63ffffffff841602815260ff90911660048201527f46442e4e6577506f6c69637900000000000000000000000000000000000000006024820152604401600060405180830381600087803b151561153b57600080fd5b6102c65a03f1151561154c57600080fd5b5050600c54600160a060020a0316905063c28b4577606660405160e060020a63ffffffff841602815260ff90911660048201527f46442e46756e64657200000000000000000000000000000000000000000000006024820152604401600060405180830381600087803b15156115c157600080fd5b6102c65a03f115156115d257600080fd5b5050600c54600160a060020a0316905063c28b4577606760405160e060020a63ffffffff841602815260ff90911660048201527f46442e4f776e65720000000000000000000000000000000000000000000000006024820152604401600060405180830381600087803b151561164757600080fd5b6102c65a03f1151561165857600080fd5b505050565b600054600160a060020a031681565b600181565b600154600090600160a060020a031663e16c7d9883836040516020015260405160e060020a63ffffffff84160281526004810191909152602401602060405180830381600087803b15156116c457600080fd5b6102c65a03f115156116d557600080fd5b50505060405180519392505050565b600354600090600160a060020a03161580611711575060035461170f90600160a060020a031661280b565b155b1561172257611720600061280f565b505b600354600160a060020a03166338cc48316000604051602001526040518163ffffffff1660e060020a028152600401602060405180830381600087803b151561176a57600080fd5b6102c65a03f1151561177b57600080fd5b505050604051805160048054600160a060020a031916600160a060020a03928316179081905516905063c281d19e6000604051602001526040518163ffffffff1660e060020a028152600401602060405180830381600087803b15156117e057600080fd5b6102c65a03f115156117f157600080fd5b50505060405180519150505b90565b61180861307d565b602082016040805190810160405280845181526020019190915292915050565b6000807f9ee71fae4eaec97727495a88dce95da03083cceac90064c30bd03ef65b86a3ae858560405191825260208201526040908101905180910390a1600954600160a060020a031663418cf5b186600542886040518563ffffffff1660e060020a028152600401808581526020018460068111156118a357fe5b60ff16815260208101939093525060408083019190915260609091019250600091505180830381600087803b15156118da57600080fd5b6102c65a03f115156118eb57600080fd5b5050600954600160a060020a0316905063ffe280ee866000866040518463ffffffff1660e060020a0281526004018084815260200183815260200180602001828103825283818151815260200191508051906020019080838360005b8381101561195f578082015183820152602001611947565b50505050905090810190601f16801561198c5780820380516001836020036101000a031916815260200191505b50945050505050600060405180830381600087803b15156119ac57600080fd5b6102c65a03f115156119bd57600080fd5b5050600954600160a060020a0316905063c168e0378660006040516040015260405160e060020a63ffffffff841602815260048101919091526024016040805180830381600087803b1515611a1157600080fd5b6102c65a03f11515611a2257600080fd5b5050506040518051906020018051600a54929450925050600160a060020a03166350bed0438360008481604051602001526040518463ffffffff1660e060020a0281526004018084600160a060020a0316600160a060020a03168152602001836005811115611a8d57fe5b60ff1681526020018281526020019350505050602060405180830381600087803b1515611ab957600080fd5b6102c65a03f11515611aca57600080fd5b505050604051805190501515611b8057600954600160a060020a031663418cf5b1866006426040518463ffffffff1660e060020a02815260040180848152602001836006811115611b1757fe5b60ff168152602001828152602001807f6465636c696e653a2053656e64206661696c65642e00000000000000000000008152506020019350505050600060405180830381600087803b1515611b6b57600080fd5b6102c65a03f11515611b7c57600080fd5b5050505b5050505050565b6000808251611ba28551866020015186518760200151612b35565b0190505b83518460200151018111611bde576001909101908251611bd6856020015183038651038386518760200151612b35565b019050611ba6565b5092915050565b611bed61307d565b6000825184511015611c0157839150611bde565b5060016020830151846020015114611c29578251602085015160208501518290209190201490505b8015611c475782518481815103905250825184602001818151019052505b509192915050565b611c5761307d565b600080835185511015611c6c57849250611cae565b835185518660200151010391506001905083602001518214611c9957835160208501518190209083201490505b8015611caa57835185818151039052505b8492505b505092915050565b611cbe61307d565b611bde838383612bd8565b611cd16130bb565b611cd96130bb565b60008351604051805910611cea5750595b818152601f19601f830116810160200160405290509150602082019050611bde8185602001518651612c47565b6000611d24826000612c8c565b90505b919050565b60095460009081908190819081908190600160a060020a031663c168e0378a836040516040015260405160e060020a63ffffffff841602815260048101919091526024016040805180830381600087803b1515611d8857600080fd5b6102c65a03f11515611d9957600080fd5b5050506040518051906020018051600954909850600160a060020a0316915063eb80733990508a60006040516020015260405160e060020a63ffffffff84160281526004810191909152602401602060405180830381600087803b1515611dff57600080fd5b6102c65a03f11515611e1057600080fd5b5050506040518051600954909650600160a060020a03169050639d5176fd8660006040516040015260405160e060020a63ffffffff841602815260048101919091526024016040805180830381600087803b1515611e6d57600080fd5b6102c65a03f11515611e7e57600080fd5b5050506040518051906020018051600954909650600160a060020a0316915063cdcdb46390508660006040516060015260405160e060020a63ffffffff84160281526004810191909152602401606060405180830381600087803b1515611ee457600080fd5b6102c65a03f11515611ef557600080fd5b50505060405180519060200180519060200180519550600193505050505b600560ff821611611f66578760ff821660068110611f2d57fe5b6020020151600260ff831660068110611f4257fe5b60208082049092015460ff929091066101000a900416029190910190600101611f13565b811515611f80578751620186a0811515611f7c57fe5b0491505b83151561201157600954600160a060020a031663802de8fc8684620186a08a02811515611fa957fe5b0485620186a0811515611fb857fe5b0460405160e060020a63ffffffff8616028152600481019390935260248301919091526044820152606401600060405180830381600087803b1515611ffc57600080fd5b6102c65a03f1151561200d57600080fd5b5050505b600954600160a060020a031663ffe280ee8a848a6040518463ffffffff1660e060020a0281526004018084815260200183815260200180602001828103825283818151815260200191508051906020019080838360005b83811015612080578082015183820152602001612068565b50505050905090810190601f1680156120ad5780820380516001836020036101000a031916815260200191505b50945050505050600060405180830381600087803b15156120cd57600080fd5b6102c65a03f115156120de57600080fd5b5050600954600160a060020a0316905063418cf5b18a6001426040518463ffffffff1660e060020a0281526004018084815260200183600681111561211f57fe5b60ff168152602001828152602001807f506f6c69637920756e6465727772697474656e206279206f7261636c650000008152506020019350505050600060405180830381600087803b151561217357600080fd5b6102c65a03f1151561218457600080fd5b507f70385f0d2eec84d8ff6456734404ae65b06b980e7360ea503ca23dcc56a1c51591508a9050895160208b015160408c015160608d015160808e015160a08f015160405196875260208701959095526040808701949094526060860192909252608085015260a084015260c083019190915260e0909101905180910390a1600b54600160a060020a031663746899908a87610384870160405160e060020a63ffffffff8616028152600481019390935260248301919091526044820152606401600060405180830381600087803b151561225e57600080fd5b6102c65a03f1151561226f57600080fd5b505050505050505050505050565b600354600160a060020a031615806122a757506003546122a590600160a060020a031661280b565b155b156122b8576122b6600061280f565b505b600354600160a060020a03166338cc48316000604051602001526040518163ffffffff1660e060020a028152600401602060405180830381600087803b151561230057600080fd5b6102c65a03f1151561231157600080fd5b505050604051805160048054600160a060020a031916600160a060020a03928316179081905516905063ca6ad1e48260405160e060020a63ffffffff84160281526004810191909152602401600060405180830381600087803b151561237657600080fd5b6102c65a03f1151561076757600080fd5b61238f6130bb565b6123976130bb565b60008060006123a46130bb565b60206040518059106123b35750595b818152601f19601f83011681016020016040529050945060009350600092505b6020831015612446576008830260020a870291507fff0000000000000000000000000000000000000000000000000000000000000082161561243b578185858151811061241c57fe5b906020010190600160f860020a031916908160001a9053506001909301925b6001909201916123d3565b836040518059106124545750595b818152601f19601f830116810160200160405290509050600092505b838310156124c55784838151811061248457fe5b016020015160f860020a900460f860020a028184815181106124a257fe5b906020010190600160f860020a031916908160001a905350600190920191612470565b9695505050505050565b6124d76130bb565b6125028484846020604051908101604052806000815250602060405190810160405260008152612dfa565b949350505050565b6003546000908190600160a060020a03161580612539575060035461253790600160a060020a031661280b565b155b1561254a57612548600061280f565b505b600354600160a060020a03166338cc48316000604051602001526040518163ffffffff1660e060020a028152600401602060405180830381600087803b151561259257600080fd5b6102c65a03f115156125a357600080fd5b505050604051805160048054600160a060020a031916600160a060020a039283161790819055169050632ef3accc86856000604051602001526040518363ffffffff1660e060020a0281526004018080602001838152602001828103825284818151815260200191508051906020019080838360005b83811015612631578082015183820152602001612619565b50505050905090810190601f16801561265e5780820380516001836020036101000a031916815260200191505b509350505050602060405180830381600087803b151561267d57600080fd5b6102c65a03f1151561268e57600080fd5b5050506040518051915050670de0b6b3a76400003a8402018111156126b65760009150612803565b600454600160a060020a031663c51be90f82600088888883604051602001526040518663ffffffff1660e060020a028152600401808581526020018060200180602001848152602001838103835286818151815260200191508051906020019080838360005b8381101561273457808201518382015260200161271c565b50505050905090810190601f1680156127615780820380516001836020036101000a031916815260200191505b50838103825285818151815260200191508051906020019080838360005b8381101561279757808201518382015260200161277f565b50505050905090810190601f1680156127c45780820380516001836020036101000a031916815260200191505b5096505050505050506020604051808303818588803b15156127e557600080fd5b6125ee5a03f115156127f657600080fd5b5050505060405180519250505b509392505050565b3b90565b60008061282f731d3b2638a7cc9f2cb3d298a3da7a90b67e5506ed61280b565b111561289f5760038054600160a060020a031916731d3b2638a7cc9f2cb3d298a3da7a90b67e5506ed17905561289760408051908101604052600b81527f6574685f6d61696e6e6574000000000000000000000000000000000000000000602082015261306a565b506001611d27565b60006128be73c03a2615d5efaf5f49f60b7bb6583eaec212fdf161280b565b11156129265760038054600160a060020a03191673c03a2615d5efaf5f49f60b7bb6583eaec212fdf117905561289760408051908101604052600c81527f6574685f726f707374656e330000000000000000000000000000000000000000602082015261306a565b600061294573b7a07bcf2ba2f2703b24c0691b5278999c59ac7e61280b565b11156129ad5760038054600160a060020a03191673b7a07bcf2ba2f2703b24c0691b5278999c59ac7e17905561289760408051908101604052600981527f6574685f6b6f76616e0000000000000000000000000000000000000000000000602082015261306a565b60006129cc73146500cfd35b22e4a392fe0adc06de1a1368ed4861280b565b1115612a345760038054600160a060020a03191673146500cfd35b22e4a392fe0adc06de1a1368ed4817905561289760408051908101604052600b81527f6574685f72696e6b656279000000000000000000000000000000000000000000602082015261306a565b6000612a53736f485c8bf6fc43ea212e93bbf8ce046c7f1cb47561280b565b1115612a87575060038054600160a060020a031916736f485c8bf6fc43ea212e93bbf8ce046c7f1cb4751790556001611d27565b6000612aa67320e12a1f859b3feae5fb2a0a32c18f5a65555bbf61280b565b1115612ada575060038054600160a060020a0319167320e12a1f859b3feae5fb2a0a32c18f5a65555bbf1790556001611d27565b6000612af97351efaf4c8b3c9afbd5ab9f4bbc82784ab6ef8faa61280b565b1115612b2d575060038054600160a060020a0319167351efaf4c8b3c9afbd5ab9f4bbc82784ab6ef8faa1790556001611d27565b506000919050565b600080808080888711612bc65760208711612b8c5760018760200360080260020a031980875116888b038a018a96505b818388511614612b81576001870196819010612b65578b8b0196505b505050839450612bcc565b8686209150879350600092505b8689038311612bc6575085832081811415612bb657839450612bcc565b6001938401939290920191612b99565b88880194505b50505050949350505050565b612be061307d565b6000612bf88551866020015186518760200151612b35565b90508460200151602080850191909152850151810383528451856020015101811415612c275760008552612c3e565b835183510185818151039052508351810160208601525b50909392505050565b60005b60208210612c6d5782518452602084019350602083019250602082039150612c4a565b6001826020036101000a03905080198351168185511617909352505050565b6000612c966130bb565b5082600080805b8351811015612ddd577f3000000000000000000000000000000000000000000000000000000000000000848281518110612cd357fe5b016020015160f860020a900460f860020a02600160f860020a03191610158015612d4457507f3900000000000000000000000000000000000000000000000000000000000000848281518110612d2557fe5b016020015160f860020a900460f860020a02600160f860020a03191611155b15612d9a578115612d6357851515612d5b57612ddd565b600019909501945b600a830292506030848281518110612d7757fe5b016020015160f860020a900460f860020a0260f860020a90040383019250612dd5565b838181518110612da657fe5b016020015160f860020a900460f860020a02600160f860020a031916602e60f860020a021415612dd557600191505b600101612c9d565b6000861115612def5785600a0a830292505b509095945050505050565b612e026130bb565b612e0a6130bb565b612e126130bb565b612e1a6130bb565b612e226130bb565b612e2a6130bb565b612e326130bb565b612e3a6130bb565b6000808e98508d97508c96508b95508a94508451865188518a518c5101010101604051805910612e675750595b818152601f19601f83011681016020016040529050935083925060009150600090505b8851811015612ee357888181518110612e9f57fe5b016020015160f860020a900460f860020a02838380600101945081518110612ec357fe5b906020010190600160f860020a031916908160001a905350600101612e8a565b5060005b8751811015612f4057878181518110612efc57fe5b016020015160f860020a900460f860020a02838380600101945081518110612f2057fe5b906020010190600160f860020a031916908160001a905350600101612ee7565b5060005b8651811015612f9d57868181518110612f5957fe5b016020015160f860020a900460f860020a02838380600101945081518110612f7d57fe5b906020010190600160f860020a031916908160001a905350600101612f44565b5060005b8551811015612ffa57858181518110612fb657fe5b016020015160f860020a900460f860020a02838380600101945081518110612fda57fe5b906020010190600160f860020a031916908160001a905350600101612fa1565b5060005b84518110156130575784818151811061301357fe5b016020015160f860020a900460f860020a0283838060010194508151811061303757fe5b906020010190600160f860020a031916908160001a905350600101612ffe565b50909d9c50505050505050505050505050565b600581805161079b9291602001906130cd565b604080519081016040526000808252602082015290565b60c06040519081016040526006815b60008152602001906001900390816130a35790505090565b60206040519081016040526000815290565b828054600181600116156101000203166002900490600052602060002090601f016020900481019282601f1061310e57805160ff191683800117855561313b565b8280016001018555821561313b579182015b8281111561313b578251825591602001919060010190613120565b5061314792915061314b565b5090565b6117fd91905b808211156131475760008155600101613151565b60008054600160a060020a03909216600160a060020a03199283168117909155600180549092161781559056003f247b5b646563727970745d20424347422b4b784b394869302b485375416a7155496d63446979636a75554e506938696242476f364b46502f6d39674f4b3678744a627969356c625078506644797043797756745477653133565a627530323333374c77306d6854464f304f6b556c746d78477869326d57674442774e2b565a6469586a7453744f77754e596e686a38686a6d37317070504743564b584578766c317a337144586b53624d4d595a4e42472b4a4e564650372f595768535a4358577d292e726174696e67735b305d5b276f62736572766174696f6e73272c276c6174653135272c276c6174653330272c276c6174653435272c2763616e63656c6c6564272c276469766572746564272c276172726976616c416972706f72744673436f6465272c27646570617274757265416972706f72744673436f6465275da165627a7a72305820382f29dcb905af10a7d77897a81a071cefdfda8363b38c3182c3e456d310865f0029",
  "source": "/**\n * FlightDelay with Oraclized Underwriting and Payout\n *\n * @description\tUnderwrite contract\n * @copyright (c) 2017 etherisc GmbH\n * @author Christoph Mussenbrock\n */\n\npragma solidity ^0.4.11;\n\nimport \"./FlightDelayControlledContract.sol\";\nimport \"./FlightDelayConstants.sol\";\nimport \"./FlightDelayDatabaseInterface.sol\";\nimport \"./FlightDelayAccessControllerInterface.sol\";\nimport \"./FlightDelayLedgerInterface.sol\";\nimport \"./FlightDelayUnderwriteInterface.sol\";\nimport \"./FlightDelayPayoutInterface.sol\";\nimport \"./FlightDelayOraclizeInterface.sol\";\nimport \"./convertLib.sol\";\nimport \"./../vendors/strings.sol\";\n\n\ncontract FlightDelayUnderwrite is FlightDelayControlledContract, FlightDelayConstants, FlightDelayOraclizeInterface, ConvertLib {\n\n    using strings for *;\n\n    FlightDelayDatabaseInterface FD_DB;\n    FlightDelayLedgerInterface FD_LG;\n    FlightDelayPayoutInterface FD_PY;\n    FlightDelayAccessControllerInterface FD_AC;\n\n    function FlightDelayUnderwrite(address _controller) public {\n        setController(_controller);\n        oraclize_setCustomGasPrice(ORACLIZE_GASPRICE);\n    }\n\n    function setContracts() public onlyController {\n        FD_AC = FlightDelayAccessControllerInterface(getContract(\"FD.AccessController\"));\n        FD_DB = FlightDelayDatabaseInterface(getContract(\"FD.Database\"));\n        FD_LG = FlightDelayLedgerInterface(getContract(\"FD.Ledger\"));\n        FD_PY = FlightDelayPayoutInterface(getContract(\"FD.Payout\"));\n\n        FD_AC.setPermissionById(101, \"FD.NewPolicy\");\n        FD_AC.setPermissionById(102, \"FD.Funder\");\n        FD_AC.setPermissionById(103, \"FD.Owner\");\n    }\n\n    /*\n     * @dev Fund contract\n     */\n    function () payable {\n        require(FD_AC.checkPermission(102, msg.sender));\n\n        // todo: bookkeeping\n        // todo: fire funding event\n    }\n\n    function scheduleUnderwriteOraclizeCall(uint _policyId, bytes32 _carrierFlightNumber) public {\n        require(FD_AC.checkPermission(101, msg.sender));\n\n        string memory oraclizeUrl = strConcat(\n            ORACLIZE_RATINGS_BASE_URL,\n            b32toString(_carrierFlightNumber),\n            ORACLIZE_RATINGS_QUERY\n        );\n\n// --> debug-mode\n//            LogUint(\"_policyId\", _policyId);\n//            LogBytes32Str(\"_carrierFlightNumber\",_carrierFlightNumber);\n//            LogString(\"oraclizeUrl\", oraclizeUrl);\n// <-- debug-mode\n\n        bytes32 queryId = oraclize_query(\"nested\", oraclizeUrl, ORACLIZE_GAS);\n\n        // call oraclize to get Flight Stats; this will also call underwrite()\n        FD_DB.createOraclizeCallback(\n            queryId,\n            _policyId,\n            oraclizeState.ForUnderwriting,\n            0\n        );\n\n        LogOraclizeCall(_policyId, queryId, oraclizeUrl, 0);\n    }\n\n    function __callback(bytes32 _queryId, string _result, bytes _proof) onlyOraclizeOr(getContract('FD.Emergency')) public {\n\n        var (policyId,) = FD_DB.getOraclizeCallback(_queryId);\n        LogOraclizeCallback(policyId, _queryId, _result, _proof);\n\n        var slResult = _result.toSlice();\n\n        // we expect result to contain 8 values, something like\n        // \"[61, 10, 4, 3, 0, 0, \\\"CUN\\\", \\\"SFO\\\"]\" ->\n        // ['observations','late15','late30','late45','cancelled','diverted','arrivalAirportFsCode','departureAirportFsCode']\n        if (bytes(_result).length == 0) {\n            decline(policyId, \"Declined (empty result)\", _proof);\n        } else {\n            // now slice the string using\n            // https://github.com/Arachnid/solidity-stringutils\n            if (slResult.count(\", \".toSlice()) != 7) {\n                // check if result contains 8 values\n                decline(policyId, \"Declined (invalid result)\", _proof);\n            } else {\n                slResult.beyond(\"[\".toSlice()).until(\"]\".toSlice());\n\n                uint observations = parseInt(slResult.split(\", \".toSlice()).toString());\n\n                // decline on < minObservations observations,\n                // can't calculate reasonable probabibilities\n                if (observations <= MIN_OBSERVATIONS) {\n                    decline(policyId, \"Declined (too few observations)\", _proof);\n                } else {\n                    uint[6] memory statistics;\n                    // calculate statistics (scaled by 10000; 1% => 100)\n                    statistics[0] = observations;\n                    for (uint i = 1; i <= 5; i++) {\n                        statistics[i] = parseInt(slResult.split(\", \".toSlice()).toString()) * 10000/observations;\n                    }\n\n                    underwrite(policyId, statistics, _proof);\n\n//                    var origin = slResult.split(\", \".toSlice());\n//                    for (uint j = 0; j < FD_DB.countOrigins(); j++) {\n//                        if (b32toString(FD_DB.getOriginByIndex(j)).toSlice().equals(origin)) {\n//                            underwrite(policyId, statistics, _proof);\n//                            return;\n//                        }\n//                    }\n//\n//                    var destination = slResult.split(\", \".toSlice());\n//                    for (uint k = 0; k < FD_DB.countDestinations(); k++) {\n//                        if (b32toString(FD_DB.getDestinationByIndex(k)).toSlice().equals(destination)) {\n//                           underwrite(policyId, statistics, _proof);\n//                           return;\n//                        }\n//                    }\n//\n//                    decline(policyId, \"Not acceptable airport\", _proof);\n                }\n            }\n        }\n    } // __callback\n\n    function externalDecline(uint _policyId, bytes32 _reason) public {\n        require(msg.sender == FD_CI.getContract(\"FD.CustomersAdmin\"));\n\n        LogPolicyDeclined(_policyId, _reason);\n\n        FD_DB.setState(\n            _policyId,\n            policyState.Declined,\n            now,\n            _reason\n        );\n\n        FD_DB.setWeight(_policyId, 0, \"\");\n\n        var (customer, premium) = FD_DB.getCustomerPremium(_policyId);\n\n        if (!FD_LG.sendFunds(customer, Acc.Premium, premium)) {\n            FD_DB.setState(\n                _policyId,\n                policyState.SendFailed,\n                now,\n                \"decline: Send failed.\"\n            );\n        }\n    }\n\n    function decline(uint _policyId, bytes32 _reason, bytes _proof)\tinternal {\n        LogPolicyDeclined(_policyId, _reason);\n\n        FD_DB.setState(\n            _policyId,\n            policyState.Declined,\n            now,\n            _reason\n        );\n\n        FD_DB.setWeight(_policyId, 0, _proof);\n\n        var (customer, premium) = FD_DB.getCustomerPremium(_policyId);\n\n        // TODO: LOG\n        if (!FD_LG.sendFunds(customer, Acc.Premium, premium)) {\n            FD_DB.setState(\n                _policyId,\n                policyState.SendFailed,\n                now,\n                \"decline: Send failed.\"\n            );\n        }\n    }\n\n    function underwrite(uint _policyId, uint[6] _statistics, bytes _proof) internal {\n        var (, premium) = FD_DB.getCustomerPremium(_policyId); // throws if _policyId invalid\n        bytes32 riskId = FD_DB.getRiskId(_policyId);\n\n        var (, premiumMultiplier) = FD_DB.getPremiumFactors(riskId);\n        var (, , arrivalTime) = FD_DB.getRiskParameters(riskId);\n\n        uint weight;\n        for (uint8 i = 1; i <= 5; i++ ) {\n            weight += WEIGHT_PATTERN[i] * _statistics[i];\n            // 1% = 100 / 100% = 10,000\n        }\n        // to avoid div0 in the payout section,\n        // we have to make a minimal assumption on p.weight.\n        if (weight == 0) {\n            weight = 100000 / _statistics[0];\n        }\n\n        // we calculate the factors to limit cluster risks.\n        if (premiumMultiplier == 0) {\n            // it's the first call, we accept any premium\n            FD_DB.setPremiumFactors(riskId, premium * 100000 / weight, 100000 / weight);\n        }\n\n        FD_DB.setWeight(_policyId, weight, _proof);\n\n        FD_DB.setState(\n            _policyId,\n            policyState.Accepted,\n            now,\n            \"Policy underwritten by oracle\"\n        );\n\n        LogPolicyAccepted(\n            _policyId,\n            _statistics[0],\n            _statistics[1],\n            _statistics[2],\n            _statistics[3],\n            _statistics[4],\n            _statistics[5]\n        );\n\n        // schedule payout Oracle\n        FD_PY.schedulePayoutOraclizeCall(_policyId, riskId, arrivalTime + CHECK_PAYOUT_OFFSET);\n    }\n\n    function setOraclizeGasPrice(uint _gasPrice) external returns (bool _success) {\n        require(FD_AC.checkPermission(103, msg.sender));\n\n        oraclize_setCustomGasPrice(_gasPrice);\n        _success = true;\n    }\n}\n",
  "sourcePath": "/Users/A/Data/Altoros/1244-Etherisc/repos/flightdelay/contracts/FlightDelayUnderwrite.sol",
  "compiler": {
    "name": "solc",
    "version": "0.4.18+commit.9cf6e910.Emscripten.clang"
  },
  "schemaVersion": "1.0.1",
  "updatedAt": "2018-05-16T16:59:39.992Z"
}