{
  "contractName": "FlightDelayAccessController",
  "abi": [
    {
      "constant": false,
      "inputs": [],
      "name": "destruct",
      "outputs": [],
      "payable": false,
      "stateMutability": "nonpayable",
      "type": "function"
    },
    {
      "constant": true,
      "inputs": [],
      "name": "controller",
      "outputs": [
        {
          "name": "",
          "type": "address"
        }
      ],
      "payable": false,
      "stateMutability": "view",
      "type": "function"
    },
    {
      "inputs": [
        {
          "name": "_controller",
          "type": "address"
        }
      ],
      "payable": false,
      "stateMutability": "nonpayable",
      "type": "constructor"
    },
    {
      "anonymous": false,
      "inputs": [
        {
          "indexed": false,
          "name": "_policyId",
          "type": "uint256"
        },
        {
          "indexed": false,
          "name": "_customer",
          "type": "address"
        },
        {
          "indexed": false,
          "name": "strCarrierFlightNumber",
          "type": "bytes32"
        },
        {
          "indexed": false,
          "name": "ethPremium",
          "type": "uint256"
        }
      ],
      "name": "LogPolicyApplied",
      "type": "event"
    },
    {
      "anonymous": false,
      "inputs": [
        {
          "indexed": false,
          "name": "_policyId",
          "type": "uint256"
        },
        {
          "indexed": false,
          "name": "_statistics0",
          "type": "uint256"
        },
        {
          "indexed": false,
          "name": "_statistics1",
          "type": "uint256"
        },
        {
          "indexed": false,
          "name": "_statistics2",
          "type": "uint256"
        },
        {
          "indexed": false,
          "name": "_statistics3",
          "type": "uint256"
        },
        {
          "indexed": false,
          "name": "_statistics4",
          "type": "uint256"
        },
        {
          "indexed": false,
          "name": "_statistics5",
          "type": "uint256"
        }
      ],
      "name": "LogPolicyAccepted",
      "type": "event"
    },
    {
      "anonymous": false,
      "inputs": [
        {
          "indexed": false,
          "name": "_policyId",
          "type": "uint256"
        },
        {
          "indexed": false,
          "name": "ethAmount",
          "type": "uint256"
        }
      ],
      "name": "LogPolicyPaidOut",
      "type": "event"
    },
    {
      "anonymous": false,
      "inputs": [
        {
          "indexed": false,
          "name": "_policyId",
          "type": "uint256"
        }
      ],
      "name": "LogPolicyExpired",
      "type": "event"
    },
    {
      "anonymous": false,
      "inputs": [
        {
          "indexed": false,
          "name": "_policyId",
          "type": "uint256"
        },
        {
          "indexed": false,
          "name": "strReason",
          "type": "bytes32"
        }
      ],
      "name": "LogPolicyDeclined",
      "type": "event"
    },
    {
      "anonymous": false,
      "inputs": [
        {
          "indexed": false,
          "name": "_policyId",
          "type": "uint256"
        },
        {
          "indexed": false,
          "name": "strReason",
          "type": "bytes32"
        }
      ],
      "name": "LogPolicyManualPayout",
      "type": "event"
    },
    {
      "anonymous": false,
      "inputs": [
        {
          "indexed": false,
          "name": "_recipient",
          "type": "address"
        },
        {
          "indexed": false,
          "name": "_from",
          "type": "uint8"
        },
        {
          "indexed": false,
          "name": "ethAmount",
          "type": "uint256"
        }
      ],
      "name": "LogSendFunds",
      "type": "event"
    },
    {
      "anonymous": false,
      "inputs": [
        {
          "indexed": false,
          "name": "_sender",
          "type": "address"
        },
        {
          "indexed": false,
          "name": "_to",
          "type": "uint8"
        },
        {
          "indexed": false,
          "name": "ethAmount",
          "type": "uint256"
        }
      ],
      "name": "LogReceiveFunds",
      "type": "event"
    },
    {
      "anonymous": false,
      "inputs": [
        {
          "indexed": false,
          "name": "_policyId",
          "type": "uint256"
        },
        {
          "indexed": false,
          "name": "strReason",
          "type": "bytes32"
        }
      ],
      "name": "LogSendFail",
      "type": "event"
    },
    {
      "anonymous": false,
      "inputs": [
        {
          "indexed": false,
          "name": "_policyId",
          "type": "uint256"
        },
        {
          "indexed": false,
          "name": "hexQueryId",
          "type": "bytes32"
        },
        {
          "indexed": false,
          "name": "_oraclizeUrl",
          "type": "string"
        },
        {
          "indexed": false,
          "name": "_oraclizeTime",
          "type": "uint256"
        }
      ],
      "name": "LogOraclizeCall",
      "type": "event"
    },
    {
      "anonymous": false,
      "inputs": [
        {
          "indexed": false,
          "name": "_policyId",
          "type": "uint256"
        },
        {
          "indexed": false,
          "name": "hexQueryId",
          "type": "bytes32"
        },
        {
          "indexed": false,
          "name": "_result",
          "type": "string"
        },
        {
          "indexed": false,
          "name": "hexProof",
          "type": "bytes"
        }
      ],
      "name": "LogOraclizeCallback",
      "type": "event"
    },
    {
      "anonymous": false,
      "inputs": [
        {
          "indexed": false,
          "name": "_policyId",
          "type": "uint256"
        },
        {
          "indexed": false,
          "name": "_policyState",
          "type": "uint8"
        },
        {
          "indexed": false,
          "name": "_stateTime",
          "type": "uint256"
        },
        {
          "indexed": false,
          "name": "_stateMessage",
          "type": "bytes32"
        }
      ],
      "name": "LogSetState",
      "type": "event"
    },
    {
      "anonymous": false,
      "inputs": [
        {
          "indexed": false,
          "name": "_policyId",
          "type": "uint256"
        },
        {
          "indexed": false,
          "name": "_address",
          "type": "address"
        },
        {
          "indexed": false,
          "name": "_externalId",
          "type": "bytes32"
        }
      ],
      "name": "LogExternal",
      "type": "event"
    },
    {
      "constant": false,
      "inputs": [],
      "name": "setContracts",
      "outputs": [],
      "payable": false,
      "stateMutability": "nonpayable",
      "type": "function"
    },
    {
      "constant": false,
      "inputs": [
        {
          "name": "_target",
          "type": "address"
        },
        {
          "name": "_accessor",
          "type": "address"
        },
        {
          "name": "_perm",
          "type": "uint8"
        },
        {
          "name": "_access",
          "type": "bool"
        }
      ],
      "name": "fixPermission",
      "outputs": [],
      "payable": false,
      "stateMutability": "nonpayable",
      "type": "function"
    },
    {
      "constant": false,
      "inputs": [
        {
          "name": "_perm",
          "type": "uint8"
        },
        {
          "name": "_id",
          "type": "bytes32"
        }
      ],
      "name": "setPermissionById",
      "outputs": [],
      "payable": false,
      "stateMutability": "nonpayable",
      "type": "function"
    },
    {
      "constant": false,
      "inputs": [
        {
          "name": "_perm",
          "type": "uint8"
        },
        {
          "name": "_id",
          "type": "bytes32"
        },
        {
          "name": "_access",
          "type": "bool"
        }
      ],
      "name": "setPermissionById",
      "outputs": [],
      "payable": false,
      "stateMutability": "nonpayable",
      "type": "function"
    },
    {
      "constant": false,
      "inputs": [
        {
          "name": "_perm",
          "type": "uint8"
        },
        {
          "name": "_addr",
          "type": "address"
        },
        {
          "name": "_access",
          "type": "bool"
        }
      ],
      "name": "setPermissionByAddress",
      "outputs": [],
      "payable": false,
      "stateMutability": "nonpayable",
      "type": "function"
    },
    {
      "constant": false,
      "inputs": [
        {
          "name": "_perm",
          "type": "uint8"
        },
        {
          "name": "_addr",
          "type": "address"
        }
      ],
      "name": "setPermissionByAddress",
      "outputs": [],
      "payable": false,
      "stateMutability": "nonpayable",
      "type": "function"
    },
    {
      "constant": false,
      "inputs": [
        {
          "name": "_perm",
          "type": "uint8"
        },
        {
          "name": "_addr",
          "type": "address"
        }
      ],
      "name": "checkPermission",
      "outputs": [
        {
          "name": "_success",
          "type": "bool"
        }
      ],
      "payable": false,
      "stateMutability": "nonpayable",
      "type": "function"
    }
  ],
  "bytecode": "0x606060405260c0604051908101604090815260008252600a6020830152601490820152601e606082015260326080820181905260a08201526100459060029060066100b2565b50341561005157600080fd5b60405160208061092b83398101604052808051915061007e90508164010000000061075061008582021704565b5050610166565b60008054600160a060020a03909216600160a060020a031992831681179091556001805490921617815590565b6001830191839082156101355791602002820160005b8382111561010657835183826101000a81548160ff021916908360ff16021790555092602001926001016020816000010492830192600103026100c8565b80156101335782816101000a81549060ff0219169055600101602081600001049283019260010302610106565b505b50610141929150610145565b5090565b61016391905b8082111561014157805460ff1916815560010161014b565b90565b6107b6806101756000396000f30060606040526004361061007f5763ffffffff60e060020a6000350416632b68b9c681146100845780633ebd609214610099578063983c7630146100d25780639f8abede146100fc578063c28b45771461012c578063c3d08f0614610148578063d6a43a3e1461016d578063e0d6d5301461018e578063f77c4791146101a1575b600080fd5b341561008f57600080fd5b6100976101d0565b005b34156100a457600080fd5b6100be60ff60043516600160a060020a03602435166101f9565b604051901515815260200160405180910390f35b34156100dd57600080fd5b61009760ff60043516600160a060020a0360243516604435151561028a565b341561010757600080fd5b610097600160a060020a036004358116906024351660ff60443516606435151561030f565b341561013757600080fd5b61009760ff6004351660243561043d565b341561015357600080fd5b61009760ff60043516600160a060020a0360243516610522565b341561017857600080fd5b61009760ff600435166024356044351515610587565b341561019957600080fd5b61009761065b565b34156101ac57600080fd5b6101b46106ce565b604051600160a060020a03909116815260200160405180910390f35b60005433600160a060020a039081169116146101eb57600080fd5b600054600160a060020a0316ff5b600354600090600160a060020a031663d45efad5338486856040516020015260405160e060020a63ffffffff8616028152600160a060020a03938416600482015291909216602482015260ff9091166044820152606401602060405180830381600087803b151561026957600080fd5b6102c65a03f1151561027a57600080fd5b5050506040518051949350505050565b600354600160a060020a031663c58a33213384868560405160e060020a63ffffffff8716028152600160a060020a03948516600482015292909316602483015260ff1660448201529015156064820152608401600060405180830381600087803b15156102f657600080fd5b6102c65a03f1151561030757600080fd5b505050505050565b600154600160a060020a031663e16c7d9860006040516020015260405160e060020a63ffffffff83160281527f46442e456d657267656e637900000000000000000000000000000000000000006004820152602401602060405180830381600087803b151561037d57600080fd5b6102c65a03f1151561038e57600080fd5b50505060405180519050600160a060020a031633600160a060020a03161415156103b757600080fd5b600354600160a060020a031663c58a33218585858560405160e060020a63ffffffff8716028152600160a060020a03948516600482015292909316602483015260ff1660448201529015156064820152608401600060405180830381600087803b151561042357600080fd5b6102c65a03f1151561043457600080fd5b50505050505050565b600354600154600160a060020a039182169163ca2d553a9133911663e16c7d988560006040516020015260405160e060020a63ffffffff84160281526004810191909152602401602060405180830381600087803b151561049d57600080fd5b6102c65a03f115156104ae57600080fd5b505050604051805190508560405160e060020a63ffffffff8616028152600160a060020a03938416600482015291909216602482015260ff9091166044820152606401600060405180830381600087803b151561050a57600080fd5b6102c65a03f1151561051b57600080fd5b5050505050565b600354600160a060020a031663ca2d553a33838560405160e060020a63ffffffff8616028152600160a060020a03938416600482015291909216602482015260ff9091166044820152606401600060405180830381600087803b151561050a57600080fd5b600354600154600160a060020a039182169163c58a33219133911663e16c7d988660006040516020015260405160e060020a63ffffffff84160281526004810191909152602401602060405180830381600087803b15156105e757600080fd5b6102c65a03f115156105f857600080fd5b50505060405180519050868560405160e060020a63ffffffff8716028152600160a060020a03948516600482015292909316602483015260ff1660448201529015156064820152608401600060405180830381600087803b15156102f657600080fd5b60005433600160a060020a0390811691161461067657600080fd5b61069f7f46442e44617461626173650000000000000000000000000000000000000000006106dd565b6003805473ffffffffffffffffffffffffffffffffffffffff1916600160a060020a0392909216919091179055565b600054600160a060020a031681565b600154600090600160a060020a031663e16c7d9883836040516020015260405160e060020a63ffffffff84160281526004810191909152602401602060405180830381600087803b151561073057600080fd5b6102c65a03f1151561074157600080fd5b50505060405180519392505050565b60008054600160a060020a0390921673ffffffffffffffffffffffffffffffffffffffff19928316811790915560018054909216178155905600a165627a7a72305820ed0a74b27c4bc173b68594f86ebae7bebe356d57f1ad24f2abfa3a23817f40500029",
  "source": "/**\n * FlightDelay with Oraclized Underwriting and Payout\n *\n * @description\tAccess controller\n * @copyright (c) 2017 etherisc GmbH\n * @author Christoph Mussenbrock\n */\n\npragma solidity ^0.4.11;\n\nimport \"./FlightDelayControlledContract.sol\";\nimport \"./FlightDelayDatabaseInterface.sol\";\nimport \"./FlightDelayConstants.sol\";\n\n\ncontract FlightDelayAccessController is FlightDelayControlledContract, FlightDelayConstants {\n\n    FlightDelayDatabaseInterface FD_DB;\n\n    modifier onlyEmergency() {\n        require(msg.sender == FD_CI.getContract('FD.Emergency'));\n        _;\n    }\n\n    function FlightDelayAccessController(address _controller) public {\n        setController(_controller);\n    }\n\n    function setContracts() public onlyController {\n        FD_DB = FlightDelayDatabaseInterface(getContract(\"FD.Database\"));\n    }\n\n    function setPermissionById(uint8 _perm, bytes32 _id) public {\n        FD_DB.setAccessControl(msg.sender, FD_CI.getContract(_id), _perm);\n    }\n\n    function fixPermission(address _target, address _accessor, uint8 _perm, bool _access) public onlyEmergency {\n        FD_DB.setAccessControl(\n            _target,\n            _accessor,\n            _perm,\n            _access\n        );\n\n    }\n\n    function setPermissionById(uint8 _perm, bytes32 _id, bool _access) public {\n        FD_DB.setAccessControl(\n            msg.sender,\n            FD_CI.getContract(_id),\n            _perm,\n            _access\n        );\n    }\n\n    function setPermissionByAddress(uint8 _perm, address _addr) public {\n        FD_DB.setAccessControl(msg.sender, _addr, _perm);\n    }\n\n    function setPermissionByAddress(uint8 _perm, address _addr, bool _access) public {\n        FD_DB.setAccessControl(\n            msg.sender,\n            _addr,\n            _perm,\n            _access\n        );\n    }\n\n    function checkPermission(uint8 _perm, address _addr) public returns (bool _success) {\n// --> debug-mode\n//            // LogUint(\"_perm\", _perm);\n//            // LogAddress(\"_addr\", _addr);\n//            // LogAddress(\"msg.sender\", msg.sender);\n//            // LogBool(\"getAccessControl\", FD_DB.getAccessControl(msg.sender, _addr, _perm));\n// <-- debug-mode\n        _success = FD_DB.getAccessControl(msg.sender, _addr, _perm);\n    }\n}\n",
  "sourcePath": "/Users/melnikaite/projects/flightDelay/contracts/FlightDelayAccessController.sol",
  "compiler": {
    "name": "solc",
    "version": "0.4.19+commit.c4cbbb05.Emscripten.clang"
  },
  "schemaVersion": "2.0.0",
  "updatedAt": "2018-03-13T09:40:39.916Z"
}