{
  "contractName": "FlightDelayUnderwrite",
  "abi": [
    {
      "constant": false,
      "inputs": [
        {
          "name": "_policyId",
          "type": "uint256"
        },
        {
          "name": "_reason",
          "type": "bytes32"
        }
      ],
      "name": "externalDecline",
      "outputs": [],
      "payable": false,
      "stateMutability": "nonpayable",
      "type": "function"
    },
    {
      "constant": false,
      "inputs": [
        {
          "name": "myid",
          "type": "bytes32"
        },
        {
          "name": "result",
          "type": "string"
        }
      ],
      "name": "__callback",
      "outputs": [],
      "payable": false,
      "stateMutability": "nonpayable",
      "type": "function"
    },
    {
      "constant": false,
      "inputs": [],
      "name": "destruct",
      "outputs": [],
      "payable": false,
      "stateMutability": "nonpayable",
      "type": "function"
    },
    {
      "constant": false,
      "inputs": [
        {
          "name": "_queryId",
          "type": "bytes32"
        },
        {
          "name": "_result",
          "type": "string"
        },
        {
          "name": "_proof",
          "type": "bytes"
        }
      ],
      "name": "__callback",
      "outputs": [],
      "payable": false,
      "stateMutability": "nonpayable",
      "type": "function"
    },
    {
      "constant": true,
      "inputs": [],
      "name": "PATCH_VERSION",
      "outputs": [
        {
          "name": "",
          "type": "uint256"
        }
      ],
      "payable": false,
      "stateMutability": "view",
      "type": "function"
    },
    {
      "constant": false,
      "inputs": [
        {
          "name": "x",
          "type": "bytes32"
        }
      ],
      "name": "b32toHexString",
      "outputs": [
        {
          "name": "",
          "type": "string"
        }
      ],
      "payable": false,
      "stateMutability": "nonpayable",
      "type": "function"
    },
    {
      "constant": false,
      "inputs": [
        {
          "name": "_policyId",
          "type": "uint256"
        },
        {
          "name": "_carrierFlightNumber",
          "type": "bytes32"
        }
      ],
      "name": "scheduleUnderwriteOraclizeCall",
      "outputs": [],
      "payable": false,
      "stateMutability": "nonpayable",
      "type": "function"
    },
    {
      "constant": true,
      "inputs": [
        {
          "name": "_dayMonthYear",
          "type": "bytes32"
        }
      ],
      "name": "toUnixtime",
      "outputs": [
        {
          "name": "unixtime",
          "type": "uint256"
        }
      ],
      "payable": false,
      "stateMutability": "view",
      "type": "function"
    },
    {
      "constant": true,
      "inputs": [],
      "name": "MINOR_VERSION",
      "outputs": [
        {
          "name": "",
          "type": "uint256"
        }
      ],
      "payable": false,
      "stateMutability": "view",
      "type": "function"
    },
    {
      "constant": false,
      "inputs": [],
      "name": "setContracts",
      "outputs": [],
      "payable": false,
      "stateMutability": "nonpayable",
      "type": "function"
    },
    {
      "constant": true,
      "inputs": [],
      "name": "controller",
      "outputs": [
        {
          "name": "",
          "type": "address"
        }
      ],
      "payable": false,
      "stateMutability": "view",
      "type": "function"
    },
    {
      "constant": true,
      "inputs": [],
      "name": "MAJOR_VERSION",
      "outputs": [
        {
          "name": "",
          "type": "uint256"
        }
      ],
      "payable": false,
      "stateMutability": "view",
      "type": "function"
    },
    {
      "inputs": [
        {
          "name": "_controller",
          "type": "address"
        }
      ],
      "payable": false,
      "stateMutability": "nonpayable",
      "type": "constructor"
    },
    {
      "payable": true,
      "stateMutability": "payable",
      "type": "fallback"
    },
    {
      "anonymous": false,
      "inputs": [
        {
          "indexed": false,
          "name": "_policyId",
          "type": "uint256"
        },
        {
          "indexed": false,
          "name": "_customer",
          "type": "address"
        },
        {
          "indexed": false,
          "name": "strCarrierFlightNumber",
          "type": "bytes32"
        },
        {
          "indexed": false,
          "name": "ethPremium",
          "type": "uint256"
        }
      ],
      "name": "LogPolicyApplied",
      "type": "event"
    },
    {
      "anonymous": false,
      "inputs": [
        {
          "indexed": false,
          "name": "_policyId",
          "type": "uint256"
        },
        {
          "indexed": false,
          "name": "_statistics0",
          "type": "uint256"
        },
        {
          "indexed": false,
          "name": "_statistics1",
          "type": "uint256"
        },
        {
          "indexed": false,
          "name": "_statistics2",
          "type": "uint256"
        },
        {
          "indexed": false,
          "name": "_statistics3",
          "type": "uint256"
        },
        {
          "indexed": false,
          "name": "_statistics4",
          "type": "uint256"
        },
        {
          "indexed": false,
          "name": "_statistics5",
          "type": "uint256"
        }
      ],
      "name": "LogPolicyAccepted",
      "type": "event"
    },
    {
      "anonymous": false,
      "inputs": [
        {
          "indexed": false,
          "name": "_policyId",
          "type": "uint256"
        },
        {
          "indexed": false,
          "name": "ethAmount",
          "type": "uint256"
        }
      ],
      "name": "LogPolicyPaidOut",
      "type": "event"
    },
    {
      "anonymous": false,
      "inputs": [
        {
          "indexed": false,
          "name": "_policyId",
          "type": "uint256"
        }
      ],
      "name": "LogPolicyExpired",
      "type": "event"
    },
    {
      "anonymous": false,
      "inputs": [
        {
          "indexed": false,
          "name": "_policyId",
          "type": "uint256"
        },
        {
          "indexed": false,
          "name": "strReason",
          "type": "bytes32"
        }
      ],
      "name": "LogPolicyDeclined",
      "type": "event"
    },
    {
      "anonymous": false,
      "inputs": [
        {
          "indexed": false,
          "name": "_policyId",
          "type": "uint256"
        },
        {
          "indexed": false,
          "name": "strReason",
          "type": "bytes32"
        }
      ],
      "name": "LogPolicyManualPayout",
      "type": "event"
    },
    {
      "anonymous": false,
      "inputs": [
        {
          "indexed": false,
          "name": "_recipient",
          "type": "address"
        },
        {
          "indexed": false,
          "name": "_from",
          "type": "uint8"
        },
        {
          "indexed": false,
          "name": "ethAmount",
          "type": "uint256"
        }
      ],
      "name": "LogSendFunds",
      "type": "event"
    },
    {
      "anonymous": false,
      "inputs": [
        {
          "indexed": false,
          "name": "_sender",
          "type": "address"
        },
        {
          "indexed": false,
          "name": "_to",
          "type": "uint8"
        },
        {
          "indexed": false,
          "name": "ethAmount",
          "type": "uint256"
        }
      ],
      "name": "LogReceiveFunds",
      "type": "event"
    },
    {
      "anonymous": false,
      "inputs": [
        {
          "indexed": false,
          "name": "_policyId",
          "type": "uint256"
        },
        {
          "indexed": false,
          "name": "strReason",
          "type": "bytes32"
        }
      ],
      "name": "LogSendFail",
      "type": "event"
    },
    {
      "anonymous": false,
      "inputs": [
        {
          "indexed": false,
          "name": "_policyId",
          "type": "uint256"
        },
        {
          "indexed": false,
          "name": "hexQueryId",
          "type": "bytes32"
        },
        {
          "indexed": false,
          "name": "_oraclizeUrl",
          "type": "string"
        },
        {
          "indexed": false,
          "name": "_oraclizeTime",
          "type": "uint256"
        }
      ],
      "name": "LogOraclizeCall",
      "type": "event"
    },
    {
      "anonymous": false,
      "inputs": [
        {
          "indexed": false,
          "name": "_policyId",
          "type": "uint256"
        },
        {
          "indexed": false,
          "name": "hexQueryId",
          "type": "bytes32"
        },
        {
          "indexed": false,
          "name": "_result",
          "type": "string"
        },
        {
          "indexed": false,
          "name": "hexProof",
          "type": "bytes"
        }
      ],
      "name": "LogOraclizeCallback",
      "type": "event"
    },
    {
      "anonymous": false,
      "inputs": [
        {
          "indexed": false,
          "name": "_policyId",
          "type": "uint256"
        },
        {
          "indexed": false,
          "name": "_policyState",
          "type": "uint8"
        },
        {
          "indexed": false,
          "name": "_stateTime",
          "type": "uint256"
        },
        {
          "indexed": false,
          "name": "_stateMessage",
          "type": "bytes32"
        }
      ],
      "name": "LogSetState",
      "type": "event"
    },
    {
      "anonymous": false,
      "inputs": [
        {
          "indexed": false,
          "name": "_policyId",
          "type": "uint256"
        },
        {
          "indexed": false,
          "name": "_address",
          "type": "address"
        },
        {
          "indexed": false,
          "name": "_externalId",
          "type": "bytes32"
        }
      ],
      "name": "LogExternal",
      "type": "event"
    }
  ],
  "bytecode": "0x606060405260c0604051908101604090815260008083526020830181905290820152601e606082015260326080820181905260a082015262000046906002906006620006b2565b506101806040519081016040908152600b8252602a6020830152604690820152606560608201526083608082015260a260a082015260c08082015260df60e082015260fe61010082015261011c61012082015261013b610140820152610159610160820152620000bb90600890600c6200074c565b503415620000c857600080fd5b60405160208062003a80833981016040528080519150620000f990508164010000000062002f046200011e82021704565b506200011763ee6b280064010000000062002f316200014b82021704565b50620008c9565b60008054600160a060020a03909216600160a060020a031992831681179091556001805490921617815590565b600354600160a060020a031615806200018657506003546200018490600160a060020a0316640100000000620025aa620002b382021704565b155b15620001a857620001a66000640100000000620025ae620002b782021704565b505b600354600160a060020a03166338cc48316000604051602001526040518163ffffffff167c0100000000000000000000000000000000000000000000000000000000028152600401602060405180830381600087803b15156200020a57600080fd5b6102c65a03f115156200021c57600080fd5b505050604051805160048054600160a060020a031916600160a060020a03928316179081905516905063ca6ad1e4826040517c010000000000000000000000000000000000000000000000000000000063ffffffff84160281526004810191909152602401600060405180830381600087803b15156200029b57600080fd5b6102c65a03f11515620002ad57600080fd5b50505050565b3b90565b600080620002e7731d3b2638a7cc9f2cb3d298a3da7a90b67e5506ed640100000000620025aa620002b382021704565b1115620003695760038054600160a060020a031916731d3b2638a7cc9f2cb3d298a3da7a90b67e5506ed1790556200036060408051908101604052600b81527f6574685f6d61696e6e6574000000000000000000000000000000000000000000602082015264010000000062002e096200069982021704565b50600162000694565b60006200039873c03a2615d5efaf5f49f60b7bb6583eaec212fdf1640100000000620025aa620002b382021704565b1115620004115760038054600160a060020a03191673c03a2615d5efaf5f49f60b7bb6583eaec212fdf11790556200036060408051908101604052600c81527f6574685f726f707374656e330000000000000000000000000000000000000000602082015264010000000062002e096200069982021704565b60006200044073b7a07bcf2ba2f2703b24c0691b5278999c59ac7e640100000000620025aa620002b382021704565b1115620004b95760038054600160a060020a03191673b7a07bcf2ba2f2703b24c0691b5278999c59ac7e1790556200036060408051908101604052600981527f6574685f6b6f76616e0000000000000000000000000000000000000000000000602082015264010000000062002e096200069982021704565b6000620004e873146500cfd35b22e4a392fe0adc06de1a1368ed48640100000000620025aa620002b382021704565b1115620005615760038054600160a060020a03191673146500cfd35b22e4a392fe0adc06de1a1368ed481790556200036060408051908101604052600b81527f6574685f72696e6b656279000000000000000000000000000000000000000000602082015264010000000062002e096200069982021704565b600062000590736f485c8bf6fc43ea212e93bbf8ce046c7f1cb475640100000000620025aa620002b382021704565b1115620005c6575060038054600160a060020a031916736f485c8bf6fc43ea212e93bbf8ce046c7f1cb475179055600162000694565b6000620005f57320e12a1f859b3feae5fb2a0a32c18f5a65555bbf640100000000620025aa620002b382021704565b11156200062b575060038054600160a060020a0319167320e12a1f859b3feae5fb2a0a32c18f5a65555bbf179055600162000694565b60006200065a7351efaf4c8b3c9afbd5ab9f4bbc82784ab6ef8faa640100000000620025aa620002b382021704565b111562000690575060038054600160a060020a0319167351efaf4c8b3c9afbd5ab9f4bbc82784ab6ef8faa179055600162000694565b5060005b919050565b6005818051620006ae929160200190620007e5565b5050565b6001830191839082156200073a5791602002820160005b838211156200070957835183826101000a81548160ff021916908360ff1602179055509260200192600101602081600001049283019260010302620006c9565b8015620007385782816101000a81549060ff021916905560010160208160000104928301926001030262000709565b505b506200074892915062000866565b5090565b600183019183908215620007d75791602002820160005b83821115620007a557835183826101000a81548161ffff021916908361ffff160217905550926020019260020160208160010104928301926001030262000763565b8015620007d55782816101000a81549061ffff0219169055600201602081600101049283019260010302620007a5565b505b50620007489291506200088a565b828054600181600116156101000203166002900490600052602060002090601f016020900481019282601f106200082857805160ff191683800117855562000858565b8280016001018555821562000858579182015b82811115620008585782518255916020019190600101906200083b565b5062000748929150620008ac565b6200088791905b808211156200074857805460ff191681556001016200086d565b90565b6200088791905b808211156200074857805461ffff1916815560010162000891565b6200088791905b80821115620007485760008155600101620008b3565b6131a780620008d96000396000f3006060604052600436106100a05763ffffffff60e060020a6000350416630da76f1c811461012b57806327dc297e146101445780632b68b9c61461019a57806338bbfa50146101ad5780636bf2606a146102455780638ad46ba01461026a5780638b8c5ed9146102f7578063bcf599f114610310578063c8b9153114610326578063e0d6d53014610339578063f77c47911461034c578063f786becd1461037b575b600c54600160a060020a0316633ebd609260663360006040516020015260405160e060020a63ffffffff851602815260ff9092166004830152600160a060020a03166024820152604401602060405180830381600087803b151561010357600080fd5b6102c65a03f1151561011457600080fd5b50505060405180519050151561012957600080fd5b005b341561013657600080fd5b61012960043560243561038e565b341561014f57600080fd5b610129600480359060446024803590810190830135806020601f8201819004810201604051908101604052818152929190602084018383808284375094965061073895505050505050565b34156101a557600080fd5b61012961076a565b34156101b857600080fd5b610129600480359060446024803590810190830135806020601f8201819004810201604051908101604052818152929190602084018383808284378201915050505050509190803590602001908201803590602001908080601f01602080910402602001604051908101604052818152929190602084018383808284375094965061079395505050505050565b341561025057600080fd5b610258610be2565b60405190815260200160405180910390f35b341561027557600080fd5b610280600435610be7565b60405160208082528190810183818151815260200191508051906020019080838360005b838110156102bc5780820151838201526020016102a4565b50505050905090810190601f1680156102e95780820380516001836020036101000a031916815260200191505b509250505060405180910390f35b341561030257600080fd5b610129600435602435610cf6565b341561031b57600080fd5b610258600435610fbd565b341561033157600080fd5b6102586112c1565b341561034457600080fd5b6101296112c6565b341561035757600080fd5b61035f611506565b604051600160a060020a03909116815260200160405180910390f35b341561038657600080fd5b610258611515565b6001546000908190600160a060020a031663e16c7d98826040516020015260405160e060020a63ffffffff83160281527f46442e437573746f6d65727341646d696e0000000000000000000000000000006004820152602401602060405180830381600087803b151561040057600080fd5b6102c65a03f1151561041157600080fd5b50505060405180519050600160a060020a031633600160a060020a031614151561043a57600080fd5b7f9ee71fae4eaec97727495a88dce95da03083cceac90064c30bd03ef65b86a3ae848460405191825260208201526040908101905180910390a1600954600160a060020a031663418cf5b185600542876040518563ffffffff1660e060020a028152600401808581526020018460068111156104b257fe5b60ff16815260208101939093525060408083019190915260609091019250600091505180830381600087803b15156104e957600080fd5b6102c65a03f115156104fa57600080fd5b5050600954600160a060020a0316905063ffe280ee85600060405160e060020a63ffffffff8516028152600481019290925260248201526060604482015260006064820181905260a49091019060405180830381600087803b151561055e57600080fd5b6102c65a03f1151561056f57600080fd5b5050600954600160a060020a0316905063c168e0378560006040516040015260405160e060020a63ffffffff841602815260048101919091526024016040805180830381600087803b15156105c357600080fd5b6102c65a03f115156105d457600080fd5b5050506040518051906020018051600a54929450925050600160a060020a03166350bed0438360008481604051602001526040518463ffffffff1660e060020a0281526004018084600160a060020a0316600160a060020a0316815260200183600581111561063f57fe5b60ff1681526020018281526020019350505050602060405180830381600087803b151561066b57600080fd5b6102c65a03f1151561067c57600080fd5b50505060405180519050151561073257600954600160a060020a031663418cf5b1856006426040518463ffffffff1660e060020a028152600401808481526020018360068111156106c957fe5b60ff168152602001828152602001807f6465636c696e653a2053656e64206661696c65642e00000000000000000000008152506020019350505050600060405180830381600087803b151561071d57600080fd5b6102c65a03f1151561072e57600080fd5b5050505b50505050565b6107668282600060405180591061074c5750595b818152601f19601f83011681016020016040529050610793565b5050565b60005433600160a060020a0390811691161461078557600080fd5b600054600160a060020a0316ff5b600061079d612e1c565b60006107a7612e33565b60006107d27f46442e456d657267656e6379000000000000000000000000000000000000000061151a565b6107da61158d565b600160a060020a031633600160a060020a0316148061080a575080600160a060020a031633600160a060020a0316145b151561081557600080fd5b600954600160a060020a0316637f205c8c8a60006040516040015260405160e060020a63ffffffff841602815260048101919091526024016040805180830381600087803b151561086557600080fd5b6102c65a03f1151561087657600080fd5b505050604051805190602001805190505095507f4e010942cd8d70ef60f3bd7e17c62008722f9551f8f28dc7040004160de7e2cc868a8a8a60405184815260208101849052608060408201818152906060830190830185818151815260200191508051906020019080838360005b838110156108fc5780820151838201526020016108e4565b50505050905090810190601f1680156109295780820380516001836020036101000a031916815260200191505b50838103825284818151815260200191508051906020019080838360005b8381101561095f578082015183820152602001610947565b50505050905090810190601f16801561098c5780820380516001836020036101000a031916815260200191505b50965050505050505060405180910390a16109a6886116a9565b9450875115156109e0576109db867f4465636c696e65642028656d70747920726573756c7429000000000000000000896116d1565b610bd7565b610a14610a07604080519081016040526002815260f560020a6101610260208201526116a9565b869063ffffffff611a3016565b600714610a46576109db867f4465636c696e65642028696e76616c696420726573756c742900000000000000896116d1565b610add610a8560408051908101604052600181527f5d0000000000000000000000000000000000000000000000000000000000000060208201526116a9565b610ad1610ac460408051908101604052600181527f5b0000000000000000000000000000000000000000000000000000000000000060208201526116a9565b889063ffffffff611a8e16565b9063ffffffff611af816565b50610b22610b1d610b18610b0b604080519081016040526002815260f560020a6101610260208201526116a9565b889063ffffffff611b5f16565b611b72565b611bc0565b9350600a8411610b57576109db867f4465636c696e65642028746f6f20666577206f62736572766174696f6e732900896116d1565b838352600191505b60058211610bcc5783610ba2610b1d610b18610b95604080519081016040526002815260f560020a6101610260208201526116a9565b899063ffffffff611b5f16565b61271002811515610baf57fe5b04838360068110610bbc57fe5b6020020152600190910190610b5f565b610bd7868489611bd5565b505050505050505050565b600281565b610bef612e5a565b610bf7612e5a565b60008060008060408051805910610c0b5750595b818152601f19601f830116810160200160405290509450600093505b6020841015610ceb576008601f8590030260020a87811515610c4557fe5b049250601060ff841604915050601081028203600960ff83161115610c6b576027820191505b60098160ff161115610c7b576027015b8160300160f860020a02858560020281518110610c9457fe5b906020010190600160f860020a031916908160001a9053508060300160f860020a02858560020260010181518110610cc857fe5b906020010190600160f860020a031916908160001a905350600190930192610c27565b509295945050505050565b610cfe612e5a565b600c54600090600160a060020a0316633ebd6092606533846040516020015260405160e060020a63ffffffff851602815260ff9092166004830152600160a060020a03166024820152604401602060405180830381600087803b1515610d6357600080fd5b6102c65a03f11515610d7457600080fd5b505050604051805190501515610d8957600080fd5b610e37608060405190810160405280604881526020017f5b55524c5d206a736f6e2868747470733a2f2f6170692e666c6967687473746181526020017f74732e636f6d2f666c65782f726174696e67732f726573742f76312f6a736f6e81526020017f2f666c696768742f000000000000000000000000000000000000000000000000815250610e1885612126565b61016060405190810160405261014080825261303c602083013961226e565b9150610e7a60408051908101604052600681527f6e65737465640000000000000000000000000000000000000000000000000000602082015283620aae606122a9565b600954909150600160a060020a0316632ba1e439828660008060405160e060020a63ffffffff8716028152600481018581526024820185905290604401836001811115610ec357fe5b60ff168152602001828152602001945050505050600060405180830381600087803b1515610ef057600080fd5b6102c65a03f11515610f0157600080fd5b5050507f57d5927fefa8de5620b57ca7ac0948a9ea457d8f3af2bd8867728325a6ca5d928482846000604051848152602081018490526060810182905260806040820181815290820184818151815260200191508051906020019080838360005b83811015610f7a578082015183820152602001610f62565b50505050905090810190601f168015610fa75780820380516001836020036101000a031916815260200191505b509550505050505060405180910390a150505050565b6000610fc7612e5a565b610fcf612e5a565b610fd7612e5a565b6000806000610fe588612126565b95506002604051805910610ff65750595b818152601f19601f830116810160200160405290509450600460405180591061101c5750595b818152601f19601f8301168101602001604052905093508560058151811061104057fe5b016020015160f860020a900460f860020a028460008151811061105f57fe5b906020010190600160f860020a031916908160001a9053508560068151811061108457fe5b016020015160f860020a900460f860020a02846001815181106110a357fe5b906020010190600160f860020a031916908160001a905350856007815181106110c857fe5b016020015160f860020a900460f860020a02846002815181106110e757fe5b906020010190600160f860020a031916908160001a9053508560088151811061110c57fe5b016020015160f860020a900460f860020a028460038151811061112b57fe5b906020010190600160f860020a031916908160001a90535061114c84611bc0565b925085600a8151811061115b57fe5b016020015160f860020a900460f860020a028560008151811061117a57fe5b906020010190600160f860020a031916908160001a90535085600b8151811061119f57fe5b016020015160f860020a900460f860020a02856001815181106111be57fe5b906020010190600160f860020a031916908160001a9053506111df85611bc0565b915085600d815181106111ee57fe5b016020015160f860020a900460f860020a028560008151811061120d57fe5b906020010190600160f860020a031916908160001a90535085600e8151811061123257fe5b016020015160f860020a900460f860020a028560018151811061125157fe5b906020010190600160f860020a031916908160001a90535061127285611bc0565b90508060086000198401600c811061128657fe5b601091828204019190066002029054906101000a900461ffff1661ffff166107b2850361016d02010162015180029650505050505050919050565b600081565b60005433600160a060020a039081169116146112e157600080fd5b61130a7f46442e416363657373436f6e74726f6c6c65720000000000000000000000000061151a565b600c8054600160a060020a031916600160a060020a03929092169190911790556113537f46442e446174616261736500000000000000000000000000000000000000000061151a565b60098054600160a060020a031916600160a060020a039290921691909117905561139c7f46442e4c6564676572000000000000000000000000000000000000000000000061151a565b600a8054600160a060020a031916600160a060020a03929092169190911790556113e57f46442e5061796f7574000000000000000000000000000000000000000000000061151a565b600b8054600160a060020a031916600160a060020a03928316179055600c541663c28b4577606560405160e060020a63ffffffff841602815260ff90911660048201527f46442e4e6577506f6c69637900000000000000000000000000000000000000006024820152604401600060405180830381600087803b151561146a57600080fd5b6102c65a03f1151561147b57600080fd5b5050600c54600160a060020a0316905063c28b4577606660405160e060020a63ffffffff841602815260ff90911660048201527f46442e46756e64657200000000000000000000000000000000000000000000006024820152604401600060405180830381600087803b15156114f057600080fd5b6102c65a03f1151561150157600080fd5b505050565b600054600160a060020a031681565b600181565b600154600090600160a060020a031663e16c7d9883836040516020015260405160e060020a63ffffffff84160281526004810191909152602401602060405180830381600087803b151561156d57600080fd5b6102c65a03f1151561157e57600080fd5b50505060405180519392505050565b600354600090600160a060020a031615806115ba57506003546115b890600160a060020a03166125aa565b155b156115cb576115c960006125ae565b505b600354600160a060020a03166338cc48316000604051602001526040518163ffffffff1660e060020a028152600401602060405180830381600087803b151561161357600080fd5b6102c65a03f1151561162457600080fd5b505050604051805160048054600160a060020a031916600160a060020a03928316179081905516905063c281d19e6000604051602001526040518163ffffffff1660e060020a028152600401602060405180830381600087803b151561168957600080fd5b6102c65a03f1151561169a57600080fd5b50505060405180519150505b90565b6116b1612e1c565b602082016040805190810160405280845181526020019190915292915050565b6000807f9ee71fae4eaec97727495a88dce95da03083cceac90064c30bd03ef65b86a3ae858560405191825260208201526040908101905180910390a1600954600160a060020a031663418cf5b186600542886040518563ffffffff1660e060020a0281526004018085815260200184600681111561174c57fe5b60ff16815260208101939093525060408083019190915260609091019250600091505180830381600087803b151561178357600080fd5b6102c65a03f1151561179457600080fd5b5050600954600160a060020a0316905063ffe280ee866000866040518463ffffffff1660e060020a0281526004018084815260200183815260200180602001828103825283818151815260200191508051906020019080838360005b838110156118085780820151838201526020016117f0565b50505050905090810190601f1680156118355780820380516001836020036101000a031916815260200191505b50945050505050600060405180830381600087803b151561185557600080fd5b6102c65a03f1151561186657600080fd5b5050600954600160a060020a0316905063c168e0378660006040516040015260405160e060020a63ffffffff841602815260048101919091526024016040805180830381600087803b15156118ba57600080fd5b6102c65a03f115156118cb57600080fd5b5050506040518051906020018051600a54929450925050600160a060020a03166350bed0438360008481604051602001526040518463ffffffff1660e060020a0281526004018084600160a060020a0316600160a060020a0316815260200183600581111561193657fe5b60ff1681526020018281526020019350505050602060405180830381600087803b151561196257600080fd5b6102c65a03f1151561197357600080fd5b505050604051805190501515611a2957600954600160a060020a031663418cf5b1866006426040518463ffffffff1660e060020a028152600401808481526020018360068111156119c057fe5b60ff168152602001828152602001807f6465636c696e653a2053656e64206661696c65642e00000000000000000000008152506020019350505050600060405180830381600087803b1515611a1457600080fd5b6102c65a03f11515611a2557600080fd5b5050505b5050505050565b6000808251611a4b85518660200151865187602001516128d4565b0190505b83518460200151018111611a87576001909101908251611a7f8560200151830386510383865187602001516128d4565b019050611a4f565b5092915050565b611a96612e1c565b6000825184511015611aaa57839150611a87565b5060016020830151846020015114611ad2578251602085015160208501518290209190201490505b8015611af05782518481815103905250825184602001818151019052505b509192915050565b611b00612e1c565b600080835185511015611b1557849250611b57565b835185518660200151010391506001905083602001518214611b4257835160208501518190209083201490505b8015611b5357835185818151039052505b8492505b505092915050565b611b67612e1c565b611a87838383612977565b611b7a612e5a565b611b82612e5a565b60008351604051805910611b935750595b818152601f19601f830116810160200160405290509150602082019050611a8781856020015186516129e6565b6000611bcd826000612a2b565b90505b919050565b60095460009081908190819081908190600160a060020a031663c168e0378a836040516040015260405160e060020a63ffffffff841602815260048101919091526024016040805180830381600087803b1515611c3157600080fd5b6102c65a03f11515611c4257600080fd5b5050506040518051906020018051600954909850600160a060020a0316915063eb80733990508a60006040516020015260405160e060020a63ffffffff84160281526004810191909152602401602060405180830381600087803b1515611ca857600080fd5b6102c65a03f11515611cb957600080fd5b5050506040518051600954909650600160a060020a03169050639d5176fd8660006040516040015260405160e060020a63ffffffff841602815260048101919091526024016040805180830381600087803b1515611d1657600080fd5b6102c65a03f11515611d2757600080fd5b5050506040518051906020018051600954909650600160a060020a0316915063cdcdb46390508660006040516060015260405160e060020a63ffffffff84160281526004810191909152602401606060405180830381600087803b1515611d8d57600080fd5b6102c65a03f11515611d9e57600080fd5b50505060405180519060200180519060200180519550600193505050505b600560ff821611611e0f578760ff821660068110611dd657fe5b6020020151600260ff831660068110611deb57fe5b60208082049092015460ff929091066101000a900416029190910190600101611dbc565b811515611e29578751620186a0811515611e2557fe5b0491505b831515611eba57600954600160a060020a031663802de8fc8684620186a08a02811515611e5257fe5b0485620186a0811515611e6157fe5b0460405160e060020a63ffffffff8616028152600481019390935260248301919091526044820152606401600060405180830381600087803b1515611ea557600080fd5b6102c65a03f11515611eb657600080fd5b5050505b600954600160a060020a031663ffe280ee8a848a6040518463ffffffff1660e060020a0281526004018084815260200183815260200180602001828103825283818151815260200191508051906020019080838360005b83811015611f29578082015183820152602001611f11565b50505050905090810190601f168015611f565780820380516001836020036101000a031916815260200191505b50945050505050600060405180830381600087803b1515611f7657600080fd5b6102c65a03f11515611f8757600080fd5b5050600954600160a060020a0316905063418cf5b18a6001426040518463ffffffff1660e060020a02815260040180848152602001836006811115611fc857fe5b60ff168152602001828152602001807f506f6c69637920756e6465727772697474656e206279206f7261636c650000008152506020019350505050600060405180830381600087803b151561201c57600080fd5b6102c65a03f1151561202d57600080fd5b507f70385f0d2eec84d8ff6456734404ae65b06b980e7360ea503ca23dcc56a1c51591508a9050895160208b015160408c015160608d015160808e015160a08f015160405196875260208701959095526040808701949094526060860192909252608085015260a084015260c083019190915260e0909101905180910390a1600b54600160a060020a031663746899908a87610384870160405160e060020a63ffffffff8616028152600481019390935260248301919091526044820152606401600060405180830381600087803b151561210757600080fd5b6102c65a03f1151561211857600080fd5b505050505050505050505050565b61212e612e5a565b612136612e5a565b6000806000612143612e5a565b60206040518059106121525750595b818152601f19601f83011681016020016040529050945060009350600092505b60208310156121e5576008830260020a870291507fff000000000000000000000000000000000000000000000000000000000000008216156121da57818585815181106121bb57fe5b906020010190600160f860020a031916908160001a9053506001909301925b600190920191612172565b836040518059106121f35750595b818152601f19601f830116810160200160405290509050600092505b838310156122645784838151811061222357fe5b016020015160f860020a900460f860020a0281848151811061224157fe5b906020010190600160f860020a031916908160001a90535060019092019161220f565b9695505050505050565b612276612e5a565b6122a18484846020604051908101604052806000815250602060405190810160405260008152612b99565b949350505050565b6003546000908190600160a060020a031615806122d857506003546122d690600160a060020a03166125aa565b155b156122e9576122e760006125ae565b505b600354600160a060020a03166338cc48316000604051602001526040518163ffffffff1660e060020a028152600401602060405180830381600087803b151561233157600080fd5b6102c65a03f1151561234257600080fd5b505050604051805160048054600160a060020a031916600160a060020a039283161790819055169050632ef3accc86856000604051602001526040518363ffffffff1660e060020a0281526004018080602001838152602001828103825284818151815260200191508051906020019080838360005b838110156123d05780820151838201526020016123b8565b50505050905090810190601f1680156123fd5780820380516001836020036101000a031916815260200191505b509350505050602060405180830381600087803b151561241c57600080fd5b6102c65a03f1151561242d57600080fd5b5050506040518051915050670de0b6b3a76400003a84020181111561245557600091506125a2565b600454600160a060020a031663c51be90f82600088888883604051602001526040518663ffffffff1660e060020a028152600401808581526020018060200180602001848152602001838103835286818151815260200191508051906020019080838360005b838110156124d35780820151838201526020016124bb565b50505050905090810190601f1680156125005780820380516001836020036101000a031916815260200191505b50838103825285818151815260200191508051906020019080838360005b8381101561253657808201518382015260200161251e565b50505050905090810190601f1680156125635780820380516001836020036101000a031916815260200191505b5096505050505050506020604051808303818588803b151561258457600080fd5b6125ee5a03f1151561259557600080fd5b5050505060405180519250505b509392505050565b3b90565b6000806125ce731d3b2638a7cc9f2cb3d298a3da7a90b67e5506ed6125aa565b111561263e5760038054600160a060020a031916731d3b2638a7cc9f2cb3d298a3da7a90b67e5506ed17905561263660408051908101604052600b81527f6574685f6d61696e6e65740000000000000000000000000000000000000000006020820152612e09565b506001611bd0565b600061265d73c03a2615d5efaf5f49f60b7bb6583eaec212fdf16125aa565b11156126c55760038054600160a060020a03191673c03a2615d5efaf5f49f60b7bb6583eaec212fdf117905561263660408051908101604052600c81527f6574685f726f707374656e3300000000000000000000000000000000000000006020820152612e09565b60006126e473b7a07bcf2ba2f2703b24c0691b5278999c59ac7e6125aa565b111561274c5760038054600160a060020a03191673b7a07bcf2ba2f2703b24c0691b5278999c59ac7e17905561263660408051908101604052600981527f6574685f6b6f76616e00000000000000000000000000000000000000000000006020820152612e09565b600061276b73146500cfd35b22e4a392fe0adc06de1a1368ed486125aa565b11156127d35760038054600160a060020a03191673146500cfd35b22e4a392fe0adc06de1a1368ed4817905561263660408051908101604052600b81527f6574685f72696e6b6562790000000000000000000000000000000000000000006020820152612e09565b60006127f2736f485c8bf6fc43ea212e93bbf8ce046c7f1cb4756125aa565b1115612826575060038054600160a060020a031916736f485c8bf6fc43ea212e93bbf8ce046c7f1cb4751790556001611bd0565b60006128457320e12a1f859b3feae5fb2a0a32c18f5a65555bbf6125aa565b1115612879575060038054600160a060020a0319167320e12a1f859b3feae5fb2a0a32c18f5a65555bbf1790556001611bd0565b60006128987351efaf4c8b3c9afbd5ab9f4bbc82784ab6ef8faa6125aa565b11156128cc575060038054600160a060020a0319167351efaf4c8b3c9afbd5ab9f4bbc82784ab6ef8faa1790556001611bd0565b506000919050565b600080808080888711612965576020871161292b5760018760200360080260020a031980875116888b038a018a96505b818388511614612920576001870196819010612904578b8b0196505b50505083945061296b565b8686209150879350600092505b86890383116129655750858320818114156129555783945061296b565b6001938401939290920191612938565b88880194505b50505050949350505050565b61297f612e1c565b600061299785518660200151865187602001516128d4565b905084602001516020808501919091528501518103835284518560200151018114156129c657600085526129dd565b835183510185818151039052508351810160208601525b50909392505050565b60005b60208210612a0c57825184526020840193506020830192506020820391506129e9565b6001826020036101000a03905080198351168185511617909352505050565b6000612a35612e5a565b5082600080805b8351811015612b7c577f3000000000000000000000000000000000000000000000000000000000000000848281518110612a7257fe5b016020015160f860020a900460f860020a02600160f860020a03191610158015612ae357507f3900000000000000000000000000000000000000000000000000000000000000848281518110612ac457fe5b016020015160f860020a900460f860020a02600160f860020a03191611155b15612b39578115612b0257851515612afa57612b7c565b600019909501945b600a830292506030848281518110612b1657fe5b016020015160f860020a900460f860020a0260f860020a90040383019250612b74565b838181518110612b4557fe5b016020015160f860020a900460f860020a02600160f860020a031916602e60f860020a021415612b7457600191505b600101612a3c565b6000861115612b8e5785600a0a830292505b509095945050505050565b612ba1612e5a565b612ba9612e5a565b612bb1612e5a565b612bb9612e5a565b612bc1612e5a565b612bc9612e5a565b612bd1612e5a565b612bd9612e5a565b6000808e98508d97508c96508b95508a94508451865188518a518c5101010101604051805910612c065750595b818152601f19601f83011681016020016040529050935083925060009150600090505b8851811015612c8257888181518110612c3e57fe5b016020015160f860020a900460f860020a02838380600101945081518110612c6257fe5b906020010190600160f860020a031916908160001a905350600101612c29565b5060005b8751811015612cdf57878181518110612c9b57fe5b016020015160f860020a900460f860020a02838380600101945081518110612cbf57fe5b906020010190600160f860020a031916908160001a905350600101612c86565b5060005b8651811015612d3c57868181518110612cf857fe5b016020015160f860020a900460f860020a02838380600101945081518110612d1c57fe5b906020010190600160f860020a031916908160001a905350600101612ce3565b5060005b8551811015612d9957858181518110612d5557fe5b016020015160f860020a900460f860020a02838380600101945081518110612d7957fe5b906020010190600160f860020a031916908160001a905350600101612d40565b5060005b8451811015612df657848181518110612db257fe5b016020015160f860020a900460f860020a02838380600101945081518110612dd657fe5b906020010190600160f860020a031916908160001a905350600101612d9d565b50909d9c50505050505050505050505050565b6005818051610766929160200190612e6c565b604080519081016040526000808252602082015290565b60c06040519081016040526006815b6000815260200190600190039081612e425790505090565b60206040519081016040526000815290565b828054600181600116156101000203166002900490600052602060002090601f016020900481019282601f10612ead57805160ff1916838001178555612eda565b82800160010185558215612eda579182015b82811115612eda578251825591602001919060010190612ebf565b50612ee6929150612eea565b5090565b6116a691905b80821115612ee65760008155600101612ef0565b60008054600160a060020a03909216600160a060020a031992831681179091556001805490921617815590565b600354600160a060020a03161580612f5b5750600354612f5990600160a060020a03166125aa565b155b15612f6c57612f6a60006125ae565b505b600354600160a060020a03166338cc48316000604051602001526040518163ffffffff1660e060020a028152600401602060405180830381600087803b1515612fb457600080fd5b6102c65a03f11515612fc557600080fd5b505050604051805160048054600160a060020a031916600160a060020a03928316179081905516905063ca6ad1e48260405160e060020a63ffffffff84160281526004810191909152602401600060405180830381600087803b151561302a57600080fd5b6102c65a03f1151561073257600080fd003f247b5b646563727970745d20424d7971347a6852714a386972326b4d3654526e77686f5536702f7567726a337768644b4f767a323658766758374145657358707a79695931357730624b6c744c794772325a4931376f5435673045626c55316b412f774d50533556395069426b416b73794149344c57382b346f5733727342597778576a2f50356b477473754d4c516a2b76666a4557554d4c2f494f36412b477358347552722f716354746267726f4f6f7239496973396f694b4c6d735731377d292e726174696e67735b305d5b276f62736572766174696f6e73272c276c6174653135272c276c6174653330272c276c6174653435272c2763616e63656c6c6564272c276469766572746564272c276172726976616c416972706f72744673436f6465272c27646570617274757265416972706f72744673436f6465275da165627a7a72305820e3388cb5ec264738448d13504001edb16ace3eff64b48265d3efd8b2497e38d50029",
  "source": "/**\n * FlightDelay with Oraclized Underwriting and Payout\n *\n * @description\tUnderwrite contract\n * @copyright (c) 2017 etherisc GmbH\n * @author Christoph Mussenbrock\n */\n\npragma solidity ^0.4.11;\n\nimport \"./FlightDelayControlledContract.sol\";\nimport \"./FlightDelayConstants.sol\";\nimport \"./FlightDelayDatabaseInterface.sol\";\nimport \"./FlightDelayAccessControllerInterface.sol\";\nimport \"./FlightDelayLedgerInterface.sol\";\nimport \"./FlightDelayUnderwriteInterface.sol\";\nimport \"./FlightDelayPayoutInterface.sol\";\nimport \"./FlightDelayOraclizeInterface.sol\";\nimport \"./convertLib.sol\";\nimport \"./../vendors/strings.sol\";\n\n\ncontract FlightDelayUnderwrite is FlightDelayControlledContract, FlightDelayConstants, FlightDelayOraclizeInterface, ConvertLib {\n\n    using strings for *;\n\n    FlightDelayDatabaseInterface FD_DB;\n    FlightDelayLedgerInterface FD_LG;\n    FlightDelayPayoutInterface FD_PY;\n    FlightDelayAccessControllerInterface FD_AC;\n\n    function FlightDelayUnderwrite(address _controller) public {\n        setController(_controller);\n        oraclize_setCustomGasPrice(ORACLIZE_GASPRICE);\n    }\n\n    function setContracts() public onlyController {\n        FD_AC = FlightDelayAccessControllerInterface(getContract(\"FD.AccessController\"));\n        FD_DB = FlightDelayDatabaseInterface(getContract(\"FD.Database\"));\n        FD_LG = FlightDelayLedgerInterface(getContract(\"FD.Ledger\"));\n        FD_PY = FlightDelayPayoutInterface(getContract(\"FD.Payout\"));\n\n        FD_AC.setPermissionById(101, \"FD.NewPolicy\");\n        FD_AC.setPermissionById(102, \"FD.Funder\");\n    }\n\n    /*\n     * @dev Fund contract\n     */\n    function () payable {\n        require(FD_AC.checkPermission(102, msg.sender));\n\n        // todo: bookkeeping\n        // todo: fire funding event\n    }\n\n    function scheduleUnderwriteOraclizeCall(uint _policyId, bytes32 _carrierFlightNumber) public {\n        require(FD_AC.checkPermission(101, msg.sender));\n\n        string memory oraclizeUrl = strConcat(\n            ORACLIZE_RATINGS_BASE_URL,\n            b32toString(_carrierFlightNumber),\n            ORACLIZE_RATINGS_QUERY\n        );\n\n// --> debug-mode\n//            LogUint(\"_policyId\", _policyId);\n//            LogBytes32Str(\"_carrierFlightNumber\",_carrierFlightNumber);\n//            LogString(\"oraclizeUrl\", oraclizeUrl);\n// <-- debug-mode\n\n        bytes32 queryId = oraclize_query(\"nested\", oraclizeUrl, ORACLIZE_GAS);\n\n        // call oraclize to get Flight Stats; this will also call underwrite()\n        FD_DB.createOraclizeCallback(\n            queryId,\n            _policyId,\n            oraclizeState.ForUnderwriting,\n            0\n        );\n\n        LogOraclizeCall(_policyId, queryId, oraclizeUrl, 0);\n    }\n\n    function __callback(bytes32 _queryId, string _result, bytes _proof) onlyOraclizeOr(getContract('FD.Emergency')) public {\n\n        var (policyId,) = FD_DB.getOraclizeCallback(_queryId);\n        LogOraclizeCallback(policyId, _queryId, _result, _proof);\n\n        var slResult = _result.toSlice();\n\n        // we expect result to contain 8 values, something like\n        // \"[61, 10, 4, 3, 0, 0, \\\"CUN\\\", \\\"SFO\\\"]\" ->\n        // ['observations','late15','late30','late45','cancelled','diverted','arrivalAirportFsCode','departureAirportFsCode']\n        if (bytes(_result).length == 0) {\n            decline(policyId, \"Declined (empty result)\", _proof);\n        } else {\n            // now slice the string using\n            // https://github.com/Arachnid/solidity-stringutils\n            if (slResult.count(\", \".toSlice()) != 7) {\n                // check if result contains 8 values\n                decline(policyId, \"Declined (invalid result)\", _proof);\n            } else {\n                slResult.beyond(\"[\".toSlice()).until(\"]\".toSlice());\n\n                uint observations = parseInt(slResult.split(\", \".toSlice()).toString());\n\n                // decline on < minObservations observations,\n                // can't calculate reasonable probabibilities\n                if (observations <= MIN_OBSERVATIONS) {\n                    decline(policyId, \"Declined (too few observations)\", _proof);\n                } else {\n                    uint[6] memory statistics;\n                    // calculate statistics (scaled by 10000; 1% => 100)\n                    statistics[0] = observations;\n                    for (uint i = 1; i <= 5; i++) {\n                        statistics[i] = parseInt(slResult.split(\", \".toSlice()).toString()) * 10000/observations;\n                    }\n\n                    underwrite(policyId, statistics, _proof);\n\n//                    var origin = slResult.split(\", \".toSlice());\n//                    for (uint j = 0; j < FD_DB.countOrigins(); j++) {\n//                        if (b32toString(FD_DB.getOriginByIndex(j)).toSlice().equals(origin)) {\n//                            underwrite(policyId, statistics, _proof);\n//                            return;\n//                        }\n//                    }\n//\n//                    var destination = slResult.split(\", \".toSlice());\n//                    for (uint k = 0; k < FD_DB.countDestinations(); k++) {\n//                        if (b32toString(FD_DB.getDestinationByIndex(k)).toSlice().equals(destination)) {\n//                           underwrite(policyId, statistics, _proof);\n//                           return;\n//                        }\n//                    }\n//\n//                    decline(policyId, \"Not acceptable airport\", _proof);\n                }\n            }\n        }\n    } // __callback\n\n    function externalDecline(uint _policyId, bytes32 _reason) public {\n        require(msg.sender == FD_CI.getContract(\"FD.CustomersAdmin\"));\n\n        LogPolicyDeclined(_policyId, _reason);\n\n        FD_DB.setState(\n            _policyId,\n            policyState.Declined,\n            now,\n            _reason\n        );\n\n        FD_DB.setWeight(_policyId, 0, \"\");\n\n        var (customer, premium) = FD_DB.getCustomerPremium(_policyId);\n\n        if (!FD_LG.sendFunds(customer, Acc.Premium, premium)) {\n            FD_DB.setState(\n                _policyId,\n                policyState.SendFailed,\n                now,\n                \"decline: Send failed.\"\n            );\n        }\n    }\n\n    function decline(uint _policyId, bytes32 _reason, bytes _proof)\tinternal {\n        LogPolicyDeclined(_policyId, _reason);\n\n        FD_DB.setState(\n            _policyId,\n            policyState.Declined,\n            now,\n            _reason\n        );\n\n        FD_DB.setWeight(_policyId, 0, _proof);\n\n        var (customer, premium) = FD_DB.getCustomerPremium(_policyId);\n\n        // TODO: LOG\n        if (!FD_LG.sendFunds(customer, Acc.Premium, premium)) {\n            FD_DB.setState(\n                _policyId,\n                policyState.SendFailed,\n                now,\n                \"decline: Send failed.\"\n            );\n        }\n    }\n\n    function underwrite(uint _policyId, uint[6] _statistics, bytes _proof) internal {\n        var (, premium) = FD_DB.getCustomerPremium(_policyId); // throws if _policyId invalid\n        bytes32 riskId = FD_DB.getRiskId(_policyId);\n\n        var (, premiumMultiplier) = FD_DB.getPremiumFactors(riskId);\n        var (, , arrivalTime) = FD_DB.getRiskParameters(riskId);\n\n        uint weight;\n        for (uint8 i = 1; i <= 5; i++ ) {\n            weight += WEIGHT_PATTERN[i] * _statistics[i];\n            // 1% = 100 / 100% = 10,000\n        }\n        // to avoid div0 in the payout section,\n        // we have to make a minimal assumption on p.weight.\n        if (weight == 0) {\n            weight = 100000 / _statistics[0];\n        }\n\n        // we calculate the factors to limit cluster risks.\n        if (premiumMultiplier == 0) {\n            // it's the first call, we accept any premium\n            FD_DB.setPremiumFactors(riskId, premium * 100000 / weight, 100000 / weight);\n        }\n\n        FD_DB.setWeight(_policyId, weight, _proof);\n\n        FD_DB.setState(\n            _policyId,\n            policyState.Accepted,\n            now,\n            \"Policy underwritten by oracle\"\n        );\n\n        LogPolicyAccepted(\n            _policyId,\n            _statistics[0],\n            _statistics[1],\n            _statistics[2],\n            _statistics[3],\n            _statistics[4],\n            _statistics[5]\n        );\n\n        // schedule payout Oracle\n        FD_PY.schedulePayoutOraclizeCall(_policyId, riskId, arrivalTime + CHECK_PAYOUT_OFFSET);\n    }\n}\n",
  "sourcePath": "/Users/A/Data/Altoros/1244-Etherisc/repos/flightdelay/contracts/FlightDelayUnderwrite.sol",
  "compiler": {
    "name": "solc",
    "version": "0.4.18+commit.9cf6e910.Emscripten.clang"
  },
  "schemaVersion": "1.0.1",
  "updatedAt": "2018-05-08T18:38:14.994Z"
}